{
  "contractName": "CryptoGramOld",
  "abi": [
    {
      "anonymous": false,
      "inputs": [
        {
          "indexed": false,
          "internalType": "uint256",
          "name": "id",
          "type": "uint256"
        },
        {
          "indexed": false,
          "internalType": "uint256",
          "name": "postID",
          "type": "uint256"
        },
        {
          "indexed": false,
          "internalType": "string",
          "name": "comment",
          "type": "string"
        },
        {
          "indexed": false,
          "internalType": "address",
          "name": "author",
          "type": "address"
        },
        {
          "indexed": false,
          "internalType": "uint256",
          "name": "timeStamp",
          "type": "uint256"
        }
      ],
      "name": "CommentAdded",
      "type": "event"
    },
    {
      "anonymous": false,
      "inputs": [
        {
          "indexed": false,
          "internalType": "uint256",
          "name": "id",
          "type": "uint256"
        },
        {
          "indexed": false,
          "internalType": "address",
          "name": "author",
          "type": "address"
        },
        {
          "indexed": false,
          "internalType": "uint256",
          "name": "timeStamp",
          "type": "uint256"
        }
      ],
      "name": "CommentDeleted",
      "type": "event"
    },
    {
      "anonymous": false,
      "inputs": [
        {
          "indexed": false,
          "internalType": "uint256",
          "name": "id",
          "type": "uint256"
        },
        {
          "indexed": false,
          "internalType": "uint256",
          "name": "postID",
          "type": "uint256"
        },
        {
          "indexed": false,
          "internalType": "string",
          "name": "comment",
          "type": "string"
        },
        {
          "indexed": false,
          "internalType": "address",
          "name": "author",
          "type": "address"
        },
        {
          "indexed": false,
          "internalType": "uint256",
          "name": "tipAmount",
          "type": "uint256"
        },
        {
          "indexed": false,
          "internalType": "uint256",
          "name": "timeStamp",
          "type": "uint256"
        }
      ],
      "name": "CommentTipped",
      "type": "event"
    },
    {
      "anonymous": false,
      "inputs": [
        {
          "indexed": false,
          "internalType": "uint256",
          "name": "id",
          "type": "uint256"
        },
        {
          "indexed": false,
          "internalType": "string",
          "name": "hash",
          "type": "string"
        },
        {
          "indexed": false,
          "internalType": "string",
          "name": "description",
          "type": "string"
        },
        {
          "indexed": false,
          "internalType": "uint256",
          "name": "tipAmount",
          "type": "uint256"
        },
        {
          "indexed": false,
          "internalType": "address payable",
          "name": "author",
          "type": "address"
        },
        {
          "indexed": false,
          "internalType": "uint256",
          "name": "timeStamp",
          "type": "uint256"
        }
      ],
      "name": "ImageAdded",
      "type": "event"
    },
    {
      "anonymous": false,
      "inputs": [
        {
          "indexed": false,
          "internalType": "uint256",
          "name": "id",
          "type": "uint256"
        },
        {
          "indexed": false,
          "internalType": "address",
          "name": "author",
          "type": "address"
        },
        {
          "indexed": false,
          "internalType": "uint256",
          "name": "timeStamp",
          "type": "uint256"
        }
      ],
      "name": "ImageDeleted",
      "type": "event"
    },
    {
      "anonymous": false,
      "inputs": [
        {
          "indexed": false,
          "internalType": "uint256",
          "name": "id",
          "type": "uint256"
        },
        {
          "indexed": false,
          "internalType": "string",
          "name": "hash",
          "type": "string"
        },
        {
          "indexed": false,
          "internalType": "string",
          "name": "description",
          "type": "string"
        },
        {
          "indexed": false,
          "internalType": "uint256",
          "name": "tipAmount",
          "type": "uint256"
        },
        {
          "indexed": false,
          "internalType": "address payable",
          "name": "author",
          "type": "address"
        },
        {
          "indexed": false,
          "internalType": "uint256",
          "name": "timeStamp",
          "type": "uint256"
        }
      ],
      "name": "ImageTipped",
      "type": "event"
    },
    {
      "anonymous": false,
      "inputs": [
        {
          "indexed": false,
          "internalType": "uint256",
          "name": "id",
          "type": "uint256"
        },
        {
          "indexed": false,
          "internalType": "uint256",
          "name": "imageID",
          "type": "uint256"
        },
        {
          "indexed": false,
          "internalType": "string",
          "name": "title",
          "type": "string"
        },
        {
          "indexed": false,
          "internalType": "address",
          "name": "author",
          "type": "address"
        },
        {
          "indexed": false,
          "internalType": "string",
          "name": "link",
          "type": "string"
        },
        {
          "indexed": false,
          "internalType": "uint256",
          "name": "timeStamp",
          "type": "uint256"
        }
      ],
      "name": "PostAdded",
      "type": "event"
    },
    {
      "anonymous": false,
      "inputs": [
        {
          "indexed": false,
          "internalType": "uint256",
          "name": "id",
          "type": "uint256"
        },
        {
          "indexed": false,
          "internalType": "uint256",
          "name": "timeStamp",
          "type": "uint256"
        }
      ],
      "name": "PostDeleted",
      "type": "event"
    },
    {
      "anonymous": false,
      "inputs": [
        {
          "indexed": false,
          "internalType": "address",
          "name": "userAccount",
          "type": "address"
        },
        {
          "indexed": false,
          "internalType": "string",
          "name": "userName",
          "type": "string"
        },
        {
          "indexed": false,
          "internalType": "string",
          "name": "status",
          "type": "string"
        },
        {
          "indexed": false,
          "internalType": "string",
          "name": "location",
          "type": "string"
        },
        {
          "indexed": false,
          "internalType": "string",
          "name": "phone",
          "type": "string"
        },
        {
          "indexed": false,
          "internalType": "string",
          "name": "email",
          "type": "string"
        },
        {
          "indexed": false,
          "internalType": "string",
          "name": "occupation",
          "type": "string"
        },
        {
          "indexed": false,
          "internalType": "uint256",
          "name": "timeStamp",
          "type": "uint256"
        }
      ],
      "name": "UserAdded",
      "type": "event"
    },
    {
      "anonymous": false,
      "inputs": [
        {
          "indexed": false,
          "internalType": "address",
          "name": "userAccount",
          "type": "address"
        },
        {
          "indexed": false,
          "internalType": "uint256",
          "name": "timeStamp",
          "type": "uint256"
        }
      ],
      "name": "UserDeleted",
      "type": "event"
    },
    {
      "anonymous": false,
      "inputs": [
        {
          "indexed": false,
          "internalType": "address",
          "name": "userAccount",
          "type": "address"
        },
        {
          "indexed": false,
          "internalType": "string",
          "name": "valueChanged",
          "type": "string"
        },
        {
          "indexed": false,
          "internalType": "string",
          "name": "newValue",
          "type": "string"
        },
        {
          "indexed": false,
          "internalType": "uint256",
          "name": "timeStamp",
          "type": "uint256"
        }
      ],
      "name": "UserUpdated",
      "type": "event"
    },
    {
      "payable": false,
      "stateMutability": "nonpayable",
      "type": "fallback"
    },
    {
      "constant": true,
      "inputs": [],
      "name": "commentCount",
      "outputs": [
        {
          "internalType": "uint256",
          "name": "",
          "type": "uint256"
        }
      ],
      "payable": false,
      "stateMutability": "view",
      "type": "function"
    },
    {
      "constant": true,
      "inputs": [
        {
          "internalType": "uint256",
          "name": "",
          "type": "uint256"
        }
      ],
      "name": "comments",
      "outputs": [
        {
          "internalType": "uint256",
          "name": "id",
          "type": "uint256"
        },
        {
          "internalType": "uint256",
          "name": "postID",
          "type": "uint256"
        },
        {
          "internalType": "string",
          "name": "comment",
          "type": "string"
        },
        {
          "internalType": "address payable",
          "name": "author",
          "type": "address"
        },
        {
          "internalType": "uint256",
          "name": "tipAmount",
          "type": "uint256"
        },
        {
          "internalType": "uint256",
          "name": "timeStamp",
          "type": "uint256"
        }
      ],
      "payable": false,
      "stateMutability": "view",
      "type": "function"
    },
    {
      "constant": true,
      "inputs": [],
      "name": "contractDescription",
      "outputs": [
        {
          "internalType": "string",
          "name": "",
          "type": "string"
        }
      ],
      "payable": false,
      "stateMutability": "view",
      "type": "function"
    },
    {
      "constant": true,
      "inputs": [
        {
          "internalType": "uint256",
          "name": "",
          "type": "uint256"
        }
      ],
      "name": "deletedComments",
      "outputs": [
        {
          "internalType": "bool",
          "name": "",
          "type": "bool"
        }
      ],
      "payable": false,
      "stateMutability": "view",
      "type": "function"
    },
    {
      "constant": true,
      "inputs": [
        {
          "internalType": "uint256",
          "name": "",
          "type": "uint256"
        }
      ],
      "name": "deletedImages",
      "outputs": [
        {
          "internalType": "bool",
          "name": "",
          "type": "bool"
        }
      ],
      "payable": false,
      "stateMutability": "view",
      "type": "function"
    },
    {
      "constant": true,
      "inputs": [
        {
          "internalType": "uint256",
          "name": "",
          "type": "uint256"
        }
      ],
      "name": "deletedPosts",
      "outputs": [
        {
          "internalType": "bool",
          "name": "",
          "type": "bool"
        }
      ],
      "payable": false,
      "stateMutability": "view",
      "type": "function"
    },
    {
      "constant": true,
      "inputs": [],
      "name": "imageCount",
      "outputs": [
        {
          "internalType": "uint256",
          "name": "",
          "type": "uint256"
        }
      ],
      "payable": false,
      "stateMutability": "view",
      "type": "function"
    },
    {
      "constant": true,
      "inputs": [
        {
          "internalType": "uint256",
          "name": "",
          "type": "uint256"
        }
      ],
      "name": "images",
      "outputs": [
        {
          "internalType": "uint256",
          "name": "id",
          "type": "uint256"
        },
        {
          "internalType": "string",
          "name": "hash",
          "type": "string"
        },
        {
          "internalType": "string",
          "name": "description",
          "type": "string"
        },
        {
          "internalType": "uint256",
          "name": "tipAmount",
          "type": "uint256"
        },
        {
          "internalType": "address payable",
          "name": "author",
          "type": "address"
        },
        {
          "internalType": "uint256",
          "name": "timeStamp",
          "type": "uint256"
        }
      ],
      "payable": false,
      "stateMutability": "view",
      "type": "function"
    },
    {
      "constant": true,
      "inputs": [],
      "name": "name",
      "outputs": [
        {
          "internalType": "string",
          "name": "",
          "type": "string"
        }
      ],
      "payable": false,
      "stateMutability": "view",
      "type": "function"
    },
    {
      "constant": true,
      "inputs": [],
      "name": "postCount",
      "outputs": [
        {
          "internalType": "uint256",
          "name": "",
          "type": "uint256"
        }
      ],
      "payable": false,
      "stateMutability": "view",
      "type": "function"
    },
    {
      "constant": true,
      "inputs": [
        {
          "internalType": "uint256",
          "name": "",
          "type": "uint256"
        }
      ],
      "name": "posts",
      "outputs": [
        {
          "internalType": "uint256",
          "name": "id",
          "type": "uint256"
        },
        {
          "internalType": "uint256",
          "name": "imageID",
          "type": "uint256"
        },
        {
          "internalType": "string",
          "name": "title",
          "type": "string"
        },
        {
          "internalType": "address",
          "name": "author",
          "type": "address"
        },
        {
          "internalType": "string",
          "name": "link",
          "type": "string"
        },
        {
          "internalType": "uint256",
          "name": "timeStamp",
          "type": "uint256"
        }
      ],
      "payable": false,
      "stateMutability": "view",
      "type": "function"
    },
    {
      "constant": true,
      "inputs": [],
      "name": "userCount",
      "outputs": [
        {
          "internalType": "uint256",
          "name": "",
          "type": "uint256"
        }
      ],
      "payable": false,
      "stateMutability": "view",
      "type": "function"
    },
    {
      "constant": true,
      "inputs": [
        {
          "internalType": "address",
          "name": "",
          "type": "address"
        }
      ],
      "name": "users",
      "outputs": [
        {
          "internalType": "address",
          "name": "userAccount",
          "type": "address"
        },
        {
          "internalType": "string",
          "name": "userName",
          "type": "string"
        },
        {
          "internalType": "string",
          "name": "status",
          "type": "string"
        },
        {
          "internalType": "string",
          "name": "location",
          "type": "string"
        },
        {
          "internalType": "string",
          "name": "phone",
          "type": "string"
        },
        {
          "internalType": "string",
          "name": "email",
          "type": "string"
        },
        {
          "internalType": "string",
          "name": "occupation",
          "type": "string"
        },
        {
          "internalType": "uint256",
          "name": "timeStamp",
          "type": "uint256"
        }
      ],
      "payable": false,
      "stateMutability": "view",
      "type": "function"
    },
    {
      "constant": false,
      "inputs": [
        {
          "internalType": "uint256",
          "name": "_id",
          "type": "uint256"
        }
      ],
      "name": "tipImageOwner",
      "outputs": [],
      "payable": true,
      "stateMutability": "payable",
      "type": "function"
    },
    {
      "constant": false,
      "inputs": [
        {
          "internalType": "string",
          "name": "_hash",
          "type": "string"
        },
        {
          "internalType": "string",
          "name": "_desc",
          "type": "string"
        }
      ],
      "name": "uploadImage",
      "outputs": [],
      "payable": false,
      "stateMutability": "nonpayable",
      "type": "function"
    },
    {
      "constant": false,
      "inputs": [
        {
          "internalType": "uint256",
          "name": "_id",
          "type": "uint256"
        }
      ],
      "name": "deleteImage",
      "outputs": [],
      "payable": false,
      "stateMutability": "nonpayable",
      "type": "function"
    },
    {
      "constant": false,
      "inputs": [
        {
          "internalType": "string",
          "name": "_userName",
          "type": "string"
        },
        {
          "internalType": "string",
          "name": "_status",
          "type": "string"
        },
        {
          "internalType": "string",
          "name": "_location",
          "type": "string"
        },
        {
          "internalType": "string",
          "name": "_phone",
          "type": "string"
        },
        {
          "internalType": "string",
          "name": "_email",
          "type": "string"
        },
        {
          "internalType": "string",
          "name": "_occupation",
          "type": "string"
        }
      ],
      "name": "addUser",
      "outputs": [],
      "payable": false,
      "stateMutability": "nonpayable",
      "type": "function"
    },
    {
      "constant": false,
      "inputs": [],
      "name": "deleteUser",
      "outputs": [],
      "payable": false,
      "stateMutability": "nonpayable",
      "type": "function"
    },
    {
      "constant": false,
      "inputs": [
        {
          "internalType": "uint256",
          "name": "_imageID",
          "type": "uint256"
        },
        {
          "internalType": "string",
          "name": "_title",
          "type": "string"
        },
        {
          "internalType": "string",
          "name": "_link",
          "type": "string"
        }
      ],
      "name": "makePost",
      "outputs": [],
      "payable": false,
      "stateMutability": "nonpayable",
      "type": "function"
    },
    {
      "constant": false,
      "inputs": [
        {
          "internalType": "uint256",
          "name": "_postID",
          "type": "uint256"
        }
      ],
      "name": "deletePost",
      "outputs": [],
      "payable": false,
      "stateMutability": "nonpayable",
      "type": "function"
    },
    {
      "constant": false,
      "inputs": [
        {
          "internalType": "uint256",
          "name": "_postID",
          "type": "uint256"
        },
        {
          "internalType": "string",
          "name": "_comment",
          "type": "string"
        }
      ],
      "name": "comment",
      "outputs": [],
      "payable": false,
      "stateMutability": "nonpayable",
      "type": "function"
    },
    {
      "constant": false,
      "inputs": [
        {
          "internalType": "uint256",
          "name": "_commentID",
          "type": "uint256"
        }
      ],
      "name": "tipComment",
      "outputs": [],
      "payable": true,
      "stateMutability": "payable",
      "type": "function"
    },
    {
      "constant": false,
      "inputs": [
        {
          "internalType": "uint256",
          "name": "_commentID",
          "type": "uint256"
        }
      ],
      "name": "deleteComment",
      "outputs": [],
      "payable": false,
      "stateMutability": "nonpayable",
      "type": "function"
    },
    {
      "constant": false,
      "inputs": [
        {
          "internalType": "string",
          "name": "_userName",
          "type": "string"
        }
      ],
      "name": "setUserName",
      "outputs": [],
      "payable": false,
      "stateMutability": "nonpayable",
      "type": "function"
    },
    {
      "constant": false,
      "inputs": [
        {
          "internalType": "string",
          "name": "_location",
          "type": "string"
        }
      ],
      "name": "setLocation",
      "outputs": [],
      "payable": false,
      "stateMutability": "nonpayable",
      "type": "function"
    },
    {
      "constant": false,
      "inputs": [
        {
          "internalType": "string",
          "name": "_phone",
          "type": "string"
        }
      ],
      "name": "setPhone",
      "outputs": [],
      "payable": false,
      "stateMutability": "nonpayable",
      "type": "function"
    },
    {
      "constant": false,
      "inputs": [
        {
          "internalType": "string",
          "name": "_email",
          "type": "string"
        }
      ],
      "name": "setEmail",
      "outputs": [],
      "payable": false,
      "stateMutability": "nonpayable",
      "type": "function"
    },
    {
      "constant": false,
      "inputs": [
        {
          "internalType": "string",
          "name": "_occupation",
          "type": "string"
        }
      ],
      "name": "setOccupation",
      "outputs": [],
      "payable": false,
      "stateMutability": "nonpayable",
      "type": "function"
    }
  ],
  "bytecode": "0x60806040526040518060600160405280603e815260200162006849603e9139600090805190602001906200003592919062000090565b506040518060c00160405280608181526020016200688760819139600190805190602001906200006792919062000090565b5060006002556000600355600060045560006005553480156200008957600080fd5b506200013f565b828054600181600116156101000203166002900490600052602060002090601f016020900481019282601f10620000d357805160ff191683800117855562000104565b8280016001018555821562000104579182015b8281111562000103578251825591602001919060010190620000e6565b5b50905062000113919062000117565b5090565b6200013c91905b80821115620001385760008160009055506001016200011e565b5090565b90565b6166fa806200014f6000396000f3fe6080604052600436106101b75760003560e01c806374d0d45d116100ec5780638ebb4c151161008a578063a91b831411610064578063a91b8314146113ff578063a9899aa61461155e578063b858f427146116c7578063dfe68b541461171a576101b7565b80638ebb4c1514610fb157806392053b63146110b4578063a87430ba146110df576101b7565b806384856482116100c65780638485648214610d505780638567ade814610eb8578063861d7daf14610ee6578063872db88914610f21576101b7565b806374d0d45d14610bfa5780637d0b102614610c4d578063827bfbdf14610c88576101b7565b8063195cce78116101595780633578d5d3116101335780633578d5d31461079357806345b7ba12146107e657806345ff20de14610ba15780634802a76c14610bcc576101b7565b8063195cce781461053b578063282b065a146106035780632b5914fe146106cb576101b7565b8063094cd5ee11610195578063094cd5ee1461029b5780630b1e7f83146102d657806317906c2e1461043e5780631805c52314610469576101b7565b8063026ff05e146101c957806306fdde03146101e057806307973ccf14610270575b3480156101c357600080fd5b50600080fd5b3480156101d557600080fd5b506101de6117e2565b005b3480156101ec57600080fd5b506101f561196d565b6040518080602001828103825283818151815260200191508051906020019080838360005b8381101561023557808201518184015260208101905061021a565b50505050905090810190601f1680156102625780820380516001836020036101000a031916815260200191505b509250505060405180910390f35b34801561027c57600080fd5b50610285611a0b565b6040518082815260200191505060405180910390f35b3480156102a757600080fd5b506102d4600480360360208110156102be57600080fd5b8101908080359060200190929190505050611a11565b005b3480156102e257600080fd5b5061030f600480360360208110156102f957600080fd5b8101908080359060200190929190505050611d51565b60405180878152602001868152602001806020018573ffffffffffffffffffffffffffffffffffffffff1673ffffffffffffffffffffffffffffffffffffffff16815260200180602001848152602001838103835287818151815260200191508051906020019080838360005b8381101561039757808201518184015260208101905061037c565b50505050905090810190601f1680156103c45780820380516001836020036101000a031916815260200191505b50838103825285818151815260200191508051906020019080838360005b838110156103fd5780820151818401526020810190506103e2565b50505050905090810190601f16801561042a5780820380516001836020036101000a031916815260200191505b509850505050505050505060405180910390f35b34801561044a57600080fd5b50610453611edd565b6040518082815260200191505060405180910390f35b34801561047557600080fd5b506105396004803603604081101561048c57600080fd5b8101908080359060200190929190803590602001906401000000008111156104b357600080fd5b8201836020820111156104c557600080fd5b803590602001918460018302840111640100000000831117156104e757600080fd5b91908080601f016020809104026020016040519081016040528093929190818152602001838380828437600081840152601f19601f820116905080830192505050505050509192919290505050611ee3565b005b34801561054757600080fd5b506106016004803603602081101561055e57600080fd5b810190808035906020019064010000000081111561057b57600080fd5b82018360208201111561058d57600080fd5b803590602001918460018302840111640100000000831117156105af57600080fd5b91908080601f016020809104026020016040519081016040528093929190818152602001838380828437600081840152601f19601f8201169050808301925050505050505091929192905050506120cd565b005b34801561060f57600080fd5b506106c96004803603602081101561062657600080fd5b810190808035906020019064010000000081111561064357600080fd5b82018360208201111561065557600080fd5b8035906020019184600183028401116401000000008311171561067757600080fd5b91908080601f016020809104026020016040519081016040528093929190818152602001838380828437600081840152601f19601f8201169050808301925050505050505091929192905050506127e8565b005b3480156106d757600080fd5b50610791600480360360208110156106ee57600080fd5b810190808035906020019064010000000081111561070b57600080fd5b82018360208201111561071d57600080fd5b8035906020019184600183028401116401000000008311171561073f57600080fd5b91908080601f016020809104026020016040519081016040528093929190818152602001838380828437600081840152601f19601f820116905080830192505050505050509192919290505050612f03565b005b34801561079f57600080fd5b506107cc600480360360208110156107b657600080fd5b810190808035906020019092919050505061361e565b604051808215151515815260200191505060405180910390f35b3480156107f257600080fd5b50610b9f600480360360c081101561080957600080fd5b810190808035906020019064010000000081111561082657600080fd5b82018360208201111561083857600080fd5b8035906020019184600183028401116401000000008311171561085a57600080fd5b91908080601f016020809104026020016040519081016040528093929190818152602001838380828437600081840152601f19601f820116905080830192505050505050509192919290803590602001906401000000008111156108bd57600080fd5b8201836020820111156108cf57600080fd5b803590602001918460018302840111640100000000831117156108f157600080fd5b91908080601f016020809104026020016040519081016040528093929190818152602001838380828437600081840152601f19601f8201169050808301925050505050505091929192908035906020019064010000000081111561095457600080fd5b82018360208201111561096657600080fd5b8035906020019184600183028401116401000000008311171561098857600080fd5b91908080601f016020809104026020016040519081016040528093929190818152602001838380828437600081840152601f19601f820116905080830192505050505050509192919290803590602001906401000000008111156109eb57600080fd5b8201836020820111156109fd57600080fd5b80359060200191846001830284011164010000000083111715610a1f57600080fd5b91908080601f016020809104026020016040519081016040528093929190818152602001838380828437600081840152601f19601f82011690508083019250505050505050919291929080359060200190640100000000811115610a8257600080fd5b820183602082011115610a9457600080fd5b80359060200191846001830284011164010000000083111715610ab657600080fd5b91908080601f016020809104026020016040519081016040528093929190818152602001838380828437600081840152601f19601f82011690508083019250505050505050919291929080359060200190640100000000811115610b1957600080fd5b820183602082011115610b2b57600080fd5b80359060200191846001830284011164010000000083111715610b4d57600080fd5b91908080601f016020809104026020016040519081016040528093929190818152602001838380828437600081840152601f19601f82011690508083019250505050505050919291929050505061363e565b005b348015610bad57600080fd5b50610bb6613b62565b6040518082815260200191505060405180910390f35b610bf860048036036020811015610be257600080fd5b8101908080359060200190929190505050613b68565b005b348015610c0657600080fd5b50610c3360048036036020811015610c1d57600080fd5b8101908080359060200190929190505050613ebf565b604051808215151515815260200191505060405180910390f35b348015610c5957600080fd5b50610c8660048036036020811015610c7057600080fd5b8101908080359060200190929190505050613edf565b005b348015610c9457600080fd5b50610d4e60048036036020811015610cab57600080fd5b8101908080359060200190640100000000811115610cc857600080fd5b820183602082011115610cda57600080fd5b80359060200191846001830284011164010000000083111715610cfc57600080fd5b91908080601f016020809104026020016040519081016040528093929190818152602001838380828437600081840152601f19601f820116905080830192505050505050509192919290505050614194565b005b348015610d5c57600080fd5b50610d8960048036036020811015610d7357600080fd5b81019080803590602001909291905050506148af565b6040518087815260200180602001806020018681526020018573ffffffffffffffffffffffffffffffffffffffff1673ffffffffffffffffffffffffffffffffffffffff168152602001848152602001838103835288818151815260200191508051906020019080838360005b83811015610e11578082015181840152602081019050610df6565b50505050905090810190601f168015610e3e5780820380516001836020036101000a031916815260200191505b50838103825287818151815260200191508051906020019080838360005b83811015610e77578082015181840152602081019050610e5c565b50505050905090810190601f168015610ea45780820380516001836020036101000a031916815260200191505b509850505050505050505060405180910390f35b610ee460048036036020811015610ece57600080fd5b8101908080359060200190929190505050614a3b565b005b348015610ef257600080fd5b50610f1f60048036036020811015610f0957600080fd5b8101908080359060200190929190505050614eb2565b005b348015610f2d57600080fd5b50610f36615207565b6040518080602001828103825283818151815260200191508051906020019080838360005b83811015610f76578082015181840152602081019050610f5b565b50505050905090810190601f168015610fa35780820380516001836020036101000a031916815260200191505b509250505060405180910390f35b348015610fbd57600080fd5b50610fea60048036036020811015610fd457600080fd5b81019080803590602001909291905050506152a5565b60405180878152602001868152602001806020018573ffffffffffffffffffffffffffffffffffffffff1673ffffffffffffffffffffffffffffffffffffffff168152602001848152602001838152602001828103825286818151815260200191508051906020019080838360005b83811015611074578082015181840152602081019050611059565b50505050905090810190601f1680156110a15780820380516001836020036101000a031916815260200191505b5097505050505050505060405180910390f35b3480156110c057600080fd5b506110c9615399565b6040518082815260200191505060405180910390f35b3480156110eb57600080fd5b5061112e6004803603602081101561110257600080fd5b81019080803573ffffffffffffffffffffffffffffffffffffffff16906020019092919050505061539f565b604051808973ffffffffffffffffffffffffffffffffffffffff1673ffffffffffffffffffffffffffffffffffffffff16815260200180602001806020018060200180602001806020018060200188815260200187810387528e818151815260200191508051906020019080838360005b838110156111ba57808201518184015260208101905061119f565b50505050905090810190601f1680156111e75780820380516001836020036101000a031916815260200191505b5087810386528d818151815260200191508051906020019080838360005b83811015611220578082015181840152602081019050611205565b50505050905090810190601f16801561124d5780820380516001836020036101000a031916815260200191505b5087810385528c818151815260200191508051906020019080838360005b8381101561128657808201518184015260208101905061126b565b50505050905090810190601f1680156112b35780820380516001836020036101000a031916815260200191505b5087810384528b818151815260200191508051906020019080838360005b838110156112ec5780820151818401526020810190506112d1565b50505050905090810190601f1680156113195780820380516001836020036101000a031916815260200191505b5087810383528a818151815260200191508051906020019080838360005b83811015611352578082015181840152602081019050611337565b50505050905090810190601f16801561137f5780820380516001836020036101000a031916815260200191505b50878103825289818151815260200191508051906020019080838360005b838110156113b857808201518184015260208101905061139d565b50505050905090810190601f1680156113e55780820380516001836020036101000a031916815260200191505b509e50505050505050505050505050505060405180910390f35b34801561140b57600080fd5b5061155c6004803603604081101561142257600080fd5b810190808035906020019064010000000081111561143f57600080fd5b82018360208201111561145157600080fd5b8035906020019184600183028401116401000000008311171561147357600080fd5b91908080601f016020809104026020016040519081016040528093929190818152602001838380828437600081840152601f19601f820116905080830192505050505050509192919290803590602001906401000000008111156114d657600080fd5b8201836020820111156114e857600080fd5b8035906020019184600183028401116401000000008311171561150a57600080fd5b91908080601f016020809104026020016040519081016040528093929190818152602001838380828437600081840152601f19601f820116905080830192505050505050509192919290505050615797565b005b34801561156a57600080fd5b506116c56004803603606081101561158157600080fd5b8101908080359060200190929190803590602001906401000000008111156115a857600080fd5b8201836020820111156115ba57600080fd5b803590602001918460018302840111640100000000831117156115dc57600080fd5b91908080601f016020809104026020016040519081016040528093929190818152602001838380828437600081840152601f19601f8201169050808301925050505050505091929192908035906020019064010000000081111561163f57600080fd5b82018360208201111561165157600080fd5b8035906020019184600183028401116401000000008311171561167357600080fd5b91908080601f016020809104026020016040519081016040528093929190818152602001838380828437600081840152601f19601f820116905080830192505050505050509192919290505050615a58565b005b3480156116d357600080fd5b50611700600480360360208110156116ea57600080fd5b8101908080359060200190929190505050615d5e565b604051808215151515815260200191505060405180910390f35b34801561172657600080fd5b506117e06004803603602081101561173d57600080fd5b810190808035906020019064010000000081111561175a57600080fd5b82018360208201111561176c57600080fd5b8035906020019184600183028401116401000000008311171561178e57600080fd5b91908080601f016020809104026020016040519081016040528093929190818152602001838380828437600081840152601f19601f820116905080830192505050505050509192919290505050615d7e565b005b600073ffffffffffffffffffffffffffffffffffffffff163373ffffffffffffffffffffffffffffffffffffffff16141561181c57600080fd5b60036000815480929190600190039190505550600760003373ffffffffffffffffffffffffffffffffffffffff1673ffffffffffffffffffffffffffffffffffffffff168152602001908152602001600020600080820160006101000a81549073ffffffffffffffffffffffffffffffffffffffff02191690556001820160006118a69190616499565b6002820160006118b69190616499565b6003820160006118c69190616499565b6004820160006118d69190616499565b6005820160006118e69190616499565b6006820160006118f69190616499565b600782016000905550507fde5d01a9e3db449330a6770ec433f2fd5839fab3ed1f1cfc1ed992bdfa7e6f3c3342604051808373ffffffffffffffffffffffffffffffffffffffff1673ffffffffffffffffffffffffffffffffffffffff1681526020018281526020019250505060405180910390a1565b60008054600181600116156101000203166002900480601f016020809104026020016040519081016040528092919081815260200182805460018160011615610100020316600290048015611a035780601f106119d857610100808354040283529160200191611a03565b820191906000526020600020905b8154815290600101906020018083116119e657829003601f168201915b505050505081565b60035481565b600073ffffffffffffffffffffffffffffffffffffffff163373ffffffffffffffffffffffffffffffffffffffff161415611a4b57600080fd5b611a536164e1565b600860008381526020019081526020016000206040518060c00160405290816000820154815260200160018201548152602001600282018054600181600116156101000203166002900480601f016020809104026020016040519081016040528092919081815260200182805460018160011615610100020316600290048015611b1e5780601f10611af357610100808354040283529160200191611b1e565b820191906000526020600020905b815481529060010190602001808311611b0157829003601f168201915b505050505081526020016003820160009054906101000a900473ffffffffffffffffffffffffffffffffffffffff1673ffffffffffffffffffffffffffffffffffffffff1673ffffffffffffffffffffffffffffffffffffffff168152602001600482018054600181600116156101000203166002900480601f016020809104026020016040519081016040528092919081815260200182805460018160011615610100020316600290048015611c165780601f10611beb57610100808354040283529160200191611c16565b820191906000526020600020905b815481529060010190602001808311611bf957829003601f168201915b5050505050815260200160058201548152505090506000816060015190508073ffffffffffffffffffffffffffffffffffffffff163373ffffffffffffffffffffffffffffffffffffffff1614611c6c57600080fd5b600860008481526020019081526020016000206000808201600090556001820160009055600282016000611ca09190616499565b6003820160006101000a81549073ffffffffffffffffffffffffffffffffffffffff0219169055600482016000611cd79190616499565b600582016000905550506001600b600085815260200190815260200160002060006101000a81548160ff0219169083151502179055507fbcb5aed86bc918a3d0afb8c2b27a94547e8abdf185104d885f0a7c7d221810bb8342604051808381526020018281526020019250505060405180910390a1505050565b6008602052806000526040600020600091509050806000015490806001015490806002018054600181600116156101000203166002900480601f016020809104026020016040519081016040528092919081815260200182805460018160011615610100020316600290048015611e095780601f10611dde57610100808354040283529160200191611e09565b820191906000526020600020905b815481529060010190602001808311611dec57829003601f168201915b5050505050908060030160009054906101000a900473ffffffffffffffffffffffffffffffffffffffff1690806004018054600181600116156101000203166002900480601f016020809104026020016040519081016040528092919081815260200182805460018160011615610100020316600290048015611ecd5780601f10611ea257610100808354040283529160200191611ecd565b820191906000526020600020905b815481529060010190602001808311611eb057829003601f168201915b5050505050908060050154905086565b60045481565b6005600081548092919060010191905055506040518060c0016040528060055481526020018381526020018281526020013373ffffffffffffffffffffffffffffffffffffffff168152602001600081526020014281525060096000600554815260200190815260200160002060008201518160000155602082015181600101556040820151816002019080519060200190611f8092919061652d565b5060608201518160030160006101000a81548173ffffffffffffffffffffffffffffffffffffffff021916908373ffffffffffffffffffffffffffffffffffffffff1602179055506080820151816004015560a082015181600501559050507f8d17c5eae06e04f4a2486e4d625ea8b9c564609be880bf5681c124e9f2396ed46005548383334260405180868152602001858152602001806020018473ffffffffffffffffffffffffffffffffffffffff1673ffffffffffffffffffffffffffffffffffffffff168152602001838152602001828103825285818151815260200191508051906020019080838360005b8381101561208b578082015181840152602081019050612070565b50505050905090810190601f1680156120b85780820380516001836020036101000a031916815260200191505b50965050505050505060405180910390a15050565b600073ffffffffffffffffffffffffffffffffffffffff163373ffffffffffffffffffffffffffffffffffffffff16141561210757600080fd5b61210f6165ad565b600760003373ffffffffffffffffffffffffffffffffffffffff1673ffffffffffffffffffffffffffffffffffffffff168152602001908152602001600020604051806101000160405290816000820160009054906101000a900473ffffffffffffffffffffffffffffffffffffffff1673ffffffffffffffffffffffffffffffffffffffff1673ffffffffffffffffffffffffffffffffffffffff168152602001600182018054600181600116156101000203166002900480601f0160208091040260200160405190810160405280929190818152602001828054600181600116156101000203166002900480156122495780601f1061221e57610100808354040283529160200191612249565b820191906000526020600020905b81548152906001019060200180831161222c57829003601f168201915b50505050508152602001600282018054600181600116156101000203166002900480601f0160208091040260200160405190810160405280929190818152602001828054600181600116156101000203166002900480156122eb5780601f106122c0576101008083540402835291602001916122eb565b820191906000526020600020905b8154815290600101906020018083116122ce57829003601f168201915b50505050508152602001600382018054600181600116156101000203166002900480601f01602080910402602001604051908101604052809291908181526020018280546001816001161561010002031660029004801561238d5780601f106123625761010080835404028352916020019161238d565b820191906000526020600020905b81548152906001019060200180831161237057829003601f168201915b50505050508152602001600482018054600181600116156101000203166002900480601f01602080910402602001604051908101604052809291908181526020018280546001816001161561010002031660029004801561242f5780601f106124045761010080835404028352916020019161242f565b820191906000526020600020905b81548152906001019060200180831161241257829003601f168201915b50505050508152602001600582018054600181600116156101000203166002900480601f0160208091040260200160405190810160405280929190818152602001828054600181600116156101000203166002900480156124d15780601f106124a6576101008083540402835291602001916124d1565b820191906000526020600020905b8154815290600101906020018083116124b457829003601f168201915b50505050508152602001600682018054600181600116156101000203166002900480601f0160208091040260200160405190810160405280929190818152602001828054600181600116156101000203166002900480156125735780601f1061254857610100808354040283529160200191612573565b820191906000526020600020905b81548152906001019060200180831161255657829003601f168201915b505050505081526020016007820154815250509050818160c0018190525080600760003373ffffffffffffffffffffffffffffffffffffffff1673ffffffffffffffffffffffffffffffffffffffff16815260200190815260200160002060008201518160000160006101000a81548173ffffffffffffffffffffffffffffffffffffffff021916908373ffffffffffffffffffffffffffffffffffffffff160217905550602082015181600101908051906020019061263492919061652d565b50604082015181600201908051906020019061265192919061652d565b50606082015181600301908051906020019061266e92919061652d565b50608082015181600401908051906020019061268b92919061652d565b5060a08201518160050190805190602001906126a892919061652d565b5060c08201518160060190805190602001906126c592919061652d565b5060e082015181600701559050507f20a3c0ccd71749b736891b28a035d7f5e1d6b4161c56414f468d0f1c0f42c42c338342604051808473ffffffffffffffffffffffffffffffffffffffff1673ffffffffffffffffffffffffffffffffffffffff16815260200180602001806020018481526020018381038352600a8152602001807f6f636375706174696f6e00000000000000000000000000000000000000000000815250602001838103825285818151815260200191508051906020019080838360005b838110156127a757808201518184015260208101905061278c565b50505050905090810190601f1680156127d45780820380516001836020036101000a031916815260200191505b509550505050505060405180910390a15050565b600073ffffffffffffffffffffffffffffffffffffffff163373ffffffffffffffffffffffffffffffffffffffff16141561282257600080fd5b61282a6165ad565b600760003373ffffffffffffffffffffffffffffffffffffffff1673ffffffffffffffffffffffffffffffffffffffff168152602001908152602001600020604051806101000160405290816000820160009054906101000a900473ffffffffffffffffffffffffffffffffffffffff1673ffffffffffffffffffffffffffffffffffffffff1673ffffffffffffffffffffffffffffffffffffffff168152602001600182018054600181600116156101000203166002900480601f0160208091040260200160405190810160405280929190818152602001828054600181600116156101000203166002900480156129645780601f1061293957610100808354040283529160200191612964565b820191906000526020600020905b81548152906001019060200180831161294757829003601f168201915b50505050508152602001600282018054600181600116156101000203166002900480601f016020809104026020016040519081016040528092919081815260200182805460018160011615610100020316600290048015612a065780601f106129db57610100808354040283529160200191612a06565b820191906000526020600020905b8154815290600101906020018083116129e957829003601f168201915b50505050508152602001600382018054600181600116156101000203166002900480601f016020809104026020016040519081016040528092919081815260200182805460018160011615610100020316600290048015612aa85780601f10612a7d57610100808354040283529160200191612aa8565b820191906000526020600020905b815481529060010190602001808311612a8b57829003601f168201915b50505050508152602001600482018054600181600116156101000203166002900480601f016020809104026020016040519081016040528092919081815260200182805460018160011615610100020316600290048015612b4a5780601f10612b1f57610100808354040283529160200191612b4a565b820191906000526020600020905b815481529060010190602001808311612b2d57829003601f168201915b50505050508152602001600582018054600181600116156101000203166002900480601f016020809104026020016040519081016040528092919081815260200182805460018160011615610100020316600290048015612bec5780601f10612bc157610100808354040283529160200191612bec565b820191906000526020600020905b815481529060010190602001808311612bcf57829003601f168201915b50505050508152602001600682018054600181600116156101000203166002900480601f016020809104026020016040519081016040528092919081815260200182805460018160011615610100020316600290048015612c8e5780601f10612c6357610100808354040283529160200191612c8e565b820191906000526020600020905b815481529060010190602001808311612c7157829003601f168201915b505050505081526020016007820154815250509050818160a0018190525080600760003373ffffffffffffffffffffffffffffffffffffffff1673ffffffffffffffffffffffffffffffffffffffff16815260200190815260200160002060008201518160000160006101000a81548173ffffffffffffffffffffffffffffffffffffffff021916908373ffffffffffffffffffffffffffffffffffffffff1602179055506020820151816001019080519060200190612d4f92919061652d565b506040820151816002019080519060200190612d6c92919061652d565b506060820151816003019080519060200190612d8992919061652d565b506080820151816004019080519060200190612da692919061652d565b5060a0820151816005019080519060200190612dc392919061652d565b5060c0820151816006019080519060200190612de092919061652d565b5060e082015181600701559050507f20a3c0ccd71749b736891b28a035d7f5e1d6b4161c56414f468d0f1c0f42c42c338342604051808473ffffffffffffffffffffffffffffffffffffffff1673ffffffffffffffffffffffffffffffffffffffff1681526020018060200180602001848152602001838103835260058152602001807f656d61696c000000000000000000000000000000000000000000000000000000815250602001838103825285818151815260200191508051906020019080838360005b83811015612ec2578082015181840152602081019050612ea7565b50505050905090810190601f168015612eef5780820380516001836020036101000a031916815260200191505b509550505050505060405180910390a15050565b600073ffffffffffffffffffffffffffffffffffffffff163373ffffffffffffffffffffffffffffffffffffffff161415612f3d57600080fd5b612f456165ad565b600760003373ffffffffffffffffffffffffffffffffffffffff1673ffffffffffffffffffffffffffffffffffffffff168152602001908152602001600020604051806101000160405290816000820160009054906101000a900473ffffffffffffffffffffffffffffffffffffffff1673ffffffffffffffffffffffffffffffffffffffff1673ffffffffffffffffffffffffffffffffffffffff168152602001600182018054600181600116156101000203166002900480601f01602080910402602001604051908101604052809291908181526020018280546001816001161561010002031660029004801561307f5780601f106130545761010080835404028352916020019161307f565b820191906000526020600020905b81548152906001019060200180831161306257829003601f168201915b50505050508152602001600282018054600181600116156101000203166002900480601f0160208091040260200160405190810160405280929190818152602001828054600181600116156101000203166002900480156131215780601f106130f657610100808354040283529160200191613121565b820191906000526020600020905b81548152906001019060200180831161310457829003601f168201915b50505050508152602001600382018054600181600116156101000203166002900480601f0160208091040260200160405190810160405280929190818152602001828054600181600116156101000203166002900480156131c35780601f10613198576101008083540402835291602001916131c3565b820191906000526020600020905b8154815290600101906020018083116131a657829003601f168201915b50505050508152602001600482018054600181600116156101000203166002900480601f0160208091040260200160405190810160405280929190818152602001828054600181600116156101000203166002900480156132655780601f1061323a57610100808354040283529160200191613265565b820191906000526020600020905b81548152906001019060200180831161324857829003601f168201915b50505050508152602001600582018054600181600116156101000203166002900480601f0160208091040260200160405190810160405280929190818152602001828054600181600116156101000203166002900480156133075780601f106132dc57610100808354040283529160200191613307565b820191906000526020600020905b8154815290600101906020018083116132ea57829003601f168201915b50505050508152602001600682018054600181600116156101000203166002900480601f0160208091040260200160405190810160405280929190818152602001828054600181600116156101000203166002900480156133a95780601f1061337e576101008083540402835291602001916133a9565b820191906000526020600020905b81548152906001019060200180831161338c57829003601f168201915b50505050508152602001600782015481525050905081816020018190525080600760003373ffffffffffffffffffffffffffffffffffffffff1673ffffffffffffffffffffffffffffffffffffffff16815260200190815260200160002060008201518160000160006101000a81548173ffffffffffffffffffffffffffffffffffffffff021916908373ffffffffffffffffffffffffffffffffffffffff160217905550602082015181600101908051906020019061346a92919061652d565b50604082015181600201908051906020019061348792919061652d565b5060608201518160030190805190602001906134a492919061652d565b5060808201518160040190805190602001906134c192919061652d565b5060a08201518160050190805190602001906134de92919061652d565b5060c08201518160060190805190602001906134fb92919061652d565b5060e082015181600701559050507f20a3c0ccd71749b736891b28a035d7f5e1d6b4161c56414f468d0f1c0f42c42c338342604051808473ffffffffffffffffffffffffffffffffffffffff1673ffffffffffffffffffffffffffffffffffffffff1681526020018060200180602001848152602001838103835260088152602001807f757365724e616d65000000000000000000000000000000000000000000000000815250602001838103825285818151815260200191508051906020019080838360005b838110156135dd5780820151818401526020810190506135c2565b50505050905090810190601f16801561360a5780820380516001836020036101000a031916815260200191505b509550505050505060405180910390a15050565b600b6020528060005260406000206000915054906101000a900460ff1681565b600073ffffffffffffffffffffffffffffffffffffffff163373ffffffffffffffffffffffffffffffffffffffff16141561367857600080fd5b600086511161368657600080fd5b600085511161369457600080fd5b60008451116136a257600080fd5b60008251116136b057600080fd5b60008151116136be57600080fd5b6003600081548092919060010191905055506040518061010001604052803373ffffffffffffffffffffffffffffffffffffffff16815260200187815260200186815260200185815260200184815260200183815260200182815260200142815250600760003373ffffffffffffffffffffffffffffffffffffffff1673ffffffffffffffffffffffffffffffffffffffff16815260200190815260200160002060008201518160000160006101000a81548173ffffffffffffffffffffffffffffffffffffffff021916908373ffffffffffffffffffffffffffffffffffffffff16021790555060208201518160010190805190602001906137c292919061652d565b5060408201518160020190805190602001906137df92919061652d565b5060608201518160030190805190602001906137fc92919061652d565b50608082015181600401908051906020019061381992919061652d565b5060a082015181600501908051906020019061383692919061652d565b5060c082015181600601908051906020019061385392919061652d565b5060e082015181600701559050507f11ef8a13807d950ba4014fc14b37d6416df3b812b0ffbd2d4c4b73a239bcf5b23387878787878742604051808973ffffffffffffffffffffffffffffffffffffffff1673ffffffffffffffffffffffffffffffffffffffff16815260200180602001806020018060200180602001806020018060200188815260200187810387528e818151815260200191508051906020019080838360005b838110156139165780820151818401526020810190506138fb565b50505050905090810190601f1680156139435780820380516001836020036101000a031916815260200191505b5087810386528d818151815260200191508051906020019080838360005b8381101561397c578082015181840152602081019050613961565b50505050905090810190601f1680156139a95780820380516001836020036101000a031916815260200191505b5087810385528c818151815260200191508051906020019080838360005b838110156139e25780820151818401526020810190506139c7565b50505050905090810190601f168015613a0f5780820380516001836020036101000a031916815260200191505b5087810384528b818151815260200191508051906020019080838360005b83811015613a48578082015181840152602081019050613a2d565b50505050905090810190601f168015613a755780820380516001836020036101000a031916815260200191505b5087810383528a818151815260200191508051906020019080838360005b83811015613aae578082015181840152602081019050613a93565b50505050905090810190601f168015613adb5780820380516001836020036101000a031916815260200191505b50878103825289818151815260200191508051906020019080838360005b83811015613b14578082015181840152602081019050613af9565b50505050905090810190601f168015613b415780820380516001836020036101000a031916815260200191505b509e50505050505050505050505050505060405180910390a1505050505050565b60055481565b613b70616608565b600960008381526020019081526020016000206040518060c00160405290816000820154815260200160018201548152602001600282018054600181600116156101000203166002900480601f016020809104026020016040519081016040528092919081815260200182805460018160011615610100020316600290048015613c3b5780601f10613c1057610100808354040283529160200191613c3b565b820191906000526020600020905b815481529060010190602001808311613c1e57829003601f168201915b505050505081526020016003820160009054906101000a900473ffffffffffffffffffffffffffffffffffffffff1673ffffffffffffffffffffffffffffffffffffffff1673ffffffffffffffffffffffffffffffffffffffff1681526020016004820154815260200160058201548152505090506000816060015190506000826020015190506060836040015190508273ffffffffffffffffffffffffffffffffffffffff166108fc349081150290604051600060405180830381858888f19350505050158015613d11573d6000803e3d6000fd5b5034846080015101846080018181525050836009600087815260200190815260200160002060008201518160000155602082015181600101556040820151816002019080519060200190613d6692919061652d565b5060608201518160030160006101000a81548173ffffffffffffffffffffffffffffffffffffffff021916908373ffffffffffffffffffffffffffffffffffffffff1602179055506080820151816004015560a082015181600501559050507f06d58664ca2a76b994d6f23859136f61aeddcbd4fb6691d8b8ca6990922e2b0d60055483833360004260405180878152602001868152602001806020018573ffffffffffffffffffffffffffffffffffffffff1673ffffffffffffffffffffffffffffffffffffffff168152602001848152602001838152602001828103825286818151815260200191508051906020019080838360005b83811015613e79578082015181840152602081019050613e5e565b50505050905090810190601f168015613ea65780820380516001836020036101000a031916815260200191505b5097505050505050505060405180910390a15050505050565b600a6020528060005260406000206000915054906101000a900460ff1681565b600081118015613ef157506005548111155b613efa57600080fd5b613f02616608565b600960008381526020019081526020016000206040518060c00160405290816000820154815260200160018201548152602001600282018054600181600116156101000203166002900480601f016020809104026020016040519081016040528092919081815260200182805460018160011615610100020316600290048015613fcd5780601f10613fa257610100808354040283529160200191613fcd565b820191906000526020600020905b815481529060010190602001808311613fb057829003601f168201915b505050505081526020016003820160009054906101000a900473ffffffffffffffffffffffffffffffffffffffff1673ffffffffffffffffffffffffffffffffffffffff1673ffffffffffffffffffffffffffffffffffffffff1681526020016004820154815260200160058201548152505090506000816060015190508073ffffffffffffffffffffffffffffffffffffffff163373ffffffffffffffffffffffffffffffffffffffff161461408357600080fd5b6009600084815260200190815260200160002060008082016000905560018201600090556002820160006140b79190616499565b6003820160006101000a81549073ffffffffffffffffffffffffffffffffffffffff02191690556004820160009055600582016000905550506001600c600085815260200190815260200160002060006101000a81548160ff0219169083151502179055507f4cb7b38ebf27d7cdc68fa07e7f2108ac9c50a3620fed6f332bf1f5918c70669c838242604051808481526020018373ffffffffffffffffffffffffffffffffffffffff1673ffffffffffffffffffffffffffffffffffffffff168152602001828152602001935050505060405180910390a1505050565b600073ffffffffffffffffffffffffffffffffffffffff163373ffffffffffffffffffffffffffffffffffffffff1614156141ce57600080fd5b6141d66165ad565b600760003373ffffffffffffffffffffffffffffffffffffffff1673ffffffffffffffffffffffffffffffffffffffff168152602001908152602001600020604051806101000160405290816000820160009054906101000a900473ffffffffffffffffffffffffffffffffffffffff1673ffffffffffffffffffffffffffffffffffffffff1673ffffffffffffffffffffffffffffffffffffffff168152602001600182018054600181600116156101000203166002900480601f0160208091040260200160405190810160405280929190818152602001828054600181600116156101000203166002900480156143105780601f106142e557610100808354040283529160200191614310565b820191906000526020600020905b8154815290600101906020018083116142f357829003601f168201915b50505050508152602001600282018054600181600116156101000203166002900480601f0160208091040260200160405190810160405280929190818152602001828054600181600116156101000203166002900480156143b25780601f10614387576101008083540402835291602001916143b2565b820191906000526020600020905b81548152906001019060200180831161439557829003601f168201915b50505050508152602001600382018054600181600116156101000203166002900480601f0160208091040260200160405190810160405280929190818152602001828054600181600116156101000203166002900480156144545780601f1061442957610100808354040283529160200191614454565b820191906000526020600020905b81548152906001019060200180831161443757829003601f168201915b50505050508152602001600482018054600181600116156101000203166002900480601f0160208091040260200160405190810160405280929190818152602001828054600181600116156101000203166002900480156144f65780601f106144cb576101008083540402835291602001916144f6565b820191906000526020600020905b8154815290600101906020018083116144d957829003601f168201915b50505050508152602001600582018054600181600116156101000203166002900480601f0160208091040260200160405190810160405280929190818152602001828054600181600116156101000203166002900480156145985780601f1061456d57610100808354040283529160200191614598565b820191906000526020600020905b81548152906001019060200180831161457b57829003601f168201915b50505050508152602001600682018054600181600116156101000203166002900480601f01602080910402602001604051908101604052809291908181526020018280546001816001161561010002031660029004801561463a5780601f1061460f5761010080835404028352916020019161463a565b820191906000526020600020905b81548152906001019060200180831161461d57829003601f168201915b50505050508152602001600782015481525050905081816060018190525080600760003373ffffffffffffffffffffffffffffffffffffffff1673ffffffffffffffffffffffffffffffffffffffff16815260200190815260200160002060008201518160000160006101000a81548173ffffffffffffffffffffffffffffffffffffffff021916908373ffffffffffffffffffffffffffffffffffffffff16021790555060208201518160010190805190602001906146fb92919061652d565b50604082015181600201908051906020019061471892919061652d565b50606082015181600301908051906020019061473592919061652d565b50608082015181600401908051906020019061475292919061652d565b5060a082015181600501908051906020019061476f92919061652d565b5060c082015181600601908051906020019061478c92919061652d565b5060e082015181600701559050507f20a3c0ccd71749b736891b28a035d7f5e1d6b4161c56414f468d0f1c0f42c42c338342604051808473ffffffffffffffffffffffffffffffffffffffff1673ffffffffffffffffffffffffffffffffffffffff1681526020018060200180602001848152602001838103835260088152602001807f6c6f636174696f6e000000000000000000000000000000000000000000000000815250602001838103825285818151815260200191508051906020019080838360005b8381101561486e578082015181840152602081019050614853565b50505050905090810190601f16801561489b5780820380516001836020036101000a031916815260200191505b509550505050505060405180910390a15050565b6006602052806000526040600020600091509050806000015490806001018054600181600116156101000203166002900480601f0160208091040260200160405190810160405280929190818152602001828054600181600116156101000203166002900480156149615780601f1061493657610100808354040283529160200191614961565b820191906000526020600020905b81548152906001019060200180831161494457829003601f168201915b505050505090806002018054600181600116156101000203166002900480601f0160208091040260200160405190810160405280929190818152602001828054600181600116156101000203166002900480156149ff5780601f106149d4576101008083540402835291602001916149ff565b820191906000526020600020905b8154815290600101906020018083116149e257829003601f168201915b5050505050908060030154908060040160009054906101000a900473ffffffffffffffffffffffffffffffffffffffff16908060050154905086565b600081118015614a4d57506002548111155b614a5657600080fd5b614a5e616654565b600660008381526020019081526020016000206040518060c001604052908160008201548152602001600182018054600181600116156101000203166002900480601f016020809104026020016040519081016040528092919081815260200182805460018160011615610100020316600290048015614b1f5780601f10614af457610100808354040283529160200191614b1f565b820191906000526020600020905b815481529060010190602001808311614b0257829003601f168201915b50505050508152602001600282018054600181600116156101000203166002900480601f016020809104026020016040519081016040528092919081815260200182805460018160011615610100020316600290048015614bc15780601f10614b9657610100808354040283529160200191614bc1565b820191906000526020600020905b815481529060010190602001808311614ba457829003601f168201915b50505050508152602001600382015481526020016004820160009054906101000a900473ffffffffffffffffffffffffffffffffffffffff1673ffffffffffffffffffffffffffffffffffffffff1673ffffffffffffffffffffffffffffffffffffffff16815260200160058201548152505090506000816080015190508073ffffffffffffffffffffffffffffffffffffffff166108fc349081150290604051600060405180830381858888f19350505050158015614c85573d6000803e3d6000fd5b50348260600151018260600181815250508160066000858152602001908152602001600020600082015181600001556020820151816001019080519060200190614cd092919061652d565b506040820151816002019080519060200190614ced92919061652d565b506060820151816003015560808201518160040160006101000a81548173ffffffffffffffffffffffffffffffffffffffff021916908373ffffffffffffffffffffffffffffffffffffffff16021790555060a082015181600501559050507f9e17c6a51235c831649d4e4dae877ebaa0c04ab03f7bc43f6964a59e4f1e8e328383602001518460400151856060015185426040518087815260200180602001806020018681526020018573ffffffffffffffffffffffffffffffffffffffff1673ffffffffffffffffffffffffffffffffffffffff168152602001848152602001838103835288818151815260200191508051906020019080838360005b83811015614e07578082015181840152602081019050614dec565b50505050905090810190601f168015614e345780820380516001836020036101000a031916815260200191505b50838103825287818151815260200191508051906020019080838360005b83811015614e6d578082015181840152602081019050614e52565b50505050905090810190601f168015614e9a5780820380516001836020036101000a031916815260200191505b509850505050505050505060405180910390a1505050565b600081118015614ec457506002548111155b614ecd57600080fd5b614ed5616654565b600660008381526020019081526020016000206040518060c001604052908160008201548152602001600182018054600181600116156101000203166002900480601f016020809104026020016040519081016040528092919081815260200182805460018160011615610100020316600290048015614f965780601f10614f6b57610100808354040283529160200191614f96565b820191906000526020600020905b815481529060010190602001808311614f7957829003601f168201915b50505050508152602001600282018054600181600116156101000203166002900480601f0160208091040260200160405190810160405280929190818152602001828054600181600116156101000203166002900480156150385780601f1061500d57610100808354040283529160200191615038565b820191906000526020600020905b81548152906001019060200180831161501b57829003601f168201915b50505050508152602001600382015481526020016004820160009054906101000a900473ffffffffffffffffffffffffffffffffffffffff1673ffffffffffffffffffffffffffffffffffffffff1673ffffffffffffffffffffffffffffffffffffffff16815260200160058201548152505090506000816080015190508073ffffffffffffffffffffffffffffffffffffffff163373ffffffffffffffffffffffffffffffffffffffff16146150ee57600080fd5b6006600084815260200190815260200160002060008082016000905560018201600061511a9190616499565b60028201600061512a9190616499565b60038201600090556004820160006101000a81549073ffffffffffffffffffffffffffffffffffffffff0219169055600582016000905550506001600a600085815260200190815260200160002060006101000a81548160ff0219169083151502179055507f9dd93cd92a187195f9fdb27005f7f18c4a339a1666cb40e1e68c7a7b394a78a4838242604051808481526020018373ffffffffffffffffffffffffffffffffffffffff1673ffffffffffffffffffffffffffffffffffffffff168152602001828152602001935050505060405180910390a1505050565b60018054600181600116156101000203166002900480601f01602080910402602001604051908101604052809291908181526020018280546001816001161561010002031660029004801561529d5780601f106152725761010080835404028352916020019161529d565b820191906000526020600020905b81548152906001019060200180831161528057829003601f168201915b505050505081565b6009602052806000526040600020600091509050806000015490806001015490806002018054600181600116156101000203166002900480601f01602080910402602001604051908101604052809291908181526020018280546001816001161561010002031660029004801561535d5780601f106153325761010080835404028352916020019161535d565b820191906000526020600020905b81548152906001019060200180831161534057829003601f168201915b5050505050908060030160009054906101000a900473ffffffffffffffffffffffffffffffffffffffff16908060040154908060050154905086565b60025481565b60076020528060005260406000206000915090508060000160009054906101000a900473ffffffffffffffffffffffffffffffffffffffff1690806001018054600181600116156101000203166002900480601f0160208091040260200160405190810160405280929190818152602001828054600181600116156101000203166002900480156154715780601f1061544657610100808354040283529160200191615471565b820191906000526020600020905b81548152906001019060200180831161545457829003601f168201915b505050505090806002018054600181600116156101000203166002900480601f01602080910402602001604051908101604052809291908181526020018280546001816001161561010002031660029004801561550f5780601f106154e45761010080835404028352916020019161550f565b820191906000526020600020905b8154815290600101906020018083116154f257829003601f168201915b505050505090806003018054600181600116156101000203166002900480601f0160208091040260200160405190810160405280929190818152602001828054600181600116156101000203166002900480156155ad5780601f10615582576101008083540402835291602001916155ad565b820191906000526020600020905b81548152906001019060200180831161559057829003601f168201915b505050505090806004018054600181600116156101000203166002900480601f01602080910402602001604051908101604052809291908181526020018280546001816001161561010002031660029004801561564b5780601f106156205761010080835404028352916020019161564b565b820191906000526020600020905b81548152906001019060200180831161562e57829003601f168201915b505050505090806005018054600181600116156101000203166002900480601f0160208091040260200160405190810160405280929190818152602001828054600181600116156101000203166002900480156156e95780601f106156be576101008083540402835291602001916156e9565b820191906000526020600020905b8154815290600101906020018083116156cc57829003601f168201915b505050505090806006018054600181600116156101000203166002900480601f0160208091040260200160405190810160405280929190818152602001828054600181600116156101000203166002900480156157875780601f1061575c57610100808354040283529160200191615787565b820191906000526020600020905b81548152906001019060200180831161576a57829003601f168201915b5050505050908060070154905088565b60008251116157a557600080fd5b60008151116157b357600080fd5b600073ffffffffffffffffffffffffffffffffffffffff163373ffffffffffffffffffffffffffffffffffffffff1614156157ed57600080fd5b6002600081548092919060010191905055506040518060c001604052806002548152602001838152602001828152602001600081526020013373ffffffffffffffffffffffffffffffffffffffff1681526020014281525060066000600254815260200190815260200160002060008201518160000155602082015181600101908051906020019061588092919061652d565b50604082015181600201908051906020019061589d92919061652d565b506060820151816003015560808201518160040160006101000a81548173ffffffffffffffffffffffffffffffffffffffff021916908373ffffffffffffffffffffffffffffffffffffffff16021790555060a082015181600501559050507faf0f8ed6ea5dadf339b2e34e90cb6f2241025b73ee623db1f0a447d2cc37f8ee6002548383600033426040518087815260200180602001806020018681526020018573ffffffffffffffffffffffffffffffffffffffff1673ffffffffffffffffffffffffffffffffffffffff168152602001848152602001838103835288818151815260200191508051906020019080838360005b838110156159ae578082015181840152602081019050615993565b50505050905090810190601f1680156159db5780820380516001836020036101000a031916815260200191505b50838103825287818151815260200191508051906020019080838360005b83811015615a145780820151818401526020810190506159f9565b50505050905090810190601f168015615a415780820380516001836020036101000a031916815260200191505b509850505050505050505060405180910390a15050565b6000825111615a6657600080fd5b6000815111615a7457600080fd5b600073ffffffffffffffffffffffffffffffffffffffff163373ffffffffffffffffffffffffffffffffffffffff161415615aae57600080fd5b600083118015615ac057506002548311155b615ac957600080fd5b600a600084815260200190815260200160002060009054906101000a900460ff1615615af457600080fd5b6004600081548092919060010191905055506040518060c0016040528060045481526020018481526020018381526020013373ffffffffffffffffffffffffffffffffffffffff1681526020018281526020014281525060086000600454815260200190815260200160002060008201518160000155602082015181600101556040820151816002019080519060200190615b9092919061652d565b5060608201518160030160006101000a81548173ffffffffffffffffffffffffffffffffffffffff021916908373ffffffffffffffffffffffffffffffffffffffff1602179055506080820151816004019080519060200190615bf492919061652d565b5060a082015181600501559050507f885c6cd8b111d92089e5d9d3bd8c14e83e7271865a6b994b6c3fc65e3766efa0600454848433854260405180878152602001868152602001806020018573ffffffffffffffffffffffffffffffffffffffff1673ffffffffffffffffffffffffffffffffffffffff16815260200180602001848152602001838103835287818151815260200191508051906020019080838360005b83811015615cb3578082015181840152602081019050615c98565b50505050905090810190601f168015615ce05780820380516001836020036101000a031916815260200191505b50838103825285818151815260200191508051906020019080838360005b83811015615d19578082015181840152602081019050615cfe565b50505050905090810190601f168015615d465780820380516001836020036101000a031916815260200191505b509850505050505050505060405180910390a1505050565b600c6020528060005260406000206000915054906101000a900460ff1681565b600073ffffffffffffffffffffffffffffffffffffffff163373ffffffffffffffffffffffffffffffffffffffff161415615db857600080fd5b615dc06165ad565b600760003373ffffffffffffffffffffffffffffffffffffffff1673ffffffffffffffffffffffffffffffffffffffff168152602001908152602001600020604051806101000160405290816000820160009054906101000a900473ffffffffffffffffffffffffffffffffffffffff1673ffffffffffffffffffffffffffffffffffffffff1673ffffffffffffffffffffffffffffffffffffffff168152602001600182018054600181600116156101000203166002900480601f016020809104026020016040519081016040528092919081815260200182805460018160011615610100020316600290048015615efa5780601f10615ecf57610100808354040283529160200191615efa565b820191906000526020600020905b815481529060010190602001808311615edd57829003601f168201915b50505050508152602001600282018054600181600116156101000203166002900480601f016020809104026020016040519081016040528092919081815260200182805460018160011615610100020316600290048015615f9c5780601f10615f7157610100808354040283529160200191615f9c565b820191906000526020600020905b815481529060010190602001808311615f7f57829003601f168201915b50505050508152602001600382018054600181600116156101000203166002900480601f01602080910402602001604051908101604052809291908181526020018280546001816001161561010002031660029004801561603e5780601f106160135761010080835404028352916020019161603e565b820191906000526020600020905b81548152906001019060200180831161602157829003601f168201915b50505050508152602001600482018054600181600116156101000203166002900480601f0160208091040260200160405190810160405280929190818152602001828054600181600116156101000203166002900480156160e05780601f106160b5576101008083540402835291602001916160e0565b820191906000526020600020905b8154815290600101906020018083116160c357829003601f168201915b50505050508152602001600582018054600181600116156101000203166002900480601f0160208091040260200160405190810160405280929190818152602001828054600181600116156101000203166002900480156161825780601f1061615757610100808354040283529160200191616182565b820191906000526020600020905b81548152906001019060200180831161616557829003601f168201915b50505050508152602001600682018054600181600116156101000203166002900480601f0160208091040260200160405190810160405280929190818152602001828054600181600116156101000203166002900480156162245780601f106161f957610100808354040283529160200191616224565b820191906000526020600020905b81548152906001019060200180831161620757829003601f168201915b50505050508152602001600782015481525050905081816080018190525080600760003373ffffffffffffffffffffffffffffffffffffffff1673ffffffffffffffffffffffffffffffffffffffff16815260200190815260200160002060008201518160000160006101000a81548173ffffffffffffffffffffffffffffffffffffffff021916908373ffffffffffffffffffffffffffffffffffffffff16021790555060208201518160010190805190602001906162e592919061652d565b50604082015181600201908051906020019061630292919061652d565b50606082015181600301908051906020019061631f92919061652d565b50608082015181600401908051906020019061633c92919061652d565b5060a082015181600501908051906020019061635992919061652d565b5060c082015181600601908051906020019061637692919061652d565b5060e082015181600701559050507f20a3c0ccd71749b736891b28a035d7f5e1d6b4161c56414f468d0f1c0f42c42c338342604051808473ffffffffffffffffffffffffffffffffffffffff1673ffffffffffffffffffffffffffffffffffffffff1681526020018060200180602001848152602001838103835260058152602001807f70686f6e65000000000000000000000000000000000000000000000000000000815250602001838103825285818151815260200191508051906020019080838360005b8381101561645857808201518184015260208101905061643d565b50505050905090810190601f1680156164855780820380516001836020036101000a031916815260200191505b509550505050505060405180910390a15050565b50805460018160011615610100020316600290046000825580601f106164bf57506164de565b601f0160209004906000526020600020908101906164dd91906166a0565b5b50565b6040518060c00160405280600081526020016000815260200160608152602001600073ffffffffffffffffffffffffffffffffffffffff16815260200160608152602001600081525090565b828054600181600116156101000203166002900490600052602060002090601f016020900481019282601f1061656e57805160ff191683800117855561659c565b8280016001018555821561659c579182015b8281111561659b578251825591602001919060010190616580565b5b5090506165a991906166a0565b5090565b604051806101000160405280600073ffffffffffffffffffffffffffffffffffffffff168152602001606081526020016060815260200160608152602001606081526020016060815260200160608152602001600081525090565b6040518060c00160405280600081526020016000815260200160608152602001600073ffffffffffffffffffffffffffffffffffffffff16815260200160008152602001600081525090565b6040518060c0016040528060008152602001606081526020016060815260200160008152602001600073ffffffffffffffffffffffffffffffffffffffff168152602001600081525090565b6166c291905b808211156166be5760008160009055506001016166a6565b5090565b9056fea265627a7a723158202e03f40fc6b5e0521df60f340a1492dd4fa920701603a32eaf6ac9c5da54ebeb64736f6c6343000510003243727970746f4772616d202d20646563656e7472616c697a656420696d6167652073686172696e6720736f6369616c206d6564696120706c6174666f726d76657273696f6e2032206f6620746865206f726967696e616c2044534d202d20646563656e7472616c697a656420736f6369616c206d656469612c206d616e79206e65772066656174757265732c20616e64206163636f756e747320617265207469656420746f20746865207573657227732077616c6c65742061646472657373",
  "source": "// SPDX-License-Identifier: LICENSE\npragma solidity >=0.5.0;\n\n//pragma experimental ABIEncoderV2;\n\n//use ganache-cli --allowUnlimitedContractSize  --gasLimit 0xFFFFFFFFFFFF\n\ncontract CryptoGramOld {\n    string public name =\n        \"CryptoGram - decentralized image sharing social media platform\";\n    string public contractDescription =\n        \"version 2 of the original DSM - decentralized social media, many new features, and accounts are tied to the user's wallet address\";\n\n    uint256 public imageCount = 0;\n    uint256 public userCount = 0;\n    uint256 public postCount = 0;\n    uint256 public commentCount = 0;\n    mapping(uint256 => Image) public images;\n    mapping(address => User) public users;\n    mapping(uint256 => Post) public posts;\n    mapping(uint256 => Comment) public comments;\n\n    //keep track of deleted objects\n    mapping(uint256 => bool) public deletedImages;\n    mapping(uint256 => bool) public deletedPosts;\n    mapping(uint256 => bool) public deletedComments;\n\n    struct Post {\n        uint256 id;\n        uint256 imageID;\n        string title;\n        address author;\n        string link;\n        uint256 timeStamp;\n    }\n\n    struct Comment {\n        uint256 id;\n        uint256 postID;\n        string comment;\n        address payable author;\n        uint256 tipAmount;\n        uint256 timeStamp;\n    }\n\n    struct Image {\n        uint256 id;\n        string hash;\n        string description;\n        uint256 tipAmount;\n        address payable author;\n        uint256 timeStamp;\n    }\n\n    struct User {\n        address userAccount; //wallet address\n        string userName;\n        string status;\n        string location;\n        string phone;\n        string email;\n        string occupation;\n        uint256 timeStamp;\n    }\n    /******************EVENTS*************************/\n    event UserAdded(\n        address userAccount, //wallet address\n        string userName,\n        string status,\n        string location,\n        string phone,\n        string email,\n        string occupation,\n        uint256 timeStamp\n    );\n    event UserDeleted(address userAccount, uint256 timeStamp);\n\n    event UserUpdated(\n        address userAccount,\n        string valueChanged,\n        string newValue,\n        uint256 timeStamp\n    );\n\n    event ImageAdded(\n        uint256 id,\n        string hash,\n        string description,\n        uint256 tipAmount,\n        address payable author,\n        uint256 timeStamp\n    );\n\n    event ImageDeleted(uint256 id, address author, uint256 timeStamp);\n\n    event ImageTipped(\n        uint256 id,\n        string hash,\n        string description,\n        uint256 tipAmount,\n        address payable author,\n        uint256 timeStamp\n    );\n\n    event PostAdded(\n        uint256 id,\n        uint256 imageID,\n        string title,\n        address author,\n        string link,\n        uint256 timeStamp\n    );\n\n    event PostDeleted(uint256 id, uint256 timeStamp);\n\n    event CommentAdded(\n        uint256 id,\n        uint256 postID,\n        string comment,\n        address author,\n        uint256 timeStamp\n    );\n    event CommentTipped(\n        uint256 id,\n        uint256 postID,\n        string comment,\n        address author,\n        uint256 tipAmount,\n        uint256 timeStamp\n    );\n    event CommentDeleted(\n        uint256 id,\n        address author,\n        uint256 timeStamp\n    );\n\n    /******************FUNCTIONS*************************/\n\n    //Fallback: reverts if Ether is sent to this contract unintentionally\n    function() external {\n        revert();\n    }\n\n    function tipImageOwner(uint256 _id) public payable {\n        //require valid ID\n        require(_id > 0 && _id <= imageCount);\n\n        //get image\n        Image memory _image = images[_id];\n\n        //get image author\n        address payable _author = _image.author;\n\n        //send to author\n        address(_author).transfer(msg.value);\n\n        //update tip amount and put back into mapping\n        _image.tipAmount = _image.tipAmount + msg.value;\n        images[_id] = _image;\n\n        //emit event\n        emit ImageTipped(\n            _id,\n            _image.hash,\n            _image.description,\n            _image.tipAmount,\n            _author,\n            now\n        );\n    }\n\n    function uploadImage(string memory _hash, string memory _desc) public {\n        //require a hash to be included\n        require(bytes(_hash).length > 0);\n\n        //require a description to be included\n        require(bytes(_desc).length > 0);\n\n        //require uploader address to exist\n        require(msg.sender != address(0x0));\n\n        //increment image ID\n        imageCount++;\n\n        //add image hash to mapping\n        images[imageCount] = Image(\n            imageCount,\n            _hash,\n            _desc,\n            0,\n            msg.sender,\n            now\n        );\n\n        //emit event\n        emit ImageAdded(imageCount, _hash, _desc, 0, msg.sender, now);\n    }\n\n    function deleteImage(uint256 _id) public {\n        //require valid ID\n        require(_id > 0 && _id <= imageCount);\n\n        //get image\n        Image memory _image = images[_id];\n\n        //get image author\n        address _author = _image.author;\n\n        //check if image author matches message sender - only delete your own images\n        require(msg.sender == _author);\n\n        //delete image from mapping and emit event\n        delete (images[_id]);\n        deletedImages[_id] = true;\n        emit ImageDeleted(_id, _author, now);\n    }\n\n    function addUser(\n        string memory _userName,\n        string memory _status,\n        string memory _location,\n        string memory _phone,\n        string memory _email,\n        string memory _occupation\n    ) public {\n        //require user address to exist\n        require(msg.sender != address(0x0));\n\n        //require all fields to be populated\n        require(bytes(_userName).length > 0);\n        require(bytes(_status).length > 0);\n        require(bytes(_location).length > 0);\n        require(bytes(_email).length > 0);\n        require(bytes(_occupation).length > 0);\n\n        //increment count of users\n        userCount++;\n\n        //add user to mapping\n        users[msg.sender] = User(\n            msg.sender,\n            _userName,\n            _status,\n            _location,\n            _phone,\n            _email,\n            _occupation,\n            now\n        );\n\n        //emit event\n        emit UserAdded(\n            msg.sender,\n            _userName,\n            _status,\n            _location,\n            _phone,\n            _email,\n            _occupation,\n            now\n        );\n    }\n\n    function deleteUser() public {\n        //require user address to exist\n        require(msg.sender != address(0x0));\n\n        //decrement user count - keep a total of active users on the contract\n        userCount--;\n\n        //delete from mapping\n        delete (users[msg.sender]);\n\n        //emit event\n        emit UserDeleted(msg.sender, now);\n    }\n\n    function makePost(\n        uint256 _imageID,\n        string memory _title,\n        string memory _link\n    ) public {\n        require(bytes(_title).length > 0);\n        require(bytes(_link).length > 0);        \n        require(msg.sender != address(0x0));\n\n        //require valid image ID\n        require(_imageID > 0 && _imageID <= imageCount);\n        require(!deletedImages[_imageID]);\n\n        postCount++;\n\n        posts[postCount] = Post(\n            postCount,\n            _imageID,\n            _title,\n            msg.sender,\n            _link,\n            now\n        );\n\n        emit PostAdded(postCount, _imageID, _title, msg.sender, _link, now);\n    }\n\n    function deletePost(uint256 _postID) public {\n        //require user address to exist\n        require(msg.sender != address(0x0));\n\n        Post memory _post = posts[_postID];\n        address _author = _post.author;\n        //check if image author matches message sender - only delete your own comments\n        require(msg.sender == _author);\n\n        delete (posts[_postID]);\n        deletedPosts[_postID] = true;\n\n        //emit event\n        emit PostDeleted(_postID, now);\n    }\n\n    function comment(uint256 _postID, string memory _comment) public {\n        //require\n\n        commentCount++;\n        comments[commentCount] = Comment(\n            commentCount,\n            _postID,\n            _comment,\n            msg.sender,\n            0,\n            now\n        );\n\n        //emit event\n        emit CommentAdded(commentCount, _postID, _comment, msg.sender, now);\n    }\n\n    function tipComment(uint256 _commentID) public payable {\n        //get image\n        Comment memory _comment = comments[_commentID];\n\n        //get comment data\n        address payable _author = _comment.author;\n        uint256 _postID = _comment.postID;\n        string memory _commentString = _comment.comment;\n\n        //send to author\n        address(_author).transfer(msg.value);\n\n        //update tip amount and put back into mapping\n        _comment.tipAmount = _comment.tipAmount + msg.value;\n        comments[_commentID] = _comment;\n\n        //emit event\n        emit CommentTipped(commentCount, _postID, _commentString, msg.sender, 0, now);\n    }\n\n    function deleteComment(uint256 _commentID) public {\n        //require valid ID\n        require(_commentID > 0 && _commentID <= commentCount);\n\n        Comment memory _comment = comments[_commentID];\n\n        address _author = _comment.author;\n\n        //check if image author matches message sender - only delete your own comments\n        require(msg.sender == _author);\n\n        delete (comments[_commentID]);\n        deletedComments[_commentID] = true;\n\n        //emit event\n        emit CommentDeleted(_commentID, _author, now);\n    }\n\n    /***************Setter Functions********************/\n    function setUserName(string memory _userName) public {\n        //require user address to exist\n        require(msg.sender != address(0x0));\n\n        //get user\n        User memory _user = users[msg.sender];\n\n        //update value and put back into mapping\n        _user.userName = _userName;\n        users[msg.sender] = _user;\n\n        //emit event\n        emit UserUpdated(msg.sender, \"userName\", _userName, now);\n    }\n\n    function setLocation(string memory _location) public {\n        //require user address to exist\n        require(msg.sender != address(0x0));\n\n        //get user\n        User memory _user = users[msg.sender];\n\n        //update value and put back into mapping\n        _user.location = _location;\n        users[msg.sender] = _user;\n\n        //emit event\n        emit UserUpdated(msg.sender, \"location\", _location, now);\n    }\n\n    function setPhone(string memory _phone) public {\n        //require user address to exist\n        require(msg.sender != address(0x0));\n\n        //get user\n        User memory _user = users[msg.sender];\n\n        //update value and put back into mapping\n        _user.phone = _phone;\n        users[msg.sender] = _user;\n\n        //emit event\n        emit UserUpdated(msg.sender, \"phone\", _phone, now);\n    }\n\n    function setEmail(string memory _email) public {\n        //require user address to exist\n        require(msg.sender != address(0x0));\n\n        //get user\n        User memory _user = users[msg.sender];\n\n        //update value and put back into mapping\n        _user.email = _email;\n        users[msg.sender] = _user;\n\n        //emit event\n        emit UserUpdated(msg.sender, \"email\", _email, now);\n    }\n\n    function setOccupation(string memory _occupation) public {\n        //require user address to exist\n        require(msg.sender != address(0x0));\n\n        //get user\n        User memory _user = users[msg.sender];\n\n        //update value and put back into mapping\n        _user.occupation = _occupation;\n        users[msg.sender] = _user;\n\n        //emit event\n        emit UserUpdated(msg.sender, \"occupation\", _occupation, now);\n    }\n}\n",
  "sourcePath": "/mnt/c/pr0/cryptogram/src/contracts/Cryptogram-old.sol",
  "compiler": {
    "name": "solc",
    "version": "0.5.16+commit.9c3226ce.Emscripten.clang"
  },
  "schemaVersion": "3.3.3",
  "updatedAt": "2021-04-28T19:57:55.534Z",
  "devdoc": {
    "methods": {}
  },
  "userdoc": {
    "methods": {
      "setUserName(string)": {
        "notice": "*************Setter Functions*******************"
      }
    }
  }
}