{
  "contractName": "CryptoGram",
  "abi": [
    {
      "anonymous": false,
      "inputs": [
        {
          "indexed": false,
          "internalType": "uint256",
          "name": "id",
          "type": "uint256"
        },
        {
          "indexed": false,
          "internalType": "uint256",
          "name": "postID",
          "type": "uint256"
        },
        {
          "indexed": false,
          "internalType": "string",
          "name": "comment",
          "type": "string"
        },
        {
          "indexed": false,
          "internalType": "address",
          "name": "author",
          "type": "address"
        },
        {
          "indexed": false,
          "internalType": "uint256",
          "name": "timeStamp",
          "type": "uint256"
        }
      ],
      "name": "CommentAdded",
      "type": "event"
    },
    {
      "anonymous": false,
      "inputs": [
        {
          "indexed": false,
          "internalType": "uint256",
          "name": "id",
          "type": "uint256"
        },
        {
          "indexed": false,
          "internalType": "address",
          "name": "author",
          "type": "address"
        },
        {
          "indexed": false,
          "internalType": "uint256",
          "name": "timeStamp",
          "type": "uint256"
        }
      ],
      "name": "CommentDeleted",
      "type": "event"
    },
    {
      "anonymous": false,
      "inputs": [
        {
          "indexed": false,
          "internalType": "uint256",
          "name": "id",
          "type": "uint256"
        },
        {
          "indexed": false,
          "internalType": "uint256",
          "name": "postID",
          "type": "uint256"
        },
        {
          "indexed": false,
          "internalType": "string",
          "name": "comment",
          "type": "string"
        },
        {
          "indexed": false,
          "internalType": "address",
          "name": "author",
          "type": "address"
        },
        {
          "indexed": false,
          "internalType": "uint256",
          "name": "tipAmount",
          "type": "uint256"
        },
        {
          "indexed": false,
          "internalType": "uint256",
          "name": "timeStamp",
          "type": "uint256"
        }
      ],
      "name": "CommentTipped",
      "type": "event"
    },
    {
      "anonymous": false,
      "inputs": [
        {
          "indexed": false,
          "internalType": "uint256",
          "name": "id",
          "type": "uint256"
        },
        {
          "indexed": false,
          "internalType": "string",
          "name": "hash",
          "type": "string"
        },
        {
          "indexed": false,
          "internalType": "string",
          "name": "description",
          "type": "string"
        },
        {
          "indexed": false,
          "internalType": "uint256",
          "name": "tipAmount",
          "type": "uint256"
        },
        {
          "indexed": false,
          "internalType": "address payable",
          "name": "author",
          "type": "address"
        },
        {
          "indexed": false,
          "internalType": "uint256",
          "name": "timeStamp",
          "type": "uint256"
        }
      ],
      "name": "ImageAdded",
      "type": "event"
    },
    {
      "anonymous": false,
      "inputs": [
        {
          "indexed": false,
          "internalType": "uint256",
          "name": "id",
          "type": "uint256"
        },
        {
          "indexed": false,
          "internalType": "uint256",
          "name": "timeStamp",
          "type": "uint256"
        }
      ],
      "name": "ImageDeleted",
      "type": "event"
    },
    {
      "anonymous": false,
      "inputs": [
        {
          "indexed": false,
          "internalType": "uint256",
          "name": "id",
          "type": "uint256"
        },
        {
          "indexed": false,
          "internalType": "string",
          "name": "hash",
          "type": "string"
        },
        {
          "indexed": false,
          "internalType": "string",
          "name": "description",
          "type": "string"
        },
        {
          "indexed": false,
          "internalType": "uint256",
          "name": "tipAmount",
          "type": "uint256"
        },
        {
          "indexed": false,
          "internalType": "address payable",
          "name": "author",
          "type": "address"
        },
        {
          "indexed": false,
          "internalType": "uint256",
          "name": "timeStamp",
          "type": "uint256"
        }
      ],
      "name": "ImageTipped",
      "type": "event"
    },
    {
      "anonymous": false,
      "inputs": [
        {
          "indexed": false,
          "internalType": "uint256",
          "name": "id",
          "type": "uint256"
        },
        {
          "indexed": false,
          "internalType": "uint256",
          "name": "imageID",
          "type": "uint256"
        },
        {
          "indexed": false,
          "internalType": "string",
          "name": "title",
          "type": "string"
        },
        {
          "indexed": false,
          "internalType": "address",
          "name": "author",
          "type": "address"
        },
        {
          "indexed": false,
          "internalType": "string",
          "name": "link",
          "type": "string"
        },
        {
          "indexed": false,
          "internalType": "string",
          "name": "status",
          "type": "string"
        },
        {
          "indexed": false,
          "internalType": "uint256",
          "name": "timeStamp",
          "type": "uint256"
        }
      ],
      "name": "PostAdded",
      "type": "event"
    },
    {
      "anonymous": false,
      "inputs": [
        {
          "indexed": false,
          "internalType": "uint256",
          "name": "id",
          "type": "uint256"
        },
        {
          "indexed": false,
          "internalType": "address",
          "name": "author",
          "type": "address"
        },
        {
          "indexed": false,
          "internalType": "uint256",
          "name": "timeStamp",
          "type": "uint256"
        }
      ],
      "name": "PostDeleted",
      "type": "event"
    },
    {
      "anonymous": false,
      "inputs": [
        {
          "indexed": false,
          "internalType": "address",
          "name": "userAccount",
          "type": "address"
        },
        {
          "indexed": false,
          "internalType": "string",
          "name": "userName",
          "type": "string"
        },
        {
          "indexed": false,
          "internalType": "string",
          "name": "status",
          "type": "string"
        },
        {
          "indexed": false,
          "internalType": "string",
          "name": "location",
          "type": "string"
        },
        {
          "indexed": false,
          "internalType": "string",
          "name": "phone",
          "type": "string"
        },
        {
          "indexed": false,
          "internalType": "string",
          "name": "email",
          "type": "string"
        },
        {
          "indexed": false,
          "internalType": "string",
          "name": "occupation",
          "type": "string"
        },
        {
          "indexed": false,
          "internalType": "uint256",
          "name": "timeStamp",
          "type": "uint256"
        }
      ],
      "name": "UserAdded",
      "type": "event"
    },
    {
      "anonymous": false,
      "inputs": [
        {
          "indexed": false,
          "internalType": "address",
          "name": "userAccount",
          "type": "address"
        },
        {
          "indexed": false,
          "internalType": "uint256",
          "name": "timeStamp",
          "type": "uint256"
        }
      ],
      "name": "UserDeleted",
      "type": "event"
    },
    {
      "anonymous": false,
      "inputs": [
        {
          "indexed": false,
          "internalType": "address",
          "name": "userAccount",
          "type": "address"
        },
        {
          "indexed": false,
          "internalType": "string",
          "name": "valueChanged",
          "type": "string"
        },
        {
          "indexed": false,
          "internalType": "string",
          "name": "newValue",
          "type": "string"
        },
        {
          "indexed": false,
          "internalType": "uint256",
          "name": "timeStamp",
          "type": "uint256"
        }
      ],
      "name": "UserUpdated",
      "type": "event"
    },
    {
      "payable": false,
      "stateMutability": "nonpayable",
      "type": "fallback"
    },
    {
      "constant": true,
      "inputs": [],
      "name": "commentCount",
      "outputs": [
        {
          "internalType": "uint256",
          "name": "",
          "type": "uint256"
        }
      ],
      "payable": false,
      "stateMutability": "view",
      "type": "function"
    },
    {
      "constant": true,
      "inputs": [
        {
          "internalType": "uint256",
          "name": "",
          "type": "uint256"
        }
      ],
      "name": "comments",
      "outputs": [
        {
          "internalType": "uint256",
          "name": "id",
          "type": "uint256"
        },
        {
          "internalType": "uint256",
          "name": "postID",
          "type": "uint256"
        },
        {
          "internalType": "string",
          "name": "comment",
          "type": "string"
        },
        {
          "internalType": "address payable",
          "name": "author",
          "type": "address"
        },
        {
          "internalType": "uint256",
          "name": "tipAmount",
          "type": "uint256"
        },
        {
          "internalType": "uint256",
          "name": "timeStamp",
          "type": "uint256"
        }
      ],
      "payable": false,
      "stateMutability": "view",
      "type": "function"
    },
    {
      "constant": true,
      "inputs": [],
      "name": "contractDescription",
      "outputs": [
        {
          "internalType": "string",
          "name": "",
          "type": "string"
        }
      ],
      "payable": false,
      "stateMutability": "view",
      "type": "function"
    },
    {
      "constant": true,
      "inputs": [
        {
          "internalType": "uint256",
          "name": "",
          "type": "uint256"
        }
      ],
      "name": "deletedComments",
      "outputs": [
        {
          "internalType": "bool",
          "name": "",
          "type": "bool"
        }
      ],
      "payable": false,
      "stateMutability": "view",
      "type": "function"
    },
    {
      "constant": true,
      "inputs": [
        {
          "internalType": "uint256",
          "name": "",
          "type": "uint256"
        }
      ],
      "name": "deletedImages",
      "outputs": [
        {
          "internalType": "bool",
          "name": "",
          "type": "bool"
        }
      ],
      "payable": false,
      "stateMutability": "view",
      "type": "function"
    },
    {
      "constant": true,
      "inputs": [
        {
          "internalType": "uint256",
          "name": "",
          "type": "uint256"
        }
      ],
      "name": "deletedPosts",
      "outputs": [
        {
          "internalType": "bool",
          "name": "",
          "type": "bool"
        }
      ],
      "payable": false,
      "stateMutability": "view",
      "type": "function"
    },
    {
      "constant": true,
      "inputs": [],
      "name": "imageCount",
      "outputs": [
        {
          "internalType": "uint256",
          "name": "",
          "type": "uint256"
        }
      ],
      "payable": false,
      "stateMutability": "view",
      "type": "function"
    },
    {
      "constant": true,
      "inputs": [
        {
          "internalType": "uint256",
          "name": "",
          "type": "uint256"
        }
      ],
      "name": "images",
      "outputs": [
        {
          "internalType": "uint256",
          "name": "id",
          "type": "uint256"
        },
        {
          "internalType": "string",
          "name": "hash",
          "type": "string"
        },
        {
          "internalType": "string",
          "name": "description",
          "type": "string"
        },
        {
          "internalType": "uint256",
          "name": "tipAmount",
          "type": "uint256"
        },
        {
          "internalType": "address payable",
          "name": "author",
          "type": "address"
        },
        {
          "internalType": "uint256",
          "name": "timeStamp",
          "type": "uint256"
        }
      ],
      "payable": false,
      "stateMutability": "view",
      "type": "function"
    },
    {
      "constant": true,
      "inputs": [],
      "name": "name",
      "outputs": [
        {
          "internalType": "string",
          "name": "",
          "type": "string"
        }
      ],
      "payable": false,
      "stateMutability": "view",
      "type": "function"
    },
    {
      "constant": true,
      "inputs": [],
      "name": "postCount",
      "outputs": [
        {
          "internalType": "uint256",
          "name": "",
          "type": "uint256"
        }
      ],
      "payable": false,
      "stateMutability": "view",
      "type": "function"
    },
    {
      "constant": true,
      "inputs": [
        {
          "internalType": "uint256",
          "name": "",
          "type": "uint256"
        }
      ],
      "name": "posts",
      "outputs": [
        {
          "internalType": "uint256",
          "name": "id",
          "type": "uint256"
        },
        {
          "internalType": "uint256",
          "name": "imageID",
          "type": "uint256"
        },
        {
          "internalType": "string",
          "name": "title",
          "type": "string"
        },
        {
          "internalType": "address",
          "name": "author",
          "type": "address"
        },
        {
          "internalType": "string",
          "name": "link",
          "type": "string"
        },
        {
          "internalType": "string",
          "name": "status",
          "type": "string"
        },
        {
          "internalType": "uint256",
          "name": "timeStamp",
          "type": "uint256"
        }
      ],
      "payable": false,
      "stateMutability": "view",
      "type": "function"
    },
    {
      "constant": true,
      "inputs": [],
      "name": "userCount",
      "outputs": [
        {
          "internalType": "uint256",
          "name": "",
          "type": "uint256"
        }
      ],
      "payable": false,
      "stateMutability": "view",
      "type": "function"
    },
    {
      "constant": true,
      "inputs": [
        {
          "internalType": "address",
          "name": "",
          "type": "address"
        }
      ],
      "name": "users",
      "outputs": [
        {
          "internalType": "address",
          "name": "userAccount",
          "type": "address"
        },
        {
          "internalType": "string",
          "name": "userName",
          "type": "string"
        },
        {
          "internalType": "string",
          "name": "status",
          "type": "string"
        },
        {
          "internalType": "string",
          "name": "location",
          "type": "string"
        },
        {
          "internalType": "string",
          "name": "phone",
          "type": "string"
        },
        {
          "internalType": "string",
          "name": "email",
          "type": "string"
        },
        {
          "internalType": "string",
          "name": "occupation",
          "type": "string"
        },
        {
          "internalType": "uint256",
          "name": "timeStamp",
          "type": "uint256"
        }
      ],
      "payable": false,
      "stateMutability": "view",
      "type": "function"
    },
    {
      "constant": false,
      "inputs": [
        {
          "internalType": "uint256",
          "name": "_id",
          "type": "uint256"
        }
      ],
      "name": "tipImageOwner",
      "outputs": [],
      "payable": true,
      "stateMutability": "payable",
      "type": "function"
    },
    {
      "constant": false,
      "inputs": [
        {
          "internalType": "string",
          "name": "_userName",
          "type": "string"
        },
        {
          "internalType": "string",
          "name": "_status",
          "type": "string"
        },
        {
          "internalType": "string",
          "name": "_location",
          "type": "string"
        },
        {
          "internalType": "string",
          "name": "_phone",
          "type": "string"
        },
        {
          "internalType": "string",
          "name": "_email",
          "type": "string"
        },
        {
          "internalType": "string",
          "name": "_occupation",
          "type": "string"
        }
      ],
      "name": "addUser",
      "outputs": [],
      "payable": false,
      "stateMutability": "nonpayable",
      "type": "function"
    },
    {
      "constant": false,
      "inputs": [],
      "name": "deleteUser",
      "outputs": [],
      "payable": false,
      "stateMutability": "nonpayable",
      "type": "function"
    },
    {
      "constant": false,
      "inputs": [
        {
          "internalType": "string",
          "name": "_hash",
          "type": "string"
        },
        {
          "internalType": "string",
          "name": "_desc",
          "type": "string"
        },
        {
          "internalType": "string",
          "name": "_title",
          "type": "string"
        },
        {
          "internalType": "string",
          "name": "_link",
          "type": "string"
        },
        {
          "internalType": "bool",
          "name": "includesImage",
          "type": "bool"
        }
      ],
      "name": "makePost",
      "outputs": [],
      "payable": false,
      "stateMutability": "nonpayable",
      "type": "function"
    },
    {
      "constant": false,
      "inputs": [
        {
          "internalType": "uint256",
          "name": "_postID",
          "type": "uint256"
        }
      ],
      "name": "deletePost",
      "outputs": [],
      "payable": false,
      "stateMutability": "nonpayable",
      "type": "function"
    },
    {
      "constant": false,
      "inputs": [
        {
          "internalType": "uint256",
          "name": "_postID",
          "type": "uint256"
        },
        {
          "internalType": "string",
          "name": "_comment",
          "type": "string"
        }
      ],
      "name": "comment",
      "outputs": [],
      "payable": false,
      "stateMutability": "nonpayable",
      "type": "function"
    },
    {
      "constant": false,
      "inputs": [
        {
          "internalType": "uint256",
          "name": "_commentID",
          "type": "uint256"
        }
      ],
      "name": "tipComment",
      "outputs": [],
      "payable": true,
      "stateMutability": "payable",
      "type": "function"
    },
    {
      "constant": false,
      "inputs": [
        {
          "internalType": "uint256",
          "name": "_commentID",
          "type": "uint256"
        }
      ],
      "name": "deleteComment",
      "outputs": [],
      "payable": false,
      "stateMutability": "nonpayable",
      "type": "function"
    },
    {
      "constant": false,
      "inputs": [
        {
          "internalType": "string",
          "name": "_type",
          "type": "string"
        },
        {
          "internalType": "string",
          "name": "_value",
          "type": "string"
        }
      ],
      "name": "updateUser",
      "outputs": [],
      "payable": false,
      "stateMutability": "nonpayable",
      "type": "function"
    }
  ],
  "bytecode": "0x60806040526040518060600160405280603e8152602001620050fa603e9139600090805190602001906200003592919062000090565b506040518060c00160405280608181526020016200513860819139600190805190602001906200006792919062000090565b5060006002556000600355600060045560006005553480156200008957600080fd5b506200013f565b828054600181600116156101000203166002900490600052602060002090601f016020900481019282601f10620000d357805160ff191683800117855562000104565b8280016001018555821562000104579182015b8281111562000103578251825591602001919060010190620000e6565b5b50905062000113919062000117565b5090565b6200013c91905b80821115620001385760008160009055506001016200011e565b5090565b90565b614fab806200014f6000396000f3fe6080604052600436106101355760003560e01c80634d36f015116100ab578063872db8891161006f578063872db88914610e495780638ebb4c1514610ed957806392053b6314610fdc578063a87430ba14611007578063b858f42714611327578063dd4a24251461137a57610135565b80634d36f0151461098c57806374d0d45d14610c255780637d0b102614610c785780638485648214610cb35780638567ade814610e1b57610135565b806317906c2e116100fd57806317906c2e146104285780631805c523146104535780633578d5d31461052557806345b7ba121461057857806345ff20de146109335780634802a76c1461095e57610135565b8063026ff05e1461014757806306fdde031461015e57806307973ccf146101ee578063094cd5ee146102195780630b1e7f8314610254575b34801561014157600080fd5b50600080fd5b34801561015357600080fd5b5061015c6114d9565b005b34801561016a57600080fd5b50610173611664565b6040518080602001828103825283818151815260200191508051906020019080838360005b838110156101b3578082015181840152602081019050610198565b50505050905090810190601f1680156101e05780820380516001836020036101000a031916815260200191505b509250505060405180910390f35b3480156101fa57600080fd5b50610203611702565b6040518082815260200191505060405180910390f35b34801561022557600080fd5b506102526004803603602081101561023c57600080fd5b8101908080359060200190929190505050611708565b005b34801561026057600080fd5b5061028d6004803603602081101561027757600080fd5b8101908080359060200190929190505050611b90565b60405180888152602001878152602001806020018673ffffffffffffffffffffffffffffffffffffffff1673ffffffffffffffffffffffffffffffffffffffff1681526020018060200180602001858152602001848103845289818151815260200191508051906020019080838360005b838110156103195780820151818401526020810190506102fe565b50505050905090810190601f1680156103465780820380516001836020036101000a031916815260200191505b50848103835287818151815260200191508051906020019080838360005b8381101561037f578082015181840152602081019050610364565b50505050905090810190601f1680156103ac5780820380516001836020036101000a031916815260200191505b50848103825286818151815260200191508051906020019080838360005b838110156103e55780820151818401526020810190506103ca565b50505050905090810190601f1680156104125780820380516001836020036101000a031916815260200191505b509a505050505050505050505060405180910390f35b34801561043457600080fd5b5061043d611dba565b6040518082815260200191505060405180910390f35b34801561045f57600080fd5b506105236004803603604081101561047657600080fd5b81019080803590602001909291908035906020019064010000000081111561049d57600080fd5b8201836020820111156104af57600080fd5b803590602001918460018302840111640100000000831117156104d157600080fd5b91908080601f016020809104026020016040519081016040528093929190818152602001838380828437600081840152601f19601f820116905080830192505050505050509192919290505050611dc0565b005b34801561053157600080fd5b5061055e6004803603602081101561054857600080fd5b8101908080359060200190929190505050611ffe565b604051808215151515815260200191505060405180910390f35b34801561058457600080fd5b50610931600480360360c081101561059b57600080fd5b81019080803590602001906401000000008111156105b857600080fd5b8201836020820111156105ca57600080fd5b803590602001918460018302840111640100000000831117156105ec57600080fd5b91908080601f016020809104026020016040519081016040528093929190818152602001838380828437600081840152601f19601f8201169050808301925050505050505091929192908035906020019064010000000081111561064f57600080fd5b82018360208201111561066157600080fd5b8035906020019184600183028401116401000000008311171561068357600080fd5b91908080601f016020809104026020016040519081016040528093929190818152602001838380828437600081840152601f19601f820116905080830192505050505050509192919290803590602001906401000000008111156106e657600080fd5b8201836020820111156106f857600080fd5b8035906020019184600183028401116401000000008311171561071a57600080fd5b91908080601f016020809104026020016040519081016040528093929190818152602001838380828437600081840152601f19601f8201169050808301925050505050505091929192908035906020019064010000000081111561077d57600080fd5b82018360208201111561078f57600080fd5b803590602001918460018302840111640100000000831117156107b157600080fd5b91908080601f016020809104026020016040519081016040528093929190818152602001838380828437600081840152601f19601f8201169050808301925050505050505091929192908035906020019064010000000081111561081457600080fd5b82018360208201111561082657600080fd5b8035906020019184600183028401116401000000008311171561084857600080fd5b91908080601f016020809104026020016040519081016040528093929190818152602001838380828437600081840152601f19601f820116905080830192505050505050509192919290803590602001906401000000008111156108ab57600080fd5b8201836020820111156108bd57600080fd5b803590602001918460018302840111640100000000831117156108df57600080fd5b91908080601f016020809104026020016040519081016040528093929190818152602001838380828437600081840152601f19601f82011690508083019250505050505050919291929050505061201e565b005b34801561093f57600080fd5b50610948612542565b6040518082815260200191505060405180910390f35b61098a6004803603602081101561097457600080fd5b8101908080359060200190929190505050612548565b005b34801561099857600080fd5b50610c23600480360360a08110156109af57600080fd5b81019080803590602001906401000000008111156109cc57600080fd5b8201836020820111156109de57600080fd5b80359060200191846001830284011164010000000083111715610a0057600080fd5b91908080601f016020809104026020016040519081016040528093929190818152602001838380828437600081840152601f19601f82011690508083019250505050505050919291929080359060200190640100000000811115610a6357600080fd5b820183602082011115610a7557600080fd5b80359060200191846001830284011164010000000083111715610a9757600080fd5b91908080601f016020809104026020016040519081016040528093929190818152602001838380828437600081840152601f19601f82011690508083019250505050505050919291929080359060200190640100000000811115610afa57600080fd5b820183602082011115610b0c57600080fd5b80359060200191846001830284011164010000000083111715610b2e57600080fd5b91908080601f016020809104026020016040519081016040528093929190818152602001838380828437600081840152601f19601f82011690508083019250505050505050919291929080359060200190640100000000811115610b9157600080fd5b820183602082011115610ba357600080fd5b80359060200191846001830284011164010000000083111715610bc557600080fd5b91908080601f016020809104026020016040519081016040528093929190818152602001838380828437600081840152601f19601f8201169050808301925050505050505091929192908035151590602001909291905050506128e5565b005b348015610c3157600080fd5b50610c5e60048036036020811015610c4857600080fd5b8101908080359060200190929190505050612c63565b604051808215151515815260200191505060405180910390f35b348015610c8457600080fd5b50610cb160048036036020811015610c9b57600080fd5b8101908080359060200190929190505050612c83565b005b348015610cbf57600080fd5b50610cec60048036036020811015610cd657600080fd5b8101908080359060200190929190505050612f63565b6040518087815260200180602001806020018681526020018573ffffffffffffffffffffffffffffffffffffffff1673ffffffffffffffffffffffffffffffffffffffff168152602001848152602001838103835288818151815260200191508051906020019080838360005b83811015610d74578082015181840152602081019050610d59565b50505050905090810190601f168015610da15780820380516001836020036101000a031916815260200191505b50838103825287818151815260200191508051906020019080838360005b83811015610dda578082015181840152602081019050610dbf565b50505050905090810190601f168015610e075780820380516001836020036101000a031916815260200191505b509850505050505050505060405180910390f35b610e4760048036036020811015610e3157600080fd5b81019080803590602001909291905050506130ef565b005b348015610e5557600080fd5b50610e5e613591565b6040518080602001828103825283818151815260200191508051906020019080838360005b83811015610e9e578082015181840152602081019050610e83565b50505050905090810190601f168015610ecb5780820380516001836020036101000a031916815260200191505b509250505060405180910390f35b348015610ee557600080fd5b50610f1260048036036020811015610efc57600080fd5b810190808035906020019092919050505061362f565b60405180878152602001868152602001806020018573ffffffffffffffffffffffffffffffffffffffff1673ffffffffffffffffffffffffffffffffffffffff168152602001848152602001838152602001828103825286818151815260200191508051906020019080838360005b83811015610f9c578082015181840152602081019050610f81565b50505050905090810190601f168015610fc95780820380516001836020036101000a031916815260200191505b5097505050505050505060405180910390f35b348015610fe857600080fd5b50610ff1613723565b6040518082815260200191505060405180910390f35b34801561101357600080fd5b506110566004803603602081101561102a57600080fd5b81019080803573ffffffffffffffffffffffffffffffffffffffff169060200190929190505050613729565b604051808973ffffffffffffffffffffffffffffffffffffffff1673ffffffffffffffffffffffffffffffffffffffff16815260200180602001806020018060200180602001806020018060200188815260200187810387528e818151815260200191508051906020019080838360005b838110156110e25780820151818401526020810190506110c7565b50505050905090810190601f16801561110f5780820380516001836020036101000a031916815260200191505b5087810386528d818151815260200191508051906020019080838360005b8381101561114857808201518184015260208101905061112d565b50505050905090810190601f1680156111755780820380516001836020036101000a031916815260200191505b5087810385528c818151815260200191508051906020019080838360005b838110156111ae578082015181840152602081019050611193565b50505050905090810190601f1680156111db5780820380516001836020036101000a031916815260200191505b5087810384528b818151815260200191508051906020019080838360005b838110156112145780820151818401526020810190506111f9565b50505050905090810190601f1680156112415780820380516001836020036101000a031916815260200191505b5087810383528a818151815260200191508051906020019080838360005b8381101561127a57808201518184015260208101905061125f565b50505050905090810190601f1680156112a75780820380516001836020036101000a031916815260200191505b50878103825289818151815260200191508051906020019080838360005b838110156112e05780820151818401526020810190506112c5565b50505050905090810190601f16801561130d5780820380516001836020036101000a031916815260200191505b509e50505050505050505050505050505060405180910390f35b34801561133357600080fd5b506113606004803603602081101561134a57600080fd5b8101908080359060200190929190505050613b21565b604051808215151515815260200191505060405180910390f35b34801561138657600080fd5b506114d76004803603604081101561139d57600080fd5b81019080803590602001906401000000008111156113ba57600080fd5b8201836020820111156113cc57600080fd5b803590602001918460018302840111640100000000831117156113ee57600080fd5b91908080601f016020809104026020016040519081016040528093929190818152602001838380828437600081840152601f19601f8201169050808301925050505050505091929192908035906020019064010000000081111561145157600080fd5b82018360208201111561146357600080fd5b8035906020019184600183028401116401000000008311171561148557600080fd5b91908080601f016020809104026020016040519081016040528093929190818152602001838380828437600081840152601f19601f820116905080830192505050505050509192919290505050613b41565b005b600073ffffffffffffffffffffffffffffffffffffffff163373ffffffffffffffffffffffffffffffffffffffff16141561151357600080fd5b60036000815480929190600190039190505550600760003373ffffffffffffffffffffffffffffffffffffffff1673ffffffffffffffffffffffffffffffffffffffff168152602001908152602001600020600080820160006101000a81549073ffffffffffffffffffffffffffffffffffffffff021916905560018201600061159d9190614d43565b6002820160006115ad9190614d43565b6003820160006115bd9190614d43565b6004820160006115cd9190614d43565b6005820160006115dd9190614d43565b6006820160006115ed9190614d43565b600782016000905550507fde5d01a9e3db449330a6770ec433f2fd5839fab3ed1f1cfc1ed992bdfa7e6f3c3342604051808373ffffffffffffffffffffffffffffffffffffffff1673ffffffffffffffffffffffffffffffffffffffff1681526020018281526020019250505060405180910390a1565b60008054600181600116156101000203166002900480601f0160208091040260200160405190810160405280929190818152602001828054600181600116156101000203166002900480156116fa5780601f106116cf576101008083540402835291602001916116fa565b820191906000526020600020905b8154815290600101906020018083116116dd57829003601f168201915b505050505081565b60035481565b600073ffffffffffffffffffffffffffffffffffffffff163373ffffffffffffffffffffffffffffffffffffffff16141561174257600080fd5b60008111801561175457506004548111155b61175d57600080fd5b600b600082815260200190815260200160002060009054906101000a900460ff161561178857600080fd5b611790614d8b565b600860008381526020019081526020016000206040518060e00160405290816000820154815260200160018201548152602001600282018054600181600116156101000203166002900480601f01602080910402602001604051908101604052809291908181526020018280546001816001161561010002031660029004801561185b5780601f106118305761010080835404028352916020019161185b565b820191906000526020600020905b81548152906001019060200180831161183e57829003601f168201915b505050505081526020016003820160009054906101000a900473ffffffffffffffffffffffffffffffffffffffff1673ffffffffffffffffffffffffffffffffffffffff1673ffffffffffffffffffffffffffffffffffffffff168152602001600482018054600181600116156101000203166002900480601f0160208091040260200160405190810160405280929190818152602001828054600181600116156101000203166002900480156119535780601f1061192857610100808354040283529160200191611953565b820191906000526020600020905b81548152906001019060200180831161193657829003601f168201915b50505050508152602001600582018054600181600116156101000203166002900480601f0160208091040260200160405190810160405280929190818152602001828054600181600116156101000203166002900480156119f55780601f106119ca576101008083540402835291602001916119f5565b820191906000526020600020905b8154815290600101906020018083116119d857829003601f168201915b5050505050815260200160068201548152505090506000816060015190508073ffffffffffffffffffffffffffffffffffffffff163373ffffffffffffffffffffffffffffffffffffffff1614611a4b57600080fd5b60008260200151905060008114611a6657611a6581614992565b5b600860008581526020019081526020016000206000808201600090556001820160009055600282016000611a9a9190614d43565b6003820160006101000a81549073ffffffffffffffffffffffffffffffffffffffff0219169055600482016000611ad19190614d43565b600582016000611ae19190614d43565b600682016000905550506001600b600086815260200190815260200160002060006101000a81548160ff0219169083151502179055507f5e42e69173be270ce245e462f59bfb0495101b60e83428782275fbca8ec66f0e848342604051808481526020018373ffffffffffffffffffffffffffffffffffffffff1673ffffffffffffffffffffffffffffffffffffffff168152602001828152602001935050505060405180910390a150505050565b6008602052806000526040600020600091509050806000015490806001015490806002018054600181600116156101000203166002900480601f016020809104026020016040519081016040528092919081815260200182805460018160011615610100020316600290048015611c485780601f10611c1d57610100808354040283529160200191611c48565b820191906000526020600020905b815481529060010190602001808311611c2b57829003601f168201915b5050505050908060030160009054906101000a900473ffffffffffffffffffffffffffffffffffffffff1690806004018054600181600116156101000203166002900480601f016020809104026020016040519081016040528092919081815260200182805460018160011615610100020316600290048015611d0c5780601f10611ce157610100808354040283529160200191611d0c565b820191906000526020600020905b815481529060010190602001808311611cef57829003601f168201915b505050505090806005018054600181600116156101000203166002900480601f016020809104026020016040519081016040528092919081815260200182805460018160011615610100020316600290048015611daa5780601f10611d7f57610100808354040283529160200191611daa565b820191906000526020600020905b815481529060010190602001808311611d8d57829003601f168201915b5050505050908060060154905087565b60045481565b6000815111611dce57600080fd5b600082118015611de057506004548211155b611de957600080fd5b600b600083815260200190815260200160002060009054906101000a900460ff1615611e1457600080fd5b6005600081548092919060010191905055506040518060c0016040528060055481526020018381526020018281526020013373ffffffffffffffffffffffffffffffffffffffff168152602001600081526020014281525060096000600554815260200190815260200160002060008201518160000155602082015181600101556040820151816002019080519060200190611eb1929190614dde565b5060608201518160030160006101000a81548173ffffffffffffffffffffffffffffffffffffffff021916908373ffffffffffffffffffffffffffffffffffffffff1602179055506080820151816004015560a082015181600501559050507f8d17c5eae06e04f4a2486e4d625ea8b9c564609be880bf5681c124e9f2396ed46005548383334260405180868152602001858152602001806020018473ffffffffffffffffffffffffffffffffffffffff1673ffffffffffffffffffffffffffffffffffffffff168152602001838152602001828103825285818151815260200191508051906020019080838360005b83811015611fbc578082015181840152602081019050611fa1565b50505050905090810190601f168015611fe95780820380516001836020036101000a031916815260200191505b50965050505050505060405180910390a15050565b600b6020528060005260406000206000915054906101000a900460ff1681565b600073ffffffffffffffffffffffffffffffffffffffff163373ffffffffffffffffffffffffffffffffffffffff16141561205857600080fd5b600086511161206657600080fd5b600085511161207457600080fd5b600084511161208257600080fd5b600082511161209057600080fd5b600081511161209e57600080fd5b6003600081548092919060010191905055506040518061010001604052803373ffffffffffffffffffffffffffffffffffffffff16815260200187815260200186815260200185815260200184815260200183815260200182815260200142815250600760003373ffffffffffffffffffffffffffffffffffffffff1673ffffffffffffffffffffffffffffffffffffffff16815260200190815260200160002060008201518160000160006101000a81548173ffffffffffffffffffffffffffffffffffffffff021916908373ffffffffffffffffffffffffffffffffffffffff16021790555060208201518160010190805190602001906121a2929190614dde565b5060408201518160020190805190602001906121bf929190614dde565b5060608201518160030190805190602001906121dc929190614dde565b5060808201518160040190805190602001906121f9929190614dde565b5060a0820151816005019080519060200190612216929190614dde565b5060c0820151816006019080519060200190612233929190614dde565b5060e082015181600701559050507f11ef8a13807d950ba4014fc14b37d6416df3b812b0ffbd2d4c4b73a239bcf5b23387878787878742604051808973ffffffffffffffffffffffffffffffffffffffff1673ffffffffffffffffffffffffffffffffffffffff16815260200180602001806020018060200180602001806020018060200188815260200187810387528e818151815260200191508051906020019080838360005b838110156122f65780820151818401526020810190506122db565b50505050905090810190601f1680156123235780820380516001836020036101000a031916815260200191505b5087810386528d818151815260200191508051906020019080838360005b8381101561235c578082015181840152602081019050612341565b50505050905090810190601f1680156123895780820380516001836020036101000a031916815260200191505b5087810385528c818151815260200191508051906020019080838360005b838110156123c25780820151818401526020810190506123a7565b50505050905090810190601f1680156123ef5780820380516001836020036101000a031916815260200191505b5087810384528b818151815260200191508051906020019080838360005b8381101561242857808201518184015260208101905061240d565b50505050905090810190601f1680156124555780820380516001836020036101000a031916815260200191505b5087810383528a818151815260200191508051906020019080838360005b8381101561248e578082015181840152602081019050612473565b50505050905090810190601f1680156124bb5780820380516001836020036101000a031916815260200191505b50878103825289818151815260200191508051906020019080838360005b838110156124f45780820151818401526020810190506124d9565b50505050905090810190601f1680156125215780820380516001836020036101000a031916815260200191505b509e50505050505050505050505050505060405180910390a1505050505050565b60055481565b60008111801561255a57506005548111155b61256357600080fd5b600c600082815260200190815260200160002060009054906101000a900460ff161561258e57600080fd5b612596614e5e565b600960008381526020019081526020016000206040518060c00160405290816000820154815260200160018201548152602001600282018054600181600116156101000203166002900480601f0160208091040260200160405190810160405280929190818152602001828054600181600116156101000203166002900480156126615780601f1061263657610100808354040283529160200191612661565b820191906000526020600020905b81548152906001019060200180831161264457829003601f168201915b505050505081526020016003820160009054906101000a900473ffffffffffffffffffffffffffffffffffffffff1673ffffffffffffffffffffffffffffffffffffffff1673ffffffffffffffffffffffffffffffffffffffff1681526020016004820154815260200160058201548152505090506000816060015190506000826020015190506060836040015190508273ffffffffffffffffffffffffffffffffffffffff166108fc349081150290604051600060405180830381858888f19350505050158015612737573d6000803e3d6000fd5b503484608001510184608001818152505083600960008781526020019081526020016000206000820151816000015560208201518160010155604082015181600201908051906020019061278c929190614dde565b5060608201518160030160006101000a81548173ffffffffffffffffffffffffffffffffffffffff021916908373ffffffffffffffffffffffffffffffffffffffff1602179055506080820151816004015560a082015181600501559050507f06d58664ca2a76b994d6f23859136f61aeddcbd4fb6691d8b8ca6990922e2b0d60055483833360004260405180878152602001868152602001806020018573ffffffffffffffffffffffffffffffffffffffff1673ffffffffffffffffffffffffffffffffffffffff168152602001848152602001838152602001828103825286818151815260200191508051906020019080838360005b8381101561289f578082015181840152602081019050612884565b50505050905090810190601f1680156128cc5780820380516001836020036101000a031916815260200191505b5097505050505050505060405180910390a15050505050565b60008351116128f357600080fd5b600082511161290157600080fd5b600073ffffffffffffffffffffffffffffffffffffffff163373ffffffffffffffffffffffffffffffffffffffff16141561293b57600080fd5b6000809050818061294e57506000865111155b156129645761295e868633614abb565b60025490505b6004600081548092919060010191905055506040518060e0016040528060045481526020018281526020018581526020013373ffffffffffffffffffffffffffffffffffffffff1681526020018481526020018681526020014281525060086000600454815260200190815260200160002060008201518160000155602082015181600101556040820151816002019080519060200190612a06929190614dde565b5060608201518160030160006101000a81548173ffffffffffffffffffffffffffffffffffffffff021916908373ffffffffffffffffffffffffffffffffffffffff1602179055506080820151816004019080519060200190612a6a929190614dde565b5060a0820151816005019080519060200190612a87929190614dde565b5060c082015181600601559050507f5440c46adfaa25dcf576091881183b2497f7d2e706ed4e482894eebafcda44af6004546002548633878a4260405180888152602001878152602001806020018673ffffffffffffffffffffffffffffffffffffffff1673ffffffffffffffffffffffffffffffffffffffff1681526020018060200180602001858152602001848103845289818151815260200191508051906020019080838360005b83811015612b4d578082015181840152602081019050612b32565b50505050905090810190601f168015612b7a5780820380516001836020036101000a031916815260200191505b50848103835287818151815260200191508051906020019080838360005b83811015612bb3578082015181840152602081019050612b98565b50505050905090810190601f168015612be05780820380516001836020036101000a031916815260200191505b50848103825286818151815260200191508051906020019080838360005b83811015612c19578082015181840152602081019050612bfe565b50505050905090810190601f168015612c465780820380516001836020036101000a031916815260200191505b509a505050505050505050505060405180910390a1505050505050565b600a6020528060005260406000206000915054906101000a900460ff1681565b600081118015612c9557506005548111155b612c9e57600080fd5b600c600082815260200190815260200160002060009054906101000a900460ff1615612cc957600080fd5b612cd1614e5e565b600960008381526020019081526020016000206040518060c00160405290816000820154815260200160018201548152602001600282018054600181600116156101000203166002900480601f016020809104026020016040519081016040528092919081815260200182805460018160011615610100020316600290048015612d9c5780601f10612d7157610100808354040283529160200191612d9c565b820191906000526020600020905b815481529060010190602001808311612d7f57829003601f168201915b505050505081526020016003820160009054906101000a900473ffffffffffffffffffffffffffffffffffffffff1673ffffffffffffffffffffffffffffffffffffffff1673ffffffffffffffffffffffffffffffffffffffff1681526020016004820154815260200160058201548152505090506000816060015190508073ffffffffffffffffffffffffffffffffffffffff163373ffffffffffffffffffffffffffffffffffffffff1614612e5257600080fd5b600960008481526020019081526020016000206000808201600090556001820160009055600282016000612e869190614d43565b6003820160006101000a81549073ffffffffffffffffffffffffffffffffffffffff02191690556004820160009055600582016000905550506001600c600085815260200190815260200160002060006101000a81548160ff0219169083151502179055507f4cb7b38ebf27d7cdc68fa07e7f2108ac9c50a3620fed6f332bf1f5918c70669c838242604051808481526020018373ffffffffffffffffffffffffffffffffffffffff1673ffffffffffffffffffffffffffffffffffffffff168152602001828152602001935050505060405180910390a1505050565b6006602052806000526040600020600091509050806000015490806001018054600181600116156101000203166002900480601f0160208091040260200160405190810160405280929190818152602001828054600181600116156101000203166002900480156130155780601f10612fea57610100808354040283529160200191613015565b820191906000526020600020905b815481529060010190602001808311612ff857829003601f168201915b505050505090806002018054600181600116156101000203166002900480601f0160208091040260200160405190810160405280929190818152602001828054600181600116156101000203166002900480156130b35780601f10613088576101008083540402835291602001916130b3565b820191906000526020600020905b81548152906001019060200180831161309657829003601f168201915b5050505050908060030154908060040160009054906101000a900473ffffffffffffffffffffffffffffffffffffffff16908060050154905086565b60008111801561310157506002548111155b61310a57600080fd5b600a600082815260200190815260200160002060009054906101000a900460ff161561313557600080fd5b61313d614eaa565b600660008381526020019081526020016000206040518060c001604052908160008201548152602001600182018054600181600116156101000203166002900480601f0160208091040260200160405190810160405280929190818152602001828054600181600116156101000203166002900480156131fe5780601f106131d3576101008083540402835291602001916131fe565b820191906000526020600020905b8154815290600101906020018083116131e157829003601f168201915b50505050508152602001600282018054600181600116156101000203166002900480601f0160208091040260200160405190810160405280929190818152602001828054600181600116156101000203166002900480156132a05780601f10613275576101008083540402835291602001916132a0565b820191906000526020600020905b81548152906001019060200180831161328357829003601f168201915b50505050508152602001600382015481526020016004820160009054906101000a900473ffffffffffffffffffffffffffffffffffffffff1673ffffffffffffffffffffffffffffffffffffffff1673ffffffffffffffffffffffffffffffffffffffff16815260200160058201548152505090506000816080015190508073ffffffffffffffffffffffffffffffffffffffff166108fc349081150290604051600060405180830381858888f19350505050158015613364573d6000803e3d6000fd5b503482606001510182606001818152505081600660008581526020019081526020016000206000820151816000015560208201518160010190805190602001906133af929190614dde565b5060408201518160020190805190602001906133cc929190614dde565b506060820151816003015560808201518160040160006101000a81548173ffffffffffffffffffffffffffffffffffffffff021916908373ffffffffffffffffffffffffffffffffffffffff16021790555060a082015181600501559050507f9e17c6a51235c831649d4e4dae877ebaa0c04ab03f7bc43f6964a59e4f1e8e328383602001518460400151856060015185426040518087815260200180602001806020018681526020018573ffffffffffffffffffffffffffffffffffffffff1673ffffffffffffffffffffffffffffffffffffffff168152602001848152602001838103835288818151815260200191508051906020019080838360005b838110156134e65780820151818401526020810190506134cb565b50505050905090810190601f1680156135135780820380516001836020036101000a031916815260200191505b50838103825287818151815260200191508051906020019080838360005b8381101561354c578082015181840152602081019050613531565b50505050905090810190601f1680156135795780820380516001836020036101000a031916815260200191505b509850505050505050505060405180910390a1505050565b60018054600181600116156101000203166002900480601f0160208091040260200160405190810160405280929190818152602001828054600181600116156101000203166002900480156136275780601f106135fc57610100808354040283529160200191613627565b820191906000526020600020905b81548152906001019060200180831161360a57829003601f168201915b505050505081565b6009602052806000526040600020600091509050806000015490806001015490806002018054600181600116156101000203166002900480601f0160208091040260200160405190810160405280929190818152602001828054600181600116156101000203166002900480156136e75780601f106136bc576101008083540402835291602001916136e7565b820191906000526020600020905b8154815290600101906020018083116136ca57829003601f168201915b5050505050908060030160009054906101000a900473ffffffffffffffffffffffffffffffffffffffff16908060040154908060050154905086565b60025481565b60076020528060005260406000206000915090508060000160009054906101000a900473ffffffffffffffffffffffffffffffffffffffff1690806001018054600181600116156101000203166002900480601f0160208091040260200160405190810160405280929190818152602001828054600181600116156101000203166002900480156137fb5780601f106137d0576101008083540402835291602001916137fb565b820191906000526020600020905b8154815290600101906020018083116137de57829003601f168201915b505050505090806002018054600181600116156101000203166002900480601f0160208091040260200160405190810160405280929190818152602001828054600181600116156101000203166002900480156138995780601f1061386e57610100808354040283529160200191613899565b820191906000526020600020905b81548152906001019060200180831161387c57829003601f168201915b505050505090806003018054600181600116156101000203166002900480601f0160208091040260200160405190810160405280929190818152602001828054600181600116156101000203166002900480156139375780601f1061390c57610100808354040283529160200191613937565b820191906000526020600020905b81548152906001019060200180831161391a57829003601f168201915b505050505090806004018054600181600116156101000203166002900480601f0160208091040260200160405190810160405280929190818152602001828054600181600116156101000203166002900480156139d55780601f106139aa576101008083540402835291602001916139d5565b820191906000526020600020905b8154815290600101906020018083116139b857829003601f168201915b505050505090806005018054600181600116156101000203166002900480601f016020809104026020016040519081016040528092919081815260200182805460018160011615610100020316600290048015613a735780601f10613a4857610100808354040283529160200191613a73565b820191906000526020600020905b815481529060010190602001808311613a5657829003601f168201915b505050505090806006018054600181600116156101000203166002900480601f016020809104026020016040519081016040528092919081815260200182805460018160011615610100020316600290048015613b115780601f10613ae657610100808354040283529160200191613b11565b820191906000526020600020905b815481529060010190602001808311613af457829003601f168201915b5050505050908060070154905088565b600c6020528060005260406000206000915054906101000a900460ff1681565b600073ffffffffffffffffffffffffffffffffffffffff163373ffffffffffffffffffffffffffffffffffffffff161415613b7b57600080fd5b613b83614ef6565b600760003373ffffffffffffffffffffffffffffffffffffffff1673ffffffffffffffffffffffffffffffffffffffff168152602001908152602001600020604051806101000160405290816000820160009054906101000a900473ffffffffffffffffffffffffffffffffffffffff1673ffffffffffffffffffffffffffffffffffffffff1673ffffffffffffffffffffffffffffffffffffffff168152602001600182018054600181600116156101000203166002900480601f016020809104026020016040519081016040528092919081815260200182805460018160011615610100020316600290048015613cbd5780601f10613c9257610100808354040283529160200191613cbd565b820191906000526020600020905b815481529060010190602001808311613ca057829003601f168201915b50505050508152602001600282018054600181600116156101000203166002900480601f016020809104026020016040519081016040528092919081815260200182805460018160011615610100020316600290048015613d5f5780601f10613d3457610100808354040283529160200191613d5f565b820191906000526020600020905b815481529060010190602001808311613d4257829003601f168201915b50505050508152602001600382018054600181600116156101000203166002900480601f016020809104026020016040519081016040528092919081815260200182805460018160011615610100020316600290048015613e015780601f10613dd657610100808354040283529160200191613e01565b820191906000526020600020905b815481529060010190602001808311613de457829003601f168201915b50505050508152602001600482018054600181600116156101000203166002900480601f016020809104026020016040519081016040528092919081815260200182805460018160011615610100020316600290048015613ea35780601f10613e7857610100808354040283529160200191613ea3565b820191906000526020600020905b815481529060010190602001808311613e8657829003601f168201915b50505050508152602001600582018054600181600116156101000203166002900480601f016020809104026020016040519081016040528092919081815260200182805460018160011615610100020316600290048015613f455780601f10613f1a57610100808354040283529160200191613f45565b820191906000526020600020905b815481529060010190602001808311613f2857829003601f168201915b50505050508152602001600682018054600181600116156101000203166002900480601f016020809104026020016040519081016040528092919081815260200182805460018160011615610100020316600290048015613fe75780601f10613fbc57610100808354040283529160200191613fe7565b820191906000526020600020905b815481529060010190602001808311613fca57829003601f168201915b5050505050815260200160078201548152505090503373ffffffffffffffffffffffffffffffffffffffff16816000015173ffffffffffffffffffffffffffffffffffffffff161461403857600080fd5b6040518060400160405280600881526020017f757365724e616d6500000000000000000000000000000000000000000000000081525080519060200120838051906020012014156141d35781816020018190525080600760003373ffffffffffffffffffffffffffffffffffffffff1673ffffffffffffffffffffffffffffffffffffffff16815260200190815260200160002060008201518160000160006101000a81548173ffffffffffffffffffffffffffffffffffffffff021916908373ffffffffffffffffffffffffffffffffffffffff160217905550602082015181600101908051906020019061412f929190614dde565b50604082015181600201908051906020019061414c929190614dde565b506060820151816003019080519060200190614169929190614dde565b506080820151816004019080519060200190614186929190614dde565b5060a08201518160050190805190602001906141a3929190614dde565b5060c08201518160060190805190602001906141c0929190614dde565b5060e08201518160070155905050614848565b6040518060400160405280600881526020017f6c6f636174696f6e000000000000000000000000000000000000000000000000815250805190602001208380519060200120141561436e5781816060018190525080600760003373ffffffffffffffffffffffffffffffffffffffff1673ffffffffffffffffffffffffffffffffffffffff16815260200190815260200160002060008201518160000160006101000a81548173ffffffffffffffffffffffffffffffffffffffff021916908373ffffffffffffffffffffffffffffffffffffffff16021790555060208201518160010190805190602001906142ca929190614dde565b5060408201518160020190805190602001906142e7929190614dde565b506060820151816003019080519060200190614304929190614dde565b506080820151816004019080519060200190614321929190614dde565b5060a082015181600501908051906020019061433e929190614dde565b5060c082015181600601908051906020019061435b929190614dde565b5060e08201518160070155905050614847565b6040518060400160405280600581526020017f70686f6e6500000000000000000000000000000000000000000000000000000081525080519060200120838051906020012014156145095781816080018190525080600760003373ffffffffffffffffffffffffffffffffffffffff1673ffffffffffffffffffffffffffffffffffffffff16815260200190815260200160002060008201518160000160006101000a81548173ffffffffffffffffffffffffffffffffffffffff021916908373ffffffffffffffffffffffffffffffffffffffff1602179055506020820151816001019080519060200190614465929190614dde565b506040820151816002019080519060200190614482929190614dde565b50606082015181600301908051906020019061449f929190614dde565b5060808201518160040190805190602001906144bc929190614dde565b5060a08201518160050190805190602001906144d9929190614dde565b5060c08201518160060190805190602001906144f6929190614dde565b5060e08201518160070155905050614846565b6040518060400160405280600581526020017f656d61696c00000000000000000000000000000000000000000000000000000081525080519060200120838051906020012014156146a457818160a0018190525080600760003373ffffffffffffffffffffffffffffffffffffffff1673ffffffffffffffffffffffffffffffffffffffff16815260200190815260200160002060008201518160000160006101000a81548173ffffffffffffffffffffffffffffffffffffffff021916908373ffffffffffffffffffffffffffffffffffffffff1602179055506020820151816001019080519060200190614600929190614dde565b50604082015181600201908051906020019061461d929190614dde565b50606082015181600301908051906020019061463a929190614dde565b506080820151816004019080519060200190614657929190614dde565b5060a0820151816005019080519060200190614674929190614dde565b5060c0820151816006019080519060200190614691929190614dde565b5060e08201518160070155905050614845565b6040518060400160405280600a81526020017f6f636375706174696f6e00000000000000000000000000000000000000000000815250805190602001208380519060200120141561483f57818160c0018190525080600760003373ffffffffffffffffffffffffffffffffffffffff1673ffffffffffffffffffffffffffffffffffffffff16815260200190815260200160002060008201518160000160006101000a81548173ffffffffffffffffffffffffffffffffffffffff021916908373ffffffffffffffffffffffffffffffffffffffff160217905550602082015181600101908051906020019061479b929190614dde565b5060408201518160020190805190602001906147b8929190614dde565b5060608201518160030190805190602001906147d5929190614dde565b5060808201518160040190805190602001906147f2929190614dde565b5060a082015181600501908051906020019061480f929190614dde565b5060c082015181600601908051906020019061482c929190614dde565b5060e08201518160070155905050614844565b600080fd5b5b5b5b5b7f20a3c0ccd71749b736891b28a035d7f5e1d6b4161c56414f468d0f1c0f42c42c33848442604051808573ffffffffffffffffffffffffffffffffffffffff1673ffffffffffffffffffffffffffffffffffffffff1681526020018060200180602001848152602001838103835286818151815260200191508051906020019080838360005b838110156148e95780820151818401526020810190506148ce565b50505050905090810190601f1680156149165780820380516001836020036101000a031916815260200191505b50838103825285818151815260200191508051906020019080838360005b8381101561494f578082015181840152602081019050614934565b50505050905090810190601f16801561497c5780820380516001836020036101000a031916815260200191505b50965050505050505060405180910390a1505050565b6000811180156149a457506002548111155b6149ad57600080fd5b600a600082815260200190815260200160002060009054906101000a900460ff16156149d857600080fd5b60066000828152602001908152602001600020600080820160009055600182016000614a049190614d43565b600282016000614a149190614d43565b60038201600090556004820160006101000a81549073ffffffffffffffffffffffffffffffffffffffff0219169055600582016000905550506001600a600083815260200190815260200160002060006101000a81548160ff0219169083151502179055507f35f66b16a18db1ddab991a227764d9915139c2e0e6c7d235a690bfb01901d84b8142604051808381526020018281526020019250505060405180910390a150565b6000835111614ac957600080fd5b6000825111614ad757600080fd5b6002600081548092919060010191905055506040518060c001604052806002548152602001848152602001838152602001600081526020018273ffffffffffffffffffffffffffffffffffffffff16815260200142815250600660006002548152602001908152602001600020600082015181600001556020820151816001019080519060200190614b6a929190614dde565b506040820151816002019080519060200190614b87929190614dde565b506060820151816003015560808201518160040160006101000a81548173ffffffffffffffffffffffffffffffffffffffff021916908373ffffffffffffffffffffffffffffffffffffffff16021790555060a082015181600501559050507faf0f8ed6ea5dadf339b2e34e90cb6f2241025b73ee623db1f0a447d2cc37f8ee6002548484600085426040518087815260200180602001806020018681526020018573ffffffffffffffffffffffffffffffffffffffff1673ffffffffffffffffffffffffffffffffffffffff168152602001848152602001838103835288818151815260200191508051906020019080838360005b83811015614c98578082015181840152602081019050614c7d565b50505050905090810190601f168015614cc55780820380516001836020036101000a031916815260200191505b50838103825287818151815260200191508051906020019080838360005b83811015614cfe578082015181840152602081019050614ce3565b50505050905090810190601f168015614d2b5780820380516001836020036101000a031916815260200191505b509850505050505050505060405180910390a1505050565b50805460018160011615610100020316600290046000825580601f10614d695750614d88565b601f016020900490600052602060002090810190614d879190614f51565b5b50565b6040518060e00160405280600081526020016000815260200160608152602001600073ffffffffffffffffffffffffffffffffffffffff1681526020016060815260200160608152602001600081525090565b828054600181600116156101000203166002900490600052602060002090601f016020900481019282601f10614e1f57805160ff1916838001178555614e4d565b82800160010185558215614e4d579182015b82811115614e4c578251825591602001919060010190614e31565b5b509050614e5a9190614f51565b5090565b6040518060c00160405280600081526020016000815260200160608152602001600073ffffffffffffffffffffffffffffffffffffffff16815260200160008152602001600081525090565b6040518060c0016040528060008152602001606081526020016060815260200160008152602001600073ffffffffffffffffffffffffffffffffffffffff168152602001600081525090565b604051806101000160405280600073ffffffffffffffffffffffffffffffffffffffff168152602001606081526020016060815260200160608152602001606081526020016060815260200160608152602001600081525090565b614f7391905b80821115614f6f576000816000905550600101614f57565b5090565b9056fea265627a7a72315820ad5b8d0fdcac5412859d3bf342ba60b1750c3f907f4c8ae3ba9ec5e5c45b39eb64736f6c6343000510003243727970746f4772616d202d20646563656e7472616c697a656420696d6167652073686172696e6720736f6369616c206d6564696120706c6174666f726d76657273696f6e2032206f6620746865206f726967696e616c2044534d202d20646563656e7472616c697a656420736f6369616c206d656469612c206d616e79206e65772066656174757265732c20616e64206163636f756e747320617265207469656420746f20746865207573657227732077616c6c65742061646472657373",
  "source": "// SPDX-License-Identifier: LICENSE\npragma solidity >=0.5.0;\n\n//pragma experimental ABIEncoderV2;\n\n//use ganache-cli --allowUnlimitedContractSize  --gasLimit 0xFFFFFFFFFFFF\n\ncontract CryptoGram {\n    string public name =\n        \"CryptoGram - decentralized image sharing social media platform\";\n    string public contractDescription =\n        \"version 2 of the original DSM - decentralized social media, many new features, and accounts are tied to the user's wallet address\";\n\n\n    uint256 public imageCount = 0;\n    uint256 public userCount = 0;\n    uint256 public postCount = 0;\n    uint256 public commentCount = 0;\n    mapping(uint256 => Image) public images;\n    mapping(address => User) public users;\n    mapping(uint256 => Post) public posts;\n    mapping(uint256 => Comment) public comments;\n\n    //keep track of deleted objects\n    mapping(uint256 => bool) public deletedImages;\n    mapping(uint256 => bool) public deletedPosts;\n    mapping(uint256 => bool) public deletedComments;\n\n    struct Post {\n        uint256 id;\n        uint256 imageID;\n        string title;\n        address author;\n        string link;\n        string status;\n        uint256 timeStamp;\n    }\n\n    struct Comment {\n        uint256 id;\n        uint256 postID;\n        string comment;\n        address payable author;\n        uint256 tipAmount;\n        uint256 timeStamp;\n    }\n\n    struct Image {\n        uint256 id;\n        string hash;\n        string description;\n        uint256 tipAmount;\n        address payable author;\n        uint256 timeStamp;\n    }\n\n    struct User {\n        address userAccount; //wallet address\n        string userName;\n        string status;\n        string location;\n        string phone;\n        string email;\n        string occupation;\n        uint256 timeStamp;\n    }\n    /******************EVENTS*************************/\n    event UserAdded(\n        address userAccount, //wallet address\n        string userName,\n        string status,\n        string location,\n        string phone,\n        string email,\n        string occupation,\n        uint256 timeStamp\n    );\n    event UserDeleted(address userAccount, uint256 timeStamp);\n\n    event UserUpdated(\n        address userAccount,\n        string valueChanged,\n        string newValue,\n        uint256 timeStamp\n    );\n\n    event ImageAdded(\n        uint256 id,\n        string hash,\n        string description,\n        uint256 tipAmount,\n        address payable author,\n        uint256 timeStamp\n    );\n\n    event ImageDeleted(uint256 id, uint256 timeStamp);\n\n    event ImageTipped(\n        uint256 id,\n        string hash,\n        string description,\n        uint256 tipAmount,\n        address payable author,\n        uint256 timeStamp\n    );\n\n    event PostAdded(\n        uint256 id,\n        uint256 imageID,\n        string title,\n        address author,\n        string link,\n        string status,\n        uint256 timeStamp\n    );\n\n    event PostDeleted(uint256 id, address author, uint256 timeStamp);\n\n    event CommentAdded(\n        uint256 id,\n        uint256 postID,\n        string comment,\n        address author,\n        uint256 timeStamp\n    );\n    event CommentTipped(\n        uint256 id,\n        uint256 postID,\n        string comment,\n        address author,\n        uint256 tipAmount,\n        uint256 timeStamp\n    );\n    event CommentDeleted(uint256 id, address author, uint256 timeStamp);\n\n    /******************FUNCTIONS*************************/\n\n    //Fallback: reverts if Ether is sent to this contract unintentionally\n    function() external {\n        revert();\n    }\n\n   \n    function tipImageOwner(uint256 _id) public payable {\n        //require valid ID\n        require(_id > 0 && _id <= imageCount);\n        require(!deletedImages[_id]);\n\n        //get image\n        Image memory _image = images[_id];\n\n        //get image author\n        address payable _author = _image.author;\n\n        //send to author\n        address(_author).transfer(msg.value);\n\n        //update tip amount and put back into mapping\n        _image.tipAmount = _image.tipAmount + msg.value;\n        images[_id] = _image;\n\n        //emit event\n        emit ImageTipped(\n            _id,\n            _image.hash,\n            _image.description,\n            _image.tipAmount,\n            _author,\n            now\n        );\n    }\n\n    //internal function\n    function _uploadImage(\n        string memory _hash,\n        string memory _desc,\n        address payable _author\n    ) internal {\n        //require a hash to be included\n        require(bytes(_hash).length > 0);\n\n        //require a description to be included\n        require(bytes(_desc).length > 0);\n\n        //increment image ID\n        imageCount++;\n\n        //add image hash to mapping\n        images[imageCount] = Image(imageCount, _hash, _desc, 0, _author, now);\n\n        //emit event\n        emit ImageAdded(imageCount, _hash, _desc, 0, _author, now);\n    }\n\n    //internal function\n    function _deleteImage(uint256 _id) internal {\n        //require valid ID and image has not already been deleted\n        require(_id > 0 && _id <= imageCount);\n        require(!deletedImages[_id]);\n\n        //delete image from mapping and emit event\n        delete (images[_id]);\n        deletedImages[_id] = true;\n        emit ImageDeleted(_id, now);\n    }\n\n    function addUser(\n        string memory _userName,\n        string memory _status,\n        string memory _location,\n        string memory _phone,\n        string memory _email,\n        string memory _occupation\n    ) public {\n        //require user address to exist\n        require(msg.sender != address(0x0));\n\n        //require all fields to be populated\n        require(bytes(_userName).length > 0);\n        require(bytes(_status).length > 0);\n        require(bytes(_location).length > 0);\n        require(bytes(_email).length > 0);\n        require(bytes(_occupation).length > 0);\n\n        //increment count of users\n        userCount++;\n\n        //add user to mapping\n        users[msg.sender] = User(\n            msg.sender,\n            _userName,\n            _status,\n            _location,\n            _phone,\n            _email,\n            _occupation,\n            now\n        );\n\n        //emit event\n        emit UserAdded(\n            msg.sender,\n            _userName,\n            _status,\n            _location,\n            _phone,\n            _email,\n            _occupation,\n            now\n        );\n    }\n\n    function deleteUser() public {\n        //require user address to exist\n        require(msg.sender != address(0x0));\n\n        //decrement user count - keep a total of active users on the contract\n        userCount--;\n\n        //delete from mapping\n        delete (users[msg.sender]);\n\n        //emit event\n        emit UserDeleted(msg.sender, now);\n    }\n\n    function makePost(\n        string memory _hash,\n        string memory _desc,\n        string memory _title,\n        string memory _link,\n        bool includesImage\n    ) public {\n        require(bytes(_title).length > 0);\n        require(bytes(_link).length > 0);\n        require(msg.sender != address(0x0));\n\n        //default imageID if there is no inluded\n        uint256 _imageID = 0;\n\n        if (includesImage || !(bytes(_hash).length > 0)) {\n            //add image hash to mapping\n            _uploadImage(_hash, _desc, msg.sender);\n            _imageID = imageCount;\n        }\n\n        postCount++;\n\n        posts[postCount] = Post(\n            postCount,\n            _imageID,\n            _title,\n            msg.sender,\n            _link,\n            _desc,\n            now\n        );\n\n        emit PostAdded(\n            postCount,\n            imageCount,\n            _title,\n            msg.sender,\n            _link,\n            _desc,\n            now\n        );\n    }\n\n    function deletePost(uint256 _postID) public {\n        //require user address to exist\n        require(msg.sender != address(0x0));\n\n        //require valid post ID\n        require(_postID > 0 && _postID <= postCount);\n        require(!deletedPosts[_postID]);\n\n        Post memory _post = posts[_postID];\n        address _author = _post.author;\n        //check if image author matches message sender - only delete your own comments\n        require(msg.sender == _author);\n\n        //get imageID to delete\n        uint256 _imageID = _post.imageID;\n        if (_imageID != 0) {\n            _deleteImage(_imageID);\n        }\n\n        delete (posts[_postID]);\n        deletedPosts[_postID] = true;\n\n        //emit event\n        emit PostDeleted(_postID, _author, now);\n    }\n\n    function comment(uint256 _postID, string memory _comment) public {\n        require(bytes(_comment).length > 0);\n        require(_postID > 0 && _postID <= postCount);\n        require(!deletedPosts[_postID]);\n\n        commentCount++;\n        comments[commentCount] = Comment(\n            commentCount,\n            _postID,\n            _comment,\n            msg.sender,\n            0,\n            now\n        );\n\n        //emit event\n        emit CommentAdded(commentCount, _postID, _comment, msg.sender, now);\n    }\n\n    function tipComment(uint256 _commentID) public payable {\n        //require valid ID\n        require(_commentID > 0 && _commentID <= commentCount);\n        require(!deletedComments[_commentID]);\n\n        //get comment\n        Comment memory _comment = comments[_commentID];\n\n        //get comment data\n        address payable _author = _comment.author;\n        uint256 _postID = _comment.postID;\n        string memory _commentString = _comment.comment;\n\n        //send to author\n        address(_author).transfer(msg.value);\n\n        //update tip amount and put back into mapping\n        _comment.tipAmount = _comment.tipAmount + msg.value;\n        comments[_commentID] = _comment;\n\n        //emit event\n        emit CommentTipped(\n            commentCount,\n            _postID,\n            _commentString,\n            msg.sender,\n            0,\n            now\n        );\n    }\n\n    function deleteComment(uint256 _commentID) public {\n        //require valid ID\n        require(_commentID > 0 && _commentID <= commentCount);\n        require(!deletedComments[_commentID]);\n\n        Comment memory _comment = comments[_commentID];\n\n        address _author = _comment.author;\n\n        //check if image author matches message sender - only delete your own comments\n        require(msg.sender == _author);\n\n        delete (comments[_commentID]);\n        deletedComments[_commentID] = true;\n\n        //emit event\n        emit CommentDeleted(_commentID, _author, now);\n    }\n\n    function updateUser(string memory _type, string memory _value) public {\n        //require user address to exist\n        require(msg.sender != address(0x0));\n\n        //get user\n        User memory _user = users[msg.sender];\n\n        require(_user.userAccount == msg.sender);\n\n        if (keccak256(bytes(_type)) == keccak256(bytes(\"userName\"))) {\n            //update value and put back into mapping\n            _user.userName = _value;\n            users[msg.sender] = _user;\n        } else if (keccak256(bytes(_type)) == keccak256(bytes(\"location\"))) {\n            _user.location = _value;\n            users[msg.sender] = _user;\n        } else if (keccak256(bytes(_type)) == keccak256(bytes(\"phone\"))) {\n            _user.phone = _value;\n            users[msg.sender] = _user;\n        } else if (keccak256(bytes(_type)) == keccak256(bytes(\"email\"))) {\n            _user.email = _value;\n            users[msg.sender] = _user;\n        } else if (keccak256(bytes(_type)) == keccak256(bytes(\"occupation\"))) {\n            _user.occupation = _value;\n            users[msg.sender] = _user;\n        } else {\n            revert();\n        }\n        emit UserUpdated(msg.sender, _type, _value, now);\n    }\n\n    \n}\n",
  "sourcePath": "/mnt/c/pr0/cryptogram/src/contracts/CryptoGram.sol",
  "compiler": {
    "name": "solc",
    "version": "0.5.16+commit.9c3226ce.Emscripten.clang"
  },
  "schemaVersion": "3.3.3",
  "updatedAt": "2021-05-07T19:31:54.130Z",
  "networkType": "ethereum",
  "devdoc": {
    "methods": {}
  },
  "userdoc": {
    "methods": {}
  }
}