{
  "contractName": "CryptoGram",
  "abi": [
    {
      "anonymous": false,
      "inputs": [
        {
          "indexed": false,
          "internalType": "uint256",
          "name": "id",
          "type": "uint256"
        },
        {
          "indexed": false,
          "internalType": "uint256",
          "name": "postID",
          "type": "uint256"
        },
        {
          "indexed": false,
          "internalType": "string",
          "name": "comment",
          "type": "string"
        },
        {
          "indexed": false,
          "internalType": "address",
          "name": "author",
          "type": "address"
        },
        {
          "indexed": false,
          "internalType": "uint256",
          "name": "tipAmount",
          "type": "uint256"
        },
        {
          "indexed": false,
          "internalType": "uint256",
          "name": "timeStamp",
          "type": "uint256"
        }
      ],
      "name": "CommentAdded",
      "type": "event"
    },
    {
      "anonymous": false,
      "inputs": [
        {
          "indexed": false,
          "internalType": "uint256",
          "name": "id",
          "type": "uint256"
        },
        {
          "indexed": false,
          "internalType": "uint256",
          "name": "timeStamp",
          "type": "uint256"
        }
      ],
      "name": "CommentDeleted",
      "type": "event"
    },
    {
      "anonymous": false,
      "inputs": [
        {
          "indexed": false,
          "internalType": "uint256",
          "name": "id",
          "type": "uint256"
        },
        {
          "indexed": false,
          "internalType": "uint256",
          "name": "tipAmount",
          "type": "uint256"
        },
        {
          "indexed": false,
          "internalType": "uint256",
          "name": "timeStamp",
          "type": "uint256"
        }
      ],
      "name": "CommentTipped",
      "type": "event"
    },
    {
      "anonymous": false,
      "inputs": [
        {
          "indexed": false,
          "internalType": "uint256",
          "name": "id",
          "type": "uint256"
        },
        {
          "indexed": false,
          "internalType": "string",
          "name": "imageHash",
          "type": "string"
        },
        {
          "indexed": false,
          "internalType": "string",
          "name": "title",
          "type": "string"
        },
        {
          "indexed": false,
          "internalType": "address",
          "name": "author",
          "type": "address"
        },
        {
          "indexed": false,
          "internalType": "uint256",
          "name": "tipAmount",
          "type": "uint256"
        },
        {
          "indexed": false,
          "internalType": "string",
          "name": "link",
          "type": "string"
        },
        {
          "indexed": false,
          "internalType": "string",
          "name": "status",
          "type": "string"
        },
        {
          "indexed": false,
          "internalType": "uint256",
          "name": "timeStamp",
          "type": "uint256"
        }
      ],
      "name": "PostAdded",
      "type": "event"
    },
    {
      "anonymous": false,
      "inputs": [
        {
          "indexed": false,
          "internalType": "uint256",
          "name": "id",
          "type": "uint256"
        },
        {
          "indexed": false,
          "internalType": "uint256",
          "name": "timeStamp",
          "type": "uint256"
        }
      ],
      "name": "PostDeleted",
      "type": "event"
    },
    {
      "anonymous": false,
      "inputs": [
        {
          "indexed": false,
          "internalType": "uint256",
          "name": "id",
          "type": "uint256"
        },
        {
          "indexed": false,
          "internalType": "uint256",
          "name": "tipAmount",
          "type": "uint256"
        },
        {
          "indexed": false,
          "internalType": "uint256",
          "name": "timeStamp",
          "type": "uint256"
        }
      ],
      "name": "PostTipped",
      "type": "event"
    },
    {
      "anonymous": false,
      "inputs": [
        {
          "indexed": false,
          "internalType": "address",
          "name": "userAccount",
          "type": "address"
        },
        {
          "indexed": false,
          "internalType": "string",
          "name": "userName",
          "type": "string"
        },
        {
          "indexed": false,
          "internalType": "string",
          "name": "imageHash",
          "type": "string"
        },
        {
          "indexed": false,
          "internalType": "string",
          "name": "bio",
          "type": "string"
        },
        {
          "indexed": false,
          "internalType": "string",
          "name": "location",
          "type": "string"
        },
        {
          "indexed": false,
          "internalType": "string",
          "name": "occupation",
          "type": "string"
        },
        {
          "indexed": false,
          "internalType": "uint256",
          "name": "timeStamp",
          "type": "uint256"
        }
      ],
      "name": "UserAdded",
      "type": "event"
    },
    {
      "anonymous": false,
      "inputs": [
        {
          "indexed": false,
          "internalType": "address",
          "name": "userAccount",
          "type": "address"
        },
        {
          "indexed": false,
          "internalType": "uint256",
          "name": "timeStamp",
          "type": "uint256"
        }
      ],
      "name": "UserDeleted",
      "type": "event"
    },
    {
      "anonymous": false,
      "inputs": [
        {
          "indexed": false,
          "internalType": "address",
          "name": "userAccount",
          "type": "address"
        },
        {
          "indexed": false,
          "internalType": "string",
          "name": "valueChanged",
          "type": "string"
        },
        {
          "indexed": false,
          "internalType": "string",
          "name": "newValue",
          "type": "string"
        },
        {
          "indexed": false,
          "internalType": "uint256",
          "name": "timeStamp",
          "type": "uint256"
        }
      ],
      "name": "UserUpdated",
      "type": "event"
    },
    {
      "payable": false,
      "stateMutability": "nonpayable",
      "type": "fallback"
    },
    {
      "constant": true,
      "inputs": [],
      "name": "commentCount",
      "outputs": [
        {
          "internalType": "uint256",
          "name": "",
          "type": "uint256"
        }
      ],
      "payable": false,
      "stateMutability": "view",
      "type": "function"
    },
    {
      "constant": true,
      "inputs": [
        {
          "internalType": "uint256",
          "name": "",
          "type": "uint256"
        }
      ],
      "name": "comments",
      "outputs": [
        {
          "internalType": "uint256",
          "name": "id",
          "type": "uint256"
        },
        {
          "internalType": "uint256",
          "name": "postID",
          "type": "uint256"
        },
        {
          "internalType": "string",
          "name": "comment",
          "type": "string"
        },
        {
          "internalType": "address payable",
          "name": "author",
          "type": "address"
        },
        {
          "internalType": "uint256",
          "name": "tipAmount",
          "type": "uint256"
        },
        {
          "internalType": "uint256",
          "name": "timeStamp",
          "type": "uint256"
        }
      ],
      "payable": false,
      "stateMutability": "view",
      "type": "function"
    },
    {
      "constant": true,
      "inputs": [],
      "name": "contractDescription",
      "outputs": [
        {
          "internalType": "string",
          "name": "",
          "type": "string"
        }
      ],
      "payable": false,
      "stateMutability": "view",
      "type": "function"
    },
    {
      "constant": true,
      "inputs": [
        {
          "internalType": "uint256",
          "name": "",
          "type": "uint256"
        }
      ],
      "name": "deletedComments",
      "outputs": [
        {
          "internalType": "bool",
          "name": "",
          "type": "bool"
        }
      ],
      "payable": false,
      "stateMutability": "view",
      "type": "function"
    },
    {
      "constant": true,
      "inputs": [
        {
          "internalType": "uint256",
          "name": "",
          "type": "uint256"
        }
      ],
      "name": "deletedPosts",
      "outputs": [
        {
          "internalType": "bool",
          "name": "",
          "type": "bool"
        }
      ],
      "payable": false,
      "stateMutability": "view",
      "type": "function"
    },
    {
      "constant": true,
      "inputs": [],
      "name": "name",
      "outputs": [
        {
          "internalType": "string",
          "name": "",
          "type": "string"
        }
      ],
      "payable": false,
      "stateMutability": "view",
      "type": "function"
    },
    {
      "constant": true,
      "inputs": [],
      "name": "postCount",
      "outputs": [
        {
          "internalType": "uint256",
          "name": "",
          "type": "uint256"
        }
      ],
      "payable": false,
      "stateMutability": "view",
      "type": "function"
    },
    {
      "constant": true,
      "inputs": [
        {
          "internalType": "uint256",
          "name": "",
          "type": "uint256"
        }
      ],
      "name": "posts",
      "outputs": [
        {
          "internalType": "uint256",
          "name": "id",
          "type": "uint256"
        },
        {
          "internalType": "string",
          "name": "imageHash",
          "type": "string"
        },
        {
          "internalType": "string",
          "name": "title",
          "type": "string"
        },
        {
          "internalType": "address payable",
          "name": "author",
          "type": "address"
        },
        {
          "internalType": "uint256",
          "name": "tipAmount",
          "type": "uint256"
        },
        {
          "internalType": "string",
          "name": "link",
          "type": "string"
        },
        {
          "internalType": "string",
          "name": "status",
          "type": "string"
        },
        {
          "internalType": "uint256",
          "name": "timeStamp",
          "type": "uint256"
        }
      ],
      "payable": false,
      "stateMutability": "view",
      "type": "function"
    },
    {
      "constant": true,
      "inputs": [
        {
          "internalType": "address",
          "name": "",
          "type": "address"
        }
      ],
      "name": "users",
      "outputs": [
        {
          "internalType": "address",
          "name": "userAccount",
          "type": "address"
        },
        {
          "internalType": "string",
          "name": "userName",
          "type": "string"
        },
        {
          "internalType": "string",
          "name": "imageHash",
          "type": "string"
        },
        {
          "internalType": "string",
          "name": "bio",
          "type": "string"
        },
        {
          "internalType": "string",
          "name": "location",
          "type": "string"
        },
        {
          "internalType": "string",
          "name": "occupation",
          "type": "string"
        },
        {
          "internalType": "uint256",
          "name": "timeStamp",
          "type": "uint256"
        }
      ],
      "payable": false,
      "stateMutability": "view",
      "type": "function"
    },
    {
      "constant": false,
      "inputs": [
        {
          "internalType": "uint256",
          "name": "_id",
          "type": "uint256"
        }
      ],
      "name": "tipPost",
      "outputs": [],
      "payable": true,
      "stateMutability": "payable",
      "type": "function"
    },
    {
      "constant": false,
      "inputs": [
        {
          "internalType": "string",
          "name": "_userName",
          "type": "string"
        },
        {
          "internalType": "string",
          "name": "_imageHash",
          "type": "string"
        },
        {
          "internalType": "string",
          "name": "_bio",
          "type": "string"
        },
        {
          "internalType": "string",
          "name": "_location",
          "type": "string"
        },
        {
          "internalType": "string",
          "name": "_occupation",
          "type": "string"
        }
      ],
      "name": "addUser",
      "outputs": [],
      "payable": false,
      "stateMutability": "nonpayable",
      "type": "function"
    },
    {
      "constant": false,
      "inputs": [],
      "name": "deleteUser",
      "outputs": [],
      "payable": false,
      "stateMutability": "nonpayable",
      "type": "function"
    },
    {
      "constant": false,
      "inputs": [
        {
          "internalType": "string",
          "name": "_hash",
          "type": "string"
        },
        {
          "internalType": "string",
          "name": "_desc",
          "type": "string"
        },
        {
          "internalType": "string",
          "name": "_title",
          "type": "string"
        },
        {
          "internalType": "string",
          "name": "_link",
          "type": "string"
        }
      ],
      "name": "makePost",
      "outputs": [],
      "payable": false,
      "stateMutability": "nonpayable",
      "type": "function"
    },
    {
      "constant": false,
      "inputs": [
        {
          "internalType": "uint256",
          "name": "_postID",
          "type": "uint256"
        }
      ],
      "name": "deletePost",
      "outputs": [],
      "payable": false,
      "stateMutability": "nonpayable",
      "type": "function"
    },
    {
      "constant": false,
      "inputs": [
        {
          "internalType": "uint256",
          "name": "_postID",
          "type": "uint256"
        },
        {
          "internalType": "string",
          "name": "_comment",
          "type": "string"
        }
      ],
      "name": "comment",
      "outputs": [],
      "payable": false,
      "stateMutability": "nonpayable",
      "type": "function"
    },
    {
      "constant": false,
      "inputs": [
        {
          "internalType": "uint256",
          "name": "_commentID",
          "type": "uint256"
        }
      ],
      "name": "tipComment",
      "outputs": [],
      "payable": true,
      "stateMutability": "payable",
      "type": "function"
    },
    {
      "constant": false,
      "inputs": [
        {
          "internalType": "uint256",
          "name": "_commentID",
          "type": "uint256"
        }
      ],
      "name": "deleteComment",
      "outputs": [],
      "payable": false,
      "stateMutability": "nonpayable",
      "type": "function"
    },
    {
      "constant": false,
      "inputs": [
        {
          "internalType": "string",
          "name": "_value",
          "type": "string"
        }
      ],
      "name": "setUserName",
      "outputs": [],
      "payable": false,
      "stateMutability": "nonpayable",
      "type": "function"
    },
    {
      "constant": false,
      "inputs": [
        {
          "internalType": "string",
          "name": "_value",
          "type": "string"
        }
      ],
      "name": "setImageHash",
      "outputs": [],
      "payable": false,
      "stateMutability": "nonpayable",
      "type": "function"
    },
    {
      "constant": false,
      "inputs": [
        {
          "internalType": "string",
          "name": "_value",
          "type": "string"
        }
      ],
      "name": "setBio",
      "outputs": [],
      "payable": false,
      "stateMutability": "nonpayable",
      "type": "function"
    },
    {
      "constant": false,
      "inputs": [
        {
          "internalType": "string",
          "name": "_value",
          "type": "string"
        }
      ],
      "name": "setLocation",
      "outputs": [],
      "payable": false,
      "stateMutability": "nonpayable",
      "type": "function"
    },
    {
      "constant": false,
      "inputs": [
        {
          "internalType": "string",
          "name": "_value",
          "type": "string"
        }
      ],
      "name": "setOccupation",
      "outputs": [],
      "payable": false,
      "stateMutability": "nonpayable",
      "type": "function"
    }
  ],
  "bytecode": "0x60806040526040518060600160405280603e815260200162005d41603e9139600090805190602001906200003592919062000086565b506040518060c001604052806081815260200162005d7f60819139600190805190602001906200006792919062000086565b50600060025560006003553480156200007f57600080fd5b5062000135565b828054600181600116156101000203166002900490600052602060002090601f016020900481019282601f10620000c957805160ff1916838001178555620000fa565b82800160010185558215620000fa579182015b82811115620000f9578251825591602001919060010190620000dc565b5b5090506200010991906200010d565b5090565b6200013291905b808211156200012e57600081600090555060010162000114565b5090565b90565b615bfc80620001456000396000f3fe6080604052600436106101355760003560e01c80634802a76c116100ab5780638ebb4c151161006f5780638ebb4c1514610a2b578063a87430ba14610b2e578063ae30160d14610de2578063b37a3d821461106f578063b858f42714611393578063fb7e06d8146113e657610135565b80634802a76c1461083c57806374d3c1f81461086a5780637d0b102614610898578063827bfbdf146108d3578063872db8891461099b57610135565b806317906c2e116100fd57806317906c2e146105315780631805c5231461055c578063195cce781461062e5780632b5914fe146106f65780633578d5d3146107be57806345ff20de1461081157610135565b8063026ff05e1461014757806304299b2a1461015e57806306fdde0314610226578063094cd5ee146102b65780630b1e7f83146102f1575b34801561014157600080fd5b50600080fd5b34801561015357600080fd5b5061015c6114ae565b005b34801561016a57600080fd5b506102246004803603602081101561018157600080fd5b810190808035906020019064010000000081111561019e57600080fd5b8201836020820111156101b057600080fd5b803590602001918460018302840111640100000000831117156101d257600080fd5b91908080601f016020809104026020016040519081016040528093929190818152602001838380828437600081840152601f19601f8201169050808301925050505050505091929192905050506115dc565b005b34801561023257600080fd5b5061023b611ca8565b6040518080602001828103825283818151815260200191508051906020019080838360005b8381101561027b578082015181840152602081019050610260565b50505050905090810190601f1680156102a85780820380516001836020036101000a031916815260200191505b509250505060405180910390f35b3480156102c257600080fd5b506102ef600480360360208110156102d957600080fd5b8101908080359060200190929190505050611d46565b005b3480156102fd57600080fd5b5061032a6004803603602081101561031457600080fd5b81019080803590602001909291905050506121f7565b6040518089815260200180602001806020018873ffffffffffffffffffffffffffffffffffffffff1673ffffffffffffffffffffffffffffffffffffffff168152602001878152602001806020018060200186815260200185810385528c818151815260200191508051906020019080838360005b838110156103ba57808201518184015260208101905061039f565b50505050905090810190601f1680156103e75780820380516001836020036101000a031916815260200191505b5085810384528b818151815260200191508051906020019080838360005b83811015610420578082015181840152602081019050610405565b50505050905090810190601f16801561044d5780820380516001836020036101000a031916815260200191505b50858103835288818151815260200191508051906020019080838360005b8381101561048657808201518184015260208101905061046b565b50505050905090810190601f1680156104b35780820380516001836020036101000a031916815260200191505b50858103825287818151815260200191508051906020019080838360005b838110156104ec5780820151818401526020810190506104d1565b50505050905090810190601f1680156105195780820380516001836020036101000a031916815260200191505b509c5050505050505050505050505060405180910390f35b34801561053d57600080fd5b506105466124bf565b6040518082815260200191505060405180910390f35b34801561056857600080fd5b5061062c6004803603604081101561057f57600080fd5b8101908080359060200190929190803590602001906401000000008111156105a657600080fd5b8201836020820111156105b857600080fd5b803590602001918460018302840111640100000000831117156105da57600080fd5b91908080601f016020809104026020016040519081016040528093929190818152602001838380828437600081840152601f19601f8201169050808301925050505050505091929192905050506124c5565b005b34801561063a57600080fd5b506106f46004803603602081101561065157600080fd5b810190808035906020019064010000000081111561066e57600080fd5b82018360208201111561068057600080fd5b803590602001918460018302840111640100000000831117156106a257600080fd5b91908080601f016020809104026020016040519081016040528093929190818152602001838380828437600081840152601f19601f82011690508083019250505050505050919291929050505061270c565b005b34801561070257600080fd5b506107bc6004803603602081101561071957600080fd5b810190808035906020019064010000000081111561073657600080fd5b82018360208201111561074857600080fd5b8035906020019184600183028401116401000000008311171561076a57600080fd5b91908080601f016020809104026020016040519081016040528093929190818152602001838380828437600081840152601f19601f820116905080830192505050505050509192919290505050612dd8565b005b3480156107ca57600080fd5b506107f7600480360360208110156107e157600080fd5b81019080803590602001909291905050506134a4565b604051808215151515815260200191505060405180910390f35b34801561081d57600080fd5b506108266134c4565b6040518082815260200191505060405180910390f35b6108686004803603602081101561085257600080fd5b81019080803590602001909291905050506134ca565b005b6108966004803603602081101561088057600080fd5b81019080803590602001909291905050506137af565b005b3480156108a457600080fd5b506108d1600480360360208110156108bb57600080fd5b8101908080359060200190929190505050613cba565b005b3480156108df57600080fd5b50610999600480360360208110156108f657600080fd5b810190808035906020019064010000000081111561091357600080fd5b82018360208201111561092557600080fd5b8035906020019184600183028401116401000000008311171561094757600080fd5b91908080601f016020809104026020016040519081016040528093929190818152602001838380828437600081840152601f19601f820116905080830192505050505050509192919290505050613f66565b005b3480156109a757600080fd5b506109b0614632565b6040518080602001828103825283818151815260200191508051906020019080838360005b838110156109f05780820151818401526020810190506109d5565b50505050905090810190601f168015610a1d5780820380516001836020036101000a031916815260200191505b509250505060405180910390f35b348015610a3757600080fd5b50610a6460048036036020811015610a4e57600080fd5b81019080803590602001909291905050506146d0565b60405180878152602001868152602001806020018573ffffffffffffffffffffffffffffffffffffffff1673ffffffffffffffffffffffffffffffffffffffff168152602001848152602001838152602001828103825286818151815260200191508051906020019080838360005b83811015610aee578082015181840152602081019050610ad3565b50505050905090810190601f168015610b1b5780820380516001836020036101000a031916815260200191505b5097505050505050505060405180910390f35b348015610b3a57600080fd5b50610b7d60048036036020811015610b5157600080fd5b81019080803573ffffffffffffffffffffffffffffffffffffffff1690602001909291905050506147c4565b604051808873ffffffffffffffffffffffffffffffffffffffff1673ffffffffffffffffffffffffffffffffffffffff168152602001806020018060200180602001806020018060200187815260200186810386528c818151815260200191508051906020019080838360005b83811015610c05578082015181840152602081019050610bea565b50505050905090810190601f168015610c325780820380516001836020036101000a031916815260200191505b5086810385528b818151815260200191508051906020019080838360005b83811015610c6b578082015181840152602081019050610c50565b50505050905090810190601f168015610c985780820380516001836020036101000a031916815260200191505b5086810384528a818151815260200191508051906020019080838360005b83811015610cd1578082015181840152602081019050610cb6565b50505050905090810190601f168015610cfe5780820380516001836020036101000a031916815260200191505b50868103835289818151815260200191508051906020019080838360005b83811015610d37578082015181840152602081019050610d1c565b50505050905090810190601f168015610d645780820380516001836020036101000a031916815260200191505b50868103825288818151815260200191508051906020019080838360005b83811015610d9d578082015181840152602081019050610d82565b50505050905090810190601f168015610dca5780820380516001836020036101000a031916815260200191505b509c5050505050505050505050505060405180910390f35b348015610dee57600080fd5b5061106d60048036036080811015610e0557600080fd5b8101908080359060200190640100000000811115610e2257600080fd5b820183602082011115610e3457600080fd5b80359060200191846001830284011164010000000083111715610e5657600080fd5b91908080601f016020809104026020016040519081016040528093929190818152602001838380828437600081840152601f19601f82011690508083019250505050505050919291929080359060200190640100000000811115610eb957600080fd5b820183602082011115610ecb57600080fd5b80359060200191846001830284011164010000000083111715610eed57600080fd5b91908080601f016020809104026020016040519081016040528093929190818152602001838380828437600081840152601f19601f82011690508083019250505050505050919291929080359060200190640100000000811115610f5057600080fd5b820183602082011115610f6257600080fd5b80359060200191846001830284011164010000000083111715610f8457600080fd5b91908080601f016020809104026020016040519081016040528093929190818152602001838380828437600081840152601f19601f82011690508083019250505050505050919291929080359060200190640100000000811115610fe757600080fd5b820183602082011115610ff957600080fd5b8035906020019184600183028401116401000000008311171561101b57600080fd5b91908080601f016020809104026020016040519081016040528093929190818152602001838380828437600081840152601f19601f820116905080830192505050505050509192919290505050614b1e565b005b34801561107b57600080fd5b50611391600480360360a081101561109257600080fd5b81019080803590602001906401000000008111156110af57600080fd5b8201836020820111156110c157600080fd5b803590602001918460018302840111640100000000831117156110e357600080fd5b91908080601f016020809104026020016040519081016040528093929190818152602001838380828437600081840152601f19601f8201169050808301925050505050505091929192908035906020019064010000000081111561114657600080fd5b82018360208201111561115857600080fd5b8035906020019184600183028401116401000000008311171561117a57600080fd5b91908080601f016020809104026020016040519081016040528093929190818152602001838380828437600081840152601f19601f820116905080830192505050505050509192919290803590602001906401000000008111156111dd57600080fd5b8201836020820111156111ef57600080fd5b8035906020019184600183028401116401000000008311171561121157600080fd5b91908080601f016020809104026020016040519081016040528093929190818152602001838380828437600081840152601f19601f8201169050808301925050505050505091929192908035906020019064010000000081111561127457600080fd5b82018360208201111561128657600080fd5b803590602001918460018302840111640100000000831117156112a857600080fd5b91908080601f016020809104026020016040519081016040528093929190818152602001838380828437600081840152601f19601f8201169050808301925050505050505091929192908035906020019064010000000081111561130b57600080fd5b82018360208201111561131d57600080fd5b8035906020019184600183028401116401000000008311171561133f57600080fd5b91908080601f016020809104026020016040519081016040528093929190818152602001838380828437600081840152601f19601f820116905080830192505050505050509192919290505050614ef4565b005b34801561139f57600080fd5b506113cc600480360360208110156113b657600080fd5b81019080803590602001909291905050506152f4565b604051808215151515815260200191505060405180910390f35b3480156113f257600080fd5b506114ac6004803603602081101561140957600080fd5b810190808035906020019064010000000081111561142657600080fd5b82018360208201111561143857600080fd5b8035906020019184600183028401116401000000008311171561145a57600080fd5b91908080601f016020809104026020016040519081016040528093929190818152602001838380828437600081840152601f19601f820116905080830192505050505050509192919290505050615314565b005b600460003373ffffffffffffffffffffffffffffffffffffffff1673ffffffffffffffffffffffffffffffffffffffff168152602001908152602001600020600080820160006101000a81549073ffffffffffffffffffffffffffffffffffffffff021916905560018201600061152591906159e0565b60028201600061153591906159e0565b60038201600061154591906159e0565b60048201600061155591906159e0565b60058201600061156591906159e0565b600682016000905550507fde5d01a9e3db449330a6770ec433f2fd5839fab3ed1f1cfc1ed992bdfa7e6f3c3342604051808373ffffffffffffffffffffffffffffffffffffffff1673ffffffffffffffffffffffffffffffffffffffff1681526020018281526020019250505060405180910390a1565b600073ffffffffffffffffffffffffffffffffffffffff163373ffffffffffffffffffffffffffffffffffffffff16141561161657600080fd5b6000600460003373ffffffffffffffffffffffffffffffffffffffff1673ffffffffffffffffffffffffffffffffffffffff1681526020019081526020016000206001018054600181600116156101000203166002900490501161167957600080fd5b600081511161168757600080fd5b61168f615a28565b600460003373ffffffffffffffffffffffffffffffffffffffff1673ffffffffffffffffffffffffffffffffffffffff1681526020019081526020016000206040518060e00160405290816000820160009054906101000a900473ffffffffffffffffffffffffffffffffffffffff1673ffffffffffffffffffffffffffffffffffffffff1673ffffffffffffffffffffffffffffffffffffffff168152602001600182018054600181600116156101000203166002900480601f0160208091040260200160405190810160405280929190818152602001828054600181600116156101000203166002900480156117c85780601f1061179d576101008083540402835291602001916117c8565b820191906000526020600020905b8154815290600101906020018083116117ab57829003601f168201915b50505050508152602001600282018054600181600116156101000203166002900480601f01602080910402602001604051908101604052809291908181526020018280546001816001161561010002031660029004801561186a5780601f1061183f5761010080835404028352916020019161186a565b820191906000526020600020905b81548152906001019060200180831161184d57829003601f168201915b50505050508152602001600382018054600181600116156101000203166002900480601f01602080910402602001604051908101604052809291908181526020018280546001816001161561010002031660029004801561190c5780601f106118e15761010080835404028352916020019161190c565b820191906000526020600020905b8154815290600101906020018083116118ef57829003601f168201915b50505050508152602001600482018054600181600116156101000203166002900480601f0160208091040260200160405190810160405280929190818152602001828054600181600116156101000203166002900480156119ae5780601f10611983576101008083540402835291602001916119ae565b820191906000526020600020905b81548152906001019060200180831161199157829003601f168201915b50505050508152602001600582018054600181600116156101000203166002900480601f016020809104026020016040519081016040528092919081815260200182805460018160011615610100020316600290048015611a505780601f10611a2557610100808354040283529160200191611a50565b820191906000526020600020905b815481529060010190602001808311611a3357829003601f168201915b50505050508152602001600682015481525050905081816040018190525080600460003373ffffffffffffffffffffffffffffffffffffffff1673ffffffffffffffffffffffffffffffffffffffff16815260200190815260200160002060008201518160000160006101000a81548173ffffffffffffffffffffffffffffffffffffffff021916908373ffffffffffffffffffffffffffffffffffffffff1602179055506020820151816001019080519060200190611b11929190615a7b565b506040820151816002019080519060200190611b2e929190615a7b565b506060820151816003019080519060200190611b4b929190615a7b565b506080820151816004019080519060200190611b68929190615a7b565b5060a0820151816005019080519060200190611b85929190615a7b565b5060c082015181600601559050507f20a3c0ccd71749b736891b28a035d7f5e1d6b4161c56414f468d0f1c0f42c42c338342604051808473ffffffffffffffffffffffffffffffffffffffff1673ffffffffffffffffffffffffffffffffffffffff1681526020018060200180602001848152602001838103835260098152602001807f696d616765486173680000000000000000000000000000000000000000000000815250602001838103825285818151815260200191508051906020019080838360005b83811015611c67578082015181840152602081019050611c4c565b50505050905090810190601f168015611c945780820380516001836020036101000a031916815260200191505b509550505050505060405180910390a15050565b60008054600181600116156101000203166002900480601f016020809104026020016040519081016040528092919081815260200182805460018160011615610100020316600290048015611d3e5780601f10611d1357610100808354040283529160200191611d3e565b820191906000526020600020905b815481529060010190602001808311611d2157829003601f168201915b505050505081565b600081118015611d5857506002548111155b611d6157600080fd5b6007600082815260200190815260200160002060009054906101000a900460ff1615611d8c57600080fd5b611d94615afb565b600560008381526020019081526020016000206040518061010001604052908160008201548152602001600182018054600181600116156101000203166002900480601f016020809104026020016040519081016040528092919081815260200182805460018160011615610100020316600290048015611e565780601f10611e2b57610100808354040283529160200191611e56565b820191906000526020600020905b815481529060010190602001808311611e3957829003601f168201915b50505050508152602001600282018054600181600116156101000203166002900480601f016020809104026020016040519081016040528092919081815260200182805460018160011615610100020316600290048015611ef85780601f10611ecd57610100808354040283529160200191611ef8565b820191906000526020600020905b815481529060010190602001808311611edb57829003601f168201915b505050505081526020016003820160009054906101000a900473ffffffffffffffffffffffffffffffffffffffff1673ffffffffffffffffffffffffffffffffffffffff1673ffffffffffffffffffffffffffffffffffffffff16815260200160048201548152602001600582018054600181600116156101000203166002900480601f016020809104026020016040519081016040528092919081815260200182805460018160011615610100020316600290048015611ffa5780601f10611fcf57610100808354040283529160200191611ffa565b820191906000526020600020905b815481529060010190602001808311611fdd57829003601f168201915b50505050508152602001600682018054600181600116156101000203166002900480601f01602080910402602001604051908101604052809291908181526020018280546001816001161561010002031660029004801561209c5780601f106120715761010080835404028352916020019161209c565b820191906000526020600020905b81548152906001019060200180831161207f57829003601f168201915b5050505050815260200160078201548152505090506000816060015190508073ffffffffffffffffffffffffffffffffffffffff163373ffffffffffffffffffffffffffffffffffffffff16146120f257600080fd5b6005600084815260200190815260200160002060008082016000905560018201600061211e91906159e0565b60028201600061212e91906159e0565b6003820160006101000a81549073ffffffffffffffffffffffffffffffffffffffff0219169055600482016000905560058201600061216d91906159e0565b60068201600061217d91906159e0565b6007820160009055505060016007600085815260200190815260200160002060006101000a81548160ff0219169083151502179055507fbcb5aed86bc918a3d0afb8c2b27a94547e8abdf185104d885f0a7c7d221810bb8342604051808381526020018281526020019250505060405180910390a1505050565b6005602052806000526040600020600091509050806000015490806001018054600181600116156101000203166002900480601f0160208091040260200160405190810160405280929190818152602001828054600181600116156101000203166002900480156122a95780601f1061227e576101008083540402835291602001916122a9565b820191906000526020600020905b81548152906001019060200180831161228c57829003601f168201915b505050505090806002018054600181600116156101000203166002900480601f0160208091040260200160405190810160405280929190818152602001828054600181600116156101000203166002900480156123475780601f1061231c57610100808354040283529160200191612347565b820191906000526020600020905b81548152906001019060200180831161232a57829003601f168201915b5050505050908060030160009054906101000a900473ffffffffffffffffffffffffffffffffffffffff1690806004015490806005018054600181600116156101000203166002900480601f0160208091040260200160405190810160405280929190818152602001828054600181600116156101000203166002900480156124115780601f106123e657610100808354040283529160200191612411565b820191906000526020600020905b8154815290600101906020018083116123f457829003601f168201915b505050505090806006018054600181600116156101000203166002900480601f0160208091040260200160405190810160405280929190818152602001828054600181600116156101000203166002900480156124af5780601f10612484576101008083540402835291602001916124af565b820191906000526020600020905b81548152906001019060200180831161249257829003601f168201915b5050505050908060070154905088565b60025481565b60008151116124d357600080fd5b6000821180156124e557506002548211155b6124ee57600080fd5b6007600083815260200190815260200160002060009054906101000a900460ff161561251957600080fd5b6003600081548092919060010191905055506040518060c0016040528060035481526020018381526020018281526020013373ffffffffffffffffffffffffffffffffffffffff1681526020016000815260200142815250600660006003548152602001908152602001600020600082015181600001556020820151816001015560408201518160020190805190602001906125b6929190615a7b565b5060608201518160030160006101000a81548173ffffffffffffffffffffffffffffffffffffffff021916908373ffffffffffffffffffffffffffffffffffffffff1602179055506080820151816004015560a082015181600501559050507fb2d6ca5ca32e5949da563b374f80b70bcd2c9b9e211ef39265219f82e1e2ade360035483833360004260405180878152602001868152602001806020018573ffffffffffffffffffffffffffffffffffffffff1673ffffffffffffffffffffffffffffffffffffffff168152602001848152602001838152602001828103825286818151815260200191508051906020019080838360005b838110156126c95780820151818401526020810190506126ae565b50505050905090810190601f1680156126f65780820380516001836020036101000a031916815260200191505b5097505050505050505060405180910390a15050565b600073ffffffffffffffffffffffffffffffffffffffff163373ffffffffffffffffffffffffffffffffffffffff16141561274657600080fd5b6000600460003373ffffffffffffffffffffffffffffffffffffffff1673ffffffffffffffffffffffffffffffffffffffff168152602001908152602001600020600101805460018160011615610100020316600290049050116127a957600080fd5b60008151116127b757600080fd5b6127bf615a28565b600460003373ffffffffffffffffffffffffffffffffffffffff1673ffffffffffffffffffffffffffffffffffffffff1681526020019081526020016000206040518060e00160405290816000820160009054906101000a900473ffffffffffffffffffffffffffffffffffffffff1673ffffffffffffffffffffffffffffffffffffffff1673ffffffffffffffffffffffffffffffffffffffff168152602001600182018054600181600116156101000203166002900480601f0160208091040260200160405190810160405280929190818152602001828054600181600116156101000203166002900480156128f85780601f106128cd576101008083540402835291602001916128f8565b820191906000526020600020905b8154815290600101906020018083116128db57829003601f168201915b50505050508152602001600282018054600181600116156101000203166002900480601f01602080910402602001604051908101604052809291908181526020018280546001816001161561010002031660029004801561299a5780601f1061296f5761010080835404028352916020019161299a565b820191906000526020600020905b81548152906001019060200180831161297d57829003601f168201915b50505050508152602001600382018054600181600116156101000203166002900480601f016020809104026020016040519081016040528092919081815260200182805460018160011615610100020316600290048015612a3c5780601f10612a1157610100808354040283529160200191612a3c565b820191906000526020600020905b815481529060010190602001808311612a1f57829003601f168201915b50505050508152602001600482018054600181600116156101000203166002900480601f016020809104026020016040519081016040528092919081815260200182805460018160011615610100020316600290048015612ade5780601f10612ab357610100808354040283529160200191612ade565b820191906000526020600020905b815481529060010190602001808311612ac157829003601f168201915b50505050508152602001600582018054600181600116156101000203166002900480601f016020809104026020016040519081016040528092919081815260200182805460018160011615610100020316600290048015612b805780601f10612b5557610100808354040283529160200191612b80565b820191906000526020600020905b815481529060010190602001808311612b6357829003601f168201915b505050505081526020016006820154815250509050818160a0018190525080600460003373ffffffffffffffffffffffffffffffffffffffff1673ffffffffffffffffffffffffffffffffffffffff16815260200190815260200160002060008201518160000160006101000a81548173ffffffffffffffffffffffffffffffffffffffff021916908373ffffffffffffffffffffffffffffffffffffffff1602179055506020820151816001019080519060200190612c41929190615a7b565b506040820151816002019080519060200190612c5e929190615a7b565b506060820151816003019080519060200190612c7b929190615a7b565b506080820151816004019080519060200190612c98929190615a7b565b5060a0820151816005019080519060200190612cb5929190615a7b565b5060c082015181600601559050507f20a3c0ccd71749b736891b28a035d7f5e1d6b4161c56414f468d0f1c0f42c42c338342604051808473ffffffffffffffffffffffffffffffffffffffff1673ffffffffffffffffffffffffffffffffffffffff16815260200180602001806020018481526020018381038352600a8152602001807f6f636375706174696f6e00000000000000000000000000000000000000000000815250602001838103825285818151815260200191508051906020019080838360005b83811015612d97578082015181840152602081019050612d7c565b50505050905090810190601f168015612dc45780820380516001836020036101000a031916815260200191505b509550505050505060405180910390a15050565b600073ffffffffffffffffffffffffffffffffffffffff163373ffffffffffffffffffffffffffffffffffffffff161415612e1257600080fd5b6000600460003373ffffffffffffffffffffffffffffffffffffffff1673ffffffffffffffffffffffffffffffffffffffff16815260200190815260200160002060010180546001816001161561010002031660029004905011612e7557600080fd5b6000815111612e8357600080fd5b612e8b615a28565b600460003373ffffffffffffffffffffffffffffffffffffffff1673ffffffffffffffffffffffffffffffffffffffff1681526020019081526020016000206040518060e00160405290816000820160009054906101000a900473ffffffffffffffffffffffffffffffffffffffff1673ffffffffffffffffffffffffffffffffffffffff1673ffffffffffffffffffffffffffffffffffffffff168152602001600182018054600181600116156101000203166002900480601f016020809104026020016040519081016040528092919081815260200182805460018160011615610100020316600290048015612fc45780601f10612f9957610100808354040283529160200191612fc4565b820191906000526020600020905b815481529060010190602001808311612fa757829003601f168201915b50505050508152602001600282018054600181600116156101000203166002900480601f0160208091040260200160405190810160405280929190818152602001828054600181600116156101000203166002900480156130665780601f1061303b57610100808354040283529160200191613066565b820191906000526020600020905b81548152906001019060200180831161304957829003601f168201915b50505050508152602001600382018054600181600116156101000203166002900480601f0160208091040260200160405190810160405280929190818152602001828054600181600116156101000203166002900480156131085780601f106130dd57610100808354040283529160200191613108565b820191906000526020600020905b8154815290600101906020018083116130eb57829003601f168201915b50505050508152602001600482018054600181600116156101000203166002900480601f0160208091040260200160405190810160405280929190818152602001828054600181600116156101000203166002900480156131aa5780601f1061317f576101008083540402835291602001916131aa565b820191906000526020600020905b81548152906001019060200180831161318d57829003601f168201915b50505050508152602001600582018054600181600116156101000203166002900480601f01602080910402602001604051908101604052809291908181526020018280546001816001161561010002031660029004801561324c5780601f106132215761010080835404028352916020019161324c565b820191906000526020600020905b81548152906001019060200180831161322f57829003601f168201915b50505050508152602001600682015481525050905081816020018190525080600460003373ffffffffffffffffffffffffffffffffffffffff1673ffffffffffffffffffffffffffffffffffffffff16815260200190815260200160002060008201518160000160006101000a81548173ffffffffffffffffffffffffffffffffffffffff021916908373ffffffffffffffffffffffffffffffffffffffff160217905550602082015181600101908051906020019061330d929190615a7b565b50604082015181600201908051906020019061332a929190615a7b565b506060820151816003019080519060200190613347929190615a7b565b506080820151816004019080519060200190613364929190615a7b565b5060a0820151816005019080519060200190613381929190615a7b565b5060c082015181600601559050507f20a3c0ccd71749b736891b28a035d7f5e1d6b4161c56414f468d0f1c0f42c42c338342604051808473ffffffffffffffffffffffffffffffffffffffff1673ffffffffffffffffffffffffffffffffffffffff1681526020018060200180602001848152602001838103835260088152602001807f757365724e616d65000000000000000000000000000000000000000000000000815250602001838103825285818151815260200191508051906020019080838360005b83811015613463578082015181840152602081019050613448565b50505050905090810190601f1680156134905780820380516001836020036101000a031916815260200191505b509550505050505060405180910390a15050565b60076020528060005260406000206000915054906101000a900460ff1681565b60035481565b6000811180156134dc57506003548111155b6134e557600080fd5b6008600082815260200190815260200160002060009054906101000a900460ff161561351057600080fd5b613518615b56565b600660008381526020019081526020016000206040518060c00160405290816000820154815260200160018201548152602001600282018054600181600116156101000203166002900480601f0160208091040260200160405190810160405280929190818152602001828054600181600116156101000203166002900480156135e35780601f106135b8576101008083540402835291602001916135e3565b820191906000526020600020905b8154815290600101906020018083116135c657829003601f168201915b505050505081526020016003820160009054906101000a900473ffffffffffffffffffffffffffffffffffffffff1673ffffffffffffffffffffffffffffffffffffffff1673ffffffffffffffffffffffffffffffffffffffff1681526020016004820154815260200160058201548152505090506000816060015190508073ffffffffffffffffffffffffffffffffffffffff166108fc349081150290604051600060405180830381858888f193505050501580156136a7573d6000803e3d6000fd5b50348260800151018260800181815250508160066000858152602001908152602001600020600082015181600001556020820151816001015560408201518160020190805190602001906136fc929190615a7b565b5060608201518160030160006101000a81548173ffffffffffffffffffffffffffffffffffffffff021916908373ffffffffffffffffffffffffffffffffffffffff1602179055506080820151816004015560a082015181600501559050507f0c026b3aea397f2eedefd7309e4e9a61cdbb2312aa801d78f4433a3d16487761826000015183608001514260405180848152602001838152602001828152602001935050505060405180910390a1505050565b6000811180156137c157506002548111155b6137ca57600080fd5b6007600082815260200190815260200160002060009054906101000a900460ff16156137f557600080fd5b6137fd615afb565b600560008381526020019081526020016000206040518061010001604052908160008201548152602001600182018054600181600116156101000203166002900480601f0160208091040260200160405190810160405280929190818152602001828054600181600116156101000203166002900480156138bf5780601f10613894576101008083540402835291602001916138bf565b820191906000526020600020905b8154815290600101906020018083116138a257829003601f168201915b50505050508152602001600282018054600181600116156101000203166002900480601f0160208091040260200160405190810160405280929190818152602001828054600181600116156101000203166002900480156139615780601f1061393657610100808354040283529160200191613961565b820191906000526020600020905b81548152906001019060200180831161394457829003601f168201915b505050505081526020016003820160009054906101000a900473ffffffffffffffffffffffffffffffffffffffff1673ffffffffffffffffffffffffffffffffffffffff1673ffffffffffffffffffffffffffffffffffffffff16815260200160048201548152602001600582018054600181600116156101000203166002900480601f016020809104026020016040519081016040528092919081815260200182805460018160011615610100020316600290048015613a635780601f10613a3857610100808354040283529160200191613a63565b820191906000526020600020905b815481529060010190602001808311613a4657829003601f168201915b50505050508152602001600682018054600181600116156101000203166002900480601f016020809104026020016040519081016040528092919081815260200182805460018160011615610100020316600290048015613b055780601f10613ada57610100808354040283529160200191613b05565b820191906000526020600020905b815481529060010190602001808311613ae857829003601f168201915b5050505050815260200160078201548152505090506000816060015190508073ffffffffffffffffffffffffffffffffffffffff166108fc349081150290604051600060405180830381858888f19350505050158015613b69573d6000803e3d6000fd5b50348260800151018260800181815250508160056000858152602001908152602001600020600082015181600001556020820151816001019080519060200190613bb4929190615a7b565b506040820151816002019080519060200190613bd1929190615a7b565b5060608201518160030160006101000a81548173ffffffffffffffffffffffffffffffffffffffff021916908373ffffffffffffffffffffffffffffffffffffffff1602179055506080820151816004015560a0820151816005019080519060200190613c3f929190615a7b565b5060c0820151816006019080519060200190613c5c929190615a7b565b5060e082015181600701559050507f6690c068d013a9c9601475a436c1aa8eb5da64ca5ecfc5f7713e8ba72818fdf88383608001514260405180848152602001838152602001828152602001935050505060405180910390a1505050565b600081118015613ccc57506003548111155b613cd557600080fd5b6008600082815260200190815260200160002060009054906101000a900460ff1615613d0057600080fd5b613d08615b56565b600660008381526020019081526020016000206040518060c00160405290816000820154815260200160018201548152602001600282018054600181600116156101000203166002900480601f016020809104026020016040519081016040528092919081815260200182805460018160011615610100020316600290048015613dd35780601f10613da857610100808354040283529160200191613dd3565b820191906000526020600020905b815481529060010190602001808311613db657829003601f168201915b505050505081526020016003820160009054906101000a900473ffffffffffffffffffffffffffffffffffffffff1673ffffffffffffffffffffffffffffffffffffffff1673ffffffffffffffffffffffffffffffffffffffff1681526020016004820154815260200160058201548152505090506000816060015190508073ffffffffffffffffffffffffffffffffffffffff163373ffffffffffffffffffffffffffffffffffffffff1614613e8957600080fd5b600660008481526020019081526020016000206000808201600090556001820160009055600282016000613ebd91906159e0565b6003820160006101000a81549073ffffffffffffffffffffffffffffffffffffffff021916905560048201600090556005820160009055505060016008600085815260200190815260200160002060006101000a81548160ff0219169083151502179055507fc6b2d4e6419b51b39d2ad53d5a6a61d41ce28ebe9867877d8c3a95a0602614f38342604051808381526020018281526020019250505060405180910390a1505050565b600073ffffffffffffffffffffffffffffffffffffffff163373ffffffffffffffffffffffffffffffffffffffff161415613fa057600080fd5b6000600460003373ffffffffffffffffffffffffffffffffffffffff1673ffffffffffffffffffffffffffffffffffffffff1681526020019081526020016000206001018054600181600116156101000203166002900490501161400357600080fd5b600081511161401157600080fd5b614019615a28565b600460003373ffffffffffffffffffffffffffffffffffffffff1673ffffffffffffffffffffffffffffffffffffffff1681526020019081526020016000206040518060e00160405290816000820160009054906101000a900473ffffffffffffffffffffffffffffffffffffffff1673ffffffffffffffffffffffffffffffffffffffff1673ffffffffffffffffffffffffffffffffffffffff168152602001600182018054600181600116156101000203166002900480601f0160208091040260200160405190810160405280929190818152602001828054600181600116156101000203166002900480156141525780601f1061412757610100808354040283529160200191614152565b820191906000526020600020905b81548152906001019060200180831161413557829003601f168201915b50505050508152602001600282018054600181600116156101000203166002900480601f0160208091040260200160405190810160405280929190818152602001828054600181600116156101000203166002900480156141f45780601f106141c9576101008083540402835291602001916141f4565b820191906000526020600020905b8154815290600101906020018083116141d757829003601f168201915b50505050508152602001600382018054600181600116156101000203166002900480601f0160208091040260200160405190810160405280929190818152602001828054600181600116156101000203166002900480156142965780601f1061426b57610100808354040283529160200191614296565b820191906000526020600020905b81548152906001019060200180831161427957829003601f168201915b50505050508152602001600482018054600181600116156101000203166002900480601f0160208091040260200160405190810160405280929190818152602001828054600181600116156101000203166002900480156143385780601f1061430d57610100808354040283529160200191614338565b820191906000526020600020905b81548152906001019060200180831161431b57829003601f168201915b50505050508152602001600582018054600181600116156101000203166002900480601f0160208091040260200160405190810160405280929190818152602001828054600181600116156101000203166002900480156143da5780601f106143af576101008083540402835291602001916143da565b820191906000526020600020905b8154815290600101906020018083116143bd57829003601f168201915b50505050508152602001600682015481525050905081816080018190525080600460003373ffffffffffffffffffffffffffffffffffffffff1673ffffffffffffffffffffffffffffffffffffffff16815260200190815260200160002060008201518160000160006101000a81548173ffffffffffffffffffffffffffffffffffffffff021916908373ffffffffffffffffffffffffffffffffffffffff160217905550602082015181600101908051906020019061449b929190615a7b565b5060408201518160020190805190602001906144b8929190615a7b565b5060608201518160030190805190602001906144d5929190615a7b565b5060808201518160040190805190602001906144f2929190615a7b565b5060a082015181600501908051906020019061450f929190615a7b565b5060c082015181600601559050507f20a3c0ccd71749b736891b28a035d7f5e1d6b4161c56414f468d0f1c0f42c42c338342604051808473ffffffffffffffffffffffffffffffffffffffff1673ffffffffffffffffffffffffffffffffffffffff1681526020018060200180602001848152602001838103835260088152602001807f6c6f636174696f6e000000000000000000000000000000000000000000000000815250602001838103825285818151815260200191508051906020019080838360005b838110156145f15780820151818401526020810190506145d6565b50505050905090810190601f16801561461e5780820380516001836020036101000a031916815260200191505b509550505050505060405180910390a15050565b60018054600181600116156101000203166002900480601f0160208091040260200160405190810160405280929190818152602001828054600181600116156101000203166002900480156146c85780601f1061469d576101008083540402835291602001916146c8565b820191906000526020600020905b8154815290600101906020018083116146ab57829003601f168201915b505050505081565b6006602052806000526040600020600091509050806000015490806001015490806002018054600181600116156101000203166002900480601f0160208091040260200160405190810160405280929190818152602001828054600181600116156101000203166002900480156147885780601f1061475d57610100808354040283529160200191614788565b820191906000526020600020905b81548152906001019060200180831161476b57829003601f168201915b5050505050908060030160009054906101000a900473ffffffffffffffffffffffffffffffffffffffff16908060040154908060050154905086565b60046020528060005260406000206000915090508060000160009054906101000a900473ffffffffffffffffffffffffffffffffffffffff1690806001018054600181600116156101000203166002900480601f0160208091040260200160405190810160405280929190818152602001828054600181600116156101000203166002900480156148965780601f1061486b57610100808354040283529160200191614896565b820191906000526020600020905b81548152906001019060200180831161487957829003601f168201915b505050505090806002018054600181600116156101000203166002900480601f0160208091040260200160405190810160405280929190818152602001828054600181600116156101000203166002900480156149345780601f1061490957610100808354040283529160200191614934565b820191906000526020600020905b81548152906001019060200180831161491757829003601f168201915b505050505090806003018054600181600116156101000203166002900480601f0160208091040260200160405190810160405280929190818152602001828054600181600116156101000203166002900480156149d25780601f106149a7576101008083540402835291602001916149d2565b820191906000526020600020905b8154815290600101906020018083116149b557829003601f168201915b505050505090806004018054600181600116156101000203166002900480601f016020809104026020016040519081016040528092919081815260200182805460018160011615610100020316600290048015614a705780601f10614a4557610100808354040283529160200191614a70565b820191906000526020600020905b815481529060010190602001808311614a5357829003601f168201915b505050505090806005018054600181600116156101000203166002900480601f016020809104026020016040519081016040528092919081815260200182805460018160011615610100020316600290048015614b0e5780601f10614ae357610100808354040283529160200191614b0e565b820191906000526020600020905b815481529060010190602001808311614af157829003601f168201915b5050505050908060060154905087565b6000825111614b2c57600080fd5b600073ffffffffffffffffffffffffffffffffffffffff163373ffffffffffffffffffffffffffffffffffffffff161415614b6657600080fd5b60026000815480929190600101919050555060405180610100016040528060025481526020018581526020018381526020013373ffffffffffffffffffffffffffffffffffffffff1681526020016000815260200182815260200184815260200142815250600560006002548152602001908152602001600020600082015181600001556020820151816001019080519060200190614c06929190615a7b565b506040820151816002019080519060200190614c23929190615a7b565b5060608201518160030160006101000a81548173ffffffffffffffffffffffffffffffffffffffff021916908373ffffffffffffffffffffffffffffffffffffffff1602179055506080820151816004015560a0820151816005019080519060200190614c91929190615a7b565b5060c0820151816006019080519060200190614cae929190615a7b565b5060e082015181600701559050507f8b165afad8dbe2a6c8e2f5a0768ca1003e29a3deb37891ff9c948a5294cbc89c60025485843360008689426040518089815260200180602001806020018873ffffffffffffffffffffffffffffffffffffffff1673ffffffffffffffffffffffffffffffffffffffff168152602001878152602001806020018060200186815260200185810385528c818151815260200191508051906020019080838360005b83811015614d78578082015181840152602081019050614d5d565b50505050905090810190601f168015614da55780820380516001836020036101000a031916815260200191505b5085810384528b818151815260200191508051906020019080838360005b83811015614dde578082015181840152602081019050614dc3565b50505050905090810190601f168015614e0b5780820380516001836020036101000a031916815260200191505b50858103835288818151815260200191508051906020019080838360005b83811015614e44578082015181840152602081019050614e29565b50505050905090810190601f168015614e715780820380516001836020036101000a031916815260200191505b50858103825287818151815260200191508051906020019080838360005b83811015614eaa578082015181840152602081019050614e8f565b50505050905090810190601f168015614ed75780820380516001836020036101000a031916815260200191505b509c5050505050505050505050505060405180910390a150505050565b6040518060e001604052803373ffffffffffffffffffffffffffffffffffffffff16815260200186815260200185815260200184815260200183815260200182815260200142815250600460003373ffffffffffffffffffffffffffffffffffffffff1673ffffffffffffffffffffffffffffffffffffffff16815260200190815260200160002060008201518160000160006101000a81548173ffffffffffffffffffffffffffffffffffffffff021916908373ffffffffffffffffffffffffffffffffffffffff1602179055506020820151816001019080519060200190614fdf929190615a7b565b506040820151816002019080519060200190614ffc929190615a7b565b506060820151816003019080519060200190615019929190615a7b565b506080820151816004019080519060200190615036929190615a7b565b5060a0820151816005019080519060200190615053929190615a7b565b5060c082015181600601559050507f89afa1ae2bdebfedbe2363522dabe63c32f990c936270ce6f8a5d630ca437bb033868686868642604051808873ffffffffffffffffffffffffffffffffffffffff1673ffffffffffffffffffffffffffffffffffffffff168152602001806020018060200180602001806020018060200187815260200186810386528c818151815260200191508051906020019080838360005b838110156151115780820151818401526020810190506150f6565b50505050905090810190601f16801561513e5780820380516001836020036101000a031916815260200191505b5086810385528b818151815260200191508051906020019080838360005b8381101561517757808201518184015260208101905061515c565b50505050905090810190601f1680156151a45780820380516001836020036101000a031916815260200191505b5086810384528a818151815260200191508051906020019080838360005b838110156151dd5780820151818401526020810190506151c2565b50505050905090810190601f16801561520a5780820380516001836020036101000a031916815260200191505b50868103835289818151815260200191508051906020019080838360005b83811015615243578082015181840152602081019050615228565b50505050905090810190601f1680156152705780820380516001836020036101000a031916815260200191505b50868103825288818151815260200191508051906020019080838360005b838110156152a957808201518184015260208101905061528e565b50505050905090810190601f1680156152d65780820380516001836020036101000a031916815260200191505b509c5050505050505050505050505060405180910390a15050505050565b60086020528060005260406000206000915054906101000a900460ff1681565b600073ffffffffffffffffffffffffffffffffffffffff163373ffffffffffffffffffffffffffffffffffffffff16141561534e57600080fd5b6000600460003373ffffffffffffffffffffffffffffffffffffffff1673ffffffffffffffffffffffffffffffffffffffff168152602001908152602001600020600101805460018160011615610100020316600290049050116153b157600080fd5b60008151116153bf57600080fd5b6153c7615a28565b600460003373ffffffffffffffffffffffffffffffffffffffff1673ffffffffffffffffffffffffffffffffffffffff1681526020019081526020016000206040518060e00160405290816000820160009054906101000a900473ffffffffffffffffffffffffffffffffffffffff1673ffffffffffffffffffffffffffffffffffffffff1673ffffffffffffffffffffffffffffffffffffffff168152602001600182018054600181600116156101000203166002900480601f0160208091040260200160405190810160405280929190818152602001828054600181600116156101000203166002900480156155005780601f106154d557610100808354040283529160200191615500565b820191906000526020600020905b8154815290600101906020018083116154e357829003601f168201915b50505050508152602001600282018054600181600116156101000203166002900480601f0160208091040260200160405190810160405280929190818152602001828054600181600116156101000203166002900480156155a25780601f10615577576101008083540402835291602001916155a2565b820191906000526020600020905b81548152906001019060200180831161558557829003601f168201915b50505050508152602001600382018054600181600116156101000203166002900480601f0160208091040260200160405190810160405280929190818152602001828054600181600116156101000203166002900480156156445780601f1061561957610100808354040283529160200191615644565b820191906000526020600020905b81548152906001019060200180831161562757829003601f168201915b50505050508152602001600482018054600181600116156101000203166002900480601f0160208091040260200160405190810160405280929190818152602001828054600181600116156101000203166002900480156156e65780601f106156bb576101008083540402835291602001916156e6565b820191906000526020600020905b8154815290600101906020018083116156c957829003601f168201915b50505050508152602001600582018054600181600116156101000203166002900480601f0160208091040260200160405190810160405280929190818152602001828054600181600116156101000203166002900480156157885780601f1061575d57610100808354040283529160200191615788565b820191906000526020600020905b81548152906001019060200180831161576b57829003601f168201915b50505050508152602001600682015481525050905081816060018190525080600460003373ffffffffffffffffffffffffffffffffffffffff1673ffffffffffffffffffffffffffffffffffffffff16815260200190815260200160002060008201518160000160006101000a81548173ffffffffffffffffffffffffffffffffffffffff021916908373ffffffffffffffffffffffffffffffffffffffff1602179055506020820151816001019080519060200190615849929190615a7b565b506040820151816002019080519060200190615866929190615a7b565b506060820151816003019080519060200190615883929190615a7b565b5060808201518160040190805190602001906158a0929190615a7b565b5060a08201518160050190805190602001906158bd929190615a7b565b5060c082015181600601559050507f20a3c0ccd71749b736891b28a035d7f5e1d6b4161c56414f468d0f1c0f42c42c338342604051808473ffffffffffffffffffffffffffffffffffffffff1673ffffffffffffffffffffffffffffffffffffffff1681526020018060200180602001848152602001838103835260038152602001807f62696f0000000000000000000000000000000000000000000000000000000000815250602001838103825285818151815260200191508051906020019080838360005b8381101561599f578082015181840152602081019050615984565b50505050905090810190601f1680156159cc5780820380516001836020036101000a031916815260200191505b509550505050505060405180910390a15050565b50805460018160011615610100020316600290046000825580601f10615a065750615a25565b601f016020900490600052602060002090810190615a249190615ba2565b5b50565b6040518060e00160405280600073ffffffffffffffffffffffffffffffffffffffff1681526020016060815260200160608152602001606081526020016060815260200160608152602001600081525090565b828054600181600116156101000203166002900490600052602060002090601f016020900481019282601f10615abc57805160ff1916838001178555615aea565b82800160010185558215615aea579182015b82811115615ae9578251825591602001919060010190615ace565b5b509050615af79190615ba2565b5090565b604051806101000160405280600081526020016060815260200160608152602001600073ffffffffffffffffffffffffffffffffffffffff168152602001600081526020016060815260200160608152602001600081525090565b6040518060c00160405280600081526020016000815260200160608152602001600073ffffffffffffffffffffffffffffffffffffffff16815260200160008152602001600081525090565b615bc491905b80821115615bc0576000816000905550600101615ba8565b5090565b9056fea265627a7a72315820f5b422e8a16b65db5790adde6a34d291fdcfab90f3c376ef592ee85ea6811cdb64736f6c6343000510003243727970746f4772616d202d20646563656e7472616c697a656420696d6167652073686172696e6720736f6369616c206d6564696120706c6174666f726d76657273696f6e2032206f6620746865206f726967696e616c2044534d202d20646563656e7472616c697a656420736f6369616c206d656469612c206d616e79206e65772066656174757265732c20616e64206163636f756e747320617265207469656420746f20746865207573657227732077616c6c65742061646472657373",
  "source": "// SPDX-License-Identifier: LICENSE\npragma solidity >=0.5.0;\n\n//pragma experimental ABIEncoderV2;\n\n//use ganache-cli --allowUnlimitedContractSize  --gasLimit 0xFFFFFFFFFFFF\n\ncontract CryptoGram {\n    string public name =\n        \"CryptoGram - decentralized image sharing social media platform\";\n    string public contractDescription =\n        \"version 2 of the original DSM - decentralized social media, many new features, and accounts are tied to the user's wallet address\";\n\n\n    uint256 public postCount = 0;\n    uint256 public commentCount = 0;\n    mapping(address => User) public users;\n    mapping(uint256 => Post) public posts;\n    mapping(uint256 => Comment) public comments;\n\n    //keep track of deleted objects\n    mapping(uint256 => bool) public deletedPosts;\n    mapping(uint256 => bool) public deletedComments;\n\n    \n\n    struct Post {\n        uint256 id;\n        string imageHash;\n        string title;\n        address payable author;\n        uint256 tipAmount;\n        string link;\n        string status;\n        uint256 timeStamp;\n    }\n\n    struct Comment {\n        uint256 id;\n        uint256 postID;\n        string comment;\n        address payable author;\n        uint256 tipAmount;\n        uint256 timeStamp;\n    }\n\n    struct User {\n        address userAccount; //wallet address\n        string userName;\n        string imageHash;\n        string bio;\n        string location;\n        string occupation;\n        uint256 timeStamp;\n    }\n    /******************EVENTS*************************/\n    event UserAdded(\n        address userAccount, //wallet address\n        string userName,\n        string imageHash,\n        string bio,\n        string location,\n        string occupation,\n        uint256 timeStamp\n    );\n    event UserDeleted(address userAccount, uint256 timeStamp);\n\n    event UserUpdated(\n        address userAccount,\n        string valueChanged,\n        string newValue,\n        uint256 timeStamp\n    );\n\n    event PostTipped(\n        uint256 id,\n        uint256 tipAmount,\n        uint256 timeStamp\n    );\n\n    event PostAdded(\n        uint256 id,\n        string imageHash,\n        string title,\n        address author,\n        uint256 tipAmount,\n        string link,\n        string status,\n        uint256 timeStamp\n    );\n\n    event PostDeleted(\n        uint256 id,\n        uint256 timeStamp\n    );\n\n    event CommentAdded(\n        uint256 id,\n        uint256 postID,\n        string comment,\n        address author,\n        uint256 tipAmount,\n        uint256 timeStamp\n    );\n    event CommentTipped(\n        uint256 id,\n        uint256 tipAmount,\n        uint256 timeStamp\n    );\n    event CommentDeleted(uint256 id, uint256 timeStamp);\n\n    /******************FUNCTIONS*************************/\n\n    //Fallback: reverts if Ether is sent to this contract unintentionally\n    function() external {\n        revert();\n    }\n\n    function tipPost(uint256 _id) public payable {\n        //require valid ID\n        require(_id > 0 && _id <= postCount);\n        require(!deletedPosts[_id]);\n\n\n        //get post\n        Post memory _post = posts[_id];\n        //get author\n        address payable _author = _post.author;\n\n        //send tip to author\n        address(_author).transfer(msg.value);\n\n        //update tip amount and mapping\n        _post.tipAmount = _post.tipAmount + msg.value;\n        posts[_id] = _post;\n\n        emit PostTipped(_id, _post.tipAmount, now);\n    }\n\n    function addUser(\n        string memory _userName,\n        string memory _imageHash,\n        string memory _bio,\n        string memory _location,\n        string memory _occupation\n    ) public {\n        \n\n\n        //add user to mapping\n        users[msg.sender] = User(\n            msg.sender,\n            _userName,\n            _imageHash,\n            _bio,\n            _location,\n            _occupation,\n            now\n        );\n\n        //emit event\n        emit UserAdded(\n            msg.sender,\n            _userName,\n            _imageHash,\n            _bio,\n            _location,\n            _occupation,\n            now\n        );\n    }\n\n    function deleteUser() public {\n        //delete from mapping\n        delete (users[msg.sender]);\n\n        //emit event\n        emit UserDeleted(msg.sender, now);\n    }\n\n    //hash should be 0 if no image is present\n    function makePost(\n        string memory _hash,\n        string memory _desc,\n        string memory _title,\n        string memory _link\n    ) public {\n        require(bytes(_title).length > 0);\n        require(msg.sender != address(0x0));\n        postCount++;\n\n        posts[postCount] = Post(\n            postCount,\n            _hash,\n            _title,\n            msg.sender,\n            0,\n            _link,\n            _desc,\n            now\n        );\n        emit PostAdded(\n            postCount,\n            _hash,\n            _title,\n            msg.sender,\n            0,\n            _link,\n            _desc,\n            now\n        );\n    }\n\n    function deletePost(uint256 _postID) public {\n        //require valid post ID\n        require(_postID > 0 && _postID <= postCount);\n        require(!deletedPosts[_postID]);\n        //get post and author\n        Post memory _post = posts[_postID];\n        address _author = _post.author;\n        //check if image author matches message sender - only delete your own comments\n        require(msg.sender == _author);\n\n        delete (posts[_postID]);\n        deletedPosts[_postID] = true;\n\n        //emit event\n        emit PostDeleted(_postID, now);\n    }\n\n    function comment(uint256 _postID, string memory _comment) public {\n        require(bytes(_comment).length > 0);\n        require(_postID > 0 && _postID <= postCount);\n        require(!deletedPosts[_postID]);\n\n        commentCount++;\n        comments[commentCount] = Comment(\n            commentCount,\n            _postID,\n            _comment,\n            msg.sender,\n            0,\n            now\n        );\n\n        //emit event\n        emit CommentAdded(commentCount, _postID, _comment, msg.sender, 0, now);\n    }\n\n    function tipComment(uint256 _commentID) public payable {\n        //require valid ID\n        require(_commentID > 0 && _commentID <= commentCount);\n        require(!deletedComments[_commentID]);\n        //get comment\n        Comment memory _comment = comments[_commentID];\n        //get comment data\n        address payable _author = _comment.author;\n        //send to author\n        address(_author).transfer(msg.value);\n        //update tip amount and put back into mapping\n        _comment.tipAmount = _comment.tipAmount + msg.value;\n        comments[_commentID] = _comment;\n        //emit event\n        emit CommentTipped(\n            _comment.id,\n            _comment.tipAmount,\n            now\n        );\n    }\n\n    function deleteComment(uint256 _commentID) public {\n        //require valid ID\n        require(_commentID > 0 && _commentID <= commentCount);\n        require(!deletedComments[_commentID]);\n\n        Comment memory _comment = comments[_commentID];\n\n        address _author = _comment.author;\n\n        //check if image author matches message sender - only delete your own comments\n        require(msg.sender == _author);\n\n        delete (comments[_commentID]);\n        deletedComments[_commentID] = true;\n\n\n        //emit event\n        emit CommentDeleted(_commentID, now);\n    }\n\n    /******************SETTERS***********************/\n    function setUserName(string memory _value) public {\n        //require user address to be valid, and for user account to already to exist, and value to be significant\n        require(msg.sender != address(0x0));\n        require(bytes(users[msg.sender].userName).length > 0);\n        require(bytes(_value).length > 0);\n\n\n        //get user\n        User memory _user = users[msg.sender];\n\n        //update and put back into mapping\n        _user.userName = _value;\n        users[msg.sender] = _user;\n\n        emit UserUpdated(msg.sender, \"userName\", _value, now);\n    }\n\n    function setImageHash(string memory _value) public {\n        //require user address to be valid, and for user account to already to exist, and value to be significant\n        require(msg.sender != address(0x0));\n        require(bytes(users[msg.sender].userName).length > 0);\n        require(bytes(_value).length > 0);\n        //get user\n        User memory _user = users[msg.sender];\n\n        //update and put back into mapping\n        _user.imageHash = _value;\n        users[msg.sender] = _user;\n\n        emit UserUpdated(msg.sender, \"imageHash\", _value, now);\n    }\n\n    function setBio(string memory _value) public {\n        //require user address to be valid, and for user account to already to exist, and value to be significant\n        require(msg.sender != address(0x0));\n        require(bytes(users[msg.sender].userName).length > 0);\n        require(bytes(_value).length > 0);\n\n        //get user\n        User memory _user = users[msg.sender];\n\n        //update and put back into mapping\n        _user.bio = _value;\n        users[msg.sender] = _user;\n\n        emit UserUpdated(msg.sender, \"bio\", _value, now);\n    }\n\n    function setLocation(string memory _value) public {\n        //require user address to be valid, and for user account to already to exist, and value to be significant\n        require(msg.sender != address(0x0));\n        require(bytes(users[msg.sender].userName).length > 0);\n        require(bytes(_value).length > 0);\n\n        //get user\n        User memory _user = users[msg.sender];\n\n        //update and put back into mapping\n        _user.location = _value;\n        users[msg.sender] = _user;\n\n        emit UserUpdated(msg.sender, \"location\", _value, now);\n    }\n    function setOccupation(string memory _value) public {\n        //require user address to be valid, and for user account to already to exist, and value to be significant\n        require(msg.sender != address(0x0));\n        require(bytes(users[msg.sender].userName).length > 0);\n        require(bytes(_value).length > 0);\n\n        //get user\n        User memory _user = users[msg.sender];\n\n        //update and put back into mapping\n        _user.occupation = _value;\n        users[msg.sender] = _user;\n\n        emit UserUpdated(msg.sender, \"occupation\", _value, now);\n    }\n}\n",
  "sourcePath": "/mnt/c/pr0/cryptogram/src/contracts/CryptoGram.sol",
  "compiler": {
    "name": "solc",
    "version": "0.5.16+commit.9c3226ce.Emscripten.clang"
  },
  "schemaVersion": "3.3.3",
  "updatedAt": "2021-05-21T18:17:13.167Z",
  "devdoc": {
    "methods": {}
  },
  "userdoc": {
    "methods": {
      "setUserName(string)": {
        "notice": "****************SETTERS**********************"
      }
    }
  }
}