{
  "contractName": "CryptoGram",
  "abi": [
    {
      "anonymous": false,
      "inputs": [
        {
          "indexed": false,
          "internalType": "uint256",
          "name": "id",
          "type": "uint256"
        },
        {
          "indexed": false,
          "internalType": "string",
          "name": "hash",
          "type": "string"
        },
        {
          "indexed": false,
          "internalType": "string",
          "name": "description",
          "type": "string"
        },
        {
          "indexed": false,
          "internalType": "uint256",
          "name": "tipAmount",
          "type": "uint256"
        },
        {
          "indexed": false,
          "internalType": "address payable",
          "name": "author",
          "type": "address"
        },
        {
          "indexed": false,
          "internalType": "uint256",
          "name": "timeStamp",
          "type": "uint256"
        }
      ],
      "name": "ImageAdded",
      "type": "event"
    },
    {
      "anonymous": false,
      "inputs": [
        {
          "indexed": false,
          "internalType": "uint256",
          "name": "id",
          "type": "uint256"
        },
        {
          "indexed": false,
          "internalType": "address",
          "name": "author",
          "type": "address"
        },
        {
          "indexed": false,
          "internalType": "uint256",
          "name": "timeStamp",
          "type": "uint256"
        }
      ],
      "name": "ImageDeleted",
      "type": "event"
    },
    {
      "anonymous": false,
      "inputs": [
        {
          "indexed": false,
          "internalType": "uint256",
          "name": "id",
          "type": "uint256"
        },
        {
          "indexed": false,
          "internalType": "string",
          "name": "hash",
          "type": "string"
        },
        {
          "indexed": false,
          "internalType": "string",
          "name": "description",
          "type": "string"
        },
        {
          "indexed": false,
          "internalType": "uint256",
          "name": "tipAmount",
          "type": "uint256"
        },
        {
          "indexed": false,
          "internalType": "address payable",
          "name": "author",
          "type": "address"
        },
        {
          "indexed": false,
          "internalType": "uint256",
          "name": "timeStamp",
          "type": "uint256"
        }
      ],
      "name": "ImageTipped",
      "type": "event"
    },
    {
      "anonymous": false,
      "inputs": [
        {
          "indexed": false,
          "internalType": "address",
          "name": "userAccount",
          "type": "address"
        },
        {
          "indexed": false,
          "internalType": "string",
          "name": "userName",
          "type": "string"
        },
        {
          "indexed": false,
          "internalType": "string",
          "name": "status",
          "type": "string"
        },
        {
          "indexed": false,
          "internalType": "string",
          "name": "location",
          "type": "string"
        },
        {
          "indexed": false,
          "internalType": "string",
          "name": "phone",
          "type": "string"
        },
        {
          "indexed": false,
          "internalType": "string",
          "name": "email",
          "type": "string"
        },
        {
          "indexed": false,
          "internalType": "string",
          "name": "occupation",
          "type": "string"
        },
        {
          "indexed": false,
          "internalType": "uint256",
          "name": "timeStamp",
          "type": "uint256"
        }
      ],
      "name": "UserAdded",
      "type": "event"
    },
    {
      "anonymous": false,
      "inputs": [
        {
          "indexed": false,
          "internalType": "address",
          "name": "userAccount",
          "type": "address"
        },
        {
          "indexed": false,
          "internalType": "uint256",
          "name": "timeStamp",
          "type": "uint256"
        }
      ],
      "name": "UserDeleted",
      "type": "event"
    },
    {
      "anonymous": false,
      "inputs": [
        {
          "indexed": false,
          "internalType": "address",
          "name": "userAccount",
          "type": "address"
        },
        {
          "indexed": false,
          "internalType": "string",
          "name": "valueChanged",
          "type": "string"
        },
        {
          "indexed": false,
          "internalType": "string",
          "name": "newValue",
          "type": "string"
        },
        {
          "indexed": false,
          "internalType": "uint256",
          "name": "timeStamp",
          "type": "uint256"
        }
      ],
      "name": "UserUpdated",
      "type": "event"
    },
    {
      "payable": false,
      "stateMutability": "nonpayable",
      "type": "fallback"
    },
    {
      "constant": true,
      "inputs": [],
      "name": "commentCount",
      "outputs": [
        {
          "internalType": "uint256",
          "name": "",
          "type": "uint256"
        }
      ],
      "payable": false,
      "stateMutability": "view",
      "type": "function"
    },
    {
      "constant": true,
      "inputs": [
        {
          "internalType": "uint256",
          "name": "",
          "type": "uint256"
        }
      ],
      "name": "comments",
      "outputs": [
        {
          "internalType": "uint256",
          "name": "id",
          "type": "uint256"
        },
        {
          "internalType": "uint256",
          "name": "postID",
          "type": "uint256"
        },
        {
          "internalType": "string",
          "name": "comment",
          "type": "string"
        },
        {
          "internalType": "address payable",
          "name": "author",
          "type": "address"
        },
        {
          "internalType": "uint256",
          "name": "tipAmount",
          "type": "uint256"
        },
        {
          "internalType": "uint256",
          "name": "timeStamp",
          "type": "uint256"
        }
      ],
      "payable": false,
      "stateMutability": "view",
      "type": "function"
    },
    {
      "constant": true,
      "inputs": [],
      "name": "contractDescription",
      "outputs": [
        {
          "internalType": "string",
          "name": "",
          "type": "string"
        }
      ],
      "payable": false,
      "stateMutability": "view",
      "type": "function"
    },
    {
      "constant": true,
      "inputs": [
        {
          "internalType": "uint256",
          "name": "",
          "type": "uint256"
        }
      ],
      "name": "deletedComments",
      "outputs": [
        {
          "internalType": "bool",
          "name": "",
          "type": "bool"
        }
      ],
      "payable": false,
      "stateMutability": "view",
      "type": "function"
    },
    {
      "constant": true,
      "inputs": [
        {
          "internalType": "uint256",
          "name": "",
          "type": "uint256"
        }
      ],
      "name": "deletedImages",
      "outputs": [
        {
          "internalType": "bool",
          "name": "",
          "type": "bool"
        }
      ],
      "payable": false,
      "stateMutability": "view",
      "type": "function"
    },
    {
      "constant": true,
      "inputs": [
        {
          "internalType": "uint256",
          "name": "",
          "type": "uint256"
        }
      ],
      "name": "deletedPosts",
      "outputs": [
        {
          "internalType": "bool",
          "name": "",
          "type": "bool"
        }
      ],
      "payable": false,
      "stateMutability": "view",
      "type": "function"
    },
    {
      "constant": true,
      "inputs": [
        {
          "internalType": "address",
          "name": "",
          "type": "address"
        }
      ],
      "name": "deletedUsers",
      "outputs": [
        {
          "internalType": "bool",
          "name": "",
          "type": "bool"
        }
      ],
      "payable": false,
      "stateMutability": "view",
      "type": "function"
    },
    {
      "constant": true,
      "inputs": [],
      "name": "imageCount",
      "outputs": [
        {
          "internalType": "uint256",
          "name": "",
          "type": "uint256"
        }
      ],
      "payable": false,
      "stateMutability": "view",
      "type": "function"
    },
    {
      "constant": true,
      "inputs": [
        {
          "internalType": "uint256",
          "name": "",
          "type": "uint256"
        }
      ],
      "name": "images",
      "outputs": [
        {
          "internalType": "uint256",
          "name": "id",
          "type": "uint256"
        },
        {
          "internalType": "string",
          "name": "hash",
          "type": "string"
        },
        {
          "internalType": "string",
          "name": "description",
          "type": "string"
        },
        {
          "internalType": "uint256",
          "name": "tipAmount",
          "type": "uint256"
        },
        {
          "internalType": "address payable",
          "name": "author",
          "type": "address"
        },
        {
          "internalType": "uint256",
          "name": "timeStamp",
          "type": "uint256"
        }
      ],
      "payable": false,
      "stateMutability": "view",
      "type": "function"
    },
    {
      "constant": true,
      "inputs": [],
      "name": "name",
      "outputs": [
        {
          "internalType": "string",
          "name": "",
          "type": "string"
        }
      ],
      "payable": false,
      "stateMutability": "view",
      "type": "function"
    },
    {
      "constant": true,
      "inputs": [],
      "name": "postCount",
      "outputs": [
        {
          "internalType": "uint256",
          "name": "",
          "type": "uint256"
        }
      ],
      "payable": false,
      "stateMutability": "view",
      "type": "function"
    },
    {
      "constant": true,
      "inputs": [
        {
          "internalType": "uint256",
          "name": "",
          "type": "uint256"
        }
      ],
      "name": "posts",
      "outputs": [
        {
          "internalType": "uint256",
          "name": "id",
          "type": "uint256"
        },
        {
          "internalType": "uint256",
          "name": "ImageID",
          "type": "uint256"
        },
        {
          "internalType": "string",
          "name": "title",
          "type": "string"
        },
        {
          "internalType": "address",
          "name": "author",
          "type": "address"
        },
        {
          "internalType": "string",
          "name": "link",
          "type": "string"
        },
        {
          "internalType": "uint256",
          "name": "timeStamp",
          "type": "uint256"
        }
      ],
      "payable": false,
      "stateMutability": "view",
      "type": "function"
    },
    {
      "constant": true,
      "inputs": [],
      "name": "userCount",
      "outputs": [
        {
          "internalType": "uint256",
          "name": "",
          "type": "uint256"
        }
      ],
      "payable": false,
      "stateMutability": "view",
      "type": "function"
    },
    {
      "constant": true,
      "inputs": [
        {
          "internalType": "address",
          "name": "",
          "type": "address"
        }
      ],
      "name": "users",
      "outputs": [
        {
          "internalType": "address",
          "name": "userAccount",
          "type": "address"
        },
        {
          "internalType": "string",
          "name": "userName",
          "type": "string"
        },
        {
          "internalType": "string",
          "name": "status",
          "type": "string"
        },
        {
          "internalType": "string",
          "name": "location",
          "type": "string"
        },
        {
          "internalType": "string",
          "name": "phone",
          "type": "string"
        },
        {
          "internalType": "string",
          "name": "email",
          "type": "string"
        },
        {
          "internalType": "string",
          "name": "occupation",
          "type": "string"
        },
        {
          "internalType": "uint256",
          "name": "timeStamp",
          "type": "uint256"
        }
      ],
      "payable": false,
      "stateMutability": "view",
      "type": "function"
    },
    {
      "constant": false,
      "inputs": [
        {
          "internalType": "uint256",
          "name": "_id",
          "type": "uint256"
        }
      ],
      "name": "tipImageOwner",
      "outputs": [],
      "payable": true,
      "stateMutability": "payable",
      "type": "function"
    },
    {
      "constant": false,
      "inputs": [
        {
          "internalType": "string",
          "name": "_hash",
          "type": "string"
        },
        {
          "internalType": "string",
          "name": "_desc",
          "type": "string"
        }
      ],
      "name": "uploadImage",
      "outputs": [],
      "payable": false,
      "stateMutability": "nonpayable",
      "type": "function"
    },
    {
      "constant": false,
      "inputs": [
        {
          "internalType": "uint256",
          "name": "_id",
          "type": "uint256"
        }
      ],
      "name": "deleteImage",
      "outputs": [],
      "payable": false,
      "stateMutability": "nonpayable",
      "type": "function"
    },
    {
      "constant": false,
      "inputs": [
        {
          "internalType": "string",
          "name": "_userName",
          "type": "string"
        },
        {
          "internalType": "string",
          "name": "_status",
          "type": "string"
        },
        {
          "internalType": "string",
          "name": "_location",
          "type": "string"
        },
        {
          "internalType": "string",
          "name": "_phone",
          "type": "string"
        },
        {
          "internalType": "string",
          "name": "_email",
          "type": "string"
        },
        {
          "internalType": "string",
          "name": "_occupation",
          "type": "string"
        }
      ],
      "name": "addUser",
      "outputs": [],
      "payable": false,
      "stateMutability": "nonpayable",
      "type": "function"
    },
    {
      "constant": false,
      "inputs": [],
      "name": "deleteUser",
      "outputs": [],
      "payable": false,
      "stateMutability": "nonpayable",
      "type": "function"
    },
    {
      "constant": false,
      "inputs": [
        {
          "internalType": "uint256",
          "name": "_imageID",
          "type": "uint256"
        },
        {
          "internalType": "string",
          "name": "_title",
          "type": "string"
        },
        {
          "internalType": "string",
          "name": "_link",
          "type": "string"
        }
      ],
      "name": "makePost",
      "outputs": [],
      "payable": false,
      "stateMutability": "nonpayable",
      "type": "function"
    },
    {
      "constant": false,
      "inputs": [
        {
          "internalType": "uint256",
          "name": "_postID",
          "type": "uint256"
        }
      ],
      "name": "deletePost",
      "outputs": [],
      "payable": false,
      "stateMutability": "nonpayable",
      "type": "function"
    },
    {
      "constant": false,
      "inputs": [
        {
          "internalType": "uint256",
          "name": "_postID",
          "type": "uint256"
        },
        {
          "internalType": "string",
          "name": "_comment",
          "type": "string"
        }
      ],
      "name": "comment",
      "outputs": [],
      "payable": false,
      "stateMutability": "nonpayable",
      "type": "function"
    },
    {
      "constant": false,
      "inputs": [
        {
          "internalType": "uint256",
          "name": "_commentID",
          "type": "uint256"
        }
      ],
      "name": "tipComment",
      "outputs": [],
      "payable": true,
      "stateMutability": "payable",
      "type": "function"
    },
    {
      "constant": false,
      "inputs": [
        {
          "internalType": "uint256",
          "name": "_commentID",
          "type": "uint256"
        }
      ],
      "name": "deleteComment",
      "outputs": [],
      "payable": false,
      "stateMutability": "nonpayable",
      "type": "function"
    },
    {
      "constant": false,
      "inputs": [
        {
          "internalType": "string",
          "name": "_userName",
          "type": "string"
        }
      ],
      "name": "setUserName",
      "outputs": [],
      "payable": false,
      "stateMutability": "nonpayable",
      "type": "function"
    },
    {
      "constant": false,
      "inputs": [
        {
          "internalType": "string",
          "name": "_location",
          "type": "string"
        }
      ],
      "name": "setLocation",
      "outputs": [],
      "payable": false,
      "stateMutability": "nonpayable",
      "type": "function"
    },
    {
      "constant": false,
      "inputs": [
        {
          "internalType": "string",
          "name": "_phone",
          "type": "string"
        }
      ],
      "name": "setPhone",
      "outputs": [],
      "payable": false,
      "stateMutability": "nonpayable",
      "type": "function"
    },
    {
      "constant": false,
      "inputs": [
        {
          "internalType": "string",
          "name": "_email",
          "type": "string"
        }
      ],
      "name": "setEmail",
      "outputs": [],
      "payable": false,
      "stateMutability": "nonpayable",
      "type": "function"
    },
    {
      "constant": false,
      "inputs": [
        {
          "internalType": "string",
          "name": "_occupation",
          "type": "string"
        }
      ],
      "name": "setOccupation",
      "outputs": [],
      "payable": false,
      "stateMutability": "nonpayable",
      "type": "function"
    }
  ],
  "bytecode": "0x60806040526040518060600160405280603e8152602001620064d9603e9139600090805190602001906200003592919062000090565b506040518060c00160405280608181526020016200651760819139600190805190602001906200006792919062000090565b5060006002556000600355600060045560006005553480156200008957600080fd5b506200013f565b828054600181600116156101000203166002900490600052602060002090601f016020900481019282601f10620000d357805160ff191683800117855562000104565b8280016001018555821562000104579182015b8281111562000103578251825591602001919060010190620000e6565b5b50905062000113919062000117565b5090565b6200013c91905b80821115620001385760008160009055506001016200011e565b5090565b90565b61638a806200014f6000396000f3fe6080604052600436106101c25760003560e01c806374d0d45d116100f7578063872db88911610095578063a91b831411610064578063a91b831414611473578063a9899aa6146115d2578063b858f4271461173b578063dfe68b541461178e576101c2565b8063872db88914610f955780638ebb4c151461102557806392053b6314611128578063a87430ba14611153576101c2565b8063827bfbdf116100d1578063827bfbdf14610cfc5780638485648214610dc45780638567ade814610f2c578063861d7daf14610f5a576101c2565b806374d0d45d14610c0557806377ec6a4714610c585780637d0b102614610cc1576101c2565b8063195cce78116101645780633578d5d31161013e5780633578d5d31461079e57806345b7ba12146107f157806345ff20de14610bac5780634802a76c14610bd7576101c2565b8063195cce7814610546578063282b065a1461060e5780632b5914fe146106d6576101c2565b8063094cd5ee116101a0578063094cd5ee146102a65780630b1e7f83146102e157806317906c2e146104495780631805c52314610474576101c2565b8063026ff05e146101d457806306fdde03146101eb57806307973ccf1461027b575b3480156101ce57600080fd5b50600080fd5b3480156101e057600080fd5b506101e9611856565b005b3480156101f757600080fd5b50610200611a39565b6040518080602001828103825283818151815260200191508051906020019080838360005b83811015610240578082015181840152602081019050610225565b50505050905090810190601f16801561026d5780820380516001836020036101000a031916815260200191505b509250505060405180910390f35b34801561028757600080fd5b50610290611ad7565b6040518082815260200191505060405180910390f35b3480156102b257600080fd5b506102df600480360360208110156102c957600080fd5b8101908080359060200190929190505050611add565b005b3480156102ed57600080fd5b5061031a6004803603602081101561030457600080fd5b8101908080359060200190929190505050611dde565b60405180878152602001868152602001806020018573ffffffffffffffffffffffffffffffffffffffff1673ffffffffffffffffffffffffffffffffffffffff16815260200180602001848152602001838103835287818151815260200191508051906020019080838360005b838110156103a2578082015181840152602081019050610387565b50505050905090810190601f1680156103cf5780820380516001836020036101000a031916815260200191505b50838103825285818151815260200191508051906020019080838360005b838110156104085780820151818401526020810190506103ed565b50505050905090810190601f1680156104355780820380516001836020036101000a031916815260200191505b509850505050505050505060405180910390f35b34801561045557600080fd5b5061045e611f6a565b6040518082815260200191505060405180910390f35b34801561048057600080fd5b506105446004803603604081101561049757600080fd5b8101908080359060200190929190803590602001906401000000008111156104be57600080fd5b8201836020820111156104d057600080fd5b803590602001918460018302840111640100000000831117156104f257600080fd5b91908080601f016020809104026020016040519081016040528093929190818152602001838380828437600081840152601f19601f820116905080830192505050505050509192919290505050611f70565b005b34801561055257600080fd5b5061060c6004803603602081101561056957600080fd5b810190808035906020019064010000000081111561058657600080fd5b82018360208201111561059857600080fd5b803590602001918460018302840111640100000000831117156105ba57600080fd5b91908080601f016020809104026020016040519081016040528093929190818152602001838380828437600081840152601f19601f820116905080830192505050505050509192919290505050612070565b005b34801561061a57600080fd5b506106d46004803603602081101561063157600080fd5b810190808035906020019064010000000081111561064e57600080fd5b82018360208201111561066057600080fd5b8035906020019184600183028401116401000000008311171561068257600080fd5b91908080601f016020809104026020016040519081016040528093929190818152602001838380828437600081840152601f19601f82011690508083019250505050505050919291929050505061278b565b005b3480156106e257600080fd5b5061079c600480360360208110156106f957600080fd5b810190808035906020019064010000000081111561071657600080fd5b82018360208201111561072857600080fd5b8035906020019184600183028401116401000000008311171561074a57600080fd5b91908080601f016020809104026020016040519081016040528093929190818152602001838380828437600081840152601f19601f820116905080830192505050505050509192919290505050612ea6565b005b3480156107aa57600080fd5b506107d7600480360360208110156107c157600080fd5b81019080803590602001909291905050506135c1565b604051808215151515815260200191505060405180910390f35b3480156107fd57600080fd5b50610baa600480360360c081101561081457600080fd5b810190808035906020019064010000000081111561083157600080fd5b82018360208201111561084357600080fd5b8035906020019184600183028401116401000000008311171561086557600080fd5b91908080601f016020809104026020016040519081016040528093929190818152602001838380828437600081840152601f19601f820116905080830192505050505050509192919290803590602001906401000000008111156108c857600080fd5b8201836020820111156108da57600080fd5b803590602001918460018302840111640100000000831117156108fc57600080fd5b91908080601f016020809104026020016040519081016040528093929190818152602001838380828437600081840152601f19601f8201169050808301925050505050505091929192908035906020019064010000000081111561095f57600080fd5b82018360208201111561097157600080fd5b8035906020019184600183028401116401000000008311171561099357600080fd5b91908080601f016020809104026020016040519081016040528093929190818152602001838380828437600081840152601f19601f820116905080830192505050505050509192919290803590602001906401000000008111156109f657600080fd5b820183602082011115610a0857600080fd5b80359060200191846001830284011164010000000083111715610a2a57600080fd5b91908080601f016020809104026020016040519081016040528093929190818152602001838380828437600081840152601f19601f82011690508083019250505050505050919291929080359060200190640100000000811115610a8d57600080fd5b820183602082011115610a9f57600080fd5b80359060200191846001830284011164010000000083111715610ac157600080fd5b91908080601f016020809104026020016040519081016040528093929190818152602001838380828437600081840152601f19601f82011690508083019250505050505050919291929080359060200190640100000000811115610b2457600080fd5b820183602082011115610b3657600080fd5b80359060200191846001830284011164010000000083111715610b5857600080fd5b91908080601f016020809104026020016040519081016040528093929190818152602001838380828437600081840152601f19601f8201169050808301925050505050505091929192905050506135e1565b005b348015610bb857600080fd5b50610bc1613b05565b6040518082815260200191505060405180910390f35b610c0360048036036020811015610bed57600080fd5b8101908080359060200190929190505050613b0b565b005b348015610c1157600080fd5b50610c3e60048036036020811015610c2857600080fd5b8101908080359060200190929190505050613d5b565b604051808215151515815260200191505060405180910390f35b348015610c6457600080fd5b50610ca760048036036020811015610c7b57600080fd5b81019080803573ffffffffffffffffffffffffffffffffffffffff169060200190929190505050613d7b565b604051808215151515815260200191505060405180910390f35b348015610ccd57600080fd5b50610cfa60048036036020811015610ce457600080fd5b8101908080359060200190929190505050613d9b565b005b348015610d0857600080fd5b50610dc260048036036020811015610d1f57600080fd5b8101908080359060200190640100000000811115610d3c57600080fd5b820183602082011115610d4e57600080fd5b80359060200191846001830284011164010000000083111715610d7057600080fd5b91908080601f016020809104026020016040519081016040528093929190818152602001838380828437600081840152601f19601f820116905080830192505050505050509192919290505050613fdd565b005b348015610dd057600080fd5b50610dfd60048036036020811015610de757600080fd5b81019080803590602001909291905050506146f8565b6040518087815260200180602001806020018681526020018573ffffffffffffffffffffffffffffffffffffffff1673ffffffffffffffffffffffffffffffffffffffff168152602001848152602001838103835288818151815260200191508051906020019080838360005b83811015610e85578082015181840152602081019050610e6a565b50505050905090810190601f168015610eb25780820380516001836020036101000a031916815260200191505b50838103825287818151815260200191508051906020019080838360005b83811015610eeb578082015181840152602081019050610ed0565b50505050905090810190601f168015610f185780820380516001836020036101000a031916815260200191505b509850505050505050505060405180910390f35b610f5860048036036020811015610f4257600080fd5b8101908080359060200190929190505050614884565b005b348015610f6657600080fd5b50610f9360048036036020811015610f7d57600080fd5b8101908080359060200190929190505050614cfb565b005b348015610fa157600080fd5b50610faa615050565b6040518080602001828103825283818151815260200191508051906020019080838360005b83811015610fea578082015181840152602081019050610fcf565b50505050905090810190601f1680156110175780820380516001836020036101000a031916815260200191505b509250505060405180910390f35b34801561103157600080fd5b5061105e6004803603602081101561104857600080fd5b81019080803590602001909291905050506150ee565b60405180878152602001868152602001806020018573ffffffffffffffffffffffffffffffffffffffff1673ffffffffffffffffffffffffffffffffffffffff168152602001848152602001838152602001828103825286818151815260200191508051906020019080838360005b838110156110e85780820151818401526020810190506110cd565b50505050905090810190601f1680156111155780820380516001836020036101000a031916815260200191505b5097505050505050505060405180910390f35b34801561113457600080fd5b5061113d6151e2565b6040518082815260200191505060405180910390f35b34801561115f57600080fd5b506111a26004803603602081101561117657600080fd5b81019080803573ffffffffffffffffffffffffffffffffffffffff1690602001909291905050506151e8565b604051808973ffffffffffffffffffffffffffffffffffffffff1673ffffffffffffffffffffffffffffffffffffffff16815260200180602001806020018060200180602001806020018060200188815260200187810387528e818151815260200191508051906020019080838360005b8381101561122e578082015181840152602081019050611213565b50505050905090810190601f16801561125b5780820380516001836020036101000a031916815260200191505b5087810386528d818151815260200191508051906020019080838360005b83811015611294578082015181840152602081019050611279565b50505050905090810190601f1680156112c15780820380516001836020036101000a031916815260200191505b5087810385528c818151815260200191508051906020019080838360005b838110156112fa5780820151818401526020810190506112df565b50505050905090810190601f1680156113275780820380516001836020036101000a031916815260200191505b5087810384528b818151815260200191508051906020019080838360005b83811015611360578082015181840152602081019050611345565b50505050905090810190601f16801561138d5780820380516001836020036101000a031916815260200191505b5087810383528a818151815260200191508051906020019080838360005b838110156113c65780820151818401526020810190506113ab565b50505050905090810190601f1680156113f35780820380516001836020036101000a031916815260200191505b50878103825289818151815260200191508051906020019080838360005b8381101561142c578082015181840152602081019050611411565b50505050905090810190601f1680156114595780820380516001836020036101000a031916815260200191505b509e50505050505050505050505050505060405180910390f35b34801561147f57600080fd5b506115d06004803603604081101561149657600080fd5b81019080803590602001906401000000008111156114b357600080fd5b8201836020820111156114c557600080fd5b803590602001918460018302840111640100000000831117156114e757600080fd5b91908080601f016020809104026020016040519081016040528093929190818152602001838380828437600081840152601f19601f8201169050808301925050505050505091929192908035906020019064010000000081111561154a57600080fd5b82018360208201111561155c57600080fd5b8035906020019184600183028401116401000000008311171561157e57600080fd5b91908080601f016020809104026020016040519081016040528093929190818152602001838380828437600081840152601f19601f8201169050808301925050505050505091929192905050506155e0565b005b3480156115de57600080fd5b50611739600480360360608110156115f557600080fd5b81019080803590602001909291908035906020019064010000000081111561161c57600080fd5b82018360208201111561162e57600080fd5b8035906020019184600183028401116401000000008311171561165057600080fd5b91908080601f016020809104026020016040519081016040528093929190818152602001838380828437600081840152601f19601f820116905080830192505050505050509192919290803590602001906401000000008111156116b357600080fd5b8201836020820111156116c557600080fd5b803590602001918460018302840111640100000000831117156116e757600080fd5b91908080601f016020809104026020016040519081016040528093929190818152602001838380828437600081840152601f19601f8201169050808301925050505050505091929192905050506158a1565b005b34801561174757600080fd5b506117746004803603602081101561175e57600080fd5b81019080803590602001909291905050506159ee565b604051808215151515815260200191505060405180910390f35b34801561179a57600080fd5b50611854600480360360208110156117b157600080fd5b81019080803590602001906401000000008111156117ce57600080fd5b8201836020820111156117e057600080fd5b8035906020019184600183028401116401000000008311171561180257600080fd5b91908080601f016020809104026020016040519081016040528093929190818152602001838380828437600081840152601f19601f820116905080830192505050505050509192919290505050615a0e565b005b600073ffffffffffffffffffffffffffffffffffffffff163373ffffffffffffffffffffffffffffffffffffffff16141561189057600080fd5b60036000815480929190600190039190505550600760003373ffffffffffffffffffffffffffffffffffffffff1673ffffffffffffffffffffffffffffffffffffffff168152602001908152602001600020600080820160006101000a81549073ffffffffffffffffffffffffffffffffffffffff021916905560018201600061191a9190616129565b60028201600061192a9190616129565b60038201600061193a9190616129565b60048201600061194a9190616129565b60058201600061195a9190616129565b60068201600061196a9190616129565b600782016000905550506001600b60003373ffffffffffffffffffffffffffffffffffffffff1673ffffffffffffffffffffffffffffffffffffffff16815260200190815260200160002060006101000a81548160ff0219169083151502179055507fde5d01a9e3db449330a6770ec433f2fd5839fab3ed1f1cfc1ed992bdfa7e6f3c3342604051808373ffffffffffffffffffffffffffffffffffffffff1673ffffffffffffffffffffffffffffffffffffffff1681526020018281526020019250505060405180910390a1565b60008054600181600116156101000203166002900480601f016020809104026020016040519081016040528092919081815260200182805460018160011615610100020316600290048015611acf5780601f10611aa457610100808354040283529160200191611acf565b820191906000526020600020905b815481529060010190602001808311611ab257829003601f168201915b505050505081565b60035481565b600073ffffffffffffffffffffffffffffffffffffffff163373ffffffffffffffffffffffffffffffffffffffff161415611b1757600080fd5b611b1f616171565b600860008381526020019081526020016000206040518060c00160405290816000820154815260200160018201548152602001600282018054600181600116156101000203166002900480601f016020809104026020016040519081016040528092919081815260200182805460018160011615610100020316600290048015611bea5780601f10611bbf57610100808354040283529160200191611bea565b820191906000526020600020905b815481529060010190602001808311611bcd57829003601f168201915b505050505081526020016003820160009054906101000a900473ffffffffffffffffffffffffffffffffffffffff1673ffffffffffffffffffffffffffffffffffffffff1673ffffffffffffffffffffffffffffffffffffffff168152602001600482018054600181600116156101000203166002900480601f016020809104026020016040519081016040528092919081815260200182805460018160011615610100020316600290048015611ce25780601f10611cb757610100808354040283529160200191611ce2565b820191906000526020600020905b815481529060010190602001808311611cc557829003601f168201915b5050505050815260200160058201548152505090506000816060015190508073ffffffffffffffffffffffffffffffffffffffff163373ffffffffffffffffffffffffffffffffffffffff1614611d3857600080fd5b600860008481526020019081526020016000206000808201600090556001820160009055600282016000611d6c9190616129565b6003820160006101000a81549073ffffffffffffffffffffffffffffffffffffffff0219169055600482016000611da39190616129565b600582016000905550506001600c600085815260200190815260200160002060006101000a81548160ff021916908315150217905550505050565b6008602052806000526040600020600091509050806000015490806001015490806002018054600181600116156101000203166002900480601f016020809104026020016040519081016040528092919081815260200182805460018160011615610100020316600290048015611e965780601f10611e6b57610100808354040283529160200191611e96565b820191906000526020600020905b815481529060010190602001808311611e7957829003601f168201915b5050505050908060030160009054906101000a900473ffffffffffffffffffffffffffffffffffffffff1690806004018054600181600116156101000203166002900480601f016020809104026020016040519081016040528092919081815260200182805460018160011615610100020316600290048015611f5a5780601f10611f2f57610100808354040283529160200191611f5a565b820191906000526020600020905b815481529060010190602001808311611f3d57829003601f168201915b5050505050908060050154905086565b60045481565b6005600081548092919060010191905055506040518060c0016040528060055481526020018381526020018281526020013373ffffffffffffffffffffffffffffffffffffffff16815260200160008152602001428152506009600060055481526020019081526020016000206000820151816000015560208201518160010155604082015181600201908051906020019061200d9291906161bd565b5060608201518160030160006101000a81548173ffffffffffffffffffffffffffffffffffffffff021916908373ffffffffffffffffffffffffffffffffffffffff1602179055506080820151816004015560a082015181600501559050505050565b600073ffffffffffffffffffffffffffffffffffffffff163373ffffffffffffffffffffffffffffffffffffffff1614156120aa57600080fd5b6120b261623d565b600760003373ffffffffffffffffffffffffffffffffffffffff1673ffffffffffffffffffffffffffffffffffffffff168152602001908152602001600020604051806101000160405290816000820160009054906101000a900473ffffffffffffffffffffffffffffffffffffffff1673ffffffffffffffffffffffffffffffffffffffff1673ffffffffffffffffffffffffffffffffffffffff168152602001600182018054600181600116156101000203166002900480601f0160208091040260200160405190810160405280929190818152602001828054600181600116156101000203166002900480156121ec5780601f106121c1576101008083540402835291602001916121ec565b820191906000526020600020905b8154815290600101906020018083116121cf57829003601f168201915b50505050508152602001600282018054600181600116156101000203166002900480601f01602080910402602001604051908101604052809291908181526020018280546001816001161561010002031660029004801561228e5780601f106122635761010080835404028352916020019161228e565b820191906000526020600020905b81548152906001019060200180831161227157829003601f168201915b50505050508152602001600382018054600181600116156101000203166002900480601f0160208091040260200160405190810160405280929190818152602001828054600181600116156101000203166002900480156123305780601f1061230557610100808354040283529160200191612330565b820191906000526020600020905b81548152906001019060200180831161231357829003601f168201915b50505050508152602001600482018054600181600116156101000203166002900480601f0160208091040260200160405190810160405280929190818152602001828054600181600116156101000203166002900480156123d25780601f106123a7576101008083540402835291602001916123d2565b820191906000526020600020905b8154815290600101906020018083116123b557829003601f168201915b50505050508152602001600582018054600181600116156101000203166002900480601f0160208091040260200160405190810160405280929190818152602001828054600181600116156101000203166002900480156124745780601f1061244957610100808354040283529160200191612474565b820191906000526020600020905b81548152906001019060200180831161245757829003601f168201915b50505050508152602001600682018054600181600116156101000203166002900480601f0160208091040260200160405190810160405280929190818152602001828054600181600116156101000203166002900480156125165780601f106124eb57610100808354040283529160200191612516565b820191906000526020600020905b8154815290600101906020018083116124f957829003601f168201915b505050505081526020016007820154815250509050818160c0018190525080600760003373ffffffffffffffffffffffffffffffffffffffff1673ffffffffffffffffffffffffffffffffffffffff16815260200190815260200160002060008201518160000160006101000a81548173ffffffffffffffffffffffffffffffffffffffff021916908373ffffffffffffffffffffffffffffffffffffffff16021790555060208201518160010190805190602001906125d79291906161bd565b5060408201518160020190805190602001906125f49291906161bd565b5060608201518160030190805190602001906126119291906161bd565b50608082015181600401908051906020019061262e9291906161bd565b5060a082015181600501908051906020019061264b9291906161bd565b5060c08201518160060190805190602001906126689291906161bd565b5060e082015181600701559050507f20a3c0ccd71749b736891b28a035d7f5e1d6b4161c56414f468d0f1c0f42c42c338342604051808473ffffffffffffffffffffffffffffffffffffffff1673ffffffffffffffffffffffffffffffffffffffff16815260200180602001806020018481526020018381038352600a8152602001807f6f636375706174696f6e00000000000000000000000000000000000000000000815250602001838103825285818151815260200191508051906020019080838360005b8381101561274a57808201518184015260208101905061272f565b50505050905090810190601f1680156127775780820380516001836020036101000a031916815260200191505b509550505050505060405180910390a15050565b600073ffffffffffffffffffffffffffffffffffffffff163373ffffffffffffffffffffffffffffffffffffffff1614156127c557600080fd5b6127cd61623d565b600760003373ffffffffffffffffffffffffffffffffffffffff1673ffffffffffffffffffffffffffffffffffffffff168152602001908152602001600020604051806101000160405290816000820160009054906101000a900473ffffffffffffffffffffffffffffffffffffffff1673ffffffffffffffffffffffffffffffffffffffff1673ffffffffffffffffffffffffffffffffffffffff168152602001600182018054600181600116156101000203166002900480601f0160208091040260200160405190810160405280929190818152602001828054600181600116156101000203166002900480156129075780601f106128dc57610100808354040283529160200191612907565b820191906000526020600020905b8154815290600101906020018083116128ea57829003601f168201915b50505050508152602001600282018054600181600116156101000203166002900480601f0160208091040260200160405190810160405280929190818152602001828054600181600116156101000203166002900480156129a95780601f1061297e576101008083540402835291602001916129a9565b820191906000526020600020905b81548152906001019060200180831161298c57829003601f168201915b50505050508152602001600382018054600181600116156101000203166002900480601f016020809104026020016040519081016040528092919081815260200182805460018160011615610100020316600290048015612a4b5780601f10612a2057610100808354040283529160200191612a4b565b820191906000526020600020905b815481529060010190602001808311612a2e57829003601f168201915b50505050508152602001600482018054600181600116156101000203166002900480601f016020809104026020016040519081016040528092919081815260200182805460018160011615610100020316600290048015612aed5780601f10612ac257610100808354040283529160200191612aed565b820191906000526020600020905b815481529060010190602001808311612ad057829003601f168201915b50505050508152602001600582018054600181600116156101000203166002900480601f016020809104026020016040519081016040528092919081815260200182805460018160011615610100020316600290048015612b8f5780601f10612b6457610100808354040283529160200191612b8f565b820191906000526020600020905b815481529060010190602001808311612b7257829003601f168201915b50505050508152602001600682018054600181600116156101000203166002900480601f016020809104026020016040519081016040528092919081815260200182805460018160011615610100020316600290048015612c315780601f10612c0657610100808354040283529160200191612c31565b820191906000526020600020905b815481529060010190602001808311612c1457829003601f168201915b505050505081526020016007820154815250509050818160a0018190525080600760003373ffffffffffffffffffffffffffffffffffffffff1673ffffffffffffffffffffffffffffffffffffffff16815260200190815260200160002060008201518160000160006101000a81548173ffffffffffffffffffffffffffffffffffffffff021916908373ffffffffffffffffffffffffffffffffffffffff1602179055506020820151816001019080519060200190612cf29291906161bd565b506040820151816002019080519060200190612d0f9291906161bd565b506060820151816003019080519060200190612d2c9291906161bd565b506080820151816004019080519060200190612d499291906161bd565b5060a0820151816005019080519060200190612d669291906161bd565b5060c0820151816006019080519060200190612d839291906161bd565b5060e082015181600701559050507f20a3c0ccd71749b736891b28a035d7f5e1d6b4161c56414f468d0f1c0f42c42c338342604051808473ffffffffffffffffffffffffffffffffffffffff1673ffffffffffffffffffffffffffffffffffffffff1681526020018060200180602001848152602001838103835260058152602001807f656d61696c000000000000000000000000000000000000000000000000000000815250602001838103825285818151815260200191508051906020019080838360005b83811015612e65578082015181840152602081019050612e4a565b50505050905090810190601f168015612e925780820380516001836020036101000a031916815260200191505b509550505050505060405180910390a15050565b600073ffffffffffffffffffffffffffffffffffffffff163373ffffffffffffffffffffffffffffffffffffffff161415612ee057600080fd5b612ee861623d565b600760003373ffffffffffffffffffffffffffffffffffffffff1673ffffffffffffffffffffffffffffffffffffffff168152602001908152602001600020604051806101000160405290816000820160009054906101000a900473ffffffffffffffffffffffffffffffffffffffff1673ffffffffffffffffffffffffffffffffffffffff1673ffffffffffffffffffffffffffffffffffffffff168152602001600182018054600181600116156101000203166002900480601f0160208091040260200160405190810160405280929190818152602001828054600181600116156101000203166002900480156130225780601f10612ff757610100808354040283529160200191613022565b820191906000526020600020905b81548152906001019060200180831161300557829003601f168201915b50505050508152602001600282018054600181600116156101000203166002900480601f0160208091040260200160405190810160405280929190818152602001828054600181600116156101000203166002900480156130c45780601f10613099576101008083540402835291602001916130c4565b820191906000526020600020905b8154815290600101906020018083116130a757829003601f168201915b50505050508152602001600382018054600181600116156101000203166002900480601f0160208091040260200160405190810160405280929190818152602001828054600181600116156101000203166002900480156131665780601f1061313b57610100808354040283529160200191613166565b820191906000526020600020905b81548152906001019060200180831161314957829003601f168201915b50505050508152602001600482018054600181600116156101000203166002900480601f0160208091040260200160405190810160405280929190818152602001828054600181600116156101000203166002900480156132085780601f106131dd57610100808354040283529160200191613208565b820191906000526020600020905b8154815290600101906020018083116131eb57829003601f168201915b50505050508152602001600582018054600181600116156101000203166002900480601f0160208091040260200160405190810160405280929190818152602001828054600181600116156101000203166002900480156132aa5780601f1061327f576101008083540402835291602001916132aa565b820191906000526020600020905b81548152906001019060200180831161328d57829003601f168201915b50505050508152602001600682018054600181600116156101000203166002900480601f01602080910402602001604051908101604052809291908181526020018280546001816001161561010002031660029004801561334c5780601f106133215761010080835404028352916020019161334c565b820191906000526020600020905b81548152906001019060200180831161332f57829003601f168201915b50505050508152602001600782015481525050905081816020018190525080600760003373ffffffffffffffffffffffffffffffffffffffff1673ffffffffffffffffffffffffffffffffffffffff16815260200190815260200160002060008201518160000160006101000a81548173ffffffffffffffffffffffffffffffffffffffff021916908373ffffffffffffffffffffffffffffffffffffffff160217905550602082015181600101908051906020019061340d9291906161bd565b50604082015181600201908051906020019061342a9291906161bd565b5060608201518160030190805190602001906134479291906161bd565b5060808201518160040190805190602001906134649291906161bd565b5060a08201518160050190805190602001906134819291906161bd565b5060c082015181600601908051906020019061349e9291906161bd565b5060e082015181600701559050507f20a3c0ccd71749b736891b28a035d7f5e1d6b4161c56414f468d0f1c0f42c42c338342604051808473ffffffffffffffffffffffffffffffffffffffff1673ffffffffffffffffffffffffffffffffffffffff1681526020018060200180602001848152602001838103835260088152602001807f757365724e616d65000000000000000000000000000000000000000000000000815250602001838103825285818151815260200191508051906020019080838360005b83811015613580578082015181840152602081019050613565565b50505050905090810190601f1680156135ad5780820380516001836020036101000a031916815260200191505b509550505050505060405180910390a15050565b600c6020528060005260406000206000915054906101000a900460ff1681565b600073ffffffffffffffffffffffffffffffffffffffff163373ffffffffffffffffffffffffffffffffffffffff16141561361b57600080fd5b600086511161362957600080fd5b600085511161363757600080fd5b600084511161364557600080fd5b600082511161365357600080fd5b600081511161366157600080fd5b6003600081548092919060010191905055506040518061010001604052803373ffffffffffffffffffffffffffffffffffffffff16815260200187815260200186815260200185815260200184815260200183815260200182815260200142815250600760003373ffffffffffffffffffffffffffffffffffffffff1673ffffffffffffffffffffffffffffffffffffffff16815260200190815260200160002060008201518160000160006101000a81548173ffffffffffffffffffffffffffffffffffffffff021916908373ffffffffffffffffffffffffffffffffffffffff16021790555060208201518160010190805190602001906137659291906161bd565b5060408201518160020190805190602001906137829291906161bd565b50606082015181600301908051906020019061379f9291906161bd565b5060808201518160040190805190602001906137bc9291906161bd565b5060a08201518160050190805190602001906137d99291906161bd565b5060c08201518160060190805190602001906137f69291906161bd565b5060e082015181600701559050507f11ef8a13807d950ba4014fc14b37d6416df3b812b0ffbd2d4c4b73a239bcf5b23387878787878742604051808973ffffffffffffffffffffffffffffffffffffffff1673ffffffffffffffffffffffffffffffffffffffff16815260200180602001806020018060200180602001806020018060200188815260200187810387528e818151815260200191508051906020019080838360005b838110156138b957808201518184015260208101905061389e565b50505050905090810190601f1680156138e65780820380516001836020036101000a031916815260200191505b5087810386528d818151815260200191508051906020019080838360005b8381101561391f578082015181840152602081019050613904565b50505050905090810190601f16801561394c5780820380516001836020036101000a031916815260200191505b5087810385528c818151815260200191508051906020019080838360005b8381101561398557808201518184015260208101905061396a565b50505050905090810190601f1680156139b25780820380516001836020036101000a031916815260200191505b5087810384528b818151815260200191508051906020019080838360005b838110156139eb5780820151818401526020810190506139d0565b50505050905090810190601f168015613a185780820380516001836020036101000a031916815260200191505b5087810383528a818151815260200191508051906020019080838360005b83811015613a51578082015181840152602081019050613a36565b50505050905090810190601f168015613a7e5780820380516001836020036101000a031916815260200191505b50878103825289818151815260200191508051906020019080838360005b83811015613ab7578082015181840152602081019050613a9c565b50505050905090810190601f168015613ae45780820380516001836020036101000a031916815260200191505b509e50505050505050505050505050505060405180910390a1505050505050565b60055481565b613b13616298565b600960008381526020019081526020016000206040518060c00160405290816000820154815260200160018201548152602001600282018054600181600116156101000203166002900480601f016020809104026020016040519081016040528092919081815260200182805460018160011615610100020316600290048015613bde5780601f10613bb357610100808354040283529160200191613bde565b820191906000526020600020905b815481529060010190602001808311613bc157829003601f168201915b505050505081526020016003820160009054906101000a900473ffffffffffffffffffffffffffffffffffffffff1673ffffffffffffffffffffffffffffffffffffffff1673ffffffffffffffffffffffffffffffffffffffff1681526020016004820154815260200160058201548152505090506000816060015190508073ffffffffffffffffffffffffffffffffffffffff166108fc349081150290604051600060405180830381858888f19350505050158015613ca2573d6000803e3d6000fd5b5034826080015101826080018181525050816009600085815260200190815260200160002060008201518160000155602082015181600101556040820151816002019080519060200190613cf79291906161bd565b5060608201518160030160006101000a81548173ffffffffffffffffffffffffffffffffffffffff021916908373ffffffffffffffffffffffffffffffffffffffff1602179055506080820151816004015560a08201518160050155905050505050565b600a6020528060005260406000206000915054906101000a900460ff1681565b600b6020528060005260406000206000915054906101000a900460ff1681565b600081118015613dad57506005548111155b613db657600080fd5b613dbe616298565b600960008381526020019081526020016000206040518060c00160405290816000820154815260200160018201548152602001600282018054600181600116156101000203166002900480601f016020809104026020016040519081016040528092919081815260200182805460018160011615610100020316600290048015613e895780601f10613e5e57610100808354040283529160200191613e89565b820191906000526020600020905b815481529060010190602001808311613e6c57829003601f168201915b505050505081526020016003820160009054906101000a900473ffffffffffffffffffffffffffffffffffffffff1673ffffffffffffffffffffffffffffffffffffffff1673ffffffffffffffffffffffffffffffffffffffff1681526020016004820154815260200160058201548152505090506000816060015190508073ffffffffffffffffffffffffffffffffffffffff163373ffffffffffffffffffffffffffffffffffffffff1614613f3f57600080fd5b600960008481526020019081526020016000206000808201600090556001820160009055600282016000613f739190616129565b6003820160006101000a81549073ffffffffffffffffffffffffffffffffffffffff02191690556004820160009055600582016000905550506001600d600085815260200190815260200160002060006101000a81548160ff021916908315150217905550505050565b600073ffffffffffffffffffffffffffffffffffffffff163373ffffffffffffffffffffffffffffffffffffffff16141561401757600080fd5b61401f61623d565b600760003373ffffffffffffffffffffffffffffffffffffffff1673ffffffffffffffffffffffffffffffffffffffff168152602001908152602001600020604051806101000160405290816000820160009054906101000a900473ffffffffffffffffffffffffffffffffffffffff1673ffffffffffffffffffffffffffffffffffffffff1673ffffffffffffffffffffffffffffffffffffffff168152602001600182018054600181600116156101000203166002900480601f0160208091040260200160405190810160405280929190818152602001828054600181600116156101000203166002900480156141595780601f1061412e57610100808354040283529160200191614159565b820191906000526020600020905b81548152906001019060200180831161413c57829003601f168201915b50505050508152602001600282018054600181600116156101000203166002900480601f0160208091040260200160405190810160405280929190818152602001828054600181600116156101000203166002900480156141fb5780601f106141d0576101008083540402835291602001916141fb565b820191906000526020600020905b8154815290600101906020018083116141de57829003601f168201915b50505050508152602001600382018054600181600116156101000203166002900480601f01602080910402602001604051908101604052809291908181526020018280546001816001161561010002031660029004801561429d5780601f106142725761010080835404028352916020019161429d565b820191906000526020600020905b81548152906001019060200180831161428057829003601f168201915b50505050508152602001600482018054600181600116156101000203166002900480601f01602080910402602001604051908101604052809291908181526020018280546001816001161561010002031660029004801561433f5780601f106143145761010080835404028352916020019161433f565b820191906000526020600020905b81548152906001019060200180831161432257829003601f168201915b50505050508152602001600582018054600181600116156101000203166002900480601f0160208091040260200160405190810160405280929190818152602001828054600181600116156101000203166002900480156143e15780601f106143b6576101008083540402835291602001916143e1565b820191906000526020600020905b8154815290600101906020018083116143c457829003601f168201915b50505050508152602001600682018054600181600116156101000203166002900480601f0160208091040260200160405190810160405280929190818152602001828054600181600116156101000203166002900480156144835780601f1061445857610100808354040283529160200191614483565b820191906000526020600020905b81548152906001019060200180831161446657829003601f168201915b50505050508152602001600782015481525050905081816060018190525080600760003373ffffffffffffffffffffffffffffffffffffffff1673ffffffffffffffffffffffffffffffffffffffff16815260200190815260200160002060008201518160000160006101000a81548173ffffffffffffffffffffffffffffffffffffffff021916908373ffffffffffffffffffffffffffffffffffffffff16021790555060208201518160010190805190602001906145449291906161bd565b5060408201518160020190805190602001906145619291906161bd565b50606082015181600301908051906020019061457e9291906161bd565b50608082015181600401908051906020019061459b9291906161bd565b5060a08201518160050190805190602001906145b89291906161bd565b5060c08201518160060190805190602001906145d59291906161bd565b5060e082015181600701559050507f20a3c0ccd71749b736891b28a035d7f5e1d6b4161c56414f468d0f1c0f42c42c338342604051808473ffffffffffffffffffffffffffffffffffffffff1673ffffffffffffffffffffffffffffffffffffffff1681526020018060200180602001848152602001838103835260088152602001807f6c6f636174696f6e000000000000000000000000000000000000000000000000815250602001838103825285818151815260200191508051906020019080838360005b838110156146b757808201518184015260208101905061469c565b50505050905090810190601f1680156146e45780820380516001836020036101000a031916815260200191505b509550505050505060405180910390a15050565b6006602052806000526040600020600091509050806000015490806001018054600181600116156101000203166002900480601f0160208091040260200160405190810160405280929190818152602001828054600181600116156101000203166002900480156147aa5780601f1061477f576101008083540402835291602001916147aa565b820191906000526020600020905b81548152906001019060200180831161478d57829003601f168201915b505050505090806002018054600181600116156101000203166002900480601f0160208091040260200160405190810160405280929190818152602001828054600181600116156101000203166002900480156148485780601f1061481d57610100808354040283529160200191614848565b820191906000526020600020905b81548152906001019060200180831161482b57829003601f168201915b5050505050908060030154908060040160009054906101000a900473ffffffffffffffffffffffffffffffffffffffff16908060050154905086565b60008111801561489657506002548111155b61489f57600080fd5b6148a76162e4565b600660008381526020019081526020016000206040518060c001604052908160008201548152602001600182018054600181600116156101000203166002900480601f0160208091040260200160405190810160405280929190818152602001828054600181600116156101000203166002900480156149685780601f1061493d57610100808354040283529160200191614968565b820191906000526020600020905b81548152906001019060200180831161494b57829003601f168201915b50505050508152602001600282018054600181600116156101000203166002900480601f016020809104026020016040519081016040528092919081815260200182805460018160011615610100020316600290048015614a0a5780601f106149df57610100808354040283529160200191614a0a565b820191906000526020600020905b8154815290600101906020018083116149ed57829003601f168201915b50505050508152602001600382015481526020016004820160009054906101000a900473ffffffffffffffffffffffffffffffffffffffff1673ffffffffffffffffffffffffffffffffffffffff1673ffffffffffffffffffffffffffffffffffffffff16815260200160058201548152505090506000816080015190508073ffffffffffffffffffffffffffffffffffffffff166108fc349081150290604051600060405180830381858888f19350505050158015614ace573d6000803e3d6000fd5b50348260600151018260600181815250508160066000858152602001908152602001600020600082015181600001556020820151816001019080519060200190614b199291906161bd565b506040820151816002019080519060200190614b369291906161bd565b506060820151816003015560808201518160040160006101000a81548173ffffffffffffffffffffffffffffffffffffffff021916908373ffffffffffffffffffffffffffffffffffffffff16021790555060a082015181600501559050507f9e17c6a51235c831649d4e4dae877ebaa0c04ab03f7bc43f6964a59e4f1e8e328383602001518460400151856060015185426040518087815260200180602001806020018681526020018573ffffffffffffffffffffffffffffffffffffffff1673ffffffffffffffffffffffffffffffffffffffff168152602001848152602001838103835288818151815260200191508051906020019080838360005b83811015614c50578082015181840152602081019050614c35565b50505050905090810190601f168015614c7d5780820380516001836020036101000a031916815260200191505b50838103825287818151815260200191508051906020019080838360005b83811015614cb6578082015181840152602081019050614c9b565b50505050905090810190601f168015614ce35780820380516001836020036101000a031916815260200191505b509850505050505050505060405180910390a1505050565b600081118015614d0d57506002548111155b614d1657600080fd5b614d1e6162e4565b600660008381526020019081526020016000206040518060c001604052908160008201548152602001600182018054600181600116156101000203166002900480601f016020809104026020016040519081016040528092919081815260200182805460018160011615610100020316600290048015614ddf5780601f10614db457610100808354040283529160200191614ddf565b820191906000526020600020905b815481529060010190602001808311614dc257829003601f168201915b50505050508152602001600282018054600181600116156101000203166002900480601f016020809104026020016040519081016040528092919081815260200182805460018160011615610100020316600290048015614e815780601f10614e5657610100808354040283529160200191614e81565b820191906000526020600020905b815481529060010190602001808311614e6457829003601f168201915b50505050508152602001600382015481526020016004820160009054906101000a900473ffffffffffffffffffffffffffffffffffffffff1673ffffffffffffffffffffffffffffffffffffffff1673ffffffffffffffffffffffffffffffffffffffff16815260200160058201548152505090506000816080015190508073ffffffffffffffffffffffffffffffffffffffff163373ffffffffffffffffffffffffffffffffffffffff1614614f3757600080fd5b60066000848152602001908152602001600020600080820160009055600182016000614f639190616129565b600282016000614f739190616129565b60038201600090556004820160006101000a81549073ffffffffffffffffffffffffffffffffffffffff0219169055600582016000905550506001600a600085815260200190815260200160002060006101000a81548160ff0219169083151502179055507f9dd93cd92a187195f9fdb27005f7f18c4a339a1666cb40e1e68c7a7b394a78a4838242604051808481526020018373ffffffffffffffffffffffffffffffffffffffff1673ffffffffffffffffffffffffffffffffffffffff168152602001828152602001935050505060405180910390a1505050565b60018054600181600116156101000203166002900480601f0160208091040260200160405190810160405280929190818152602001828054600181600116156101000203166002900480156150e65780601f106150bb576101008083540402835291602001916150e6565b820191906000526020600020905b8154815290600101906020018083116150c957829003601f168201915b505050505081565b6009602052806000526040600020600091509050806000015490806001015490806002018054600181600116156101000203166002900480601f0160208091040260200160405190810160405280929190818152602001828054600181600116156101000203166002900480156151a65780601f1061517b576101008083540402835291602001916151a6565b820191906000526020600020905b81548152906001019060200180831161518957829003601f168201915b5050505050908060030160009054906101000a900473ffffffffffffffffffffffffffffffffffffffff16908060040154908060050154905086565b60025481565b60076020528060005260406000206000915090508060000160009054906101000a900473ffffffffffffffffffffffffffffffffffffffff1690806001018054600181600116156101000203166002900480601f0160208091040260200160405190810160405280929190818152602001828054600181600116156101000203166002900480156152ba5780601f1061528f576101008083540402835291602001916152ba565b820191906000526020600020905b81548152906001019060200180831161529d57829003601f168201915b505050505090806002018054600181600116156101000203166002900480601f0160208091040260200160405190810160405280929190818152602001828054600181600116156101000203166002900480156153585780601f1061532d57610100808354040283529160200191615358565b820191906000526020600020905b81548152906001019060200180831161533b57829003601f168201915b505050505090806003018054600181600116156101000203166002900480601f0160208091040260200160405190810160405280929190818152602001828054600181600116156101000203166002900480156153f65780601f106153cb576101008083540402835291602001916153f6565b820191906000526020600020905b8154815290600101906020018083116153d957829003601f168201915b505050505090806004018054600181600116156101000203166002900480601f0160208091040260200160405190810160405280929190818152602001828054600181600116156101000203166002900480156154945780601f1061546957610100808354040283529160200191615494565b820191906000526020600020905b81548152906001019060200180831161547757829003601f168201915b505050505090806005018054600181600116156101000203166002900480601f0160208091040260200160405190810160405280929190818152602001828054600181600116156101000203166002900480156155325780601f1061550757610100808354040283529160200191615532565b820191906000526020600020905b81548152906001019060200180831161551557829003601f168201915b505050505090806006018054600181600116156101000203166002900480601f0160208091040260200160405190810160405280929190818152602001828054600181600116156101000203166002900480156155d05780601f106155a5576101008083540402835291602001916155d0565b820191906000526020600020905b8154815290600101906020018083116155b357829003601f168201915b5050505050908060070154905088565b60008251116155ee57600080fd5b60008151116155fc57600080fd5b600073ffffffffffffffffffffffffffffffffffffffff163373ffffffffffffffffffffffffffffffffffffffff16141561563657600080fd5b6002600081548092919060010191905055506040518060c001604052806002548152602001838152602001828152602001600081526020013373ffffffffffffffffffffffffffffffffffffffff168152602001428152506006600060025481526020019081526020016000206000820151816000015560208201518160010190805190602001906156c99291906161bd565b5060408201518160020190805190602001906156e69291906161bd565b506060820151816003015560808201518160040160006101000a81548173ffffffffffffffffffffffffffffffffffffffff021916908373ffffffffffffffffffffffffffffffffffffffff16021790555060a082015181600501559050507faf0f8ed6ea5dadf339b2e34e90cb6f2241025b73ee623db1f0a447d2cc37f8ee6002548383600033426040518087815260200180602001806020018681526020018573ffffffffffffffffffffffffffffffffffffffff1673ffffffffffffffffffffffffffffffffffffffff168152602001848152602001838103835288818151815260200191508051906020019080838360005b838110156157f75780820151818401526020810190506157dc565b50505050905090810190601f1680156158245780820380516001836020036101000a031916815260200191505b50838103825287818151815260200191508051906020019080838360005b8381101561585d578082015181840152602081019050615842565b50505050905090810190601f16801561588a5780820380516001836020036101000a031916815260200191505b509850505050505050505060405180910390a15050565b600073ffffffffffffffffffffffffffffffffffffffff163373ffffffffffffffffffffffffffffffffffffffff1614156158db57600080fd5b6004600081548092919060010191905055506040518060c0016040528060045481526020018481526020018381526020013373ffffffffffffffffffffffffffffffffffffffff16815260200182815260200142815250600860006004548152602001908152602001600020600082015181600001556020820151816001015560408201518160020190805190602001906159779291906161bd565b5060608201518160030160006101000a81548173ffffffffffffffffffffffffffffffffffffffff021916908373ffffffffffffffffffffffffffffffffffffffff16021790555060808201518160040190805190602001906159db9291906161bd565b5060a08201518160050155905050505050565b600d6020528060005260406000206000915054906101000a900460ff1681565b600073ffffffffffffffffffffffffffffffffffffffff163373ffffffffffffffffffffffffffffffffffffffff161415615a4857600080fd5b615a5061623d565b600760003373ffffffffffffffffffffffffffffffffffffffff1673ffffffffffffffffffffffffffffffffffffffff168152602001908152602001600020604051806101000160405290816000820160009054906101000a900473ffffffffffffffffffffffffffffffffffffffff1673ffffffffffffffffffffffffffffffffffffffff1673ffffffffffffffffffffffffffffffffffffffff168152602001600182018054600181600116156101000203166002900480601f016020809104026020016040519081016040528092919081815260200182805460018160011615610100020316600290048015615b8a5780601f10615b5f57610100808354040283529160200191615b8a565b820191906000526020600020905b815481529060010190602001808311615b6d57829003601f168201915b50505050508152602001600282018054600181600116156101000203166002900480601f016020809104026020016040519081016040528092919081815260200182805460018160011615610100020316600290048015615c2c5780601f10615c0157610100808354040283529160200191615c2c565b820191906000526020600020905b815481529060010190602001808311615c0f57829003601f168201915b50505050508152602001600382018054600181600116156101000203166002900480601f016020809104026020016040519081016040528092919081815260200182805460018160011615610100020316600290048015615cce5780601f10615ca357610100808354040283529160200191615cce565b820191906000526020600020905b815481529060010190602001808311615cb157829003601f168201915b50505050508152602001600482018054600181600116156101000203166002900480601f016020809104026020016040519081016040528092919081815260200182805460018160011615610100020316600290048015615d705780601f10615d4557610100808354040283529160200191615d70565b820191906000526020600020905b815481529060010190602001808311615d5357829003601f168201915b50505050508152602001600582018054600181600116156101000203166002900480601f016020809104026020016040519081016040528092919081815260200182805460018160011615610100020316600290048015615e125780601f10615de757610100808354040283529160200191615e12565b820191906000526020600020905b815481529060010190602001808311615df557829003601f168201915b50505050508152602001600682018054600181600116156101000203166002900480601f016020809104026020016040519081016040528092919081815260200182805460018160011615610100020316600290048015615eb45780601f10615e8957610100808354040283529160200191615eb4565b820191906000526020600020905b815481529060010190602001808311615e9757829003601f168201915b50505050508152602001600782015481525050905081816080018190525080600760003373ffffffffffffffffffffffffffffffffffffffff1673ffffffffffffffffffffffffffffffffffffffff16815260200190815260200160002060008201518160000160006101000a81548173ffffffffffffffffffffffffffffffffffffffff021916908373ffffffffffffffffffffffffffffffffffffffff1602179055506020820151816001019080519060200190615f759291906161bd565b506040820151816002019080519060200190615f929291906161bd565b506060820151816003019080519060200190615faf9291906161bd565b506080820151816004019080519060200190615fcc9291906161bd565b5060a0820151816005019080519060200190615fe99291906161bd565b5060c08201518160060190805190602001906160069291906161bd565b5060e082015181600701559050507f20a3c0ccd71749b736891b28a035d7f5e1d6b4161c56414f468d0f1c0f42c42c338342604051808473ffffffffffffffffffffffffffffffffffffffff1673ffffffffffffffffffffffffffffffffffffffff1681526020018060200180602001848152602001838103835260058152602001807f70686f6e65000000000000000000000000000000000000000000000000000000815250602001838103825285818151815260200191508051906020019080838360005b838110156160e85780820151818401526020810190506160cd565b50505050905090810190601f1680156161155780820380516001836020036101000a031916815260200191505b509550505050505060405180910390a15050565b50805460018160011615610100020316600290046000825580601f1061614f575061616e565b601f01602090049060005260206000209081019061616d9190616330565b5b50565b6040518060c00160405280600081526020016000815260200160608152602001600073ffffffffffffffffffffffffffffffffffffffff16815260200160608152602001600081525090565b828054600181600116156101000203166002900490600052602060002090601f016020900481019282601f106161fe57805160ff191683800117855561622c565b8280016001018555821561622c579182015b8281111561622b578251825591602001919060010190616210565b5b5090506162399190616330565b5090565b604051806101000160405280600073ffffffffffffffffffffffffffffffffffffffff168152602001606081526020016060815260200160608152602001606081526020016060815260200160608152602001600081525090565b6040518060c00160405280600081526020016000815260200160608152602001600073ffffffffffffffffffffffffffffffffffffffff16815260200160008152602001600081525090565b6040518060c0016040528060008152602001606081526020016060815260200160008152602001600073ffffffffffffffffffffffffffffffffffffffff168152602001600081525090565b61635291905b8082111561634e576000816000905550600101616336565b5090565b9056fea265627a7a7231582016489ae198e5da2047866636fc031f3de7bf6cf3a56c5204ead7af4a5e29782864736f6c6343000510003243727970746f4772616d202d20646563656e7472616c697a656420696d6167652073686172696e6720736f6369616c206d6564696120706c6174666f726d76657273696f6e2032206f6620746865206f726967696e616c2044534d202d20646563656e7472616c697a656420736f6369616c206d656469612c206d616e79206e65772066656174757265732c20616e64206163636f756e747320617265207469656420746f20746865207573657227732077616c6c65742061646472657373",
  "source": "// SPDX-License-Identifier: LICENSE\npragma solidity >=0.5.0;\n\n//pragma experimental ABIEncoderV2;\n\ncontract CryptoGram {\n    string public name =\n        \"CryptoGram - decentralized image sharing social media platform\";\n    string public contractDescription =\n        \"version 2 of the original DSM - decentralized social media, many new features, and accounts are tied to the user's wallet address\";\n\n    uint256 public imageCount = 0;\n    uint256 public userCount = 0;\n    uint256 public postCount = 0;\n    uint256 public commentCount = 0;\n    mapping(uint256 => Image) public images;\n    mapping(address => User) public users;\n    mapping(uint256 => Post) public posts;\n    mapping(uint256 => Comment) public comments;\n\n    mapping(uint256 => bool) public deletedImages;\n    mapping(address => bool) public deletedUsers;\n    mapping(uint256 => bool) public deletedPosts;\n    mapping(uint256 => bool) public deletedComments;\n\n    struct Post {\n        uint256 id;\n        uint256 ImageID;\n        string title;\n        address author;\n        string link;\n        uint256 timeStamp;\n    }\n\n    struct Comment {\n        uint256 id;\n        uint256 postID;\n        string comment;\n        address payable author;\n        uint256 tipAmount; \n        uint256 timeStamp;\n    }\n\n    struct Image {\n        uint256 id;\n        string hash;\n        string description;\n        uint256 tipAmount;\n        address payable author;\n        uint256 timeStamp;\n    }\n\n    struct User {\n        address userAccount; //wallet address\n        string userName;\n        string status;\n        string location;\n        string phone;\n        string email;\n        string occupation;\n        uint256 timeStamp;\n    }\n/******************EVENTS*************************/\n    event UserAdded(\n        address userAccount, //wallet address\n        string userName,\n        string status,\n        string location,\n        string phone,\n        string email,\n        string occupation,\n        uint256 timeStamp\n    );\n    event UserDeleted(address userAccount, uint256 timeStamp);\n\n    event UserUpdated(\n        address userAccount,\n        string valueChanged,\n        string newValue,\n        uint256 timeStamp\n    );\n\n    event ImageAdded(\n        uint256 id,\n        string hash,\n        string description,\n        uint256 tipAmount,\n        address payable author,\n        uint256 timeStamp\n    );\n\n    event ImageDeleted(uint256 id, address author, uint256 timeStamp);\n\n    event ImageTipped(\n        uint256 id,\n        string hash,\n        string description,\n        uint256 tipAmount,\n        address payable author,\n        uint256 timeStamp\n    );\n\n\n\n    /******************FUNCTIONS*************************/\n\n    //Fallback: reverts if Ether is sent to this contract unintentionally\n    function() external {\n        revert();\n    }\n\n    function tipImageOwner(uint256 _id) public payable {\n        //require valid ID\n        require(_id > 0 && _id <= imageCount);\n\n        //get image\n        Image memory _image = images[_id];\n\n        //get image author\n        address payable _author = _image.author;\n\n        //send to author\n        address(_author).transfer(msg.value);\n\n        //update tip amount and put back into mapping\n        _image.tipAmount = _image.tipAmount + msg.value;\n        images[_id] = _image;\n\n        //emit event\n        emit ImageTipped(\n            _id,\n            _image.hash,\n            _image.description,\n            _image.tipAmount,\n            _author,\n            now\n        );\n    }\n\n    function uploadImage(string memory _hash, string memory _desc) public {\n        //require a hash to be included\n        require(bytes(_hash).length > 0);\n\n        //require a description to be included\n        require(bytes(_desc).length > 0);\n\n        //require uploader address to exist\n        require(msg.sender != address(0x0));\n\n        //increment image ID\n        imageCount++;\n\n        //add image hash to mapping\n        images[imageCount] = Image(\n            imageCount,\n            _hash,\n            _desc,\n            0,\n            msg.sender,\n            now\n        );\n\n        //emit event\n        emit ImageAdded(imageCount, _hash, _desc, 0, msg.sender, now);\n    }\n\n    function deleteImage(uint256 _id) public {\n        //require valid ID\n        require(_id > 0 && _id <= imageCount);\n\n        //get image\n        Image memory _image = images[_id];\n\n        //get image author\n        address _author = _image.author;\n\n        //check if image author matches message sender - only delete your own images\n        require(msg.sender == _author);\n\n        //delete image from mapping and emit event\n        delete (images[_id]);\n        deletedImages[_id] = true;\n        emit ImageDeleted(_id, _author, now);\n    }\n\n    function addUser(\n        string memory _userName,\n        string memory _status,\n        string memory _location,\n        string memory _phone,\n        string memory _email,\n        string memory _occupation\n    ) public {\n        //require user address to exist\n        require(msg.sender != address(0x0));\n\n        //require all fields to be populated\n        require(bytes(_userName).length > 0);\n        require(bytes(_status).length > 0);\n        require(bytes(_location).length > 0);\n        require(bytes(_email).length > 0);\n        require(bytes(_occupation).length > 0);\n\n        //increment count of users\n        userCount++;\n\n        //add user to mapping\n        users[msg.sender] = User(\n            msg.sender,\n            _userName,\n            _status,\n            _location,\n            _phone,\n            _email,\n            _occupation,\n            now\n        );\n\n        //emit event\n        emit UserAdded(\n            msg.sender,\n            _userName,\n            _status,\n            _location,\n            _phone,\n            _email,\n            _occupation,\n            now\n        );\n    }\n\n    function deleteUser() public {\n        //require user address to exist\n        require(msg.sender != address(0x0));\n\n        //decrement user count - keep a total of active users on the contract\n        userCount--;\n\n        //delete from mapping\n        delete (users[msg.sender]);\n        deletedUsers[msg.sender] = true;\n\n        //emit event\n        emit UserDeleted(msg.sender, now);\n    }\n\n    function makePost(\n        uint256 _imageID,\n        string memory _title,\n        string memory _link\n    ) public {\n        //require user address to exist\n        require(msg.sender != address(0x0));\n\n        postCount++;\n\n        posts[postCount] = Post(\n            postCount,\n            _imageID,\n            _title,\n            msg.sender,\n            _link,\n            now\n        );\n    }\n    function deletePost(uint _postID) public {\n      //require user address to exist\n      require(msg.sender != address(0x0));\n\n      Post memory _post = posts[_postID];\n      address _author = _post.author;\n      //check if image author matches message sender - only delete your own comments\n      require(msg.sender == _author);\n\n      delete(posts[_postID]);\n      deletedPosts[_postID] = true;\n\n      //emit event\n\n\n    }\n\n    function comment(uint256 _postID, string memory _comment) public {\n      //require\n\n      commentCount++;\n      comments[commentCount] = Comment(commentCount, _postID, _comment, msg.sender, 0, now);\n\n     \n\n      //emit event       \n    }\n\n    function tipComment(uint256 _commentID) public payable{\n       //get image\n        Comment memory _comment = comments[_commentID];\n\n        //get image author\n        address payable _author = _comment.author;\n\n        //send to author\n        address(_author).transfer(msg.value);\n\n        //update tip amount and put back into mapping\n        _comment.tipAmount = _comment.tipAmount + msg.value;\n        comments[_commentID] = _comment;\n\n        //emit event\n    }\n    function deleteComment(uint256 _commentID) public {\n      //require valid ID\n        require(_commentID > 0 && _commentID <= commentCount);\n\n        Comment memory _comment = comments[_commentID];\n\n        address _author = _comment.author;\n\n        //check if image author matches message sender - only delete your own comments\n        require(msg.sender == _author);\n\n\n        delete(comments[_commentID]);\n        deletedComments[_commentID] = true;\n\n        //emit event\n\n    }\n\n    /***************Setter Functions********************/\n    function setUserName(string memory _userName) public {\n        //require user address to exist\n        require(msg.sender != address(0x0));\n\n        //get user\n        User memory _user = users[msg.sender];\n\n        //update value and put back into mapping\n        _user.userName = _userName;\n        users[msg.sender] = _user;\n\n        //emit event\n        emit UserUpdated(msg.sender, \"userName\", _userName, now);\n    }\n\n    function setLocation(string memory _location) public {\n        //require user address to exist\n        require(msg.sender != address(0x0));\n\n        //get user\n        User memory _user = users[msg.sender];\n\n        //update value and put back into mapping\n        _user.location = _location;\n        users[msg.sender] = _user;\n\n        //emit event\n        emit UserUpdated(msg.sender, \"location\", _location, now);\n    }\n\n    function setPhone(string memory _phone) public {\n        //require user address to exist\n        require(msg.sender != address(0x0));\n\n        //get user\n        User memory _user = users[msg.sender];\n\n        //update value and put back into mapping\n        _user.phone = _phone;\n        users[msg.sender] = _user;\n\n        //emit event\n        emit UserUpdated(msg.sender, \"phone\", _phone, now);\n    }\n\n    function setEmail(string memory _email) public {\n        //require user address to exist\n        require(msg.sender != address(0x0));\n\n        //get user\n        User memory _user = users[msg.sender];\n\n        //update value and put back into mapping\n        _user.email = _email;\n        users[msg.sender] = _user;\n\n        //emit event\n        emit UserUpdated(msg.sender, \"email\", _email, now);\n    }\n\n    function setOccupation(string memory _occupation) public {\n        //require user address to exist\n        require(msg.sender != address(0x0));\n\n        //get user\n        User memory _user = users[msg.sender];\n\n        //update value and put back into mapping\n        _user.occupation = _occupation;\n        users[msg.sender] = _user;\n\n        //emit event\n        emit UserUpdated(msg.sender, \"occupation\", _occupation, now);\n    }\n}\n",
  "sourcePath": "/mnt/c/pr0/cryptogram/src/contracts/CryptoGram.sol",
  "compiler": {
    "name": "solc",
    "version": "0.5.16+commit.9c3226ce.Emscripten.clang"
  },
  "schemaVersion": "3.3.3",
  "updatedAt": "2021-04-27T19:54:49.519Z",
  "devdoc": {
    "methods": {}
  },
  "userdoc": {
    "methods": {
      "setUserName(string)": {
        "notice": "*************Setter Functions*******************"
      }
    }
  }
}