{
  "contractName": "CryptoGramOld",
  "abi": [
    {
      "anonymous": false,
      "inputs": [
        {
          "indexed": false,
          "internalType": "uint256",
          "name": "id",
          "type": "uint256"
        },
        {
          "indexed": false,
          "internalType": "uint256",
          "name": "postID",
          "type": "uint256"
        },
        {
          "indexed": false,
          "internalType": "string",
          "name": "comment",
          "type": "string"
        },
        {
          "indexed": false,
          "internalType": "address",
          "name": "author",
          "type": "address"
        },
        {
          "indexed": false,
          "internalType": "uint256",
          "name": "timeStamp",
          "type": "uint256"
        }
      ],
      "name": "CommentAdded",
      "type": "event"
    },
    {
      "anonymous": false,
      "inputs": [
        {
          "indexed": false,
          "internalType": "uint256",
          "name": "id",
          "type": "uint256"
        },
        {
          "indexed": false,
          "internalType": "address",
          "name": "author",
          "type": "address"
        },
        {
          "indexed": false,
          "internalType": "uint256",
          "name": "timeStamp",
          "type": "uint256"
        }
      ],
      "name": "CommentDeleted",
      "type": "event"
    },
    {
      "anonymous": false,
      "inputs": [
        {
          "indexed": false,
          "internalType": "uint256",
          "name": "id",
          "type": "uint256"
        },
        {
          "indexed": false,
          "internalType": "uint256",
          "name": "postID",
          "type": "uint256"
        },
        {
          "indexed": false,
          "internalType": "string",
          "name": "comment",
          "type": "string"
        },
        {
          "indexed": false,
          "internalType": "address",
          "name": "author",
          "type": "address"
        },
        {
          "indexed": false,
          "internalType": "uint256",
          "name": "tipAmount",
          "type": "uint256"
        },
        {
          "indexed": false,
          "internalType": "uint256",
          "name": "timeStamp",
          "type": "uint256"
        }
      ],
      "name": "CommentTipped",
      "type": "event"
    },
    {
      "anonymous": false,
      "inputs": [
        {
          "indexed": false,
          "internalType": "uint256",
          "name": "id",
          "type": "uint256"
        },
        {
          "indexed": false,
          "internalType": "string",
          "name": "hash",
          "type": "string"
        },
        {
          "indexed": false,
          "internalType": "string",
          "name": "description",
          "type": "string"
        },
        {
          "indexed": false,
          "internalType": "uint256",
          "name": "tipAmount",
          "type": "uint256"
        },
        {
          "indexed": false,
          "internalType": "address payable",
          "name": "author",
          "type": "address"
        },
        {
          "indexed": false,
          "internalType": "uint256",
          "name": "timeStamp",
          "type": "uint256"
        }
      ],
      "name": "ImageAdded",
      "type": "event"
    },
    {
      "anonymous": false,
      "inputs": [
        {
          "indexed": false,
          "internalType": "uint256",
          "name": "id",
          "type": "uint256"
        },
        {
          "indexed": false,
          "internalType": "uint256",
          "name": "timeStamp",
          "type": "uint256"
        }
      ],
      "name": "ImageDeleted",
      "type": "event"
    },
    {
      "anonymous": false,
      "inputs": [
        {
          "indexed": false,
          "internalType": "uint256",
          "name": "id",
          "type": "uint256"
        },
        {
          "indexed": false,
          "internalType": "string",
          "name": "hash",
          "type": "string"
        },
        {
          "indexed": false,
          "internalType": "string",
          "name": "description",
          "type": "string"
        },
        {
          "indexed": false,
          "internalType": "uint256",
          "name": "tipAmount",
          "type": "uint256"
        },
        {
          "indexed": false,
          "internalType": "address payable",
          "name": "author",
          "type": "address"
        },
        {
          "indexed": false,
          "internalType": "uint256",
          "name": "timeStamp",
          "type": "uint256"
        }
      ],
      "name": "ImageTipped",
      "type": "event"
    },
    {
      "anonymous": false,
      "inputs": [
        {
          "indexed": false,
          "internalType": "uint256",
          "name": "id",
          "type": "uint256"
        },
        {
          "indexed": false,
          "internalType": "uint256",
          "name": "imageID",
          "type": "uint256"
        },
        {
          "indexed": false,
          "internalType": "string",
          "name": "title",
          "type": "string"
        },
        {
          "indexed": false,
          "internalType": "address",
          "name": "author",
          "type": "address"
        },
        {
          "indexed": false,
          "internalType": "string",
          "name": "link",
          "type": "string"
        },
        {
          "indexed": false,
          "internalType": "string",
          "name": "status",
          "type": "string"
        },
        {
          "indexed": false,
          "internalType": "uint256",
          "name": "timeStamp",
          "type": "uint256"
        }
      ],
      "name": "PostAdded",
      "type": "event"
    },
    {
      "anonymous": false,
      "inputs": [
        {
          "indexed": false,
          "internalType": "uint256",
          "name": "id",
          "type": "uint256"
        },
        {
          "indexed": false,
          "internalType": "address",
          "name": "author",
          "type": "address"
        },
        {
          "indexed": false,
          "internalType": "uint256",
          "name": "timeStamp",
          "type": "uint256"
        }
      ],
      "name": "PostDeleted",
      "type": "event"
    },
    {
      "anonymous": false,
      "inputs": [
        {
          "indexed": false,
          "internalType": "address",
          "name": "userAccount",
          "type": "address"
        },
        {
          "indexed": false,
          "internalType": "string",
          "name": "userName",
          "type": "string"
        },
        {
          "indexed": false,
          "internalType": "string",
          "name": "status",
          "type": "string"
        },
        {
          "indexed": false,
          "internalType": "string",
          "name": "location",
          "type": "string"
        },
        {
          "indexed": false,
          "internalType": "string",
          "name": "phone",
          "type": "string"
        },
        {
          "indexed": false,
          "internalType": "string",
          "name": "email",
          "type": "string"
        },
        {
          "indexed": false,
          "internalType": "string",
          "name": "occupation",
          "type": "string"
        },
        {
          "indexed": false,
          "internalType": "uint256",
          "name": "timeStamp",
          "type": "uint256"
        }
      ],
      "name": "UserAdded",
      "type": "event"
    },
    {
      "anonymous": false,
      "inputs": [
        {
          "indexed": false,
          "internalType": "address",
          "name": "userAccount",
          "type": "address"
        },
        {
          "indexed": false,
          "internalType": "uint256",
          "name": "timeStamp",
          "type": "uint256"
        }
      ],
      "name": "UserDeleted",
      "type": "event"
    },
    {
      "anonymous": false,
      "inputs": [
        {
          "indexed": false,
          "internalType": "address",
          "name": "userAccount",
          "type": "address"
        },
        {
          "indexed": false,
          "internalType": "string",
          "name": "valueChanged",
          "type": "string"
        },
        {
          "indexed": false,
          "internalType": "string",
          "name": "newValue",
          "type": "string"
        },
        {
          "indexed": false,
          "internalType": "uint256",
          "name": "timeStamp",
          "type": "uint256"
        }
      ],
      "name": "UserUpdated",
      "type": "event"
    },
    {
      "payable": false,
      "stateMutability": "nonpayable",
      "type": "fallback"
    },
    {
      "constant": true,
      "inputs": [],
      "name": "commentCount",
      "outputs": [
        {
          "internalType": "uint256",
          "name": "",
          "type": "uint256"
        }
      ],
      "payable": false,
      "stateMutability": "view",
      "type": "function"
    },
    {
      "constant": true,
      "inputs": [
        {
          "internalType": "uint256",
          "name": "",
          "type": "uint256"
        }
      ],
      "name": "comments",
      "outputs": [
        {
          "internalType": "uint256",
          "name": "id",
          "type": "uint256"
        },
        {
          "internalType": "uint256",
          "name": "postID",
          "type": "uint256"
        },
        {
          "internalType": "string",
          "name": "comment",
          "type": "string"
        },
        {
          "internalType": "address payable",
          "name": "author",
          "type": "address"
        },
        {
          "internalType": "uint256",
          "name": "tipAmount",
          "type": "uint256"
        },
        {
          "internalType": "uint256",
          "name": "timeStamp",
          "type": "uint256"
        }
      ],
      "payable": false,
      "stateMutability": "view",
      "type": "function"
    },
    {
      "constant": true,
      "inputs": [],
      "name": "contractDescription",
      "outputs": [
        {
          "internalType": "string",
          "name": "",
          "type": "string"
        }
      ],
      "payable": false,
      "stateMutability": "view",
      "type": "function"
    },
    {
      "constant": true,
      "inputs": [
        {
          "internalType": "uint256",
          "name": "",
          "type": "uint256"
        }
      ],
      "name": "deletedComments",
      "outputs": [
        {
          "internalType": "bool",
          "name": "",
          "type": "bool"
        }
      ],
      "payable": false,
      "stateMutability": "view",
      "type": "function"
    },
    {
      "constant": true,
      "inputs": [
        {
          "internalType": "uint256",
          "name": "",
          "type": "uint256"
        }
      ],
      "name": "deletedImages",
      "outputs": [
        {
          "internalType": "bool",
          "name": "",
          "type": "bool"
        }
      ],
      "payable": false,
      "stateMutability": "view",
      "type": "function"
    },
    {
      "constant": true,
      "inputs": [
        {
          "internalType": "uint256",
          "name": "",
          "type": "uint256"
        }
      ],
      "name": "deletedPosts",
      "outputs": [
        {
          "internalType": "bool",
          "name": "",
          "type": "bool"
        }
      ],
      "payable": false,
      "stateMutability": "view",
      "type": "function"
    },
    {
      "constant": true,
      "inputs": [],
      "name": "imageCount",
      "outputs": [
        {
          "internalType": "uint256",
          "name": "",
          "type": "uint256"
        }
      ],
      "payable": false,
      "stateMutability": "view",
      "type": "function"
    },
    {
      "constant": true,
      "inputs": [
        {
          "internalType": "uint256",
          "name": "",
          "type": "uint256"
        }
      ],
      "name": "images",
      "outputs": [
        {
          "internalType": "uint256",
          "name": "id",
          "type": "uint256"
        },
        {
          "internalType": "string",
          "name": "hash",
          "type": "string"
        },
        {
          "internalType": "string",
          "name": "description",
          "type": "string"
        },
        {
          "internalType": "uint256",
          "name": "tipAmount",
          "type": "uint256"
        },
        {
          "internalType": "address payable",
          "name": "author",
          "type": "address"
        },
        {
          "internalType": "uint256",
          "name": "timeStamp",
          "type": "uint256"
        }
      ],
      "payable": false,
      "stateMutability": "view",
      "type": "function"
    },
    {
      "constant": true,
      "inputs": [],
      "name": "name",
      "outputs": [
        {
          "internalType": "string",
          "name": "",
          "type": "string"
        }
      ],
      "payable": false,
      "stateMutability": "view",
      "type": "function"
    },
    {
      "constant": true,
      "inputs": [],
      "name": "postCount",
      "outputs": [
        {
          "internalType": "uint256",
          "name": "",
          "type": "uint256"
        }
      ],
      "payable": false,
      "stateMutability": "view",
      "type": "function"
    },
    {
      "constant": true,
      "inputs": [
        {
          "internalType": "uint256",
          "name": "",
          "type": "uint256"
        }
      ],
      "name": "posts",
      "outputs": [
        {
          "internalType": "uint256",
          "name": "id",
          "type": "uint256"
        },
        {
          "internalType": "uint256",
          "name": "imageID",
          "type": "uint256"
        },
        {
          "internalType": "string",
          "name": "title",
          "type": "string"
        },
        {
          "internalType": "address",
          "name": "author",
          "type": "address"
        },
        {
          "internalType": "string",
          "name": "link",
          "type": "string"
        },
        {
          "internalType": "string",
          "name": "status",
          "type": "string"
        },
        {
          "internalType": "uint256",
          "name": "timeStamp",
          "type": "uint256"
        }
      ],
      "payable": false,
      "stateMutability": "view",
      "type": "function"
    },
    {
      "constant": true,
      "inputs": [],
      "name": "userCount",
      "outputs": [
        {
          "internalType": "uint256",
          "name": "",
          "type": "uint256"
        }
      ],
      "payable": false,
      "stateMutability": "view",
      "type": "function"
    },
    {
      "constant": true,
      "inputs": [
        {
          "internalType": "address",
          "name": "",
          "type": "address"
        }
      ],
      "name": "users",
      "outputs": [
        {
          "internalType": "address",
          "name": "userAccount",
          "type": "address"
        },
        {
          "internalType": "string",
          "name": "userName",
          "type": "string"
        },
        {
          "internalType": "string",
          "name": "status",
          "type": "string"
        },
        {
          "internalType": "string",
          "name": "location",
          "type": "string"
        },
        {
          "internalType": "string",
          "name": "phone",
          "type": "string"
        },
        {
          "internalType": "string",
          "name": "email",
          "type": "string"
        },
        {
          "internalType": "string",
          "name": "occupation",
          "type": "string"
        },
        {
          "internalType": "uint256",
          "name": "timeStamp",
          "type": "uint256"
        }
      ],
      "payable": false,
      "stateMutability": "view",
      "type": "function"
    },
    {
      "constant": false,
      "inputs": [
        {
          "internalType": "uint256",
          "name": "_id",
          "type": "uint256"
        }
      ],
      "name": "tipImageOwner",
      "outputs": [],
      "payable": true,
      "stateMutability": "payable",
      "type": "function"
    },
    {
      "constant": false,
      "inputs": [
        {
          "internalType": "string",
          "name": "_userName",
          "type": "string"
        },
        {
          "internalType": "string",
          "name": "_status",
          "type": "string"
        },
        {
          "internalType": "string",
          "name": "_location",
          "type": "string"
        },
        {
          "internalType": "string",
          "name": "_phone",
          "type": "string"
        },
        {
          "internalType": "string",
          "name": "_email",
          "type": "string"
        },
        {
          "internalType": "string",
          "name": "_occupation",
          "type": "string"
        }
      ],
      "name": "addUser",
      "outputs": [],
      "payable": false,
      "stateMutability": "nonpayable",
      "type": "function"
    },
    {
      "constant": false,
      "inputs": [],
      "name": "deleteUser",
      "outputs": [],
      "payable": false,
      "stateMutability": "nonpayable",
      "type": "function"
    },
    {
      "constant": false,
      "inputs": [
        {
          "internalType": "string",
          "name": "_hash",
          "type": "string"
        },
        {
          "internalType": "string",
          "name": "_desc",
          "type": "string"
        },
        {
          "internalType": "string",
          "name": "_title",
          "type": "string"
        },
        {
          "internalType": "string",
          "name": "_link",
          "type": "string"
        },
        {
          "internalType": "bool",
          "name": "includesImage",
          "type": "bool"
        }
      ],
      "name": "makePost",
      "outputs": [],
      "payable": false,
      "stateMutability": "nonpayable",
      "type": "function"
    },
    {
      "constant": false,
      "inputs": [
        {
          "internalType": "uint256",
          "name": "_postID",
          "type": "uint256"
        }
      ],
      "name": "deletePost",
      "outputs": [],
      "payable": false,
      "stateMutability": "nonpayable",
      "type": "function"
    },
    {
      "constant": false,
      "inputs": [
        {
          "internalType": "uint256",
          "name": "_postID",
          "type": "uint256"
        },
        {
          "internalType": "string",
          "name": "_comment",
          "type": "string"
        }
      ],
      "name": "comment",
      "outputs": [],
      "payable": false,
      "stateMutability": "nonpayable",
      "type": "function"
    },
    {
      "constant": false,
      "inputs": [
        {
          "internalType": "uint256",
          "name": "_commentID",
          "type": "uint256"
        }
      ],
      "name": "tipComment",
      "outputs": [],
      "payable": true,
      "stateMutability": "payable",
      "type": "function"
    },
    {
      "constant": false,
      "inputs": [
        {
          "internalType": "uint256",
          "name": "_commentID",
          "type": "uint256"
        }
      ],
      "name": "deleteComment",
      "outputs": [],
      "payable": false,
      "stateMutability": "nonpayable",
      "type": "function"
    },
    {
      "constant": false,
      "inputs": [
        {
          "internalType": "string",
          "name": "_userName",
          "type": "string"
        }
      ],
      "name": "setUserName",
      "outputs": [],
      "payable": false,
      "stateMutability": "nonpayable",
      "type": "function"
    },
    {
      "constant": false,
      "inputs": [
        {
          "internalType": "string",
          "name": "_location",
          "type": "string"
        }
      ],
      "name": "setLocation",
      "outputs": [],
      "payable": false,
      "stateMutability": "nonpayable",
      "type": "function"
    },
    {
      "constant": false,
      "inputs": [
        {
          "internalType": "string",
          "name": "_phone",
          "type": "string"
        }
      ],
      "name": "setPhone",
      "outputs": [],
      "payable": false,
      "stateMutability": "nonpayable",
      "type": "function"
    },
    {
      "constant": false,
      "inputs": [
        {
          "internalType": "string",
          "name": "_email",
          "type": "string"
        }
      ],
      "name": "setEmail",
      "outputs": [],
      "payable": false,
      "stateMutability": "nonpayable",
      "type": "function"
    },
    {
      "constant": false,
      "inputs": [
        {
          "internalType": "string",
          "name": "_occupation",
          "type": "string"
        }
      ],
      "name": "setOccupation",
      "outputs": [],
      "payable": false,
      "stateMutability": "nonpayable",
      "type": "function"
    }
  ],
  "bytecode": "0x60806040526040518060600160405280603e815260200162006905603e9139600090805190602001906200003592919062000090565b506040518060c00160405280608181526020016200694360819139600190805190602001906200006792919062000090565b5060006002556000600355600060045560006005553480156200008957600080fd5b506200013f565b828054600181600116156101000203166002900490600052602060002090601f016020900481019282601f10620000d357805160ff191683800117855562000104565b8280016001018555821562000104579182015b8281111562000103578251825591602001919060010190620000e6565b5b50905062000113919062000117565b5090565b6200013c91905b80821115620001385760008160009055506001016200011e565b5090565b90565b6167b6806200014f6000396000f3fe6080604052600436106101815760003560e01c80634802a76c116100d15780638567ade81161008a57806392053b631161006457806392053b6314611348578063a87430ba14611373578063b858f42714611693578063dfe68b54146116e657610181565b80638567ade814611187578063872db889146111b55780638ebb4c151461124557610181565b80634802a76c14610c025780634d36f01514610c3057806374d0d45d14610ec95780637d0b102614610f1c578063827bfbdf14610f57578063848564821461101f57610181565b80631805c5231161013e5780632b5914fe116101185780632b5914fe146107015780633578d5d3146107c957806345b7ba121461081c57806345ff20de14610bd757610181565b80631805c5231461049f578063195cce7814610571578063282b065a1461063957610181565b8063026ff05e1461019357806306fdde03146101aa57806307973ccf1461023a578063094cd5ee146102655780630b1e7f83146102a057806317906c2e14610474575b34801561018d57600080fd5b50600080fd5b34801561019f57600080fd5b506101a86117ae565b005b3480156101b657600080fd5b506101bf611939565b6040518080602001828103825283818151815260200191508051906020019080838360005b838110156101ff5780820151818401526020810190506101e4565b50505050905090810190601f16801561022c5780820380516001836020036101000a031916815260200191505b509250505060405180910390f35b34801561024657600080fd5b5061024f6119d7565b6040518082815260200191505060405180910390f35b34801561027157600080fd5b5061029e6004803603602081101561028857600080fd5b81019080803590602001909291905050506119dd565b005b3480156102ac57600080fd5b506102d9600480360360208110156102c357600080fd5b8101908080359060200190929190505050611e65565b60405180888152602001878152602001806020018673ffffffffffffffffffffffffffffffffffffffff1673ffffffffffffffffffffffffffffffffffffffff1681526020018060200180602001858152602001848103845289818151815260200191508051906020019080838360005b8381101561036557808201518184015260208101905061034a565b50505050905090810190601f1680156103925780820380516001836020036101000a031916815260200191505b50848103835287818151815260200191508051906020019080838360005b838110156103cb5780820151818401526020810190506103b0565b50505050905090810190601f1680156103f85780820380516001836020036101000a031916815260200191505b50848103825286818151815260200191508051906020019080838360005b83811015610431578082015181840152602081019050610416565b50505050905090810190601f16801561045e5780820380516001836020036101000a031916815260200191505b509a505050505050505050505060405180910390f35b34801561048057600080fd5b5061048961208f565b6040518082815260200191505060405180910390f35b3480156104ab57600080fd5b5061056f600480360360408110156104c257600080fd5b8101908080359060200190929190803590602001906401000000008111156104e957600080fd5b8201836020820111156104fb57600080fd5b8035906020019184600183028401116401000000008311171561051d57600080fd5b91908080601f016020809104026020016040519081016040528093929190818152602001838380828437600081840152601f19601f820116905080830192505050505050509192919290505050612095565b005b34801561057d57600080fd5b506106376004803603602081101561059457600080fd5b81019080803590602001906401000000008111156105b157600080fd5b8201836020820111156105c357600080fd5b803590602001918460018302840111640100000000831117156105e557600080fd5b91908080601f016020809104026020016040519081016040528093929190818152602001838380828437600081840152601f19601f8201169050808301925050505050505091929192905050506122d3565b005b34801561064557600080fd5b506106ff6004803603602081101561065c57600080fd5b810190808035906020019064010000000081111561067957600080fd5b82018360208201111561068b57600080fd5b803590602001918460018302840111640100000000831117156106ad57600080fd5b91908080601f016020809104026020016040519081016040528093929190818152602001838380828437600081840152601f19601f8201169050808301925050505050505091929192905050506129ee565b005b34801561070d57600080fd5b506107c76004803603602081101561072457600080fd5b810190808035906020019064010000000081111561074157600080fd5b82018360208201111561075357600080fd5b8035906020019184600183028401116401000000008311171561077557600080fd5b91908080601f016020809104026020016040519081016040528093929190818152602001838380828437600081840152601f19601f820116905080830192505050505050509192919290505050613109565b005b3480156107d557600080fd5b50610802600480360360208110156107ec57600080fd5b8101908080359060200190929190505050613824565b604051808215151515815260200191505060405180910390f35b34801561082857600080fd5b50610bd5600480360360c081101561083f57600080fd5b810190808035906020019064010000000081111561085c57600080fd5b82018360208201111561086e57600080fd5b8035906020019184600183028401116401000000008311171561089057600080fd5b91908080601f016020809104026020016040519081016040528093929190818152602001838380828437600081840152601f19601f820116905080830192505050505050509192919290803590602001906401000000008111156108f357600080fd5b82018360208201111561090557600080fd5b8035906020019184600183028401116401000000008311171561092757600080fd5b91908080601f016020809104026020016040519081016040528093929190818152602001838380828437600081840152601f19601f8201169050808301925050505050505091929192908035906020019064010000000081111561098a57600080fd5b82018360208201111561099c57600080fd5b803590602001918460018302840111640100000000831117156109be57600080fd5b91908080601f016020809104026020016040519081016040528093929190818152602001838380828437600081840152601f19601f82011690508083019250505050505050919291929080359060200190640100000000811115610a2157600080fd5b820183602082011115610a3357600080fd5b80359060200191846001830284011164010000000083111715610a5557600080fd5b91908080601f016020809104026020016040519081016040528093929190818152602001838380828437600081840152601f19601f82011690508083019250505050505050919291929080359060200190640100000000811115610ab857600080fd5b820183602082011115610aca57600080fd5b80359060200191846001830284011164010000000083111715610aec57600080fd5b91908080601f016020809104026020016040519081016040528093929190818152602001838380828437600081840152601f19601f82011690508083019250505050505050919291929080359060200190640100000000811115610b4f57600080fd5b820183602082011115610b6157600080fd5b80359060200191846001830284011164010000000083111715610b8357600080fd5b91908080601f016020809104026020016040519081016040528093929190818152602001838380828437600081840152601f19601f820116905080830192505050505050509192919290505050613844565b005b348015610be357600080fd5b50610bec613d68565b6040518082815260200191505060405180910390f35b610c2e60048036036020811015610c1857600080fd5b8101908080359060200190929190505050613d6e565b005b348015610c3c57600080fd5b50610ec7600480360360a0811015610c5357600080fd5b8101908080359060200190640100000000811115610c7057600080fd5b820183602082011115610c8257600080fd5b80359060200191846001830284011164010000000083111715610ca457600080fd5b91908080601f016020809104026020016040519081016040528093929190818152602001838380828437600081840152601f19601f82011690508083019250505050505050919291929080359060200190640100000000811115610d0757600080fd5b820183602082011115610d1957600080fd5b80359060200191846001830284011164010000000083111715610d3b57600080fd5b91908080601f016020809104026020016040519081016040528093929190818152602001838380828437600081840152601f19601f82011690508083019250505050505050919291929080359060200190640100000000811115610d9e57600080fd5b820183602082011115610db057600080fd5b80359060200191846001830284011164010000000083111715610dd257600080fd5b91908080601f016020809104026020016040519081016040528093929190818152602001838380828437600081840152601f19601f82011690508083019250505050505050919291929080359060200190640100000000811115610e3557600080fd5b820183602082011115610e4757600080fd5b80359060200191846001830284011164010000000083111715610e6957600080fd5b91908080601f016020809104026020016040519081016040528093929190818152602001838380828437600081840152601f19601f82011690508083019250505050505050919291929080351515906020019092919050505061410b565b005b348015610ed557600080fd5b50610f0260048036036020811015610eec57600080fd5b8101908080359060200190929190505050614489565b604051808215151515815260200191505060405180910390f35b348015610f2857600080fd5b50610f5560048036036020811015610f3f57600080fd5b81019080803590602001909291905050506144a9565b005b348015610f6357600080fd5b5061101d60048036036020811015610f7a57600080fd5b8101908080359060200190640100000000811115610f9757600080fd5b820183602082011115610fa957600080fd5b80359060200191846001830284011164010000000083111715610fcb57600080fd5b91908080601f016020809104026020016040519081016040528093929190818152602001838380828437600081840152601f19601f820116905080830192505050505050509192919290505050614789565b005b34801561102b57600080fd5b506110586004803603602081101561104257600080fd5b8101908080359060200190929190505050614ea4565b6040518087815260200180602001806020018681526020018573ffffffffffffffffffffffffffffffffffffffff1673ffffffffffffffffffffffffffffffffffffffff168152602001848152602001838103835288818151815260200191508051906020019080838360005b838110156110e05780820151818401526020810190506110c5565b50505050905090810190601f16801561110d5780820380516001836020036101000a031916815260200191505b50838103825287818151815260200191508051906020019080838360005b8381101561114657808201518184015260208101905061112b565b50505050905090810190601f1680156111735780820380516001836020036101000a031916815260200191505b509850505050505050505060405180910390f35b6111b36004803603602081101561119d57600080fd5b8101908080359060200190929190505050615030565b005b3480156111c157600080fd5b506111ca6154d2565b6040518080602001828103825283818151815260200191508051906020019080838360005b8381101561120a5780820151818401526020810190506111ef565b50505050905090810190601f1680156112375780820380516001836020036101000a031916815260200191505b509250505060405180910390f35b34801561125157600080fd5b5061127e6004803603602081101561126857600080fd5b8101908080359060200190929190505050615570565b60405180878152602001868152602001806020018573ffffffffffffffffffffffffffffffffffffffff1673ffffffffffffffffffffffffffffffffffffffff168152602001848152602001838152602001828103825286818151815260200191508051906020019080838360005b838110156113085780820151818401526020810190506112ed565b50505050905090810190601f1680156113355780820380516001836020036101000a031916815260200191505b5097505050505050505060405180910390f35b34801561135457600080fd5b5061135d615664565b6040518082815260200191505060405180910390f35b34801561137f57600080fd5b506113c26004803603602081101561139657600080fd5b81019080803573ffffffffffffffffffffffffffffffffffffffff16906020019092919050505061566a565b604051808973ffffffffffffffffffffffffffffffffffffffff1673ffffffffffffffffffffffffffffffffffffffff16815260200180602001806020018060200180602001806020018060200188815260200187810387528e818151815260200191508051906020019080838360005b8381101561144e578082015181840152602081019050611433565b50505050905090810190601f16801561147b5780820380516001836020036101000a031916815260200191505b5087810386528d818151815260200191508051906020019080838360005b838110156114b4578082015181840152602081019050611499565b50505050905090810190601f1680156114e15780820380516001836020036101000a031916815260200191505b5087810385528c818151815260200191508051906020019080838360005b8381101561151a5780820151818401526020810190506114ff565b50505050905090810190601f1680156115475780820380516001836020036101000a031916815260200191505b5087810384528b818151815260200191508051906020019080838360005b83811015611580578082015181840152602081019050611565565b50505050905090810190601f1680156115ad5780820380516001836020036101000a031916815260200191505b5087810383528a818151815260200191508051906020019080838360005b838110156115e65780820151818401526020810190506115cb565b50505050905090810190601f1680156116135780820380516001836020036101000a031916815260200191505b50878103825289818151815260200191508051906020019080838360005b8381101561164c578082015181840152602081019050611631565b50505050905090810190601f1680156116795780820380516001836020036101000a031916815260200191505b509e50505050505050505050505050505060405180910390f35b34801561169f57600080fd5b506116cc600480360360208110156116b657600080fd5b8101908080359060200190929190505050615a62565b604051808215151515815260200191505060405180910390f35b3480156116f257600080fd5b506117ac6004803603602081101561170957600080fd5b810190808035906020019064010000000081111561172657600080fd5b82018360208201111561173857600080fd5b8035906020019184600183028401116401000000008311171561175a57600080fd5b91908080601f016020809104026020016040519081016040528093929190818152602001838380828437600081840152601f19601f820116905080830192505050505050509192919290505050615a82565b005b600073ffffffffffffffffffffffffffffffffffffffff163373ffffffffffffffffffffffffffffffffffffffff1614156117e857600080fd5b60036000815480929190600190039190505550600760003373ffffffffffffffffffffffffffffffffffffffff1673ffffffffffffffffffffffffffffffffffffffff168152602001908152602001600020600080820160006101000a81549073ffffffffffffffffffffffffffffffffffffffff0219169055600182016000611872919061654e565b600282016000611882919061654e565b600382016000611892919061654e565b6004820160006118a2919061654e565b6005820160006118b2919061654e565b6006820160006118c2919061654e565b600782016000905550507fde5d01a9e3db449330a6770ec433f2fd5839fab3ed1f1cfc1ed992bdfa7e6f3c3342604051808373ffffffffffffffffffffffffffffffffffffffff1673ffffffffffffffffffffffffffffffffffffffff1681526020018281526020019250505060405180910390a1565b60008054600181600116156101000203166002900480601f0160208091040260200160405190810160405280929190818152602001828054600181600116156101000203166002900480156119cf5780601f106119a4576101008083540402835291602001916119cf565b820191906000526020600020905b8154815290600101906020018083116119b257829003601f168201915b505050505081565b60035481565b600073ffffffffffffffffffffffffffffffffffffffff163373ffffffffffffffffffffffffffffffffffffffff161415611a1757600080fd5b600081118015611a2957506004548111155b611a3257600080fd5b600b600082815260200190815260200160002060009054906101000a900460ff1615611a5d57600080fd5b611a65616596565b600860008381526020019081526020016000206040518060e00160405290816000820154815260200160018201548152602001600282018054600181600116156101000203166002900480601f016020809104026020016040519081016040528092919081815260200182805460018160011615610100020316600290048015611b305780601f10611b0557610100808354040283529160200191611b30565b820191906000526020600020905b815481529060010190602001808311611b1357829003601f168201915b505050505081526020016003820160009054906101000a900473ffffffffffffffffffffffffffffffffffffffff1673ffffffffffffffffffffffffffffffffffffffff1673ffffffffffffffffffffffffffffffffffffffff168152602001600482018054600181600116156101000203166002900480601f016020809104026020016040519081016040528092919081815260200182805460018160011615610100020316600290048015611c285780601f10611bfd57610100808354040283529160200191611c28565b820191906000526020600020905b815481529060010190602001808311611c0b57829003601f168201915b50505050508152602001600582018054600181600116156101000203166002900480601f016020809104026020016040519081016040528092919081815260200182805460018160011615610100020316600290048015611cca5780601f10611c9f57610100808354040283529160200191611cca565b820191906000526020600020905b815481529060010190602001808311611cad57829003601f168201915b5050505050815260200160068201548152505090506000816060015190508073ffffffffffffffffffffffffffffffffffffffff163373ffffffffffffffffffffffffffffffffffffffff1614611d2057600080fd5b60008260200151905060008114611d3b57611d3a8161619d565b5b600860008581526020019081526020016000206000808201600090556001820160009055600282016000611d6f919061654e565b6003820160006101000a81549073ffffffffffffffffffffffffffffffffffffffff0219169055600482016000611da6919061654e565b600582016000611db6919061654e565b600682016000905550506001600b600086815260200190815260200160002060006101000a81548160ff0219169083151502179055507f5e42e69173be270ce245e462f59bfb0495101b60e83428782275fbca8ec66f0e848342604051808481526020018373ffffffffffffffffffffffffffffffffffffffff1673ffffffffffffffffffffffffffffffffffffffff168152602001828152602001935050505060405180910390a150505050565b6008602052806000526040600020600091509050806000015490806001015490806002018054600181600116156101000203166002900480601f016020809104026020016040519081016040528092919081815260200182805460018160011615610100020316600290048015611f1d5780601f10611ef257610100808354040283529160200191611f1d565b820191906000526020600020905b815481529060010190602001808311611f0057829003601f168201915b5050505050908060030160009054906101000a900473ffffffffffffffffffffffffffffffffffffffff1690806004018054600181600116156101000203166002900480601f016020809104026020016040519081016040528092919081815260200182805460018160011615610100020316600290048015611fe15780601f10611fb657610100808354040283529160200191611fe1565b820191906000526020600020905b815481529060010190602001808311611fc457829003601f168201915b505050505090806005018054600181600116156101000203166002900480601f01602080910402602001604051908101604052809291908181526020018280546001816001161561010002031660029004801561207f5780601f106120545761010080835404028352916020019161207f565b820191906000526020600020905b81548152906001019060200180831161206257829003601f168201915b5050505050908060060154905087565b60045481565b60008151116120a357600080fd5b6000821180156120b557506004548211155b6120be57600080fd5b600b600083815260200190815260200160002060009054906101000a900460ff16156120e957600080fd5b6005600081548092919060010191905055506040518060c0016040528060055481526020018381526020018281526020013373ffffffffffffffffffffffffffffffffffffffff1681526020016000815260200142815250600960006005548152602001908152602001600020600082015181600001556020820151816001015560408201518160020190805190602001906121869291906165e9565b5060608201518160030160006101000a81548173ffffffffffffffffffffffffffffffffffffffff021916908373ffffffffffffffffffffffffffffffffffffffff1602179055506080820151816004015560a082015181600501559050507f8d17c5eae06e04f4a2486e4d625ea8b9c564609be880bf5681c124e9f2396ed46005548383334260405180868152602001858152602001806020018473ffffffffffffffffffffffffffffffffffffffff1673ffffffffffffffffffffffffffffffffffffffff168152602001838152602001828103825285818151815260200191508051906020019080838360005b83811015612291578082015181840152602081019050612276565b50505050905090810190601f1680156122be5780820380516001836020036101000a031916815260200191505b50965050505050505060405180910390a15050565b600073ffffffffffffffffffffffffffffffffffffffff163373ffffffffffffffffffffffffffffffffffffffff16141561230d57600080fd5b612315616669565b600760003373ffffffffffffffffffffffffffffffffffffffff1673ffffffffffffffffffffffffffffffffffffffff168152602001908152602001600020604051806101000160405290816000820160009054906101000a900473ffffffffffffffffffffffffffffffffffffffff1673ffffffffffffffffffffffffffffffffffffffff1673ffffffffffffffffffffffffffffffffffffffff168152602001600182018054600181600116156101000203166002900480601f01602080910402602001604051908101604052809291908181526020018280546001816001161561010002031660029004801561244f5780601f106124245761010080835404028352916020019161244f565b820191906000526020600020905b81548152906001019060200180831161243257829003601f168201915b50505050508152602001600282018054600181600116156101000203166002900480601f0160208091040260200160405190810160405280929190818152602001828054600181600116156101000203166002900480156124f15780601f106124c6576101008083540402835291602001916124f1565b820191906000526020600020905b8154815290600101906020018083116124d457829003601f168201915b50505050508152602001600382018054600181600116156101000203166002900480601f0160208091040260200160405190810160405280929190818152602001828054600181600116156101000203166002900480156125935780601f1061256857610100808354040283529160200191612593565b820191906000526020600020905b81548152906001019060200180831161257657829003601f168201915b50505050508152602001600482018054600181600116156101000203166002900480601f0160208091040260200160405190810160405280929190818152602001828054600181600116156101000203166002900480156126355780601f1061260a57610100808354040283529160200191612635565b820191906000526020600020905b81548152906001019060200180831161261857829003601f168201915b50505050508152602001600582018054600181600116156101000203166002900480601f0160208091040260200160405190810160405280929190818152602001828054600181600116156101000203166002900480156126d75780601f106126ac576101008083540402835291602001916126d7565b820191906000526020600020905b8154815290600101906020018083116126ba57829003601f168201915b50505050508152602001600682018054600181600116156101000203166002900480601f0160208091040260200160405190810160405280929190818152602001828054600181600116156101000203166002900480156127795780601f1061274e57610100808354040283529160200191612779565b820191906000526020600020905b81548152906001019060200180831161275c57829003601f168201915b505050505081526020016007820154815250509050818160c0018190525080600760003373ffffffffffffffffffffffffffffffffffffffff1673ffffffffffffffffffffffffffffffffffffffff16815260200190815260200160002060008201518160000160006101000a81548173ffffffffffffffffffffffffffffffffffffffff021916908373ffffffffffffffffffffffffffffffffffffffff160217905550602082015181600101908051906020019061283a9291906165e9565b5060408201518160020190805190602001906128579291906165e9565b5060608201518160030190805190602001906128749291906165e9565b5060808201518160040190805190602001906128919291906165e9565b5060a08201518160050190805190602001906128ae9291906165e9565b5060c08201518160060190805190602001906128cb9291906165e9565b5060e082015181600701559050507f20a3c0ccd71749b736891b28a035d7f5e1d6b4161c56414f468d0f1c0f42c42c338342604051808473ffffffffffffffffffffffffffffffffffffffff1673ffffffffffffffffffffffffffffffffffffffff16815260200180602001806020018481526020018381038352600a8152602001807f6f636375706174696f6e00000000000000000000000000000000000000000000815250602001838103825285818151815260200191508051906020019080838360005b838110156129ad578082015181840152602081019050612992565b50505050905090810190601f1680156129da5780820380516001836020036101000a031916815260200191505b509550505050505060405180910390a15050565b600073ffffffffffffffffffffffffffffffffffffffff163373ffffffffffffffffffffffffffffffffffffffff161415612a2857600080fd5b612a30616669565b600760003373ffffffffffffffffffffffffffffffffffffffff1673ffffffffffffffffffffffffffffffffffffffff168152602001908152602001600020604051806101000160405290816000820160009054906101000a900473ffffffffffffffffffffffffffffffffffffffff1673ffffffffffffffffffffffffffffffffffffffff1673ffffffffffffffffffffffffffffffffffffffff168152602001600182018054600181600116156101000203166002900480601f016020809104026020016040519081016040528092919081815260200182805460018160011615610100020316600290048015612b6a5780601f10612b3f57610100808354040283529160200191612b6a565b820191906000526020600020905b815481529060010190602001808311612b4d57829003601f168201915b50505050508152602001600282018054600181600116156101000203166002900480601f016020809104026020016040519081016040528092919081815260200182805460018160011615610100020316600290048015612c0c5780601f10612be157610100808354040283529160200191612c0c565b820191906000526020600020905b815481529060010190602001808311612bef57829003601f168201915b50505050508152602001600382018054600181600116156101000203166002900480601f016020809104026020016040519081016040528092919081815260200182805460018160011615610100020316600290048015612cae5780601f10612c8357610100808354040283529160200191612cae565b820191906000526020600020905b815481529060010190602001808311612c9157829003601f168201915b50505050508152602001600482018054600181600116156101000203166002900480601f016020809104026020016040519081016040528092919081815260200182805460018160011615610100020316600290048015612d505780601f10612d2557610100808354040283529160200191612d50565b820191906000526020600020905b815481529060010190602001808311612d3357829003601f168201915b50505050508152602001600582018054600181600116156101000203166002900480601f016020809104026020016040519081016040528092919081815260200182805460018160011615610100020316600290048015612df25780601f10612dc757610100808354040283529160200191612df2565b820191906000526020600020905b815481529060010190602001808311612dd557829003601f168201915b50505050508152602001600682018054600181600116156101000203166002900480601f016020809104026020016040519081016040528092919081815260200182805460018160011615610100020316600290048015612e945780601f10612e6957610100808354040283529160200191612e94565b820191906000526020600020905b815481529060010190602001808311612e7757829003601f168201915b505050505081526020016007820154815250509050818160a0018190525080600760003373ffffffffffffffffffffffffffffffffffffffff1673ffffffffffffffffffffffffffffffffffffffff16815260200190815260200160002060008201518160000160006101000a81548173ffffffffffffffffffffffffffffffffffffffff021916908373ffffffffffffffffffffffffffffffffffffffff1602179055506020820151816001019080519060200190612f559291906165e9565b506040820151816002019080519060200190612f729291906165e9565b506060820151816003019080519060200190612f8f9291906165e9565b506080820151816004019080519060200190612fac9291906165e9565b5060a0820151816005019080519060200190612fc99291906165e9565b5060c0820151816006019080519060200190612fe69291906165e9565b5060e082015181600701559050507f20a3c0ccd71749b736891b28a035d7f5e1d6b4161c56414f468d0f1c0f42c42c338342604051808473ffffffffffffffffffffffffffffffffffffffff1673ffffffffffffffffffffffffffffffffffffffff1681526020018060200180602001848152602001838103835260058152602001807f656d61696c000000000000000000000000000000000000000000000000000000815250602001838103825285818151815260200191508051906020019080838360005b838110156130c85780820151818401526020810190506130ad565b50505050905090810190601f1680156130f55780820380516001836020036101000a031916815260200191505b509550505050505060405180910390a15050565b600073ffffffffffffffffffffffffffffffffffffffff163373ffffffffffffffffffffffffffffffffffffffff16141561314357600080fd5b61314b616669565b600760003373ffffffffffffffffffffffffffffffffffffffff1673ffffffffffffffffffffffffffffffffffffffff168152602001908152602001600020604051806101000160405290816000820160009054906101000a900473ffffffffffffffffffffffffffffffffffffffff1673ffffffffffffffffffffffffffffffffffffffff1673ffffffffffffffffffffffffffffffffffffffff168152602001600182018054600181600116156101000203166002900480601f0160208091040260200160405190810160405280929190818152602001828054600181600116156101000203166002900480156132855780601f1061325a57610100808354040283529160200191613285565b820191906000526020600020905b81548152906001019060200180831161326857829003601f168201915b50505050508152602001600282018054600181600116156101000203166002900480601f0160208091040260200160405190810160405280929190818152602001828054600181600116156101000203166002900480156133275780601f106132fc57610100808354040283529160200191613327565b820191906000526020600020905b81548152906001019060200180831161330a57829003601f168201915b50505050508152602001600382018054600181600116156101000203166002900480601f0160208091040260200160405190810160405280929190818152602001828054600181600116156101000203166002900480156133c95780601f1061339e576101008083540402835291602001916133c9565b820191906000526020600020905b8154815290600101906020018083116133ac57829003601f168201915b50505050508152602001600482018054600181600116156101000203166002900480601f01602080910402602001604051908101604052809291908181526020018280546001816001161561010002031660029004801561346b5780601f106134405761010080835404028352916020019161346b565b820191906000526020600020905b81548152906001019060200180831161344e57829003601f168201915b50505050508152602001600582018054600181600116156101000203166002900480601f01602080910402602001604051908101604052809291908181526020018280546001816001161561010002031660029004801561350d5780601f106134e25761010080835404028352916020019161350d565b820191906000526020600020905b8154815290600101906020018083116134f057829003601f168201915b50505050508152602001600682018054600181600116156101000203166002900480601f0160208091040260200160405190810160405280929190818152602001828054600181600116156101000203166002900480156135af5780601f10613584576101008083540402835291602001916135af565b820191906000526020600020905b81548152906001019060200180831161359257829003601f168201915b50505050508152602001600782015481525050905081816020018190525080600760003373ffffffffffffffffffffffffffffffffffffffff1673ffffffffffffffffffffffffffffffffffffffff16815260200190815260200160002060008201518160000160006101000a81548173ffffffffffffffffffffffffffffffffffffffff021916908373ffffffffffffffffffffffffffffffffffffffff16021790555060208201518160010190805190602001906136709291906165e9565b50604082015181600201908051906020019061368d9291906165e9565b5060608201518160030190805190602001906136aa9291906165e9565b5060808201518160040190805190602001906136c79291906165e9565b5060a08201518160050190805190602001906136e49291906165e9565b5060c08201518160060190805190602001906137019291906165e9565b5060e082015181600701559050507f20a3c0ccd71749b736891b28a035d7f5e1d6b4161c56414f468d0f1c0f42c42c338342604051808473ffffffffffffffffffffffffffffffffffffffff1673ffffffffffffffffffffffffffffffffffffffff1681526020018060200180602001848152602001838103835260088152602001807f757365724e616d65000000000000000000000000000000000000000000000000815250602001838103825285818151815260200191508051906020019080838360005b838110156137e35780820151818401526020810190506137c8565b50505050905090810190601f1680156138105780820380516001836020036101000a031916815260200191505b509550505050505060405180910390a15050565b600b6020528060005260406000206000915054906101000a900460ff1681565b600073ffffffffffffffffffffffffffffffffffffffff163373ffffffffffffffffffffffffffffffffffffffff16141561387e57600080fd5b600086511161388c57600080fd5b600085511161389a57600080fd5b60008451116138a857600080fd5b60008251116138b657600080fd5b60008151116138c457600080fd5b6003600081548092919060010191905055506040518061010001604052803373ffffffffffffffffffffffffffffffffffffffff16815260200187815260200186815260200185815260200184815260200183815260200182815260200142815250600760003373ffffffffffffffffffffffffffffffffffffffff1673ffffffffffffffffffffffffffffffffffffffff16815260200190815260200160002060008201518160000160006101000a81548173ffffffffffffffffffffffffffffffffffffffff021916908373ffffffffffffffffffffffffffffffffffffffff16021790555060208201518160010190805190602001906139c89291906165e9565b5060408201518160020190805190602001906139e59291906165e9565b506060820151816003019080519060200190613a029291906165e9565b506080820151816004019080519060200190613a1f9291906165e9565b5060a0820151816005019080519060200190613a3c9291906165e9565b5060c0820151816006019080519060200190613a599291906165e9565b5060e082015181600701559050507f11ef8a13807d950ba4014fc14b37d6416df3b812b0ffbd2d4c4b73a239bcf5b23387878787878742604051808973ffffffffffffffffffffffffffffffffffffffff1673ffffffffffffffffffffffffffffffffffffffff16815260200180602001806020018060200180602001806020018060200188815260200187810387528e818151815260200191508051906020019080838360005b83811015613b1c578082015181840152602081019050613b01565b50505050905090810190601f168015613b495780820380516001836020036101000a031916815260200191505b5087810386528d818151815260200191508051906020019080838360005b83811015613b82578082015181840152602081019050613b67565b50505050905090810190601f168015613baf5780820380516001836020036101000a031916815260200191505b5087810385528c818151815260200191508051906020019080838360005b83811015613be8578082015181840152602081019050613bcd565b50505050905090810190601f168015613c155780820380516001836020036101000a031916815260200191505b5087810384528b818151815260200191508051906020019080838360005b83811015613c4e578082015181840152602081019050613c33565b50505050905090810190601f168015613c7b5780820380516001836020036101000a031916815260200191505b5087810383528a818151815260200191508051906020019080838360005b83811015613cb4578082015181840152602081019050613c99565b50505050905090810190601f168015613ce15780820380516001836020036101000a031916815260200191505b50878103825289818151815260200191508051906020019080838360005b83811015613d1a578082015181840152602081019050613cff565b50505050905090810190601f168015613d475780820380516001836020036101000a031916815260200191505b509e50505050505050505050505050505060405180910390a1505050505050565b60055481565b600081118015613d8057506005548111155b613d8957600080fd5b600c600082815260200190815260200160002060009054906101000a900460ff1615613db457600080fd5b613dbc6166c4565b600960008381526020019081526020016000206040518060c00160405290816000820154815260200160018201548152602001600282018054600181600116156101000203166002900480601f016020809104026020016040519081016040528092919081815260200182805460018160011615610100020316600290048015613e875780601f10613e5c57610100808354040283529160200191613e87565b820191906000526020600020905b815481529060010190602001808311613e6a57829003601f168201915b505050505081526020016003820160009054906101000a900473ffffffffffffffffffffffffffffffffffffffff1673ffffffffffffffffffffffffffffffffffffffff1673ffffffffffffffffffffffffffffffffffffffff1681526020016004820154815260200160058201548152505090506000816060015190506000826020015190506060836040015190508273ffffffffffffffffffffffffffffffffffffffff166108fc349081150290604051600060405180830381858888f19350505050158015613f5d573d6000803e3d6000fd5b5034846080015101846080018181525050836009600087815260200190815260200160002060008201518160000155602082015181600101556040820151816002019080519060200190613fb29291906165e9565b5060608201518160030160006101000a81548173ffffffffffffffffffffffffffffffffffffffff021916908373ffffffffffffffffffffffffffffffffffffffff1602179055506080820151816004015560a082015181600501559050507f06d58664ca2a76b994d6f23859136f61aeddcbd4fb6691d8b8ca6990922e2b0d60055483833360004260405180878152602001868152602001806020018573ffffffffffffffffffffffffffffffffffffffff1673ffffffffffffffffffffffffffffffffffffffff168152602001848152602001838152602001828103825286818151815260200191508051906020019080838360005b838110156140c55780820151818401526020810190506140aa565b50505050905090810190601f1680156140f25780820380516001836020036101000a031916815260200191505b5097505050505050505060405180910390a15050505050565b600083511161411957600080fd5b600082511161412757600080fd5b600073ffffffffffffffffffffffffffffffffffffffff163373ffffffffffffffffffffffffffffffffffffffff16141561416157600080fd5b6000809050818061417457506000865111155b1561418a576141848686336162c6565b60025490505b6004600081548092919060010191905055506040518060e0016040528060045481526020018281526020018581526020013373ffffffffffffffffffffffffffffffffffffffff168152602001848152602001868152602001428152506008600060045481526020019081526020016000206000820151816000015560208201518160010155604082015181600201908051906020019061422c9291906165e9565b5060608201518160030160006101000a81548173ffffffffffffffffffffffffffffffffffffffff021916908373ffffffffffffffffffffffffffffffffffffffff16021790555060808201518160040190805190602001906142909291906165e9565b5060a08201518160050190805190602001906142ad9291906165e9565b5060c082015181600601559050507f5440c46adfaa25dcf576091881183b2497f7d2e706ed4e482894eebafcda44af6004546002548633878a4260405180888152602001878152602001806020018673ffffffffffffffffffffffffffffffffffffffff1673ffffffffffffffffffffffffffffffffffffffff1681526020018060200180602001858152602001848103845289818151815260200191508051906020019080838360005b83811015614373578082015181840152602081019050614358565b50505050905090810190601f1680156143a05780820380516001836020036101000a031916815260200191505b50848103835287818151815260200191508051906020019080838360005b838110156143d95780820151818401526020810190506143be565b50505050905090810190601f1680156144065780820380516001836020036101000a031916815260200191505b50848103825286818151815260200191508051906020019080838360005b8381101561443f578082015181840152602081019050614424565b50505050905090810190601f16801561446c5780820380516001836020036101000a031916815260200191505b509a505050505050505050505060405180910390a1505050505050565b600a6020528060005260406000206000915054906101000a900460ff1681565b6000811180156144bb57506005548111155b6144c457600080fd5b600c600082815260200190815260200160002060009054906101000a900460ff16156144ef57600080fd5b6144f76166c4565b600960008381526020019081526020016000206040518060c00160405290816000820154815260200160018201548152602001600282018054600181600116156101000203166002900480601f0160208091040260200160405190810160405280929190818152602001828054600181600116156101000203166002900480156145c25780601f10614597576101008083540402835291602001916145c2565b820191906000526020600020905b8154815290600101906020018083116145a557829003601f168201915b505050505081526020016003820160009054906101000a900473ffffffffffffffffffffffffffffffffffffffff1673ffffffffffffffffffffffffffffffffffffffff1673ffffffffffffffffffffffffffffffffffffffff1681526020016004820154815260200160058201548152505090506000816060015190508073ffffffffffffffffffffffffffffffffffffffff163373ffffffffffffffffffffffffffffffffffffffff161461467857600080fd5b6009600084815260200190815260200160002060008082016000905560018201600090556002820160006146ac919061654e565b6003820160006101000a81549073ffffffffffffffffffffffffffffffffffffffff02191690556004820160009055600582016000905550506001600c600085815260200190815260200160002060006101000a81548160ff0219169083151502179055507f4cb7b38ebf27d7cdc68fa07e7f2108ac9c50a3620fed6f332bf1f5918c70669c838242604051808481526020018373ffffffffffffffffffffffffffffffffffffffff1673ffffffffffffffffffffffffffffffffffffffff168152602001828152602001935050505060405180910390a1505050565b600073ffffffffffffffffffffffffffffffffffffffff163373ffffffffffffffffffffffffffffffffffffffff1614156147c357600080fd5b6147cb616669565b600760003373ffffffffffffffffffffffffffffffffffffffff1673ffffffffffffffffffffffffffffffffffffffff168152602001908152602001600020604051806101000160405290816000820160009054906101000a900473ffffffffffffffffffffffffffffffffffffffff1673ffffffffffffffffffffffffffffffffffffffff1673ffffffffffffffffffffffffffffffffffffffff168152602001600182018054600181600116156101000203166002900480601f0160208091040260200160405190810160405280929190818152602001828054600181600116156101000203166002900480156149055780601f106148da57610100808354040283529160200191614905565b820191906000526020600020905b8154815290600101906020018083116148e857829003601f168201915b50505050508152602001600282018054600181600116156101000203166002900480601f0160208091040260200160405190810160405280929190818152602001828054600181600116156101000203166002900480156149a75780601f1061497c576101008083540402835291602001916149a7565b820191906000526020600020905b81548152906001019060200180831161498a57829003601f168201915b50505050508152602001600382018054600181600116156101000203166002900480601f016020809104026020016040519081016040528092919081815260200182805460018160011615610100020316600290048015614a495780601f10614a1e57610100808354040283529160200191614a49565b820191906000526020600020905b815481529060010190602001808311614a2c57829003601f168201915b50505050508152602001600482018054600181600116156101000203166002900480601f016020809104026020016040519081016040528092919081815260200182805460018160011615610100020316600290048015614aeb5780601f10614ac057610100808354040283529160200191614aeb565b820191906000526020600020905b815481529060010190602001808311614ace57829003601f168201915b50505050508152602001600582018054600181600116156101000203166002900480601f016020809104026020016040519081016040528092919081815260200182805460018160011615610100020316600290048015614b8d5780601f10614b6257610100808354040283529160200191614b8d565b820191906000526020600020905b815481529060010190602001808311614b7057829003601f168201915b50505050508152602001600682018054600181600116156101000203166002900480601f016020809104026020016040519081016040528092919081815260200182805460018160011615610100020316600290048015614c2f5780601f10614c0457610100808354040283529160200191614c2f565b820191906000526020600020905b815481529060010190602001808311614c1257829003601f168201915b50505050508152602001600782015481525050905081816060018190525080600760003373ffffffffffffffffffffffffffffffffffffffff1673ffffffffffffffffffffffffffffffffffffffff16815260200190815260200160002060008201518160000160006101000a81548173ffffffffffffffffffffffffffffffffffffffff021916908373ffffffffffffffffffffffffffffffffffffffff1602179055506020820151816001019080519060200190614cf09291906165e9565b506040820151816002019080519060200190614d0d9291906165e9565b506060820151816003019080519060200190614d2a9291906165e9565b506080820151816004019080519060200190614d479291906165e9565b5060a0820151816005019080519060200190614d649291906165e9565b5060c0820151816006019080519060200190614d819291906165e9565b5060e082015181600701559050507f20a3c0ccd71749b736891b28a035d7f5e1d6b4161c56414f468d0f1c0f42c42c338342604051808473ffffffffffffffffffffffffffffffffffffffff1673ffffffffffffffffffffffffffffffffffffffff1681526020018060200180602001848152602001838103835260088152602001807f6c6f636174696f6e000000000000000000000000000000000000000000000000815250602001838103825285818151815260200191508051906020019080838360005b83811015614e63578082015181840152602081019050614e48565b50505050905090810190601f168015614e905780820380516001836020036101000a031916815260200191505b509550505050505060405180910390a15050565b6006602052806000526040600020600091509050806000015490806001018054600181600116156101000203166002900480601f016020809104026020016040519081016040528092919081815260200182805460018160011615610100020316600290048015614f565780601f10614f2b57610100808354040283529160200191614f56565b820191906000526020600020905b815481529060010190602001808311614f3957829003601f168201915b505050505090806002018054600181600116156101000203166002900480601f016020809104026020016040519081016040528092919081815260200182805460018160011615610100020316600290048015614ff45780601f10614fc957610100808354040283529160200191614ff4565b820191906000526020600020905b815481529060010190602001808311614fd757829003601f168201915b5050505050908060030154908060040160009054906101000a900473ffffffffffffffffffffffffffffffffffffffff16908060050154905086565b60008111801561504257506002548111155b61504b57600080fd5b600a600082815260200190815260200160002060009054906101000a900460ff161561507657600080fd5b61507e616710565b600660008381526020019081526020016000206040518060c001604052908160008201548152602001600182018054600181600116156101000203166002900480601f01602080910402602001604051908101604052809291908181526020018280546001816001161561010002031660029004801561513f5780601f106151145761010080835404028352916020019161513f565b820191906000526020600020905b81548152906001019060200180831161512257829003601f168201915b50505050508152602001600282018054600181600116156101000203166002900480601f0160208091040260200160405190810160405280929190818152602001828054600181600116156101000203166002900480156151e15780601f106151b6576101008083540402835291602001916151e1565b820191906000526020600020905b8154815290600101906020018083116151c457829003601f168201915b50505050508152602001600382015481526020016004820160009054906101000a900473ffffffffffffffffffffffffffffffffffffffff1673ffffffffffffffffffffffffffffffffffffffff1673ffffffffffffffffffffffffffffffffffffffff16815260200160058201548152505090506000816080015190508073ffffffffffffffffffffffffffffffffffffffff166108fc349081150290604051600060405180830381858888f193505050501580156152a5573d6000803e3d6000fd5b503482606001510182606001818152505081600660008581526020019081526020016000206000820151816000015560208201518160010190805190602001906152f09291906165e9565b50604082015181600201908051906020019061530d9291906165e9565b506060820151816003015560808201518160040160006101000a81548173ffffffffffffffffffffffffffffffffffffffff021916908373ffffffffffffffffffffffffffffffffffffffff16021790555060a082015181600501559050507f9e17c6a51235c831649d4e4dae877ebaa0c04ab03f7bc43f6964a59e4f1e8e328383602001518460400151856060015185426040518087815260200180602001806020018681526020018573ffffffffffffffffffffffffffffffffffffffff1673ffffffffffffffffffffffffffffffffffffffff168152602001848152602001838103835288818151815260200191508051906020019080838360005b8381101561542757808201518184015260208101905061540c565b50505050905090810190601f1680156154545780820380516001836020036101000a031916815260200191505b50838103825287818151815260200191508051906020019080838360005b8381101561548d578082015181840152602081019050615472565b50505050905090810190601f1680156154ba5780820380516001836020036101000a031916815260200191505b509850505050505050505060405180910390a1505050565b60018054600181600116156101000203166002900480601f0160208091040260200160405190810160405280929190818152602001828054600181600116156101000203166002900480156155685780601f1061553d57610100808354040283529160200191615568565b820191906000526020600020905b81548152906001019060200180831161554b57829003601f168201915b505050505081565b6009602052806000526040600020600091509050806000015490806001015490806002018054600181600116156101000203166002900480601f0160208091040260200160405190810160405280929190818152602001828054600181600116156101000203166002900480156156285780601f106155fd57610100808354040283529160200191615628565b820191906000526020600020905b81548152906001019060200180831161560b57829003601f168201915b5050505050908060030160009054906101000a900473ffffffffffffffffffffffffffffffffffffffff16908060040154908060050154905086565b60025481565b60076020528060005260406000206000915090508060000160009054906101000a900473ffffffffffffffffffffffffffffffffffffffff1690806001018054600181600116156101000203166002900480601f01602080910402602001604051908101604052809291908181526020018280546001816001161561010002031660029004801561573c5780601f106157115761010080835404028352916020019161573c565b820191906000526020600020905b81548152906001019060200180831161571f57829003601f168201915b505050505090806002018054600181600116156101000203166002900480601f0160208091040260200160405190810160405280929190818152602001828054600181600116156101000203166002900480156157da5780601f106157af576101008083540402835291602001916157da565b820191906000526020600020905b8154815290600101906020018083116157bd57829003601f168201915b505050505090806003018054600181600116156101000203166002900480601f0160208091040260200160405190810160405280929190818152602001828054600181600116156101000203166002900480156158785780601f1061584d57610100808354040283529160200191615878565b820191906000526020600020905b81548152906001019060200180831161585b57829003601f168201915b505050505090806004018054600181600116156101000203166002900480601f0160208091040260200160405190810160405280929190818152602001828054600181600116156101000203166002900480156159165780601f106158eb57610100808354040283529160200191615916565b820191906000526020600020905b8154815290600101906020018083116158f957829003601f168201915b505050505090806005018054600181600116156101000203166002900480601f0160208091040260200160405190810160405280929190818152602001828054600181600116156101000203166002900480156159b45780601f10615989576101008083540402835291602001916159b4565b820191906000526020600020905b81548152906001019060200180831161599757829003601f168201915b505050505090806006018054600181600116156101000203166002900480601f016020809104026020016040519081016040528092919081815260200182805460018160011615610100020316600290048015615a525780601f10615a2757610100808354040283529160200191615a52565b820191906000526020600020905b815481529060010190602001808311615a3557829003601f168201915b5050505050908060070154905088565b600c6020528060005260406000206000915054906101000a900460ff1681565b600073ffffffffffffffffffffffffffffffffffffffff163373ffffffffffffffffffffffffffffffffffffffff161415615abc57600080fd5b615ac4616669565b600760003373ffffffffffffffffffffffffffffffffffffffff1673ffffffffffffffffffffffffffffffffffffffff168152602001908152602001600020604051806101000160405290816000820160009054906101000a900473ffffffffffffffffffffffffffffffffffffffff1673ffffffffffffffffffffffffffffffffffffffff1673ffffffffffffffffffffffffffffffffffffffff168152602001600182018054600181600116156101000203166002900480601f016020809104026020016040519081016040528092919081815260200182805460018160011615610100020316600290048015615bfe5780601f10615bd357610100808354040283529160200191615bfe565b820191906000526020600020905b815481529060010190602001808311615be157829003601f168201915b50505050508152602001600282018054600181600116156101000203166002900480601f016020809104026020016040519081016040528092919081815260200182805460018160011615610100020316600290048015615ca05780601f10615c7557610100808354040283529160200191615ca0565b820191906000526020600020905b815481529060010190602001808311615c8357829003601f168201915b50505050508152602001600382018054600181600116156101000203166002900480601f016020809104026020016040519081016040528092919081815260200182805460018160011615610100020316600290048015615d425780601f10615d1757610100808354040283529160200191615d42565b820191906000526020600020905b815481529060010190602001808311615d2557829003601f168201915b50505050508152602001600482018054600181600116156101000203166002900480601f016020809104026020016040519081016040528092919081815260200182805460018160011615610100020316600290048015615de45780601f10615db957610100808354040283529160200191615de4565b820191906000526020600020905b815481529060010190602001808311615dc757829003601f168201915b50505050508152602001600582018054600181600116156101000203166002900480601f016020809104026020016040519081016040528092919081815260200182805460018160011615610100020316600290048015615e865780601f10615e5b57610100808354040283529160200191615e86565b820191906000526020600020905b815481529060010190602001808311615e6957829003601f168201915b50505050508152602001600682018054600181600116156101000203166002900480601f016020809104026020016040519081016040528092919081815260200182805460018160011615610100020316600290048015615f285780601f10615efd57610100808354040283529160200191615f28565b820191906000526020600020905b815481529060010190602001808311615f0b57829003601f168201915b50505050508152602001600782015481525050905081816080018190525080600760003373ffffffffffffffffffffffffffffffffffffffff1673ffffffffffffffffffffffffffffffffffffffff16815260200190815260200160002060008201518160000160006101000a81548173ffffffffffffffffffffffffffffffffffffffff021916908373ffffffffffffffffffffffffffffffffffffffff1602179055506020820151816001019080519060200190615fe99291906165e9565b5060408201518160020190805190602001906160069291906165e9565b5060608201518160030190805190602001906160239291906165e9565b5060808201518160040190805190602001906160409291906165e9565b5060a082015181600501908051906020019061605d9291906165e9565b5060c082015181600601908051906020019061607a9291906165e9565b5060e082015181600701559050507f20a3c0ccd71749b736891b28a035d7f5e1d6b4161c56414f468d0f1c0f42c42c338342604051808473ffffffffffffffffffffffffffffffffffffffff1673ffffffffffffffffffffffffffffffffffffffff1681526020018060200180602001848152602001838103835260058152602001807f70686f6e65000000000000000000000000000000000000000000000000000000815250602001838103825285818151815260200191508051906020019080838360005b8381101561615c578082015181840152602081019050616141565b50505050905090810190601f1680156161895780820380516001836020036101000a031916815260200191505b509550505050505060405180910390a15050565b6000811180156161af57506002548111155b6161b857600080fd5b600a600082815260200190815260200160002060009054906101000a900460ff16156161e357600080fd5b6006600082815260200190815260200160002060008082016000905560018201600061620f919061654e565b60028201600061621f919061654e565b60038201600090556004820160006101000a81549073ffffffffffffffffffffffffffffffffffffffff0219169055600582016000905550506001600a600083815260200190815260200160002060006101000a81548160ff0219169083151502179055507f35f66b16a18db1ddab991a227764d9915139c2e0e6c7d235a690bfb01901d84b8142604051808381526020018281526020019250505060405180910390a150565b60008351116162d457600080fd5b60008251116162e257600080fd5b6002600081548092919060010191905055506040518060c001604052806002548152602001848152602001838152602001600081526020018273ffffffffffffffffffffffffffffffffffffffff168152602001428152506006600060025481526020019081526020016000206000820151816000015560208201518160010190805190602001906163759291906165e9565b5060408201518160020190805190602001906163929291906165e9565b506060820151816003015560808201518160040160006101000a81548173ffffffffffffffffffffffffffffffffffffffff021916908373ffffffffffffffffffffffffffffffffffffffff16021790555060a082015181600501559050507faf0f8ed6ea5dadf339b2e34e90cb6f2241025b73ee623db1f0a447d2cc37f8ee6002548484600085426040518087815260200180602001806020018681526020018573ffffffffffffffffffffffffffffffffffffffff1673ffffffffffffffffffffffffffffffffffffffff168152602001848152602001838103835288818151815260200191508051906020019080838360005b838110156164a3578082015181840152602081019050616488565b50505050905090810190601f1680156164d05780820380516001836020036101000a031916815260200191505b50838103825287818151815260200191508051906020019080838360005b838110156165095780820151818401526020810190506164ee565b50505050905090810190601f1680156165365780820380516001836020036101000a031916815260200191505b509850505050505050505060405180910390a1505050565b50805460018160011615610100020316600290046000825580601f106165745750616593565b601f016020900490600052602060002090810190616592919061675c565b5b50565b6040518060e00160405280600081526020016000815260200160608152602001600073ffffffffffffffffffffffffffffffffffffffff1681526020016060815260200160608152602001600081525090565b828054600181600116156101000203166002900490600052602060002090601f016020900481019282601f1061662a57805160ff1916838001178555616658565b82800160010185558215616658579182015b8281111561665757825182559160200191906001019061663c565b5b509050616665919061675c565b5090565b604051806101000160405280600073ffffffffffffffffffffffffffffffffffffffff168152602001606081526020016060815260200160608152602001606081526020016060815260200160608152602001600081525090565b6040518060c00160405280600081526020016000815260200160608152602001600073ffffffffffffffffffffffffffffffffffffffff16815260200160008152602001600081525090565b6040518060c0016040528060008152602001606081526020016060815260200160008152602001600073ffffffffffffffffffffffffffffffffffffffff168152602001600081525090565b61677e91905b8082111561677a576000816000905550600101616762565b5090565b9056fea265627a7a72315820d299d80f3d3c40c544c504066f048620e2772b64da850b46c8463c7bfb9f761164736f6c6343000510003243727970746f4772616d202d20646563656e7472616c697a656420696d6167652073686172696e6720736f6369616c206d6564696120706c6174666f726d76657273696f6e2032206f6620746865206f726967696e616c2044534d202d20646563656e7472616c697a656420736f6369616c206d656469612c206d616e79206e65772066656174757265732c20616e64206163636f756e747320617265207469656420746f20746865207573657227732077616c6c65742061646472657373",
  "source": "// SPDX-License-Identifier: LICENSE\npragma solidity >=0.5.0;\n\n//pragma experimental ABIEncoderV2;\n\n//use ganache-cli --allowUnlimitedContractSize  --gasLimit 0xFFFFFFFFFFFF\n\ncontract CryptoGramOld {\n    string public name =\n        \"CryptoGram - decentralized image sharing social media platform\";\n    string public contractDescription =\n        \"version 2 of the original DSM - decentralized social media, many new features, and accounts are tied to the user's wallet address\";\n\n    uint256 public imageCount = 0;\n    uint256 public userCount = 0;\n    uint256 public postCount = 0;\n    uint256 public commentCount = 0;\n    mapping(uint256 => Image) public images;\n    mapping(address => User) public users;\n    mapping(uint256 => Post) public posts;\n    mapping(uint256 => Comment) public comments;\n\n    //keep track of deleted objects\n    mapping(uint256 => bool) public deletedImages;\n    mapping(uint256 => bool) public deletedPosts;\n    mapping(uint256 => bool) public deletedComments;\n\n    struct Post {\n        uint256 id;\n        uint256 imageID;\n        string title;\n        address author;\n        string link;\n        string status;\n        uint256 timeStamp;\n    }\n\n    struct Comment {\n        uint256 id;\n        uint256 postID;\n        string comment;\n        address payable author;\n        uint256 tipAmount;\n        uint256 timeStamp;\n    }\n\n    struct Image {\n        uint256 id;\n        string hash;\n        string description;\n        uint256 tipAmount;\n        address payable author;\n        uint256 timeStamp;\n    }\n\n    struct User {\n        address userAccount; //wallet address\n        string userName;\n        string status;\n        string location;\n        string phone;\n        string email;\n        string occupation;\n        uint256 timeStamp;\n    }\n    /******************EVENTS*************************/\n    event UserAdded(\n        address userAccount, //wallet address\n        string userName,\n        string status,\n        string location,\n        string phone,\n        string email,\n        string occupation,\n        uint256 timeStamp\n    );\n    event UserDeleted(address userAccount, uint256 timeStamp);\n\n    event UserUpdated(\n        address userAccount,\n        string valueChanged,\n        string newValue,\n        uint256 timeStamp\n    );\n\n    event ImageAdded(\n        uint256 id,\n        string hash,\n        string description,\n        uint256 tipAmount,\n        address payable author,\n        uint256 timeStamp\n    );\n\n    event ImageDeleted(uint256 id, uint256 timeStamp);\n\n    event ImageTipped(\n        uint256 id,\n        string hash,\n        string description,\n        uint256 tipAmount,\n        address payable author,\n        uint256 timeStamp\n    );\n\n    event PostAdded(\n        uint256 id,\n        uint256 imageID,\n        string title,\n        address author,\n        string link,\n        string status,\n        uint256 timeStamp\n    );\n\n    event PostDeleted(uint256 id, address author, uint256 timeStamp);\n\n    event CommentAdded(\n        uint256 id,\n        uint256 postID,\n        string comment,\n        address author,\n        uint256 timeStamp\n    );\n    event CommentTipped(\n        uint256 id,\n        uint256 postID,\n        string comment,\n        address author,\n        uint256 tipAmount,\n        uint256 timeStamp\n    );\n    event CommentDeleted(\n        uint256 id,\n        address author,\n        uint256 timeStamp\n    );\n\n    /******************FUNCTIONS*************************/\n\n    //Fallback: reverts if Ether is sent to this contract unintentionally\n    function() external {\n        revert();\n    }\n\n    function tipImageOwner(uint256 _id) public payable {\n        //require valid ID\n        require(_id > 0 && _id <= imageCount);\n        require(!deletedImages[_id]);\n\n        //get image\n        Image memory _image = images[_id];\n\n        //get image author\n        address payable _author = _image.author;\n\n        //send to author\n        address(_author).transfer(msg.value);\n\n        //update tip amount and put back into mapping\n        _image.tipAmount = _image.tipAmount + msg.value;\n        images[_id] = _image;\n\n        //emit event\n        emit ImageTipped(\n            _id,\n            _image.hash,\n            _image.description,\n            _image.tipAmount,\n            _author,\n            now\n        );\n    }\n\n    //internal function\n    function _uploadImage(string memory _hash, string memory _desc, address payable _author) internal {\n        //require a hash to be included\n        require(bytes(_hash).length > 0);\n\n        //require a description to be included\n        require(bytes(_desc).length > 0);\n\n        \n        //increment image ID\n        imageCount++;\n\n        //add image hash to mapping\n        images[imageCount] = Image(\n            imageCount,\n            _hash,\n            _desc,\n            0,\n            _author,\n            now\n        );\n\n        //emit event\n        emit ImageAdded(imageCount, _hash, _desc, 0, _author, now);\n    }\n\n    //internal function\n    function _deleteImage(uint256 _id) internal {\n        //require valid ID and image has not already been deleted\n        require(_id > 0 && _id <= imageCount);\n        require(!deletedImages[_id]);\n\n        //delete image from mapping and emit event\n        delete (images[_id]);\n        deletedImages[_id] = true;\n        emit ImageDeleted(_id, now);\n    }\n\n    function addUser(\n        string memory _userName,\n        string memory _status,\n        string memory _location,\n        string memory _phone,\n        string memory _email,\n        string memory _occupation\n    ) public {\n        //require user address to exist\n        require(msg.sender != address(0x0));\n\n        //require all fields to be populated\n        require(bytes(_userName).length > 0);\n        require(bytes(_status).length > 0);\n        require(bytes(_location).length > 0);\n        require(bytes(_email).length > 0);\n        require(bytes(_occupation).length > 0);\n\n        //increment count of users\n        userCount++;\n\n        //add user to mapping\n        users[msg.sender] = User(\n            msg.sender,\n            _userName,\n            _status,\n            _location,\n            _phone,\n            _email,\n            _occupation,\n            now\n        );\n\n        //emit event\n        emit UserAdded(\n            msg.sender,\n            _userName,\n            _status,\n            _location,\n            _phone,\n            _email,\n            _occupation,\n            now\n        );\n    }\n\n    function deleteUser() public {\n        //require user address to exist\n        require(msg.sender != address(0x0));\n\n        //decrement user count - keep a total of active users on the contract\n        userCount--;\n\n        //delete from mapping\n        delete (users[msg.sender]);\n\n        //emit event\n        emit UserDeleted(msg.sender, now);\n    }\n\n    function makePost(\n        string memory _hash,\n        string memory _desc,\n        string memory _title,\n        string memory _link,\n        bool includesImage\n    ) public {\n        require(bytes(_title).length > 0);\n        require(bytes(_link).length > 0);        \n        require(msg.sender != address(0x0));\n\n        //default imageID if there is no inluded\n        uint256 _imageID = 0;\n\n        if(includesImage || !(bytes(_hash).length > 0)){\n            //add image hash to mapping\n            _uploadImage(_hash, _desc, msg.sender);\n            _imageID = imageCount;\n        }\n\n        postCount++;\n\n        posts[postCount] = Post(\n            postCount,\n            _imageID,\n            _title,\n            msg.sender,\n            _link,\n            _desc,\n            now\n        );\n\n        emit PostAdded(postCount, imageCount, _title, msg.sender, _link, _desc, now);\n    }\n\n    function deletePost(uint256 _postID) public {\n        //require user address to exist\n        require(msg.sender != address(0x0));\n\n        //require valid post ID\n        require(_postID > 0 && _postID <= postCount);\n        require(!deletedPosts[_postID]);\n\n        Post memory _post = posts[_postID];\n        address _author = _post.author;\n         //check if image author matches message sender - only delete your own comments\n        require(msg.sender == _author);\n\n        //get imageID to delete\n        uint256 _imageID = _post.imageID;\n        if(_imageID != 0){\n            _deleteImage(_imageID);\n        }       \n\n        delete (posts[_postID]);\n        deletedPosts[_postID] = true;\n\n        //emit event\n        emit PostDeleted(_postID, _author, now);\n    }\n\n    function comment(uint256 _postID, string memory _comment) public {\n        require(bytes(_comment).length > 0);\n        require(_postID > 0 && _postID <= postCount);\n        require(!deletedPosts[_postID]);\n        \n\n        commentCount++;\n        comments[commentCount] = Comment(\n            commentCount,\n            _postID,\n            _comment,\n            msg.sender,\n            0,\n            now\n        );\n\n        //emit event\n        emit CommentAdded(commentCount, _postID, _comment, msg.sender, now);\n    }\n\n    function tipComment(uint256 _commentID) public payable {\n         //require valid ID\n        require(_commentID > 0 && _commentID <= commentCount);\n        require(!deletedComments[_commentID]);\n        \n        //get comment\n        Comment memory _comment = comments[_commentID];\n\n        //get comment data\n        address payable _author = _comment.author;\n        uint256 _postID = _comment.postID;\n        string memory _commentString = _comment.comment;\n\n        //send to author\n        address(_author).transfer(msg.value);\n\n        //update tip amount and put back into mapping\n        _comment.tipAmount = _comment.tipAmount + msg.value;\n        comments[_commentID] = _comment;\n\n        //emit event\n        emit CommentTipped(commentCount, _postID, _commentString, msg.sender, 0, now);\n    }\n\n    function deleteComment(uint256 _commentID) public {\n        //require valid ID\n        require(_commentID > 0 && _commentID <= commentCount);\n        require(!deletedComments[_commentID]);\n\n        Comment memory _comment = comments[_commentID];\n\n        address _author = _comment.author;\n\n        //check if image author matches message sender - only delete your own comments\n        require(msg.sender == _author);\n\n        delete (comments[_commentID]);\n        deletedComments[_commentID] = true;\n\n        //emit event\n        emit CommentDeleted(_commentID, _author, now);\n    }\n\n\n\n\n\n\n\n\n\n\n\n\n    /***************Setter Functions********************/\n    function setUserName(string memory _userName) public {\n        //require user address to exist\n        require(msg.sender != address(0x0));\n\n        //get user\n        User memory _user = users[msg.sender];\n\n        //update value and put back into mapping\n        _user.userName = _userName;\n        users[msg.sender] = _user;\n\n        //emit event\n        emit UserUpdated(msg.sender, \"userName\", _userName, now);\n    }\n\n    function setLocation(string memory _location) public {\n        //require user address to exist\n        require(msg.sender != address(0x0));\n\n        //get user\n        User memory _user = users[msg.sender];\n\n        //update value and put back into mapping\n        _user.location = _location;\n        users[msg.sender] = _user;\n\n        //emit event\n        emit UserUpdated(msg.sender, \"location\", _location, now);\n    }\n\n    function setPhone(string memory _phone) public {\n        //require user address to exist\n        require(msg.sender != address(0x0));\n\n        //get user\n        User memory _user = users[msg.sender];\n\n        //update value and put back into mapping\n        _user.phone = _phone;\n        users[msg.sender] = _user;\n\n        //emit event\n        emit UserUpdated(msg.sender, \"phone\", _phone, now);\n    }\n\n    function setEmail(string memory _email) public {\n        //require user address to exist\n        require(msg.sender != address(0x0));\n\n        //get user\n        User memory _user = users[msg.sender];\n\n        //update value and put back into mapping\n        _user.email = _email;\n        users[msg.sender] = _user;\n\n        //emit event\n        emit UserUpdated(msg.sender, \"email\", _email, now);\n    }\n\n    function setOccupation(string memory _occupation) public {\n        //require user address to exist\n        require(msg.sender != address(0x0));\n\n        //get user\n        User memory _user = users[msg.sender];\n\n        //update value and put back into mapping\n        _user.occupation = _occupation;\n        users[msg.sender] = _user;\n\n        //emit event\n        emit UserUpdated(msg.sender, \"occupation\", _occupation, now);\n    }\n}\n",
  "sourcePath": "/mnt/c/pr0/cryptogram/src/contracts/Cryptogram-old.sol",
  "compiler": {
    "name": "solc",
    "version": "0.5.16+commit.9c3226ce.Emscripten.clang"
  },
  "schemaVersion": "3.3.3",
  "updatedAt": "2021-05-07T19:27:48.278Z",
  "devdoc": {
    "methods": {}
  },
  "userdoc": {
    "methods": {
      "setUserName(string)": {
        "notice": "*************Setter Functions*******************"
      }
    }
  }
}