{
  "contractName": "CryptoGram",
  "abi": [
    {
      "anonymous": false,
      "inputs": [
        {
          "indexed": false,
          "internalType": "uint256",
          "name": "id",
          "type": "uint256"
        },
        {
          "indexed": false,
          "internalType": "uint256",
          "name": "postID",
          "type": "uint256"
        },
        {
          "indexed": false,
          "internalType": "string",
          "name": "comment",
          "type": "string"
        },
        {
          "indexed": false,
          "internalType": "address",
          "name": "author",
          "type": "address"
        },
        {
          "indexed": false,
          "internalType": "uint256",
          "name": "timeStamp",
          "type": "uint256"
        }
      ],
      "name": "CommentAdded",
      "type": "event"
    },
    {
      "anonymous": false,
      "inputs": [
        {
          "indexed": false,
          "internalType": "uint256",
          "name": "id",
          "type": "uint256"
        },
        {
          "indexed": false,
          "internalType": "address",
          "name": "author",
          "type": "address"
        },
        {
          "indexed": false,
          "internalType": "uint256",
          "name": "timeStamp",
          "type": "uint256"
        }
      ],
      "name": "CommentDeleted",
      "type": "event"
    },
    {
      "anonymous": false,
      "inputs": [
        {
          "indexed": false,
          "internalType": "uint256",
          "name": "id",
          "type": "uint256"
        },
        {
          "indexed": false,
          "internalType": "uint256",
          "name": "postID",
          "type": "uint256"
        },
        {
          "indexed": false,
          "internalType": "string",
          "name": "comment",
          "type": "string"
        },
        {
          "indexed": false,
          "internalType": "address",
          "name": "author",
          "type": "address"
        },
        {
          "indexed": false,
          "internalType": "uint256",
          "name": "tipAmount",
          "type": "uint256"
        },
        {
          "indexed": false,
          "internalType": "uint256",
          "name": "timeStamp",
          "type": "uint256"
        }
      ],
      "name": "CommentTipped",
      "type": "event"
    },
    {
      "anonymous": false,
      "inputs": [
        {
          "indexed": false,
          "internalType": "uint256",
          "name": "id",
          "type": "uint256"
        },
        {
          "indexed": false,
          "internalType": "string",
          "name": "imageHash",
          "type": "string"
        },
        {
          "indexed": false,
          "internalType": "string",
          "name": "title",
          "type": "string"
        },
        {
          "indexed": false,
          "internalType": "address",
          "name": "author",
          "type": "address"
        },
        {
          "indexed": false,
          "internalType": "string",
          "name": "link",
          "type": "string"
        },
        {
          "indexed": false,
          "internalType": "string",
          "name": "status",
          "type": "string"
        },
        {
          "indexed": false,
          "internalType": "uint256",
          "name": "timeStamp",
          "type": "uint256"
        }
      ],
      "name": "PostAdded",
      "type": "event"
    },
    {
      "anonymous": false,
      "inputs": [
        {
          "indexed": false,
          "internalType": "uint256",
          "name": "id",
          "type": "uint256"
        },
        {
          "indexed": false,
          "internalType": "string",
          "name": "title",
          "type": "string"
        },
        {
          "indexed": false,
          "internalType": "address",
          "name": "author",
          "type": "address"
        },
        {
          "indexed": false,
          "internalType": "uint256",
          "name": "timeStamp",
          "type": "uint256"
        }
      ],
      "name": "PostDeleted",
      "type": "event"
    },
    {
      "anonymous": false,
      "inputs": [
        {
          "indexed": false,
          "internalType": "uint256",
          "name": "id",
          "type": "uint256"
        },
        {
          "indexed": false,
          "internalType": "string",
          "name": "title",
          "type": "string"
        },
        {
          "indexed": false,
          "internalType": "address",
          "name": "author",
          "type": "address"
        },
        {
          "indexed": false,
          "internalType": "uint256",
          "name": "tipAmount",
          "type": "uint256"
        },
        {
          "indexed": false,
          "internalType": "uint256",
          "name": "timeStamp",
          "type": "uint256"
        }
      ],
      "name": "PostTipped",
      "type": "event"
    },
    {
      "anonymous": false,
      "inputs": [
        {
          "indexed": false,
          "internalType": "address",
          "name": "userAccount",
          "type": "address"
        },
        {
          "indexed": false,
          "internalType": "string",
          "name": "userName",
          "type": "string"
        },
        {
          "indexed": false,
          "internalType": "string",
          "name": "status",
          "type": "string"
        },
        {
          "indexed": false,
          "internalType": "string",
          "name": "location",
          "type": "string"
        },
        {
          "indexed": false,
          "internalType": "string",
          "name": "phone",
          "type": "string"
        },
        {
          "indexed": false,
          "internalType": "string",
          "name": "email",
          "type": "string"
        },
        {
          "indexed": false,
          "internalType": "string",
          "name": "occupation",
          "type": "string"
        },
        {
          "indexed": false,
          "internalType": "uint256",
          "name": "timeStamp",
          "type": "uint256"
        }
      ],
      "name": "UserAdded",
      "type": "event"
    },
    {
      "anonymous": false,
      "inputs": [
        {
          "indexed": false,
          "internalType": "address",
          "name": "userAccount",
          "type": "address"
        },
        {
          "indexed": false,
          "internalType": "uint256",
          "name": "timeStamp",
          "type": "uint256"
        }
      ],
      "name": "UserDeleted",
      "type": "event"
    },
    {
      "anonymous": false,
      "inputs": [
        {
          "indexed": false,
          "internalType": "address",
          "name": "userAccount",
          "type": "address"
        },
        {
          "indexed": false,
          "internalType": "string",
          "name": "valueChanged",
          "type": "string"
        },
        {
          "indexed": false,
          "internalType": "string",
          "name": "newValue",
          "type": "string"
        },
        {
          "indexed": false,
          "internalType": "uint256",
          "name": "timeStamp",
          "type": "uint256"
        }
      ],
      "name": "UserUpdated",
      "type": "event"
    },
    {
      "payable": false,
      "stateMutability": "nonpayable",
      "type": "fallback"
    },
    {
      "constant": true,
      "inputs": [],
      "name": "commentCount",
      "outputs": [
        {
          "internalType": "uint256",
          "name": "",
          "type": "uint256"
        }
      ],
      "payable": false,
      "stateMutability": "view",
      "type": "function"
    },
    {
      "constant": true,
      "inputs": [
        {
          "internalType": "uint256",
          "name": "",
          "type": "uint256"
        }
      ],
      "name": "comments",
      "outputs": [
        {
          "internalType": "uint256",
          "name": "id",
          "type": "uint256"
        },
        {
          "internalType": "uint256",
          "name": "postID",
          "type": "uint256"
        },
        {
          "internalType": "string",
          "name": "comment",
          "type": "string"
        },
        {
          "internalType": "address payable",
          "name": "author",
          "type": "address"
        },
        {
          "internalType": "uint256",
          "name": "tipAmount",
          "type": "uint256"
        },
        {
          "internalType": "uint256",
          "name": "timeStamp",
          "type": "uint256"
        }
      ],
      "payable": false,
      "stateMutability": "view",
      "type": "function"
    },
    {
      "constant": true,
      "inputs": [],
      "name": "contractDescription",
      "outputs": [
        {
          "internalType": "string",
          "name": "",
          "type": "string"
        }
      ],
      "payable": false,
      "stateMutability": "view",
      "type": "function"
    },
    {
      "constant": true,
      "inputs": [
        {
          "internalType": "uint256",
          "name": "",
          "type": "uint256"
        }
      ],
      "name": "deletedComments",
      "outputs": [
        {
          "internalType": "bool",
          "name": "",
          "type": "bool"
        }
      ],
      "payable": false,
      "stateMutability": "view",
      "type": "function"
    },
    {
      "constant": true,
      "inputs": [
        {
          "internalType": "uint256",
          "name": "",
          "type": "uint256"
        }
      ],
      "name": "deletedPosts",
      "outputs": [
        {
          "internalType": "bool",
          "name": "",
          "type": "bool"
        }
      ],
      "payable": false,
      "stateMutability": "view",
      "type": "function"
    },
    {
      "constant": true,
      "inputs": [],
      "name": "name",
      "outputs": [
        {
          "internalType": "string",
          "name": "",
          "type": "string"
        }
      ],
      "payable": false,
      "stateMutability": "view",
      "type": "function"
    },
    {
      "constant": true,
      "inputs": [],
      "name": "postCount",
      "outputs": [
        {
          "internalType": "uint256",
          "name": "",
          "type": "uint256"
        }
      ],
      "payable": false,
      "stateMutability": "view",
      "type": "function"
    },
    {
      "constant": true,
      "inputs": [
        {
          "internalType": "uint256",
          "name": "",
          "type": "uint256"
        }
      ],
      "name": "posts",
      "outputs": [
        {
          "internalType": "uint256",
          "name": "id",
          "type": "uint256"
        },
        {
          "internalType": "string",
          "name": "imageHash",
          "type": "string"
        },
        {
          "internalType": "string",
          "name": "title",
          "type": "string"
        },
        {
          "internalType": "address payable",
          "name": "author",
          "type": "address"
        },
        {
          "internalType": "uint256",
          "name": "tipAmount",
          "type": "uint256"
        },
        {
          "internalType": "string",
          "name": "link",
          "type": "string"
        },
        {
          "internalType": "string",
          "name": "status",
          "type": "string"
        },
        {
          "internalType": "uint256",
          "name": "timeStamp",
          "type": "uint256"
        }
      ],
      "payable": false,
      "stateMutability": "view",
      "type": "function"
    },
    {
      "constant": true,
      "inputs": [],
      "name": "userCount",
      "outputs": [
        {
          "internalType": "uint256",
          "name": "",
          "type": "uint256"
        }
      ],
      "payable": false,
      "stateMutability": "view",
      "type": "function"
    },
    {
      "constant": true,
      "inputs": [
        {
          "internalType": "address",
          "name": "",
          "type": "address"
        }
      ],
      "name": "users",
      "outputs": [
        {
          "internalType": "address",
          "name": "userAccount",
          "type": "address"
        },
        {
          "internalType": "string",
          "name": "userName",
          "type": "string"
        },
        {
          "internalType": "string",
          "name": "status",
          "type": "string"
        },
        {
          "internalType": "string",
          "name": "location",
          "type": "string"
        },
        {
          "internalType": "string",
          "name": "phone",
          "type": "string"
        },
        {
          "internalType": "string",
          "name": "email",
          "type": "string"
        },
        {
          "internalType": "string",
          "name": "occupation",
          "type": "string"
        },
        {
          "internalType": "uint256",
          "name": "timeStamp",
          "type": "uint256"
        }
      ],
      "payable": false,
      "stateMutability": "view",
      "type": "function"
    },
    {
      "constant": false,
      "inputs": [
        {
          "internalType": "uint256",
          "name": "_id",
          "type": "uint256"
        }
      ],
      "name": "tipPost",
      "outputs": [],
      "payable": true,
      "stateMutability": "payable",
      "type": "function"
    },
    {
      "constant": false,
      "inputs": [
        {
          "internalType": "string",
          "name": "_userName",
          "type": "string"
        },
        {
          "internalType": "string",
          "name": "_status",
          "type": "string"
        },
        {
          "internalType": "string",
          "name": "_location",
          "type": "string"
        },
        {
          "internalType": "string",
          "name": "_phone",
          "type": "string"
        },
        {
          "internalType": "string",
          "name": "_email",
          "type": "string"
        },
        {
          "internalType": "string",
          "name": "_occupation",
          "type": "string"
        }
      ],
      "name": "addUser",
      "outputs": [],
      "payable": false,
      "stateMutability": "nonpayable",
      "type": "function"
    },
    {
      "constant": false,
      "inputs": [],
      "name": "deleteUser",
      "outputs": [],
      "payable": false,
      "stateMutability": "nonpayable",
      "type": "function"
    },
    {
      "constant": false,
      "inputs": [
        {
          "internalType": "string",
          "name": "_hash",
          "type": "string"
        },
        {
          "internalType": "string",
          "name": "_desc",
          "type": "string"
        },
        {
          "internalType": "string",
          "name": "_title",
          "type": "string"
        },
        {
          "internalType": "string",
          "name": "_link",
          "type": "string"
        }
      ],
      "name": "makePost",
      "outputs": [],
      "payable": false,
      "stateMutability": "nonpayable",
      "type": "function"
    },
    {
      "constant": false,
      "inputs": [
        {
          "internalType": "uint256",
          "name": "_postID",
          "type": "uint256"
        }
      ],
      "name": "deletePost",
      "outputs": [],
      "payable": false,
      "stateMutability": "nonpayable",
      "type": "function"
    },
    {
      "constant": false,
      "inputs": [
        {
          "internalType": "uint256",
          "name": "_postID",
          "type": "uint256"
        },
        {
          "internalType": "string",
          "name": "_comment",
          "type": "string"
        }
      ],
      "name": "comment",
      "outputs": [],
      "payable": false,
      "stateMutability": "nonpayable",
      "type": "function"
    },
    {
      "constant": false,
      "inputs": [
        {
          "internalType": "uint256",
          "name": "_commentID",
          "type": "uint256"
        }
      ],
      "name": "tipComment",
      "outputs": [],
      "payable": true,
      "stateMutability": "payable",
      "type": "function"
    },
    {
      "constant": false,
      "inputs": [
        {
          "internalType": "uint256",
          "name": "_commentID",
          "type": "uint256"
        }
      ],
      "name": "deleteComment",
      "outputs": [],
      "payable": false,
      "stateMutability": "nonpayable",
      "type": "function"
    },
    {
      "constant": false,
      "inputs": [
        {
          "internalType": "string",
          "name": "_type",
          "type": "string"
        },
        {
          "internalType": "string",
          "name": "_value",
          "type": "string"
        }
      ],
      "name": "updateUser",
      "outputs": [],
      "payable": false,
      "stateMutability": "nonpayable",
      "type": "function"
    }
  ],
  "bytecode": "0x60806040526040518060600160405280603e815260200162004711603e913960009080519060200190620000359291906200008b565b506040518060c00160405280608181526020016200474f6081913960019080519060200190620000679291906200008b565b506000600255600060035560006004553480156200008457600080fd5b506200013a565b828054600181600116156101000203166002900490600052602060002090601f016020900481019282601f10620000ce57805160ff1916838001178555620000ff565b82800160010185558215620000ff579182015b82811115620000fe578251825591602001919060010190620000e1565b5b5090506200010e919062000112565b5090565b6200013791905b808211156200013357600081600090555060010162000119565b5090565b90565b6145c7806200014a6000396000f3fe6080604052600436106101145760003560e01c806345ff20de116100a05780638ebb4c15116100645780638ebb4c1514610ad0578063a87430ba14610bd3578063ae30160d14610ef3578063b858f42714611180578063dd4a2425146111d357610114565b806345ff20de1461097e5780634802a76c146109a957806374d3c1f8146109d75780637d0b102614610a05578063872db88914610a4057610114565b80630b1e7f83116100e75780630b1e7f831461023357806317906c2e146104735780631805c5231461049e5780633578d5d31461057057806345b7ba12146105c357610114565b8063026ff05e1461012657806306fdde031461013d57806307973ccf146101cd578063094cd5ee146101f8575b34801561012057600080fd5b50600080fd5b34801561013257600080fd5b5061013b611332565b005b34801561014957600080fd5b506101526114bd565b6040518080602001828103825283818151815260200191508051906020019080838360005b83811015610192578082015181840152602081019050610177565b50505050905090810190601f1680156101bf5780820380516001836020036101000a031916815260200191505b509250505060405180910390f35b3480156101d957600080fd5b506101e261155b565b6040518082815260200191505060405180910390f35b34801561020457600080fd5b506102316004803603602081101561021b57600080fd5b8101908080359060200190929190505050611561565b005b34801561023f57600080fd5b5061026c6004803603602081101561025657600080fd5b8101908080359060200190929190505050611af7565b6040518089815260200180602001806020018873ffffffffffffffffffffffffffffffffffffffff1673ffffffffffffffffffffffffffffffffffffffff168152602001878152602001806020018060200186815260200185810385528c818151815260200191508051906020019080838360005b838110156102fc5780820151818401526020810190506102e1565b50505050905090810190601f1680156103295780820380516001836020036101000a031916815260200191505b5085810384528b818151815260200191508051906020019080838360005b83811015610362578082015181840152602081019050610347565b50505050905090810190601f16801561038f5780820380516001836020036101000a031916815260200191505b50858103835288818151815260200191508051906020019080838360005b838110156103c85780820151818401526020810190506103ad565b50505050905090810190601f1680156103f55780820380516001836020036101000a031916815260200191505b50858103825287818151815260200191508051906020019080838360005b8381101561042e578082015181840152602081019050610413565b50505050905090810190601f16801561045b5780820380516001836020036101000a031916815260200191505b509c5050505050505050505050505060405180910390f35b34801561047f57600080fd5b50610488611dbf565b6040518082815260200191505060405180910390f35b3480156104aa57600080fd5b5061056e600480360360408110156104c157600080fd5b8101908080359060200190929190803590602001906401000000008111156104e857600080fd5b8201836020820111156104fa57600080fd5b8035906020019184600183028401116401000000008311171561051c57600080fd5b91908080601f016020809104026020016040519081016040528093929190818152602001838380828437600081840152601f19601f820116905080830192505050505050509192919290505050611dc5565b005b34801561057c57600080fd5b506105a96004803603602081101561059357600080fd5b8101908080359060200190929190505050612003565b604051808215151515815260200191505060405180910390f35b3480156105cf57600080fd5b5061097c600480360360c08110156105e657600080fd5b810190808035906020019064010000000081111561060357600080fd5b82018360208201111561061557600080fd5b8035906020019184600183028401116401000000008311171561063757600080fd5b91908080601f016020809104026020016040519081016040528093929190818152602001838380828437600081840152601f19601f8201169050808301925050505050505091929192908035906020019064010000000081111561069a57600080fd5b8201836020820111156106ac57600080fd5b803590602001918460018302840111640100000000831117156106ce57600080fd5b91908080601f016020809104026020016040519081016040528093929190818152602001838380828437600081840152601f19601f8201169050808301925050505050505091929192908035906020019064010000000081111561073157600080fd5b82018360208201111561074357600080fd5b8035906020019184600183028401116401000000008311171561076557600080fd5b91908080601f016020809104026020016040519081016040528093929190818152602001838380828437600081840152601f19601f820116905080830192505050505050509192919290803590602001906401000000008111156107c857600080fd5b8201836020820111156107da57600080fd5b803590602001918460018302840111640100000000831117156107fc57600080fd5b91908080601f016020809104026020016040519081016040528093929190818152602001838380828437600081840152601f19601f8201169050808301925050505050505091929192908035906020019064010000000081111561085f57600080fd5b82018360208201111561087157600080fd5b8035906020019184600183028401116401000000008311171561089357600080fd5b91908080601f016020809104026020016040519081016040528093929190818152602001838380828437600081840152601f19601f820116905080830192505050505050509192919290803590602001906401000000008111156108f657600080fd5b82018360208201111561090857600080fd5b8035906020019184600183028401116401000000008311171561092a57600080fd5b91908080601f016020809104026020016040519081016040528093929190818152602001838380828437600081840152601f19601f820116905080830192505050505050509192919290505050612023565b005b34801561098a57600080fd5b50610993612547565b6040518082815260200191505060405180910390f35b6109d5600480360360208110156109bf57600080fd5b810190808035906020019092919050505061254d565b005b610a03600480360360208110156109ed57600080fd5b81019080803590602001909291905050506128ea565b005b348015610a1157600080fd5b50610a3e60048036036020811015610a2857600080fd5b81019080803590602001909291905050506128ed565b005b348015610a4c57600080fd5b50610a55612bcd565b6040518080602001828103825283818151815260200191508051906020019080838360005b83811015610a95578082015181840152602081019050610a7a565b50505050905090810190601f168015610ac25780820380516001836020036101000a031916815260200191505b509250505060405180910390f35b348015610adc57600080fd5b50610b0960048036036020811015610af357600080fd5b8101908080359060200190929190505050612c6b565b60405180878152602001868152602001806020018573ffffffffffffffffffffffffffffffffffffffff1673ffffffffffffffffffffffffffffffffffffffff168152602001848152602001838152602001828103825286818151815260200191508051906020019080838360005b83811015610b93578082015181840152602081019050610b78565b50505050905090810190601f168015610bc05780820380516001836020036101000a031916815260200191505b5097505050505050505060405180910390f35b348015610bdf57600080fd5b50610c2260048036036020811015610bf657600080fd5b81019080803573ffffffffffffffffffffffffffffffffffffffff169060200190929190505050612d5f565b604051808973ffffffffffffffffffffffffffffffffffffffff1673ffffffffffffffffffffffffffffffffffffffff16815260200180602001806020018060200180602001806020018060200188815260200187810387528e818151815260200191508051906020019080838360005b83811015610cae578082015181840152602081019050610c93565b50505050905090810190601f168015610cdb5780820380516001836020036101000a031916815260200191505b5087810386528d818151815260200191508051906020019080838360005b83811015610d14578082015181840152602081019050610cf9565b50505050905090810190601f168015610d415780820380516001836020036101000a031916815260200191505b5087810385528c818151815260200191508051906020019080838360005b83811015610d7a578082015181840152602081019050610d5f565b50505050905090810190601f168015610da75780820380516001836020036101000a031916815260200191505b5087810384528b818151815260200191508051906020019080838360005b83811015610de0578082015181840152602081019050610dc5565b50505050905090810190601f168015610e0d5780820380516001836020036101000a031916815260200191505b5087810383528a818151815260200191508051906020019080838360005b83811015610e46578082015181840152602081019050610e2b565b50505050905090810190601f168015610e735780820380516001836020036101000a031916815260200191505b50878103825289818151815260200191508051906020019080838360005b83811015610eac578082015181840152602081019050610e91565b50505050905090810190601f168015610ed95780820380516001836020036101000a031916815260200191505b509e50505050505050505050505050505060405180910390f35b348015610eff57600080fd5b5061117e60048036036080811015610f1657600080fd5b8101908080359060200190640100000000811115610f3357600080fd5b820183602082011115610f4557600080fd5b80359060200191846001830284011164010000000083111715610f6757600080fd5b91908080601f016020809104026020016040519081016040528093929190818152602001838380828437600081840152601f19601f82011690508083019250505050505050919291929080359060200190640100000000811115610fca57600080fd5b820183602082011115610fdc57600080fd5b80359060200191846001830284011164010000000083111715610ffe57600080fd5b91908080601f016020809104026020016040519081016040528093929190818152602001838380828437600081840152601f19601f8201169050808301925050505050505091929192908035906020019064010000000081111561106157600080fd5b82018360208201111561107357600080fd5b8035906020019184600183028401116401000000008311171561109557600080fd5b91908080601f016020809104026020016040519081016040528093929190818152602001838380828437600081840152601f19601f820116905080830192505050505050509192919290803590602001906401000000008111156110f857600080fd5b82018360208201111561110a57600080fd5b8035906020019184600183028401116401000000008311171561112c57600080fd5b91908080601f016020809104026020016040519081016040528093929190818152602001838380828437600081840152601f19601f820116905080830192505050505050509192919290505050613157565b005b34801561118c57600080fd5b506111b9600480360360208110156111a357600080fd5b8101908080359060200190929190505050613532565b604051808215151515815260200191505060405180910390f35b3480156111df57600080fd5b50611330600480360360408110156111f657600080fd5b810190808035906020019064010000000081111561121357600080fd5b82018360208201111561122557600080fd5b8035906020019184600183028401116401000000008311171561124757600080fd5b91908080601f016020809104026020016040519081016040528093929190818152602001838380828437600081840152601f19601f820116905080830192505050505050509192919290803590602001906401000000008111156112aa57600080fd5b8201836020820111156112bc57600080fd5b803590602001918460018302840111640100000000831117156112de57600080fd5b91908080601f016020809104026020016040519081016040528093929190818152602001838380828437600081840152601f19601f820116905080830192505050505050509192919290505050613552565b005b600073ffffffffffffffffffffffffffffffffffffffff163373ffffffffffffffffffffffffffffffffffffffff16141561136c57600080fd5b60026000815480929190600190039190505550600560003373ffffffffffffffffffffffffffffffffffffffff1673ffffffffffffffffffffffffffffffffffffffff168152602001908152602001600020600080820160006101000a81549073ffffffffffffffffffffffffffffffffffffffff02191690556001820160006113f691906143a3565b60028201600061140691906143a3565b60038201600061141691906143a3565b60048201600061142691906143a3565b60058201600061143691906143a3565b60068201600061144691906143a3565b600782016000905550507fde5d01a9e3db449330a6770ec433f2fd5839fab3ed1f1cfc1ed992bdfa7e6f3c3342604051808373ffffffffffffffffffffffffffffffffffffffff1673ffffffffffffffffffffffffffffffffffffffff1681526020018281526020019250505060405180910390a1565b60008054600181600116156101000203166002900480601f0160208091040260200160405190810160405280929190818152602001828054600181600116156101000203166002900480156115535780601f1061152857610100808354040283529160200191611553565b820191906000526020600020905b81548152906001019060200180831161153657829003601f168201915b505050505081565b60025481565b600073ffffffffffffffffffffffffffffffffffffffff163373ffffffffffffffffffffffffffffffffffffffff16141561159b57600080fd5b6000811180156115ad57506003548111155b6115b657600080fd5b6008600082815260200190815260200160002060009054906101000a900460ff16156115e157600080fd5b6115e96143eb565b600660008381526020019081526020016000206040518061010001604052908160008201548152602001600182018054600181600116156101000203166002900480601f0160208091040260200160405190810160405280929190818152602001828054600181600116156101000203166002900480156116ab5780601f10611680576101008083540402835291602001916116ab565b820191906000526020600020905b81548152906001019060200180831161168e57829003601f168201915b50505050508152602001600282018054600181600116156101000203166002900480601f01602080910402602001604051908101604052809291908181526020018280546001816001161561010002031660029004801561174d5780601f106117225761010080835404028352916020019161174d565b820191906000526020600020905b81548152906001019060200180831161173057829003601f168201915b505050505081526020016003820160009054906101000a900473ffffffffffffffffffffffffffffffffffffffff1673ffffffffffffffffffffffffffffffffffffffff1673ffffffffffffffffffffffffffffffffffffffff16815260200160048201548152602001600582018054600181600116156101000203166002900480601f01602080910402602001604051908101604052809291908181526020018280546001816001161561010002031660029004801561184f5780601f106118245761010080835404028352916020019161184f565b820191906000526020600020905b81548152906001019060200180831161183257829003601f168201915b50505050508152602001600682018054600181600116156101000203166002900480601f0160208091040260200160405190810160405280929190818152602001828054600181600116156101000203166002900480156118f15780601f106118c6576101008083540402835291602001916118f1565b820191906000526020600020905b8154815290600101906020018083116118d457829003601f168201915b5050505050815260200160078201548152505090506000816060015190506060826040015190508173ffffffffffffffffffffffffffffffffffffffff163373ffffffffffffffffffffffffffffffffffffffff161461195057600080fd5b6006600085815260200190815260200160002060008082016000905560018201600061197c91906143a3565b60028201600061198c91906143a3565b6003820160006101000a81549073ffffffffffffffffffffffffffffffffffffffff021916905560048201600090556005820160006119cb91906143a3565b6006820160006119db91906143a3565b6007820160009055505060016008600086815260200190815260200160002060006101000a81548160ff0219169083151502179055507fa764a5f5b34a24de53ce3a4e9557d306a70eaedbc520722c12385a80d46b0d358482844260405180858152602001806020018473ffffffffffffffffffffffffffffffffffffffff1673ffffffffffffffffffffffffffffffffffffffff168152602001838152602001828103825285818151815260200191508051906020019080838360005b83811015611ab4578082015181840152602081019050611a99565b50505050905090810190601f168015611ae15780820380516001836020036101000a031916815260200191505b509550505050505060405180910390a150505050565b6006602052806000526040600020600091509050806000015490806001018054600181600116156101000203166002900480601f016020809104026020016040519081016040528092919081815260200182805460018160011615610100020316600290048015611ba95780601f10611b7e57610100808354040283529160200191611ba9565b820191906000526020600020905b815481529060010190602001808311611b8c57829003601f168201915b505050505090806002018054600181600116156101000203166002900480601f016020809104026020016040519081016040528092919081815260200182805460018160011615610100020316600290048015611c475780601f10611c1c57610100808354040283529160200191611c47565b820191906000526020600020905b815481529060010190602001808311611c2a57829003601f168201915b5050505050908060030160009054906101000a900473ffffffffffffffffffffffffffffffffffffffff1690806004015490806005018054600181600116156101000203166002900480601f016020809104026020016040519081016040528092919081815260200182805460018160011615610100020316600290048015611d115780601f10611ce657610100808354040283529160200191611d11565b820191906000526020600020905b815481529060010190602001808311611cf457829003601f168201915b505050505090806006018054600181600116156101000203166002900480601f016020809104026020016040519081016040528092919081815260200182805460018160011615610100020316600290048015611daf5780601f10611d8457610100808354040283529160200191611daf565b820191906000526020600020905b815481529060010190602001808311611d9257829003601f168201915b5050505050908060070154905088565b60035481565b6000815111611dd357600080fd5b600082118015611de557506003548211155b611dee57600080fd5b6008600083815260200190815260200160002060009054906101000a900460ff1615611e1957600080fd5b6004600081548092919060010191905055506040518060c0016040528060045481526020018381526020018281526020013373ffffffffffffffffffffffffffffffffffffffff168152602001600081526020014281525060076000600454815260200190815260200160002060008201518160000155602082015181600101556040820151816002019080519060200190611eb6929190614446565b5060608201518160030160006101000a81548173ffffffffffffffffffffffffffffffffffffffff021916908373ffffffffffffffffffffffffffffffffffffffff1602179055506080820151816004015560a082015181600501559050507f8d17c5eae06e04f4a2486e4d625ea8b9c564609be880bf5681c124e9f2396ed46004548383334260405180868152602001858152602001806020018473ffffffffffffffffffffffffffffffffffffffff1673ffffffffffffffffffffffffffffffffffffffff168152602001838152602001828103825285818151815260200191508051906020019080838360005b83811015611fc1578082015181840152602081019050611fa6565b50505050905090810190601f168015611fee5780820380516001836020036101000a031916815260200191505b50965050505050505060405180910390a15050565b60086020528060005260406000206000915054906101000a900460ff1681565b600073ffffffffffffffffffffffffffffffffffffffff163373ffffffffffffffffffffffffffffffffffffffff16141561205d57600080fd5b600086511161206b57600080fd5b600085511161207957600080fd5b600084511161208757600080fd5b600082511161209557600080fd5b60008151116120a357600080fd5b6002600081548092919060010191905055506040518061010001604052803373ffffffffffffffffffffffffffffffffffffffff16815260200187815260200186815260200185815260200184815260200183815260200182815260200142815250600560003373ffffffffffffffffffffffffffffffffffffffff1673ffffffffffffffffffffffffffffffffffffffff16815260200190815260200160002060008201518160000160006101000a81548173ffffffffffffffffffffffffffffffffffffffff021916908373ffffffffffffffffffffffffffffffffffffffff16021790555060208201518160010190805190602001906121a7929190614446565b5060408201518160020190805190602001906121c4929190614446565b5060608201518160030190805190602001906121e1929190614446565b5060808201518160040190805190602001906121fe929190614446565b5060a082015181600501908051906020019061221b929190614446565b5060c0820151816006019080519060200190612238929190614446565b5060e082015181600701559050507f11ef8a13807d950ba4014fc14b37d6416df3b812b0ffbd2d4c4b73a239bcf5b23387878787878742604051808973ffffffffffffffffffffffffffffffffffffffff1673ffffffffffffffffffffffffffffffffffffffff16815260200180602001806020018060200180602001806020018060200188815260200187810387528e818151815260200191508051906020019080838360005b838110156122fb5780820151818401526020810190506122e0565b50505050905090810190601f1680156123285780820380516001836020036101000a031916815260200191505b5087810386528d818151815260200191508051906020019080838360005b83811015612361578082015181840152602081019050612346565b50505050905090810190601f16801561238e5780820380516001836020036101000a031916815260200191505b5087810385528c818151815260200191508051906020019080838360005b838110156123c75780820151818401526020810190506123ac565b50505050905090810190601f1680156123f45780820380516001836020036101000a031916815260200191505b5087810384528b818151815260200191508051906020019080838360005b8381101561242d578082015181840152602081019050612412565b50505050905090810190601f16801561245a5780820380516001836020036101000a031916815260200191505b5087810383528a818151815260200191508051906020019080838360005b83811015612493578082015181840152602081019050612478565b50505050905090810190601f1680156124c05780820380516001836020036101000a031916815260200191505b50878103825289818151815260200191508051906020019080838360005b838110156124f95780820151818401526020810190506124de565b50505050905090810190601f1680156125265780820380516001836020036101000a031916815260200191505b509e50505050505050505050505050505060405180910390a1505050505050565b60045481565b60008111801561255f57506004548111155b61256857600080fd5b6009600082815260200190815260200160002060009054906101000a900460ff161561259357600080fd5b61259b6144c6565b600760008381526020019081526020016000206040518060c00160405290816000820154815260200160018201548152602001600282018054600181600116156101000203166002900480601f0160208091040260200160405190810160405280929190818152602001828054600181600116156101000203166002900480156126665780601f1061263b57610100808354040283529160200191612666565b820191906000526020600020905b81548152906001019060200180831161264957829003601f168201915b505050505081526020016003820160009054906101000a900473ffffffffffffffffffffffffffffffffffffffff1673ffffffffffffffffffffffffffffffffffffffff1673ffffffffffffffffffffffffffffffffffffffff1681526020016004820154815260200160058201548152505090506000816060015190506000826020015190506060836040015190508273ffffffffffffffffffffffffffffffffffffffff166108fc349081150290604051600060405180830381858888f1935050505015801561273c573d6000803e3d6000fd5b5034846080015101846080018181525050836007600087815260200190815260200160002060008201518160000155602082015181600101556040820151816002019080519060200190612791929190614446565b5060608201518160030160006101000a81548173ffffffffffffffffffffffffffffffffffffffff021916908373ffffffffffffffffffffffffffffffffffffffff1602179055506080820151816004015560a082015181600501559050507f06d58664ca2a76b994d6f23859136f61aeddcbd4fb6691d8b8ca6990922e2b0d60045483833360004260405180878152602001868152602001806020018573ffffffffffffffffffffffffffffffffffffffff1673ffffffffffffffffffffffffffffffffffffffff168152602001848152602001838152602001828103825286818151815260200191508051906020019080838360005b838110156128a4578082015181840152602081019050612889565b50505050905090810190601f1680156128d15780820380516001836020036101000a031916815260200191505b5097505050505050505060405180910390a15050505050565b50565b6000811180156128ff57506004548111155b61290857600080fd5b6009600082815260200190815260200160002060009054906101000a900460ff161561293357600080fd5b61293b6144c6565b600760008381526020019081526020016000206040518060c00160405290816000820154815260200160018201548152602001600282018054600181600116156101000203166002900480601f016020809104026020016040519081016040528092919081815260200182805460018160011615610100020316600290048015612a065780601f106129db57610100808354040283529160200191612a06565b820191906000526020600020905b8154815290600101906020018083116129e957829003601f168201915b505050505081526020016003820160009054906101000a900473ffffffffffffffffffffffffffffffffffffffff1673ffffffffffffffffffffffffffffffffffffffff1673ffffffffffffffffffffffffffffffffffffffff1681526020016004820154815260200160058201548152505090506000816060015190508073ffffffffffffffffffffffffffffffffffffffff163373ffffffffffffffffffffffffffffffffffffffff1614612abc57600080fd5b600760008481526020019081526020016000206000808201600090556001820160009055600282016000612af091906143a3565b6003820160006101000a81549073ffffffffffffffffffffffffffffffffffffffff021916905560048201600090556005820160009055505060016009600085815260200190815260200160002060006101000a81548160ff0219169083151502179055507f4cb7b38ebf27d7cdc68fa07e7f2108ac9c50a3620fed6f332bf1f5918c70669c838242604051808481526020018373ffffffffffffffffffffffffffffffffffffffff1673ffffffffffffffffffffffffffffffffffffffff168152602001828152602001935050505060405180910390a1505050565b60018054600181600116156101000203166002900480601f016020809104026020016040519081016040528092919081815260200182805460018160011615610100020316600290048015612c635780601f10612c3857610100808354040283529160200191612c63565b820191906000526020600020905b815481529060010190602001808311612c4657829003601f168201915b505050505081565b6007602052806000526040600020600091509050806000015490806001015490806002018054600181600116156101000203166002900480601f016020809104026020016040519081016040528092919081815260200182805460018160011615610100020316600290048015612d235780601f10612cf857610100808354040283529160200191612d23565b820191906000526020600020905b815481529060010190602001808311612d0657829003601f168201915b5050505050908060030160009054906101000a900473ffffffffffffffffffffffffffffffffffffffff16908060040154908060050154905086565b60056020528060005260406000206000915090508060000160009054906101000a900473ffffffffffffffffffffffffffffffffffffffff1690806001018054600181600116156101000203166002900480601f016020809104026020016040519081016040528092919081815260200182805460018160011615610100020316600290048015612e315780601f10612e0657610100808354040283529160200191612e31565b820191906000526020600020905b815481529060010190602001808311612e1457829003601f168201915b505050505090806002018054600181600116156101000203166002900480601f016020809104026020016040519081016040528092919081815260200182805460018160011615610100020316600290048015612ecf5780601f10612ea457610100808354040283529160200191612ecf565b820191906000526020600020905b815481529060010190602001808311612eb257829003601f168201915b505050505090806003018054600181600116156101000203166002900480601f016020809104026020016040519081016040528092919081815260200182805460018160011615610100020316600290048015612f6d5780601f10612f4257610100808354040283529160200191612f6d565b820191906000526020600020905b815481529060010190602001808311612f5057829003601f168201915b505050505090806004018054600181600116156101000203166002900480601f01602080910402602001604051908101604052809291908181526020018280546001816001161561010002031660029004801561300b5780601f10612fe05761010080835404028352916020019161300b565b820191906000526020600020905b815481529060010190602001808311612fee57829003601f168201915b505050505090806005018054600181600116156101000203166002900480601f0160208091040260200160405190810160405280929190818152602001828054600181600116156101000203166002900480156130a95780601f1061307e576101008083540402835291602001916130a9565b820191906000526020600020905b81548152906001019060200180831161308c57829003601f168201915b505050505090806006018054600181600116156101000203166002900480601f0160208091040260200160405190810160405280929190818152602001828054600181600116156101000203166002900480156131475780601f1061311c57610100808354040283529160200191613147565b820191906000526020600020905b81548152906001019060200180831161312a57829003601f168201915b5050505050908060070154905088565b600082511161316557600080fd5b600081511161317357600080fd5b600073ffffffffffffffffffffffffffffffffffffffff163373ffffffffffffffffffffffffffffffffffffffff1614156131ad57600080fd5b60036000815480929190600101919050555060405180610100016040528060035481526020018581526020018381526020013373ffffffffffffffffffffffffffffffffffffffff168152602001600081526020018281526020018481526020014281525060066000600354815260200190815260200160002060008201518160000155602082015181600101908051906020019061324d929190614446565b50604082015181600201908051906020019061326a929190614446565b5060608201518160030160006101000a81548173ffffffffffffffffffffffffffffffffffffffff021916908373ffffffffffffffffffffffffffffffffffffffff1602179055506080820151816004015560a08201518160050190805190602001906132d8929190614446565b5060c08201518160060190805190602001906132f5929190614446565b5060e082015181600701559050507fc80bf66a5f507d9818db835a8b2956cfea2ba95e0f7437f2762f89c170c4d3936003548584338588426040518088815260200180602001806020018773ffffffffffffffffffffffffffffffffffffffff1673ffffffffffffffffffffffffffffffffffffffff168152602001806020018060200186815260200185810385528b818151815260200191508051906020019080838360005b838110156133b757808201518184015260208101905061339c565b50505050905090810190601f1680156133e45780820380516001836020036101000a031916815260200191505b5085810384528a818151815260200191508051906020019080838360005b8381101561341d578082015181840152602081019050613402565b50505050905090810190601f16801561344a5780820380516001836020036101000a031916815260200191505b50858103835288818151815260200191508051906020019080838360005b83811015613483578082015181840152602081019050613468565b50505050905090810190601f1680156134b05780820380516001836020036101000a031916815260200191505b50858103825287818151815260200191508051906020019080838360005b838110156134e95780820151818401526020810190506134ce565b50505050905090810190601f1680156135165780820380516001836020036101000a031916815260200191505b509b50505050505050505050505060405180910390a150505050565b60096020528060005260406000206000915054906101000a900460ff1681565b600073ffffffffffffffffffffffffffffffffffffffff163373ffffffffffffffffffffffffffffffffffffffff16141561358c57600080fd5b613594614512565b600560003373ffffffffffffffffffffffffffffffffffffffff1673ffffffffffffffffffffffffffffffffffffffff168152602001908152602001600020604051806101000160405290816000820160009054906101000a900473ffffffffffffffffffffffffffffffffffffffff1673ffffffffffffffffffffffffffffffffffffffff1673ffffffffffffffffffffffffffffffffffffffff168152602001600182018054600181600116156101000203166002900480601f0160208091040260200160405190810160405280929190818152602001828054600181600116156101000203166002900480156136ce5780601f106136a3576101008083540402835291602001916136ce565b820191906000526020600020905b8154815290600101906020018083116136b157829003601f168201915b50505050508152602001600282018054600181600116156101000203166002900480601f0160208091040260200160405190810160405280929190818152602001828054600181600116156101000203166002900480156137705780601f1061374557610100808354040283529160200191613770565b820191906000526020600020905b81548152906001019060200180831161375357829003601f168201915b50505050508152602001600382018054600181600116156101000203166002900480601f0160208091040260200160405190810160405280929190818152602001828054600181600116156101000203166002900480156138125780601f106137e757610100808354040283529160200191613812565b820191906000526020600020905b8154815290600101906020018083116137f557829003601f168201915b50505050508152602001600482018054600181600116156101000203166002900480601f0160208091040260200160405190810160405280929190818152602001828054600181600116156101000203166002900480156138b45780601f10613889576101008083540402835291602001916138b4565b820191906000526020600020905b81548152906001019060200180831161389757829003601f168201915b50505050508152602001600582018054600181600116156101000203166002900480601f0160208091040260200160405190810160405280929190818152602001828054600181600116156101000203166002900480156139565780601f1061392b57610100808354040283529160200191613956565b820191906000526020600020905b81548152906001019060200180831161393957829003601f168201915b50505050508152602001600682018054600181600116156101000203166002900480601f0160208091040260200160405190810160405280929190818152602001828054600181600116156101000203166002900480156139f85780601f106139cd576101008083540402835291602001916139f8565b820191906000526020600020905b8154815290600101906020018083116139db57829003601f168201915b5050505050815260200160078201548152505090503373ffffffffffffffffffffffffffffffffffffffff16816000015173ffffffffffffffffffffffffffffffffffffffff1614613a4957600080fd5b6040518060400160405280600881526020017f757365724e616d650000000000000000000000000000000000000000000000008152508051906020012083805190602001201415613be45781816020018190525080600560003373ffffffffffffffffffffffffffffffffffffffff1673ffffffffffffffffffffffffffffffffffffffff16815260200190815260200160002060008201518160000160006101000a81548173ffffffffffffffffffffffffffffffffffffffff021916908373ffffffffffffffffffffffffffffffffffffffff1602179055506020820151816001019080519060200190613b40929190614446565b506040820151816002019080519060200190613b5d929190614446565b506060820151816003019080519060200190613b7a929190614446565b506080820151816004019080519060200190613b97929190614446565b5060a0820151816005019080519060200190613bb4929190614446565b5060c0820151816006019080519060200190613bd1929190614446565b5060e08201518160070155905050614259565b6040518060400160405280600881526020017f6c6f636174696f6e0000000000000000000000000000000000000000000000008152508051906020012083805190602001201415613d7f5781816060018190525080600560003373ffffffffffffffffffffffffffffffffffffffff1673ffffffffffffffffffffffffffffffffffffffff16815260200190815260200160002060008201518160000160006101000a81548173ffffffffffffffffffffffffffffffffffffffff021916908373ffffffffffffffffffffffffffffffffffffffff1602179055506020820151816001019080519060200190613cdb929190614446565b506040820151816002019080519060200190613cf8929190614446565b506060820151816003019080519060200190613d15929190614446565b506080820151816004019080519060200190613d32929190614446565b5060a0820151816005019080519060200190613d4f929190614446565b5060c0820151816006019080519060200190613d6c929190614446565b5060e08201518160070155905050614258565b6040518060400160405280600581526020017f70686f6e650000000000000000000000000000000000000000000000000000008152508051906020012083805190602001201415613f1a5781816080018190525080600560003373ffffffffffffffffffffffffffffffffffffffff1673ffffffffffffffffffffffffffffffffffffffff16815260200190815260200160002060008201518160000160006101000a81548173ffffffffffffffffffffffffffffffffffffffff021916908373ffffffffffffffffffffffffffffffffffffffff1602179055506020820151816001019080519060200190613e76929190614446565b506040820151816002019080519060200190613e93929190614446565b506060820151816003019080519060200190613eb0929190614446565b506080820151816004019080519060200190613ecd929190614446565b5060a0820151816005019080519060200190613eea929190614446565b5060c0820151816006019080519060200190613f07929190614446565b5060e08201518160070155905050614257565b6040518060400160405280600581526020017f656d61696c00000000000000000000000000000000000000000000000000000081525080519060200120838051906020012014156140b557818160a0018190525080600560003373ffffffffffffffffffffffffffffffffffffffff1673ffffffffffffffffffffffffffffffffffffffff16815260200190815260200160002060008201518160000160006101000a81548173ffffffffffffffffffffffffffffffffffffffff021916908373ffffffffffffffffffffffffffffffffffffffff1602179055506020820151816001019080519060200190614011929190614446565b50604082015181600201908051906020019061402e929190614446565b50606082015181600301908051906020019061404b929190614446565b506080820151816004019080519060200190614068929190614446565b5060a0820151816005019080519060200190614085929190614446565b5060c08201518160060190805190602001906140a2929190614446565b5060e08201518160070155905050614256565b6040518060400160405280600a81526020017f6f636375706174696f6e00000000000000000000000000000000000000000000815250805190602001208380519060200120141561425057818160c0018190525080600560003373ffffffffffffffffffffffffffffffffffffffff1673ffffffffffffffffffffffffffffffffffffffff16815260200190815260200160002060008201518160000160006101000a81548173ffffffffffffffffffffffffffffffffffffffff021916908373ffffffffffffffffffffffffffffffffffffffff16021790555060208201518160010190805190602001906141ac929190614446565b5060408201518160020190805190602001906141c9929190614446565b5060608201518160030190805190602001906141e6929190614446565b506080820151816004019080519060200190614203929190614446565b5060a0820151816005019080519060200190614220929190614446565b5060c082015181600601908051906020019061423d929190614446565b5060e08201518160070155905050614255565b600080fd5b5b5b5b5b7f20a3c0ccd71749b736891b28a035d7f5e1d6b4161c56414f468d0f1c0f42c42c33848442604051808573ffffffffffffffffffffffffffffffffffffffff1673ffffffffffffffffffffffffffffffffffffffff1681526020018060200180602001848152602001838103835286818151815260200191508051906020019080838360005b838110156142fa5780820151818401526020810190506142df565b50505050905090810190601f1680156143275780820380516001836020036101000a031916815260200191505b50838103825285818151815260200191508051906020019080838360005b83811015614360578082015181840152602081019050614345565b50505050905090810190601f16801561438d5780820380516001836020036101000a031916815260200191505b50965050505050505060405180910390a1505050565b50805460018160011615610100020316600290046000825580601f106143c957506143e8565b601f0160209004906000526020600020908101906143e7919061456d565b5b50565b604051806101000160405280600081526020016060815260200160608152602001600073ffffffffffffffffffffffffffffffffffffffff168152602001600081526020016060815260200160608152602001600081525090565b828054600181600116156101000203166002900490600052602060002090601f016020900481019282601f1061448757805160ff19168380011785556144b5565b828001600101855582156144b5579182015b828111156144b4578251825591602001919060010190614499565b5b5090506144c2919061456d565b5090565b6040518060c00160405280600081526020016000815260200160608152602001600073ffffffffffffffffffffffffffffffffffffffff16815260200160008152602001600081525090565b604051806101000160405280600073ffffffffffffffffffffffffffffffffffffffff168152602001606081526020016060815260200160608152602001606081526020016060815260200160608152602001600081525090565b61458f91905b8082111561458b576000816000905550600101614573565b5090565b9056fea265627a7a72315820ec226311d274d59d8797b9083ec7db55be58893d418e923ca6c1c51ef002ccb164736f6c6343000510003243727970746f4772616d202d20646563656e7472616c697a656420696d6167652073686172696e6720736f6369616c206d6564696120706c6174666f726d76657273696f6e2032206f6620746865206f726967696e616c2044534d202d20646563656e7472616c697a656420736f6369616c206d656469612c206d616e79206e65772066656174757265732c20616e64206163636f756e747320617265207469656420746f20746865207573657227732077616c6c65742061646472657373",
  "source": "// SPDX-License-Identifier: LICENSE\npragma solidity >=0.5.0;\n\n//pragma experimental ABIEncoderV2;\n\n//use ganache-cli --allowUnlimitedContractSize  --gasLimit 0xFFFFFFFFFFFF\n\ncontract CryptoGram {\n    string public name =\n        \"CryptoGram - decentralized image sharing social media platform\";\n    string public contractDescription =\n        \"version 2 of the original DSM - decentralized social media, many new features, and accounts are tied to the user's wallet address\";\n\n    uint256 public userCount = 0;\n    uint256 public postCount = 0;\n    uint256 public commentCount = 0;\n    mapping(address => User) public users;\n    mapping(uint256 => Post) public posts;\n    mapping(uint256 => Comment) public comments;\n\n    //keep track of deleted objects\n    mapping(uint256 => bool) public deletedPosts;\n    mapping(uint256 => bool) public deletedComments;\n\n    struct Post {\n        uint256 id;\n        string imageHash;\n        string title;\n        address payable author;\n        uint256 tipAmount;\n        string link;\n        string status;\n        uint256 timeStamp;\n    }\n\n    struct Comment {\n        uint256 id;\n        uint256 postID;\n        string comment;\n        address payable author;\n        uint256 tipAmount;\n        uint256 timeStamp;\n    }\n\n    struct User {\n        address userAccount; //wallet address\n        string userName;\n        string status;\n        string location;\n        string phone;\n        string email;\n        string occupation;\n        uint256 timeStamp;\n    }\n    /******************EVENTS*************************/\n    event UserAdded(\n        address userAccount, //wallet address\n        string userName,\n        string status,\n        string location,\n        string phone,\n        string email,\n        string occupation,\n        uint256 timeStamp\n    );\n    event UserDeleted(address userAccount, uint256 timeStamp);\n\n    event UserUpdated(\n        address userAccount,\n        string valueChanged,\n        string newValue,\n        uint256 timeStamp\n    );\n\n    event PostTipped(\n        uint256 id,\n        string title,\n        address author,\n        uint256 tipAmount,\n        uint256 timeStamp\n    );\n\n    event PostAdded(\n        uint256 id,\n        string imageHash,\n        string title,\n        address author,\n        string link,\n        string status,\n        uint256 timeStamp\n    );\n\n    event PostDeleted(uint256 id, string title, address author, uint256 timeStamp);\n\n    event CommentAdded(\n        uint256 id,\n        uint256 postID,\n        string comment,\n        address author,\n        uint256 timeStamp\n    );\n    event CommentTipped(\n        uint256 id,\n        uint256 postID,\n        string comment,\n        address author,\n        uint256 tipAmount,\n        uint256 timeStamp\n    );\n    event CommentDeleted(uint256 id, address author, uint256 timeStamp);\n\n    /******************FUNCTIONS*************************/\n\n    //Fallback: reverts if Ether is sent to this contract unintentionally\n    function() external {\n        revert();\n    }\n\n    function tipPost(uint256 _id) public payable {}\n\n    function addUser(\n        string memory _userName,\n        string memory _status,\n        string memory _location,\n        string memory _phone,\n        string memory _email,\n        string memory _occupation\n    ) public {\n        //require user address to exist\n        require(msg.sender != address(0x0));\n\n        //require all fields to be populated\n        require(bytes(_userName).length > 0);\n        require(bytes(_status).length > 0);\n        require(bytes(_location).length > 0);\n        require(bytes(_email).length > 0);\n        require(bytes(_occupation).length > 0);\n\n        //increment count of users\n        userCount++;\n\n        //add user to mapping\n        users[msg.sender] = User(\n            msg.sender,\n            _userName,\n            _status,\n            _location,\n            _phone,\n            _email,\n            _occupation,\n            now\n        );\n\n        //emit event\n        emit UserAdded(\n            msg.sender,\n            _userName,\n            _status,\n            _location,\n            _phone,\n            _email,\n            _occupation,\n            now\n        );\n    }\n\n    function deleteUser() public {\n        //require user address to exist\n        require(msg.sender != address(0x0));\n\n        //decrement user count - keep a total of active users on the contract\n        userCount--;\n\n        //delete from mapping\n        delete (users[msg.sender]);\n\n        //emit event\n        emit UserDeleted(msg.sender, now);\n    }\n\n    //hash should be 0 if no image is present\n    function makePost(\n        string memory _hash,\n        string memory _desc,\n        string memory _title,\n        string memory _link\n    ) public {\n        require(bytes(_title).length > 0);\n        require(bytes(_link).length > 0);\n        require(msg.sender != address(0x0));\n\n        postCount++;\n\n        posts[postCount] = Post(\n            postCount,\n            _hash,\n            _title,\n            msg.sender,\n            0,\n            _link,\n            _desc,\n            now\n        );\n        emit PostAdded(\n            postCount,\n            _hash,\n            _title,\n            msg.sender,\n            _link,\n            _desc,\n            now\n        );\n    }\n\n    function deletePost(uint256 _postID) public {\n        //require user address to exist\n        require(msg.sender != address(0x0));\n\n        //require valid post ID\n        require(_postID > 0 && _postID <= postCount);\n        require(!deletedPosts[_postID]);\n\n        //get post, title, and author\n        Post memory _post = posts[_postID];\n        address _author = _post.author;\n        string memory _title = _post.title;\n        //check if image author matches message sender - only delete your own comments\n        require(msg.sender == _author);\n\n\n        delete (posts[_postID]);\n        deletedPosts[_postID] = true;\n\n        //emit event\n        emit PostDeleted(_postID, _title, _author, now);\n\n\n    }\n\n    function comment(uint256 _postID, string memory _comment) public {\n        require(bytes(_comment).length > 0);\n        require(_postID > 0 && _postID <= postCount);\n        require(!deletedPosts[_postID]);\n\n        commentCount++;\n        comments[commentCount] = Comment(\n            commentCount,\n            _postID,\n            _comment,\n            msg.sender,\n            0,\n            now\n        );\n\n        //emit event\n        emit CommentAdded(commentCount, _postID, _comment, msg.sender, now);\n    }\n\n    function tipComment(uint256 _commentID) public payable {\n        //require valid ID\n        require(_commentID > 0 && _commentID <= commentCount);\n        require(!deletedComments[_commentID]);\n\n        //get comment\n        Comment memory _comment = comments[_commentID];\n\n        //get comment data\n        address payable _author = _comment.author;\n        uint256 _postID = _comment.postID;\n        string memory _commentString = _comment.comment;\n\n        //send to author\n        address(_author).transfer(msg.value);\n\n        //update tip amount and put back into mapping\n        _comment.tipAmount = _comment.tipAmount + msg.value;\n        comments[_commentID] = _comment;\n\n        //emit event\n        emit CommentTipped(\n            commentCount,\n            _postID,\n            _commentString,\n            msg.sender,\n            0,\n            now\n        );\n    }\n\n    function deleteComment(uint256 _commentID) public {\n        //require valid ID\n        require(_commentID > 0 && _commentID <= commentCount);\n        require(!deletedComments[_commentID]);\n\n        Comment memory _comment = comments[_commentID];\n\n        address _author = _comment.author;\n\n        //check if image author matches message sender - only delete your own comments\n        require(msg.sender == _author);\n\n        delete (comments[_commentID]);\n        deletedComments[_commentID] = true;\n\n        //emit event\n        emit CommentDeleted(_commentID, _author, now);\n    }\n\n    function updateUser(string memory _type, string memory _value) public {\n        //require user address to exist\n        require(msg.sender != address(0x0));\n\n        //get user\n        User memory _user = users[msg.sender];\n\n        //user can only modify their own account\n        require(_user.userAccount == msg.sender);\n\n        //compare type to appropriate user attribute\n        if (keccak256(bytes(_type)) == keccak256(bytes(\"userName\"))) {\n            //update value and put back into mapping\n            _user.userName = _value;\n            users[msg.sender] = _user;\n        } else if (keccak256(bytes(_type)) == keccak256(bytes(\"location\"))) {\n            _user.location = _value;\n            users[msg.sender] = _user;\n        } else if (keccak256(bytes(_type)) == keccak256(bytes(\"phone\"))) {\n            _user.phone = _value;\n            users[msg.sender] = _user;\n        } else if (keccak256(bytes(_type)) == keccak256(bytes(\"email\"))) {\n            _user.email = _value;\n            users[msg.sender] = _user;\n        } else if (keccak256(bytes(_type)) == keccak256(bytes(\"occupation\"))) {\n            _user.occupation = _value;\n            users[msg.sender] = _user;\n        } else {\n            revert();\n        }\n        emit UserUpdated(msg.sender, _type, _value, now);\n    }\n}\n",
  "sourcePath": "/mnt/c/pr0/cryptogram/src/contracts/CryptoGram.sol",
  "compiler": {
    "name": "solc",
    "version": "0.5.16+commit.9c3226ce.Emscripten.clang"
  },
  "schemaVersion": "3.3.3",
  "updatedAt": "2021-05-11T19:33:14.034Z",
  "devdoc": {
    "methods": {}
  },
  "userdoc": {
    "methods": {}
  }
}